:020000040000FA
:1000000018230020490200005102000015020000E0
:1000100055020000570200005902000000000000D5
:100020000000000000000000000000005B02000073
:100030005D020000000000005F020000610200009D
:10004000D506000063020000850D0000AD09000028
:10005000B9090000630200003503000065080000D4
:10006000210D0000350D0000490D000021080000A1
:1000700063020000D1070000630200006302000079
:10008000A10D000031080000150700002903000041
:10009000D1090000D5090000E5090000F5090000BC
:1000A000050A0000150A00005D0D0000710D00003A
:1000B000E5060000ED050000000000000000000063
:1000C00063020000F506000005070000C5090000F6
:1000D00055080000D1040000630200000000000089
:1000E0000000000000000000000000000000000010
:1000F0000000000000000000000000000000000000
:1001000000000000000000000000000000000000EF
:1001100000000000000000000000000000000000DF
:1001200000000000000000000000000000000000CF
:1001300000000000000000000000000000000000BF
:1001400000000000000000000000000000000000AF
:10015000000000000000000000000000000000009F
:10016000000000000000000000000000000000008F
:10017000000000000000000000000000000000007F
:10018000000000000000000000000000000000006F
:10019000000000000000000000000000000000005F
:1001A000000000000000000000000000000000004F
:1001B000000000000000000000000000000000003F
:1001C000000000000000000000000000000000002F
:1001D000000000000000000000000000000000001F
:1001E000000000000000000000000000000000000F
:1001F00000000000000000000000000000000000FF
:10020000DFF80CD000F07EF8004800476D180000C1
:1002100018230020094B1EF0040F1CBFEFF30980C8
:100220001847EFF308800649064A884201D89042F1
:1002300002D88D464FF0000018470000A9040000C6
:10024000182300201803002006488047064800476E
:10025000FEE7FEE7FEE7FEE7FEE7FEE7FEE7FEE776
:10026000FEE7FEE7250A0000010200000048704793
:10027000DC31000010B5431A934209D28318881864
:1002800003E010F8011D03F8011D521EF9D210BD44
:1002900040EA01039B0703D009E008C9121F08C008
:1002A000042AFAD203E011F8013B00F8013B521E88
:1002B000F9D210BDD2B201E000F8012B491EFBD2E9
:1002C00070470022F6E710B513460A460446194661
:1002D000FFF7F0FF204610BD421C10F8011B00295B
:1002E000FBD1801A704710B5002200E0521C835CDD
:1002F0008C5CA34201D1002BF8D1D8B2E1B2401AF4
:1003000010BD0000064C074D06E0E06840F0010318
:1003100094E8070098471034AC42F6D3FFF774FF17
:10032000603300008033000001480068004700008F
:100330001C0000202DE9F04700268CB0DFF860910A
:10034000B0464FF48075012437460696284602F0E1
:1003500041FA38B1D9F80403204203D0284602F00C
:100360002FFA26432D1D64007F1CADB2082FEDD35C
:100370004FF4BE74204602F02DFA48B1204602F038
:100380001FFA46F0004606AA0121002002F004FAF6
:10039000444D16F0FF0F15D00127002437420DD031
:1003A00009EB8401D1F81005D1F81015C0F3042031
:1003B00055F82420C1F3014102B190477F00641C2D
:1003C000082CEBD3002E67DA4FF0FF30CDE9088020
:1003D00000263446281910F8507F90F9000027F0C5
:1003E000C008401C44D009A9404601F0CAFA58B3DD
:1003F0004FEA9719404600F07BFD55F820701FB179
:10040000B9F1030F03D00FE0B9F1030F30D108A801
:100410004FEAD80208F00703815C4FF0010C0CFA98
:1004200003FC41EA0C0181544FF0A04101EB88002C
:10043000D0F8000706A9C0F3014A404601F0A1FA2E
:1004400018B1BAF1020F03D012E0BAF1030F0FD1C5
:10045000B9F1030F08D1BAF1020F1BD002214046B7
:1004600002F088F9761CF6B217B149464046B84703
:10047000641C042CAED3002E0ED06A46012100204D
:1004800002F08AF906990098884205D006900898EB
:1004900009909DE70321E2E70CB0BDE8F08700007A
:1004A000006000409400002000F000F8BFF34F8F80
:1004B00005480168054A01F4E06111430160BFF39A
:1004C0004F8F00BFFDE700000CED00E00400FA05CF
:1004D0002DE9F041324F00254FF48A782E464146EF
:1004E000384602F07FF92F4CA0B14146384602F061
:1004F0007EF9E06870B1D7F84015814203D1E188F8
:1005000000EB810600E00646C7F84065607940F0E0
:10051000040060714FF482784146384602F062F977
:10052000B8B14146384602F062F9A06888B1D7F800
:100530003815814202D1E18800EB8100C7F8380507
:10054000617941F0020161710A0701D5CA0711D032
:1005500005466079C10711D0810709D5410707D544
:1005600020F006006071010710D520F008006071CE
:10057000BDE8F08121F008006071EAE755EA060065
:10058000F6D0E28831462846236805E0D7F84015C2
:10059000D7F83805E2882368BDE8F0411847000025
:1005A00000500240EC00002000F01F0201219140A9
:1005B0004009800000F1E020C0F88012704700F090
:1005C0001F02012191404009800000F1E020C0F8A5
:1005D0000011704700F01F02012191404009800086
:1005E00000F1E020C0F8001270470000FEB54FF4A3
:1005F0008077384602F008F90126344C002578B39C
:10060000384602F009F9A17C26EA010004EB8002D9
:1006100052682AB9627C022A02D0E07C90B11AE0CA
:100620008DF80850E574627C022A08D004EB810141
:100630004A6801924D60A0748DF8006008E0019551
:100640006674F9E78DF8086001958DF80050E6743E
:10065000216868468847607C022829D1667427E0B3
:10066000FFE74FF48277384602F0CEF800B3384601
:1006700002F0D2F81648056065748DF808508DF8C0
:100680000050A07C04EB8000416821B101914560DD
:10069000216868468847A17C26EA010004EB8001B6
:1006A000486820B101904D60216868468847A5746C
:1006B000607D002808D001958DF808508DF8006005
:1006C0006575216868468847FEBD0000FC00002073
:1006D00000D5014010B501F0F5FCBDE8104001F077
:1006E0001FBE00000149024800F0D5BF14010020E0
:1006F00000C001400149024800F0CDBF1C010020AC
:10070000001002400149024800F0C5BF240100204A
:10071000002002402DE9F8432A48DFF8A4804FF476
:1007200080720168284E002589B1D8F8041311F0B1
:10073000010F0CD0056000680090244862F30F049C
:100740000068726860F317443946204690471D4898
:100750004FF48271001D0268BAB1D8F8042312F078
:10076000020F12D0056000680090184861F30F0472
:100770000C30006860F31F4414483C300068726815
:1007800060F30F073946204690470E484FF48472B5
:10079000083041460368002B10D0D1F8041311F043
:1007A000040F0BD0056000680090204662F30F0034
:1007B000726801B03946BDE8F0431047BDE8F883E0
:1007C0000020014000210140300000200C250140A4
:1007D0001CB510480E4903680022002B16D0D1F832
:1007E000081311F0010F11D00260006801900A484F
:1007F00000688DF800006946084802F042F8074892
:1008000002F029F8002801D001F0B4FD1CBD000061
:1008100000D0004000D1004008D500401430000056
:1008200003220021014801F0AFBD000000B00040EC
:1008300007480021C0F84011C0F84411C0F8481121
:10084000C0F84C11C0F80011C0F8041102F0D4B97E
:100850000010014004220121014801F095BD000073
:10086000004002402DE9FE434FF48278404602F0FA
:100870006DF84C4F00254C4C012600B3404602F069
:100880006DF894F82E0010B194F82F10D1B18DF8B6
:100890000050616801912189ADF80810E26832B119
:1008A000218B618362602181E56010B102E02574D3
:1008B00000E03E6021686846884784F82F5094F82D
:1008C0002E0060B34FF48077384602F03FF830B323
:1008D000384602F043F8628B94F82D108A420AD908
:1008E000A2EB010080B260832289A2EB0000626863
:1008F00002EB400005E007D1E06828B184F82F60E2
:10090000658302F01BF804E08A4202D184F82F606C
:100910006583404602F022F82248001D06604FF42D
:100920008877384602F012F848B1384602F016F8D7
:10093000257402208DF800002168684688474FF42E
:100940008A77384602F002F828B1384602F006F8F5
:100950002574BDE8FE834FF000484FF48C79676939
:100960001DE000BFB7FA87F028FA00F109EB800517
:100970008F43284601F0EAFF88B1284601F0EEFFD8
:10098000A5F58C75E8088DF8040045F38000401C3F
:100990008DF800608DF80500216868468847002FB3
:1009A000E0D1D6E7007000405C01002001480068FB
:1009B00000470000040000200148006800470000D4
:1009C0000C000020014800680047000014000020CF
:1009D00002F084B802480188012001F025BD000022
:1009E000A001002002484188022001F01DBD000046
:1009F000A001002002488188032001F015BD0000FD
:100A0000A00100200248C188042001F00DBD0000B3
:100A1000A001002002480189052001F005BD000069
:100A2000A0010020F0B5AE480023021D0178012589
:100A3000101D4FF0805406290BD11678360708D1C7
:100A40000678C6F30316032E06D0042E04D0052E16
:100A500002D0062907D00EE0B4F82463A14FC6F3F4
:100A600004263E6002E01678360704D10678C6F305
:100A70000316032E02D0062904D00FE09B4F9A4E96
:100A80007E670EE01678360708D10678C6F303169F
:100A9000032E06D0042E04D0052E02D0062907D03E
:100AA0000EE0D4F84462924FC6F342363E6002E054
:100AB0001678360704D10678C6F30316032E02D043
:100AC000062906D011E08B4E376827F08077376013
:100AD0000EE01678360708D10678C6F30316032E03
:100AE00006D0042E04D0052E02D006290AD011E02B
:100AF0004FF08046C6F80C31C6F810317C4E361FD8
:100B0000336002E01678360704D10678C6F3031680
:100B1000032E02D0062905D00CE0754F032664375A
:100B20003E600AE01678360704D10678C6F303164D
:100B3000032E02D006290DD014E06F4F05263E602B
:100B40006D4E783635606C4E083633603F263F1D5B
:100B50003E6002E01678360704D10678C6F3031625
:100B6000052E02D0062957D062E0644E3668644FE5
:100B70003E60624E361D36683F1D3E605F4E083651
:100B800036683F1D3E605D4E0C3636683F1D3E6048
:100B90005A4E103636683F1D3E60584E1436366841
:100BA0003F1D3E60554E18363668554F20373E6023
:100BB000524E1C3636683F1D3E60504E2036366819
:100BC0003F1D3E604D4E243636683F1D3E604B4E05
:100BD000283636683F1D3E60484E2C3636683F1D2D
:100BE0003E60464E30363668454F40373E60434E95
:100BF000343636683F1D3E60404E383636683F1DFD
:100C00003E603E4E3C3636683F1D3E603B4E4036B1
:100C100036683F1D3E6002E01678360708D1067838
:100C2000C6F30316032E06D0042E04D0052E02D0E0
:100C3000062907D019E0D4F85812324A01F04F01C2
:100C4000116002E0117809070FD10078C0F303109A
:100C5000032803D0042801D0052806D12A480168BA
:100C6000C90702D06FF001010160224874380168A1
:100C700041F470010160BFF34F8FBFF36F8F4FF0EE
:100C80001021D1F80002002803DBD1F8040200286B
:100C900022DA1E4A15601E480468002CFCD0152478
:100CA000C1F800420568002DFCD0C1F8044201687B
:100CB0000029FCD0136001680029FCD0BFF34F8FDE
:100CC0000C48F0380168134A01F4E06111430160F7
:100CD000BFF34F8F00BFFDE710490F480860F0BD1C
:100CE000E00F00F0403501400DF0ADBA00C0074004
:100CF0003C050040FCED00E01056004004040010EC
:100D000020C50040E40E00400004004004E501401E
:100D100000E401400400FA050090D0036C000020BC
:100D200004220249024800F004BD0000AC0100208A
:100D30000080004004220249024800F0FABC000092
:100D4000B80100200090004004220249024800F04F
:100D5000F0BC0000C401002000A0004006220249AF
:100D6000024800F0E6BC0000D001002000A00140D5
:100D700006220249024800F0DCBC0000DC01002031
:100D800000B001400448017F04480029024901D015
:100D900002F019B801F088BFE801002000200040EF
:100DA000094882B0D0F804034FF0000110F0010FA1
:100DB00007D006480160006800900548406802B00E
:100DC000004702B0704700000000014000010140F0
:100DD0004800002002E008C8121F08C1002AFAD10A
:100DE00070477047002001E001C1121F002AFBD1AB
:100DF0007047000009480068C00700D000BEBFF37C
:100E00004F8F0648E4380168054A01F4E061114358
:100E10000160BFF34F8F00BFFDE70000F0ED00E081
:100E20000400FA050EB500210091CDE901106A46D3
:100E300044F20100FFF7DEFF0EBD00F003B800F042
:100E400009B8000072B602480168491C0160704789
:100E50006800002003490868401E086000D162B69F
:100E6000704700006800002030B482680468531C9A
:100E70008360A154D0E901128A4202D330BC01F050
:100E80006EBB30BC704700F0F7BC000005494FF066
:100E9000FF32082841F8202002D3084480F8482077
:100EA0007047000094000020F0B54FF0FF3512B1FC
:100EB0000023082601E008230C260C4C05E000BFA7
:100EC00054F823707F1C04D05B1CB342F8D328462F
:100ED000F0BD26185DB286F8305044F82310002A81
:100EE000F5D1E11881F84800F1E7000094000020F6
:100EF0000249084490F93000704700009400002037
:100F00002DE9F041044680680F4690F83911C27C03
:100F100011F00106817CA1EB0203DDB20AD07F292A
:100F200001D3002D7ED0A068C17C08440021077544
:100F300066B113E07F297CD2002DF4D0831803F131
:100F400014012A46481CFFF795F9ECE7A068827C5B
:100F5000521CD2B28274A068143281544DB3204620
:100F600000F0E7FC8178C07881420ED1A06832A2FF
:100F7000C17C431808212046143300F095FEA81BBD
:100F8000C1B2204600F09AF921E0204600F06CF84A
:100F9000A06829A2C17C431808212046143300F020
:100FA00083FE204600F056F80121204600F030FA7A
:100FB0000DE03EB1A068827C521CD2B28274A0685F
:100FC000143281543A461DA1206901F0BBFAA16890
:100FD000C87C401CC874204600F05CF900282046FC
:100FE00003D0BDE8F04100F075B900F0C2FA002866
:100FF0001FD0204600F09DFC0546C078A978401A15
:10100000401EC1B2204600F039F9204600F062F9D6
:10101000E878A978401AC1B2204600F005FA28788D
:10102000401E00E005E0C1B22046BDE8F04100F0FE
:10103000EFB9BDE8F08100002573000025630000D2
:101040000069024A02A101F07DBA000034300000BC
:10105000257300000069024A024901F073BA0000DA
:101060002B300000501000000069024A024901F0D4
:1010700069BA0000283000005010000030B4406809
:1010800004682469A44630BC6047002801D0FFF7FB
:1010900023B970472DE9F8431E4615468846074692
:1010A000002418E0786808EB04016B460268D2F867
:1010B0000CC02A46E047009804442D1A58B9B86875
:1010C0000178042907D000BF90F838110029FBD01F
:1010D000002180F83811002DE4D1002E01D00098B5
:1010E0003060BDE8F883000070B5084C050009D0F9
:1010F00010342168002907D0086820604968284614
:101100008847F6E70834F4E770BD0000800000204F
:101110002DE9F05F1C460A9E15464FF0000959B1B3
:1011200080B3017839B34268314628469047306829
:10113000D8B12660BDE8F09F14491548A1EB00081E
:10114000B5EBD80F11D2DFF84CA00026834609E09A
:101150000BEBC607786801685AF82500FFF7C3F85B
:1011600030B1761CB6EBD80FF2D3C4F80090E1E7AB
:1011700078682060DEE7406800EB0210016809B182
:101180001860D7E7FFE7C3F80090D3E7A03300006B
:1011900080330000700000202DE9F05F2648416890
:1011A000F1B3DFF898B00E688146DBF8004087683D
:1011B0008078E11B21F07F45ED1CB0B9DFF880801D
:1011C0004FF48030C8F84403C8F804031120FFF737
:1011D000EBF91120FFF7F3F94FF0010AC8F800A06E
:1011E0002F2000F0E3FE89F802A0B54200D2354678
:1011F000124BE8193C3320F07F401860DBF80010F8
:101200005A46091B21F07F41001B20F07F40C91C7A
:1012100081420FD9106818602F2000F0C7FE00E04F
:1012200004E0BDE8F05F1120FFF7D4B9BDE8F05F3E
:1012300001F0DEBBBDE8F09F540000200415014022
:101240000010014038B501F061F808B901F030F83C
:101250000848094A69460068009003208DF801009B
:101260000D2000F0C9FF044601210D2000F072FF9F
:10127000204638BDF82F0000870E0000002904D05A
:101280000A46006901A101F05DB970471B5B256446
:101290004200000010B504460068FFF7F6FE014664
:1012A000A068C27C407B1144B1FBF0F200FB12103D
:1012B00008B1002010BD012010BD0000002904D09D
:1012C0000A46006901A101F03DB970471B5B256426
:1012D000440000000069024A024901F033B90000ED
:1012E0002E300000501000002DE9FC5F002604465F
:1012F0008DF8046080683546B046B1468021943050
:10130000FEF7DFFF4149206901F01CF9206901F077
:1013100026F9002740F2E73B4FF47A7A6B46012228
:1013200001A92046FFF7AAFE0098D8B19DF8040055
:101330001B2806D0A16891F894101B29EED15228E1
:101340001CD0A26808F19401505408F1010000F08B
:10135000FF08B8F1090F08D9A168042081F894901A
:10136000BDE8FC9F584600F067FE00980028D5D1E4
:101370007F1CBFB25745D1D30D20F1E7A16808F11A
:1013800094004A4601F80090A16891F895005B2806
:1013900003D081F894200B20E2E702206FF02F07A2
:1013A0000AE000BF05EB850507EB4505401C2B4413
:1013B000C0B29DB2802808D200F19403CB5C3B2BD5
:1013C000F0D1401CC0B2802809D30C20C8E700BF70
:1013D00006EB860607EB460633449EB2F1E700F1C2
:1013E0009403CB5C002BF3D1FA20FA2E01D90872BA
:1013F00000E00E72FA2D02D9A168887201E0A0689F
:101400008572A06880F894200020A9E74C30000085
:10141000002904D00A46006901A101F093B8704781
:101420001B5B256443000000002904D00A460069C4
:1014300001A101F087B870471B5B256441000000E3
:101440000E4910B50A784C780023A24212D0521CE3
:10145000D2B20A70022A00D10B70084A0B780C3203
:1014600052F8232002608868104420F07F40886092
:10147000012010BD0360002010BD000054000020BA
:101480002DE9F05F17460E00814670D013B1F9B216
:10149000FFF7BEFF0024FEF7E9FE8246006800E089
:1014A000641C315D415CC907FAD100253046FFF765
:1014B000ECFDD9F80810001B4A7BD11B814228D3D0
:1014C00006EB040805E000BF18F805100A290CD047
:1014D0006D1C8542F8D33119D9F8100001F032F8AB
:1014E0004846BDE8F05FFFF7F5BED9F8100001F0FF
:1014F00036F8414600232A464846FFF7CBFD2C44E8
:101500004846641CFFF7E6FEF9B24846FFF780FF45
:10151000E1E78B46DAF8001006EB040818F805003E
:101520000B5CDB0702D0AB460A2804D0E8199042D6
:1015300001D26D1CF2E7D9F8100001F010F8414615
:1015400000235A464846FFF7A5FD5C44DAF8000040
:1015500000E0641C315D415CC907FAD14846FFF7E1
:10156000B9FEF9B24846FFF753FF9EE7FFE7BDE833
:10157000F09F10B504460068FFF787FD0146A0689C
:10158000827C407B1144B1FBF0F200FB121008B1E9
:10159000002010BD012010BD3EB51249124AD1E90C
:1015A0000301CDE901010F4801A9001D00F082FFF0
:1015B000041E01D0FFF736FC0A48001D0068D0F871
:1015C00010150120094A03460090CA400548002131
:1015D000001D00F059FF0348001D00F047FF2046A2
:1015E0003EBD0000F82F0000772A000000B4C404BC
:1015F0002DE9FC5F0E008346DDE90C47C6F10000D3
:1016000098469246814600D40846012503E000BF73
:1016100090FBFAF06D1C5045FADAA84500D9454612
:1016200024B1002E01DB780700D5641EB80702D56F
:10163000B8F1000F0AD0F80708D13CB1A54205D295
:1016400020215846641EFFF70FFCF6E7002E02DA51
:101650004E462D2102E0780703D52B215846FFF78F
:1016600003FC07F0030002280BD1B8F1000F08D1EA
:101670003CB1A54205D230215846641EFFF7F4FB69
:10168000F6E7CDE90047434652463146584601F059
:1016900013FCBDE8FC9F70B50C464FF488760546F8
:1016A000314601F0CDF850B13146284601F0CDF871
:1016B0006079400703D5216809B1012088474FF4BC
:1016C0008A763146284601F0BBF850B131462846AB
:1016D00001F0BBF86079000703D5216809B1022049
:1016E00088474FF48E763146284601F0A9F850B16C
:1016F0003146284601F0A9F86079C00603D4216874
:1017000009B1002088474FF482763146284601F01F
:1017100097F800280CD03146284601F096F80120B1
:1017200020712168002903D0BDE8704003200847DC
:1017300070BD2DE9F84300251646884604462F461D
:1017400014E04FF4A07000EB85004FF48031225874
:10175000A9404AB1D4F804230A4205D027502158A1
:101760000091D8E9002190476D1CEDB2B542E8D355
:10177000BDE8F8832DE9F047394E002780463D4605
:10178000DFF8E090D6F804A057E003D00446D0F884
:101790001C8035E099F8002002EB4201521CD2B2C5
:1017A00089F8002009EBC10199F80230091D9A421D
:1017B00001D189F8005048680A780446012A12D0FD
:1017C000022A02D0032A3BD108E001F0E5F900B17A
:1017D0000127257434E00574C06900E070680028B2
:1017E000F9D170602CE0207C50BB88686060C868CC
:1017F000A0600869E0604869A061F07800B16560A8
:101800006268B168184B501A20F07F40984202D2AB
:10181000A168084406E0881AA16820F07F40814250
:1018200002D9081A206000E0256065600120A560EB
:1018300020742046E56101F091F9B8F10000A4D1CF
:1018400099F8001099F801008142A3D117B9716885
:10185000514502D00120BDE8F0870020FBE70000E1
:101860005400002008020020FFFF7F00FFF794FED5
:10187000FFF7E8FCFEE700000C490122C1F8002058
:10188000D1F800010028FBD00020C1F80001084871
:10189000036800689B0501D5064B1843C31700EB8E
:1018A0009370054B801018604A60704700C000407C
:1018B00008C5004000FCFFFF000000202DE9F047B4
:1018C000C7880446181D16468946B0FBF7F1B0FBE1
:1018D000F7F207FB12009A193A44D21CB2FBF7F256
:1018E000DDF820A001E02468491E0029FBD13D1A43
:1018F0008846B54216D818E0BAF1000F05D0211875
:1019000009EB08002A46091D04E0204409EB080100
:101910002A46001DFEF7AEFC00202468761BA84472
:10192000B74201D9354600E03D46002EE4D1BDE87E
:10193000F08770B58468006804F10805FFF7A5FB1F
:10194000C1B2A971E07C6A790844B0FBF2F302FBF2
:1019500013035B1C2B70E07C0844B0FBF2F35B1CB0
:10196000AB70A07C0844B0FBF2F35B1CEB70A07C76
:101970000844B0FBF2F102FB1101491C69702846D2
:1019800070BDC20800F007030120895C9840084040
:101990007047000010B50446022909D100F0F0FAA2
:1019A00030B120460022BDE81040114600F0A4B935
:1019B000064A07A1206900F0C5FD044A2069BDE878
:1019C0001040093202A100F0BDBD00004830000007
:1019D000257300007CB514460D460646012902D049
:1019E00000F0CEFA38B102B03046BDE870400022B7
:1019F000114600F081B9022D08D00A4800900AA2D1
:101A000002213046236800F04FF97CBD054861682B
:101A10001730CDE9000106A202213046236800F00C
:101A200043F97CBD5C30000025733A25730000004B
:101A300025733A257325730D0A000000F8B5144686
:101A40000E46054600F09CFA30B12846BDE8F84045
:101A50000022114600F050B9012E08D0084800902D
:101A600008A202212846236800F01EF9F8BDA868E4
:101A700090F8391121F0040180F83911F8BD000007
:101A80005C30000025733A2573000000F8B5144659
:101A90000E46054600F074FA30B12846BDE8F8401D
:101AA0000022114600F028B9012E08D00848009005
:101AB00008A202212846236800F0F6F8F8BDA868BD
:101AC00090F8391141F0040180F83911F8BD000097
:101AD0005C30000025733A25730000007FB5154681
:101AE0000E46044600F04CFA28B10022114620466A
:101AF00000F002F97FBD012E08D91948009019A203
:101B0000022120462B6800F0CFF87FBDA068002698
:101B1000D0F83051F5B101E0082E1BD20023092284
:101B200001A9284600F069FE9DF80C20A168092350
:101B300028469431521C00F060FEA0683346943071
:101B40000090029D761C09A20821204600F0ACF806
:101B5000002DE1D1A168002081F894007FBD000034
:101B60005C30000025733A25730000005B25336468
:101B70005D2025730D0A00007CB515460446022938
:101B800008D91C48009013681BA20221204600F0CF
:101B90008BF87CBD01290AD000F0F2F9E8B102B05F
:101BA0002046BDE870400022114600F0A5B8A168AB
:101BB00001F10C020D3100F060FF0028E9D0A168AE
:101BC00050200FA24873A1681820087302B0204665
:101BD000BDE87040042100F067B806486968173016
:101BE000CDE9000116A2022120462B6800F05CF826
:101BF0007CBD00005C30000025733A2573000000B6
:101C00006E6F20726573706F6E73652066726F6D94
:101C1000207465726D696E616C2C20617373756DD3
:101C200065642038307832342063686172732073C1
:101C3000637265656E2073697A650D0A00000000A5
:101C400025733A257325730D0A000000F8B5154673
:101C50000E46044600F094F930B12046BDE8F84045
:101C60000022114600F048B8012E08D00A48009022
:101C70000AA2022120462B6800F016F8F8BD064A99
:101C800008A1921F206900F05DFCA16850204873F4
:101C9000A16818200873F8BD5C30000025733A2550
:101CA00073000000257300000FB438B5044607A880
:101CB0000090A06890F83921520717D5C27B8A425C
:101CC00014D0B0F80F50204601F06EF96A46206932
:101CD000069900F050FCE9B2204601F065F9290AA6
:101CE000204601F043F938BC5DF814FB6A462069D0
:101CF000069900F040FCF6E72DE9F04F804689B0E8
:101D000016460C468948FFF7C0F9054687486B38E8
:101D1000FFF7BBF9281A1FFA80F9844884A25838C3
:101D20000090D8F808000821406803684046FFF793
:101D3000BBFFD8F8080040680068FFF7A6F9054621
:101D40007A485838FFF7A1F9284482B2D8F8080039
:101D50000023406841684046FFF792FB76A20821C5
:101D60004046FFF7A1FF16B30CB300251DE000BFEE
:101D700005EB450A04EB8A0BDBF80400FFF785F955
:101D8000074654F82A00FFF780F9391849450BD95E
:101D9000DBF80400FFF779F9074654F82A00FFF74B
:101DA00074F938441FFA80F96D1CB542E0D35F48DE
:101DB0006B38FFF76AF94844801C1FFA80F95B48CA
:101DC00000904B465FA208214046FFF76DFF09F1E6
:101DD000030087B2079000233A465CA14046FFF714
:101DE0004FFB002C52D000254EE000BF05EB450A0A
:101DF00004EB8A0B54F82A00DBF804306BB350B3C1
:101E00004A4957A26B39CDE9001008214046FFF737
:101E10004BFF09F102000090DBF80400FFF735F9F1
:101E2000074654F82A00FFF730F907443F486B385B
:101E3000FFF72BF939180098401A801EC1B24046AE
:101E4000FFF7E6FA3A224949D8F8100000F07AFB89
:101E50000098401C0AE0009301E040B100904B461E
:101E600038A208214046FFF71FFF079887B2DBF82A
:101E7000081029B100233A464046FFF701FB02E073
:101E80004046FFF727FA6D1CB542AFD3D8F80800DB
:101E900040688068002845D08146002004460646F8
:101EA00003AD02903246761C02AB012148460095F4
:101EB000FFF72EF9029850B10068FFF7E6F8A0424C
:101EC000F0D902980068FFF7E0F884B2EAE7012E43
:101ED00028D027A208214046FFF7E6FE00273A4611
:101EE0007F1C02AB012148460095FFF711F90298CB
:101EF000002817D0A11C8EB200680090334611A2B2
:101F000008214046FFF7D0FE0298F61CB2B24168A5
:101F100021B100234046FFF7B3FAE0E74046FFF760
:101F2000D9F9DCE709B0BDE8F08F00009C30000073
:101F300025732573000000004F7074696F6E733A4B
:101F40000D0A00002020252D2A733A0053686F7770
:101F500020636F6D6D616E642068656C702E00008B
:101F60002020257325732573000000003C1000001D
:101F7000537562636F6D6D616E64733A0D0A000094
:101F8000806890F83901C0F34000704700F180404C
:101F90000068002800D00120704708B500F180409B
:101FA000002101600068009008BD000000283ED0BC
:101FB0001F49204A096800BF00BF00BF00BF00BF23
:101FC00000BF00BF00BF91422FD000BF00BF00BFC5
:101FD00000BF00BF00BF00BF00BF00BF00BF00BF09
:101FE00000BF00BF00BF00BF00BF00BF00BF00BFF9
:101FF00000BF00BF00BF00BF00BF00BF00BF00BFE9
:1020000000BF00BF00BF00BF00BF00BF00BF00BFD8
:1020100000BF00BF00BF00BF00BF00BF00BF00BFC8
:1020200000BF00BF00BF00BF00BF0138C3D1704771
:102030006C0000200024F40000283ED01F49204AF4
:10204000096800BF00BF00BF00BF00BF00BF00BFE6
:1020500000BF91422FD000BF00BF00BF00BF00BF34
:1020600000BF00BF00BF00BF00BF00BF00BF00BF78
:1020700000BF00BF00BF00BF00BF00BF00BF00BF68
:1020800000BF00BF00BF00BF00BF00BF00BF00BF58
:1020900000BF00BF00BF00BF00BF00BF00BF00BF48
:1020A00000BF00BF00BF00BF00BF00BF00BF00BF38
:1020B00000BF00BF00BF0138C3D170476C000020D3
:1020C0000024F4002DE9F0414FF480773846FFF703
:1020D0005DFF0124104EA50748B13846FFF75DFFAC
:1020E0000120C5F8080374700020FEF7FDFF4FF4CF
:1020F00082773846FFF74AFF00280BD03846FFF7B3
:102100004CFF0220C5F80803B470BDE8F04101207F
:10211000FEF7EABFBDE8F081800000204907090E04
:10212000002806DA00F00F0202F1E02282F8141D06
:1021300003E000F1E02282F8001400F01F02012108
:1021400091404009800000F1E020C0F88012C0F802
:10215000001170472DE9F0418846054600F024FC47
:10216000234E002828461AD0FEF7C2FE304490F8CD
:1021700048008009032802D001280ED007E04FF064
:10218000A040D0F81005E84010F0010F05D0032161
:102190002846BDE8F04100F0EDBA0221F8E700F072
:1021A0000FFC002822D02846FEF7A2FE04464FF47A
:1021B000807000EB84000F4F81B207EB8400D0F8F1
:1021C000102542F00102C0F81025084600F0F8FA88
:1021D000B8F1000F0AD02846FEF78AFE56F8200014
:1021E000002803D00120A040C7F80403BDE8F08117
:1021F00094000020006000402DE9FC41DFF8A4803D
:10220000044608EB0400002790F930001346C0177D
:102210000E46401C01D0082741E0F27819462046BE
:10222000FEF742FE0546401C38D0B07850B14FF062
:10223000A04000EB8400D0F8001721F00201C0F8A4
:10224000001707E000217378204600910A460191AB
:1022500000F07EFAF078C0B11348317800EB8500C9
:10226000D0F81025114B1A40C0F810254FF4F85241
:102270004FF4403302EA042203EA01410A43D0F852
:1022800010150A43C0F8102509E008EB0500327864
:1022900010F8481F41EA8211017000E00427384617
:1022A000BDE8FC819400002000600040FFE0FCFFDE
:1022B00070B5144D95F8540008B1082070BD002089
:1022C000411E2A18401CC0B282F830102028F8D3D2
:1022D00000242046FEF7DAFD641CE4B20C2CF8D38F
:1022E00007210620FFF71AFF4FF4BE7000F068FACE
:1022F00005494FF00040C1F80403012085F854005F
:10230000002070BD9400002000600040034890F859
:102310005400002800D001207047000094000020E5
:1023200070B54FF08040D0F80443114D600706D5DA
:102330004FF4847000F07AFA08B168688047A0060C
:1023400007D54FF48A7000F071FA10B1A968002027
:10235000884760060AD54FF48C7000F067FA0028B1
:1023600004D0A968BDE870400120084770BD000096
:102370002400002003490120C1F80803091D08605A
:102380007047000000D000402DE9F0479146884694
:1023900004464FF480354FF4A0760027DFF884A080
:1023A00016E000BFD4F8040328420DD0A05958B15C
:1023B000C4F84853C4F808533146204600F0B7FA31
:1023C0005AF82810F8B28847361D6D00B6B27F1C47
:1023D0004F45E7D3D4F804034FF4807110F0010F98
:1023E00009D0D4F8000130B1204600F0A0FA5AF824
:1023F000281004208847D4F804034FF4827110F0A9
:10240000020F0CD0D4F80401002808D0204600F0B8
:102410008EFA5AF82810BDE8F04705200847BDE8B5
:10242000F087000040000020064A02EB400232F82C
:10243000023D8B431380034A143A02EB800252F8A8
:10244000042C1047A001002030B54FF480340568FB
:102450008C4013B1C5F8044301E0C5F80843006897
:1024600000EB8100C0F8402530BD0000016801226A
:102470000A600079034A00EB400002EB8000022171
:1024800001727047AC010020F0B40468049E40F271
:102490000115D4F800728D40AF43C4F8007204688F
:1024A000D4F800521D43C4F800523346F0BCFFF785
:1024B000CBBF0000F8B504460D460079204900EB7B
:1024C000400001EB8006307A08B10820F8BD3AB12F
:1024D000326068687060002003464FF4A07709E01E
:1024E0000720F8BD226807EB800153505158401C6B
:1024F000C0B2009161798142F4D82068E978000B7C
:1025000040B2FFF70BFE20686978D0F8042561F32C
:102510000102C0F804252068A978D0F8082561F3E5
:102520000102C0F8082520682978D0F8102561F349
:102530000302C0F81025012030720020F8BD000011
:10254000AC0100200FB408B50399002904D004AAF7
:1025500000926A4600F00FF801B05DF814FB10B568
:1025600082680446002A05D0D4E90403216898470C
:102570000020A06010BD2DE9FC4791460C0080466C
:1025800076D014F8011B39B125290ED04046FEF74C
:102590006BFC20780028F4D198F80C00002867D054
:1025A0004046BDE8FC47FFF7DABF00200122217852
:1025B0002B291BD02D2902D0302908D102E040F070
:1025C000010001E040F00200641C002AEFD1002568
:1025D0002A290ED02178A1F130020A2A11D205EB66
:1025E000850201EB4205641C303DF1E740F0040038
:1025F000EAE7D9F800100B1DC9F800300968641C1F
:102600000D44217800232E290BD114F8011FA1F1CC
:1026100030020A2A05D203EB830201EB4203303B6E
:10262000F3E76C290DD068290BD0692921D00BDC88
:10263000252918D0582931D063290ED0642915D105
:1026400017E014F8011FECE7702969D0732932D024
:1026500075291BD0782909D120E0D9F80000011D87
:10266000C9F8001001784046FEF7FEFB641C90E7B5
:102670006CE0D9F800100A1DC9F800200968CDE9FE
:1026800000500A224046FEF7B3FFEFE7D9F80010EA
:102690000A1DC9F8002009680A2206E0D9F80010CE
:1026A0000A1DC9F8002009681022CDE900504046F3
:1026B00000F002FCDAE7D9F8001000270A1DC9F87B
:1026C00000200E68C00705D112E04046761C7F1C32
:1026D000FEF7CAFB31780029F7D104E020214046FB
:1026E0006D1EFEF7C1FBBD42C0D9002DF6D1BDE77E
:1026F0004EB13046FDF7F0FD074604E0202140468C
:102700006D1EFEF7B1FBBD4206D9002DF6D103E0E8
:102710004046761CFEF7A8FB31780029F8D1A5E7E2
:10272000D9F80000011DC9F80010056830214046A5
:10273000FEF79AFB78214046FEF796FB0820002121
:10274000CDE90001034610222946B0E7BDE8FC8729
:1027500070B541EA4201DDE904564FF0A04441EA78
:10276000830141EA052104EB800041EA0641C0F8FB
:10277000001770BD4FF0A04202EB8000D0F8002798
:1027800022F44032C0F80027D0F8002742EA014185
:10279000C0F800177047000018B5084B6C4601449C
:1027A0001B68009306E000BF54F82030D3F81035C2
:1027B000401C08C28142F7D818BD00000C30000050
:1027C000034908B50844002101600068009008BD75
:1027D0000060004002494058012800D000207047A6
:1027E000006000404058002800D00120704708B524
:1027F000002242504058009008BD38B50124009492
:10280000FFF75CF838BD000002494058002800D0AE
:102810000120704700D00140034908B50844002258
:1028200002600068009008BD00D0014000F18041C6
:102830000868002210B101200A60704710467047F6
:102840004058002800D00120704708B500224250AF
:102850004058009008BD01680A684968806888424D
:1028600001D9491C00E00021914201D101207047AB
:10287000002070478068884201D9481C70470020BA
:1028800070472DE9F04104464FF000080E464046DF
:10289000FEF7D3FA2046FFF7DEFF070009D0207CC1
:1028A00038B14FF004080020FEF7C9FA4046BDE8F1
:1028B000F0812068456841682046FFF7DBFF21680A
:1028C000486037B1206801682046FFF7D3FF2168D0
:1028D0000860E268012A14D0022A16D0042A19D00E
:1028E000082A1CD06068314605FB0200FDF7C2FCD7
:1028F000204600F071F821688A688242D3D288604D
:10290000D1E7616830784855F2E76168308821F88E
:102910001500EDE76168306841F82500E8E7D6E981
:102920000001626802EBC502C2E90001E0E708B5F8
:10293000002242504058009008BD0000024A10603A
:10294000101D0160704700002C760040024940587D
:10295000002800D00120704700700040034908B5EE
:102960000844002202600068009008BD007000402A
:102970004058002800D00120704708B5002242507E
:102980004058009008BDD0F80403084000D0012052
:1029900070474058002800D00120704708B5002239
:1029A00042504058009008BD0449084490F9300056
:1029B000082801DB012070470020704794000020A8
:1029C0000449084490F93000082801D201207047DA
:1029D000002070479400002001680A68496891420D
:1029E00001D3881A70478068801A0844401C7047D9
:1029F00070B5012670044FF0E0210025C1F8800178
:102A0000084C4010C4F84803C4F8080366602F203F
:102A1000FFF7CCFAA660044C2F20A560FFF7C6FA9A
:102A2000A57070BD001001405400002070B505462F
:102A3000C87D0C4600284FF4847128460AD0FFF761
:102A40009CFFD5F81805627EE1688854607E401CC2
:102A5000607670BDFFF791FFD5F8180570BD1FB502
:102A600001238DF800308DF808100192D0E9001292
:102A7000684690471FBDFEF7FFBE2DE9F0411546A1
:102A80000E460446FEF730FC78B9A068FA21077AB2
:102A900090F80A802046FEF7BBFCFA212046FEF79C
:102AA000EDFB2046FEF720FC10B10620BDE8F081CA
:102AB000A068007A3070A068807A28703078C01BD7
:102AC000C1B22046FEF7FAFB2978A1EB0800C1B29B
:102AD0002046FEF7A9FC0020E8E700002DE9F84FAA
:102AE0001D4C00256846D4E901A6FEF7A9FC002785
:102AF00038B30023009A61681CE0D1F800C0084692
:102B0000944503D9ACEB02020A6015E0A2EB0C027B
:102B100063440760D0F80CC0C1698146BCF1000F66
:102B200008D006EB030828F07F48C0E9018CC9F8FB
:102B30001C5005460029E0D128466160FEF71AFEC8
:102B400003E02846FEF716FE10B15046FEF724FBC0
:102B5000E770BDE8F88F0000540000200D4B10B561
:102B6000596831B102680C68A24204D8A21A0A60FE
:102B7000C161586010BD0B4603E00B46C969121BCA
:102B800021B10C689442F8D3A41A0C600260C161B0
:102B9000D86110BD540000202DE9F041144E776833
:102BA0003D462C4603E0844204D02546E469002CCF
:102BB000F9D11BE0D4B1A5420BD1F869706040B9DE
:102BC0000C49012088600021B160F0702F20FFF7D0
:102BD000EDF92168E069E86110B102681144016013
:102BE0007068874202D00120BDE8F0810020FBE739
:102BF00054000020001001402DE9F041194D6C688F
:102C0000002C2CD0184800270068A968B846401A44
:102C100020F07F462068B0420CD82146361A07447F
:102C2000E469087C20B181F8108088694969884787
:102C3000002CEFD129786878814206D1401CC0B2BF
:102C40006870022801D185F80180064869780C3047
:102C500040F82170BDE8F0411420FDF7BBBCBDE891
:102C6000F0810000540000200415014070B50C46AE
:102C700005464FF48E71FFF780FEA18AA068415C83
:102C8000A08A401CA082C5F81C1570BD1FB500228B
:102C90008DF800208DF80810816801918275D0E9C7
:102CA0000012684690471FBD2DE9FF470C460546B8
:102CB0004FF40071FFF767FE01274FF401780026FB
:102CC00018B34FF4927949462846FFF751FEE0B118
:102CD00049462846FFF751FEC5F80883A07E00B993
:102CE0006F6002208DF80000D5F88004C5F88004DC
:102CF0000390E07D8DF80800E0680190E675267687
:102D0000D4E900126846904727E004212846FFF7DF
:102D10003AFE10B34FF484712846FFF729FEE0B164
:102D200021462846FFF782FEE07D617E884214D16D
:102D3000207E38B1617EE268E0752069E060267629
:102D4000667607E0A07E00B96F60C5F80883E67577
:102D5000617EE2682046FFF782FE4FF48E7841469E
:102D60002846FFF705FE88B1A08AA17D884204D2DB
:102D700021462846FFF77AFF08E041462846FFF73C
:102D8000FCFDA17D11B12046FFF780FF4FF4A27832
:102D900041462846FFF7ECFD002812D04146284660
:102DA000FFF7EBFDA07E00B12F60E07D002808D08A
:102DB000E675617EE26804B02046BDE8F047FFF7A3
:102DC0004EBEBDE8FF872DE9FF410C464FF49277D8
:102DD00005463946FFF7DDFD0026C0B139462846D5
:102DE000FFF7DCFD02208DF80000D5F88004C5F85F
:102DF00080040390D5F83C058DF80800E068019048
:102E0000E6752676D4E900126846904724E04FF430
:102E1000887739462846FFF7BCFDE8B13946284691
:102E2000FFF7BCFDD5F83C05C1B2E07D884213D167
:102E3000207E60B1E268D5F8000220F02000C5F8DD
:102E40000002207EE0752069E060267601E0E675EC
:102E5000E2682046FFF703FE4FF4A2773946284682
:102E6000FFF797FD68B139462846FFF797FDE07DEB
:102E700038B1E675D5F83C05E268C1B22046FFF7E7
:102E8000EEFD4FF4907631462846FFF782FD00288C
:102E90000FD031462846FFF781FDA07D002808D0DD
:102EA000D5F84C0504B0C1B22046BDE8F041FFF7AB
:102EB000EDBEBDE8FF8100002DE9F05F8346DDE94E
:102EC0000A4A994690460D460846012703E000BF8E
:102ED000B0FBF8F07F1C4045FAD2B94500D94F4607
:102EE0005FEACA7012D18CB15FEA8A7002D5B9F17B
:102EF000000F01D0202607E0302605E03146584675
:102F0000641EFDF7B1FF0CB1A742F7D35FF00106D5
:102F1000B9F1010F02D9A9F1010903E0B5FBF6F0FF
:102F2000404502D306FB08F6F2E7DFF83C9000BF0D
:102F3000B5FBF6F000FB165519F800105846FDF7E2
:102F400093FFB6FBF8F6002EF2D15FEACA7009D003
:102F5000002C07D0A74205D220215846641EFDF759
:102F600083FFF5E7BDE8F09F483100001CB500295C
:102F700013D08268127C8A420FD008A3D3E90023C1
:102F8000CDE9002301F12F028DF80320826811742E
:102F900000696A4603A1FFF7D5FA1CBD1B5B34002C
:102FA0006D000000257300001CB5826899B1D27BCA
:102FB0008A420FD00CA2D2E90032CDE9003201F1F1
:102FC0002F028DF805208268D17300696A4608A136
:102FD000FFF7B8FA1CBDD173006902B0054ABDE81D
:102FE000104003A1FFF7AEBA1B5B313B33006D000D
:102FF000257300003830000002000001008000400E
:103000000004000000000007000000000000005065
:1030100000070000500100202C01002020000000CB
:1030200001000000000000001B37001B38001B459A
:10303000002C20001B5B4A001B5B6D000820080071
:103040001B5B4B00202D20001B5B48001B5B366E7A
:10305000001B5B324A001B5B3F336C0020626164E3
:1030600020706172616D6574657220636F756E7436
:103070000D0A0020756E6B6E6F776E207061726145
:103080006D657465723A20003A20636F6D6D616EF4
:1030900064206E6F7420666F756E64002D682C203E
:1030A0002D2D68656C70000000000000B03000003D
:1030B00010320000F8310000000000003D1A00004E
:1030C00014320000E0310000000000008D1A000002
:1030D00000000000000000000000000000000000F0
:1030E0003032000018320000A8300000D51900006E
:1030F000483200003832000000000000951900003E
:10310000643200005032000000000000DD1A0000B0
:103110000000000018310000B43200006C320000E2
:10312000000000004D1C0000000000000000000036
:10313000000000000000000058330000BC32000016
:1031400010310000791B000030313233343536370E
:1031500038394142434445460040404040404040A9
:10316000404041414141414040404040404040405A
:1031700040404040404040404005020202020202FE
:10318000020202020202020202202020202020204D
:103190002020200202020202020290909090909061
:1031A000101010101010101010101010101010101F
:1031B0001010101002020202020288888888888893
:1031C000080808080808080808080808080808087F
:1031D00008080808020202024000000059310000FD
:1031E000456E61626C6520636F6C6F7265642073FD
:1031F000796E7461782E000044697361626C652099
:10320000636F6C6F7265642073796E7461782E00E1
:103210006F6666006F6E0000546F67676C652063B1
:103220006F6C6F7265642073796E7461782E000024
:10323000636F6C6F72730000436C6561722073631F
:103240007265656E2E000000636C6561720000009F
:10325000436F6D6D616E6420686973746F72792E4F
:1032600000000000686973746F72790041737375B0
:103270006D652038302063686172732073637265F6
:10328000656E20776964746820616E642073656E72
:103290006420746869732073657474696E67732041
:1032A000746F20746865207465726D696E616C2E30
:1032B0000000000064656661756C7400436F6E7396
:1032C0006F6C652067657473207465726D696E61DB
:1032D0006C2073637265656E2073697A65206F7206
:1032E00020617373756D657320383020696E2063BB
:1032F00061736520726561646F7574206661696CC5
:10330000732E204974206D75737420626520657872
:1033100065637574656420616674657220656163B8
:1033200068207465726D696E616C20776964746879
:10333000206368616E676520746F20656E737572B7
:103340006520636F7272656374207465787420649D
:103350006973706C61792E00726573697A6500001B
:10336000A03300000000002080000000D40D000009
:10337000203400008000002098220000E40D0000AE
:1033800000000000E030000000000000F03000000D
:103390000000000000310000000000003831000093
:1033A000000000000000000000000000000000001D
:1033B000000000000000000000000000000000000D
:1033C00000000000000000000000000000000000FD
:1033D00000000000000000000000000000000000ED
:1033E00000000000000000000000000000000000DD
:1033F00000000000000000000000000000000000CD
:103400000000000000000000000000000090D00359
:1034100000000000000000000000000000000000AC
:0400000500000201F4
:00000001FF
