:020000040000FA
:10000000C85A0020490200005102000015020000F9
:1000100055020000570200005902000000000000D5
:100020000000000000000000000000005B02000073
:100030005D020000000000005F020000610200009D
:10004000250C000063020000AD120000FD0E000050
:10005000090F00006302000085080000B50D0000D4
:10006000491200005D12000071120000710D0000C5
:1000700063020000210D0000630200006302000023
:10008000C9120000810D0000650C00007908000015
:10009000210F0000250F00002D0F0000350F00007C
:1000A0003D0F0000450F000085120000991200006E
:1000B000350C00003D0B00000000000000000000B7
:1000C00063020000450C0000550C0000150F0000F5
:1000D000A50D0000210A00006302000000000000DE
:1000E0000000000000000000000000000000000010
:1000F0000000000000000000000000000000000000
:1001000000000000000000000000000000000000EF
:1001100000000000000000000000000000000000DF
:1001200000000000000000000000000000000000CF
:1001300000000000000000000000000000000000BF
:1001400000000000000000000000000000000000AF
:10015000000000000000000000000000000000009F
:10016000000000000000000000000000000000008F
:10017000000000000000000000000000000000007F
:10018000000000000000000000000000000000006F
:10019000000000000000000000000000000000005F
:1001A000000000000000000000000000000000004F
:1001B000000000000000000000000000000000003F
:1001C000000000000000000000000000000000002F
:1001D000000000000000000000000000000000001F
:1001E000000000000000000000000000000000000F
:1001F00000000000000000000000000000000000FF
:10020000DFF80CD000F026FB00480047D92C000096
:10021000C85A0020094B1EF0040F1CBFEFF30980E1
:100220001847EFF308800649064A884201D89042F1
:1002300002D88D464FF0000018470000F909000071
:10024000C85A0020C83A00200648804706480047A0
:10025000FEE7FEE7FEE7FEE7FEE7FEE7FEE7FEE776
:10026000FEE7FEE74D0F0000010200002DE9F00F50
:100270006FF003042DED0C8B5FEAD30AD0E901C7C0
:10028000B0F8009004EB89040CEB04089FEDFE9A93
:1002900018BF4FEAD90B00F0C18100BF91ED000AF1
:1002A000B0EE493A88ED000A91ED010AF0EE430AFA
:1002B00088ED010A91ED020AB0EE431A88ED020AB8
:1002C00091ED030AF0EE431A88ED030A91ED040A5A
:1002D000B0EE432A88ED040A91ED050AF0EE432AB8
:1002E00088ED050A91ED060AF0EE433A88ED060A1C
:1002F00091ED070A203188ED070ADCED007A9CEDCC
:10030000017ADCED026A9CED036ADCED045A9CED97
:10031000055ADCED064AB0EE434A3D460CF11C049A
:1003200008F120085FEA0B0600F02681D5ED008A6F
:1003300094ED008A26EE280A65EEA89A25EE28AAF2
:1003400027EEA8BA64EEA8AA67EE28BA26EEA8CAD5
:1003500068EE28CAD5ED018A32EE000A32EEA92AEB
:1003600073EE0A2A30EE8BBA33EEAA3AD5ED020AC2
:1003700074EE2C3A71EE8C1AD4ED017A31EE2B1A10
:1003800027EE28DA26EEA8CA66EE28BA25EEA84A95
:1003900065EE289A24EEA8AA68EE28AA67EEA8CAF5
:1003A00094ED027A7BEE0D8A31EE0C1A71EEAB1AE7
:1003B00030EE040A32EE292A72EE8A2A33EE2A3A05
:1003C00073EEAC3A66EEA0CA66EE20BA65EEA09A6D
:1003D00025EE20AA24EEA04A68EE20AA27EEA0BAB5
:1003E00027EE20CAD5ED030AD4ED036A30EE0A0ADF
:1003F00032EE042A78EEAC8A31EE2B1A71EEA91A8D
:1004000072EEAA2A33EE0B3A73EE8C3A66EE20CAED
:1004100065EEA0BA65EE209A24EEA04A28EE20AA46
:1004200067EEA0AA27EE20BA26EEA0CAD5ED040AF0
:1004300078EEAC8A31EE2B1A71EEA91A30EE040A6E
:1004400032EE0A2A72EEAA2A33EE0B3A73EE8C3A97
:1004500065EEA0CA94ED046A65EE20BA24EEA0BA57
:1004600028EE204A67EEA09A27EE20AA66EEA0AA00
:1004700026EE20CAD5ED050AD4ED055A31EE2B1A29
:1004800071EE8B1A78EEAC8A30EE040A32EE292A2D
:1004900072EE8A2A33EE2A3A73EE8C3A65EE20CA5F
:1004A00024EEA0BA68EE20BA27EEA04A67EE209AA2
:1004B00026EEA0AA66EE20AA25EEA0CAD5ED060A71
:1004C00030EE040A32EE292A27EE204A94ED065A2D
:1004D00072EE8A2A66EEA09A78EEAC8A31EE0B1A9A
:1004E00071EEAB1A33EE2A3A73EE8C3A26EE20AA5E
:1004F00065EEA0AA64EEA0BA28EE20CA27EEA0BA44
:1005000065EE20CAD5ED070A30EE040A32EE294A1C
:1005100072EE8A9A33EE2AAAD4ED074A31EE0C1A0B
:1005200078EEAB8A28EE20CA71EE8B1A73EEACAA75
:1005300066EE202A67EEA0BA27EE20BA26EEA02AA1
:1005400025EEA03A65EE203A24EEA08A74EE222A27
:1005500078EE8C0A31EE2B1A71EE8B1A30EE022AED
:1005600039EE833A7AEE233A3AEE884A203420353F
:10057000761E7FF4DBAE00BF19F0070636D000BF51
:1005800095ED008A94ED000A241D67EE889A67EEC7
:10059000088A26EE88AA66EE08AA25EE88BA65EED5
:1005A00008BA24EE88CA20EE088AF0EE477AB0EE48
:1005B000667AF0EE466AB0EE656AF0EE455A70EE85
:1005C000A90A31EE281A71EE8A1A32EE2A2A72EE40
:1005D0008B2A33EE2B3A73EE8C3A34EE084AB0EEA7
:1005E000645A2D1DF0EE404A761EC9D1C2ED000AB4
:1005F00082ED011AC2ED021A82ED032AC2ED042A2D
:1006000082ED053AC2ED063A82ED074A2032BAF190
:10061000010A0CF1200C7FF441AE00BF13F0070A71
:1006200043D000BFB1EC010A3E1D0CF10404B9F146
:100630000103A8EC010ADCED000A97ED001AB0EE08
:10064000490A00EE810A29D0B3F1004F7DD2002B78
:1006500024DD251F341F13F0010F07D0D5ED010A4B
:1006600094ED011A241D2D1D00EE810A5B1015D09A
:10067000D5ED010A94ED011A00EE810AD5ED020ACA
:1006800094ED021A02E000000000000000EE810A72
:100690005B1E04F1080405F10805E9D1A2EC010A8A
:1006A000BAF1010A0CF1040CBCD14068A9F10104B3
:1006B000A3081FD0B3F1004F54D2002B1ADD6246BD
:1006C00001461D4692ED000A81ED000A92ED010AF5
:1006D00081ED010A92ED020A81ED020A92ED030A10
:1006E000103281ED030A10316D1EEBD10CEB031CAF
:1006F00000EB031014F0030202BFBDEC0C8BBDE84D
:10070000F00F7047B2F1004F42D2002A1ADD001FED
:10071000ACF1040112F0010F05D091ED010A80ED5A
:10072000010A001D091D52080CD000BF91ED010AFD
:1007300080ED010A91ED020A083180ED020A0830CD
:10074000521EF3D1BDEC0C8B00E002E0BDE8F00FCF
:100750007047F4EC010A5B1EB6EC011A00EE810A48
:10076000F7D19BE79CED000A80ED000A9CED010AA1
:1007700080ED010A9CED020A80ED020A9CED030A5D
:100780000CF1100C80ED030A10305B1EEAD1B1E7CA
:10079000BCEC010A521EA0EC010AF9D1D2E770B5F7
:1007A00004460498218008448000011F1D46184615
:1007B000A26000F02EF8656070BD00000048704730
:1007C000EC56000010B5431A934209D283188818DA
:1007D00003E010F8011D03F8011D521EF9D210BDEF
:1007E00040EA01039B0703D009E008C9121F08C0B3
:1007F000042AFAD203E011F8013B00F8013B521E33
:10080000F9D210BDD2B201E000F8012B491EFBD293
:1008100070470022F6E710B513460A46044619460B
:10082000FFF7F0FF204610BD421C10F8011B002905
:10083000FBD1801A704710B5002200E0521C835C87
:100840008C5CA34201D1002BF8D1D8B2E1B2401A9E
:1008500010BD0000064C074D06E0E06840F00103C3
:1008600094E8070098471034AC42F6D3FFF7CCFC6D
:1008700070580000905800000148006800470000D0
:100880001C0000202DE9F04700268CB0DFF86091B5
:10089000B0464FF48075012437460696284603F08B
:1008A0009BFB38B1D9F80403204203D0284603F05B
:1008B00089FB26432D1D64007F1CADB2082FEDD3AC
:1008C0004FF4BE74204603F087FB48B1204603F086
:1008D00079FB46F0004606AA0121002003F05EFBEA
:1008E000444D16F0FF0F15D00127002437420DD0DC
:1008F00009EB8401D1F81005D1F81015C0F30420DC
:1009000055F82420C1F3014102B190477F00641CD7
:10091000082CEBD3002E67DA4FF0FF30CDE90880CA
:1009200000263446281910F8587F90F9000027F067
:10093000C008401C44D009A9404602F00EFB58B341
:100940004FEA9719404601F067F855F820701FB13B
:10095000B9F1030F03D00FE0B9F1030F30D108A8AC
:100960004FEAD80208F00703815C4FF0010C0CFA43
:1009700003FC41EA0C0181544FF0A04101EB8800D7
:10098000D0F8000706A9C0F3014A404602F0E5FA94
:1009900018B1BAF1020F03D012E0BAF1030F0FD170
:1009A000B9F1030F08D1BAF1020F1BD00221404662
:1009B00003F0DCFA761CF6B217B149464046B84758
:1009C000641C062CAED3002E0ED06A4601210020F6
:1009D00003F0E4FA06990098884205D0069008983A
:1009E00009909DE70321E2E70CB0BDE8F087000025
:1009F00000600040DC17002000F000F8BFF34F8FCC
:100A000005480168054A01F4E06111430160BFF344
:100A10004F8F00BFFDE700000CED00E00400FA0579
:100A20002DE9F041324F00254FF48A782E46414699
:100A3000384603F0D9FA2F4CA0B14146384603F0AE
:100A4000D8FAE06870B1D7F84015814203D1E18847
:100A500000EB810600E00646C7F84065607940F08B
:100A6000040060714FF482784146384603F0BCFAC6
:100A7000B8B14146384603F0BCFAA06888B1D7F84F
:100A80003815814202D1E18800EB8100C7F83805B2
:100A9000617941F0020161710A0701D5CA0711D0DD
:100AA00005466079C10711D0810709D5410707D5EF
:100AB00020F006006071010710D520F00800607179
:100AC000BDE8F08121F008006071EAE755EA060010
:100AD000F6D0E28831462846236805E0D7F840156D
:100AE000D7F83805E2882368BDE8F04118470000D0
:100AF000005002403C18002000F01F0201219140EC
:100B00004009800000F1E020C0F88012704700F03A
:100B10001F02012191404009800000F1E020C0F84F
:100B20000011704700F01F02012191404009800030
:100B300000F1E020C0F8001270470000FEB54FF44D
:100B40008077384603F062FA0126344C002578B3EA
:100B5000384603F063FAA17C26EA010004EB800228
:100B600052682AB9627C022A02D0E07C90B11AE075
:100B70008DF80850E574627C022A08D004EB8101EC
:100B80004A6801924D60A0748DF8006008E00195FC
:100B90006674F9E78DF8086001958DF80050E674E9
:100BA000216868468847607C022829D1667427E05E
:100BB000FFE74FF48277384603F028FA00B338464F
:100BC00003F02CFA1648056065748DF808508DF80E
:100BD0000050A07C04EB8000416821B10191456088
:100BE000216868468847A17C26EA010004EB800161
:100BF000486820B101904D60216868468847A57417
:100C0000607D002808D001958DF808508DF80060AF
:100C10006575216868468847FEBD00004C180020B5
:100C200000D5014010B502F083FDBDE8104002F090
:100C3000D7BE00000149024801F02BBF6418002014
:100C400000C001400149024801F023BF6C18002098
:100C5000001002400149024801F01BBF7418002037
:100C6000002002402DE9F8432A48DFF8A4804FF421
:100C700080720168284E002589B1D8F8041311F05C
:100C8000010F0CD0056000680090244862F30F0447
:100C90000068726860F317443946204690471D4843
:100CA0004FF48271001D0268BAB1D8F8042312F023
:100CB000020F12D0056000680090184861F30F041D
:100CC0000C30006860F31F4414483C3000687268C0
:100CD00060F30F073946204690470E484FF4847260
:100CE000083041460368002B10D0D1F8041311F0EE
:100CF000040F0BD0056000680090204662F30F00DF
:100D0000726801B03946BDE8F0431047BDE8F8838A
:100D10000020014000210140300000200C2501404E
:100D20001CB510480E4903680022002B16D0D1F8DC
:100D3000081311F0010F11D00260006801900A48F9
:100D400000688DF800006946084803F09CF90748E0
:100D500003F083F9002801D002F06CFE1CBD0000F6
:100D600000D0004000D1004008D5004010550000E0
:100D700003220021014802F067BE000000B00040DD
:100D800007480021C0F84011C0F84411C0F84811CC
:100D9000C0F84C11C0F80011C0F8041104F072B88A
:100DA0000010014004220121014802F04DBE000064
:100DB000004002402DE9FE434FF48278404603F0A4
:100DC000C7F94C4F00254C4C012600B3404603F0B8
:100DD000C7F994F82E0010B194F82F10D1B18DF806
:100DE0000050616801912189ADF80810E26832B1C4
:100DF000218B618362602181E56010B102E025747E
:100E000000E03E6021686846884784F82F5094F8D7
:100E10002E0060B34FF48077384603F099F930B371
:100E2000384603F09DF9628B94F82D108A420AD956
:100E3000A2EB010080B260832289A2EB000062680D
:100E400002EB400005E007D1E06828B184F82F608C
:100E5000658303F075F904E08A4202D184F82F60BB
:100E60006583404603F07CF92248001D06604FF47C
:100E70008877384603F06CF948B1384603F070F9CA
:100E8000257402208DF800002168684688474FF4D9
:100E90008A77384603F05CF928B1384603F060F9E8
:100EA0002574BDE8FE834FF000484FF48C796769E4
:100EB0001DE000BFB7FA87F028FA00F109EB8005C2
:100EC0008F43284603F044F988B1284603F048F9D7
:100ED000A5F58C75E8088DF8040045F38000401CEA
:100EE0008DF800608DF80500216868468847002F5E
:100EF000E0D1D6E700700040AC180020014800683F
:100F0000004700000400002001480068004700007E
:100F10000C00002001480068004700001400002079
:100F200003F022BF0021012002F0BCBE00210220FC
:100F300002F0B8BE0021032002F0B4BE002104205C
:100F400002F0B0BE0021052002F0ACBEF0B5AE4804
:100F50000023021D01780125101D4FF08054062941
:100F60000BD11678360708D10678C6F30316032E80
:100F700006D0042E04D0052E02D0062907D00EE09C
:100F8000B4F82463A14FC6F304263E6002E016784D
:100F9000360704D10678C6F30316032E02D00629BD
:100FA00004D00FE09B4F9A4E7E670EE0167836070E
:100FB00008D10678C6F30316032E06D0042E04D0FB
:100FC000052E02D0062907D00EE0D4F84462924FD5
:100FD000C6F342363E6002E01678360704D1067842
:100FE000C6F30316032E02D0062906D011E08B4E5D
:100FF000376827F0807737600EE01678360708D11B
:101000000678C6F30316032E06D0042E04D0052E50
:1010100002D006290AD011E04FF08046C6F80C3104
:10102000C6F810317C4E361F336002E01678360762
:1010300004D10678C6F30316032E02D0062905D084
:101040000CE0754F032664373E600AE016783607D9
:1010500004D10678C6F30316032E02D006290DD05C
:1010600014E06F4F05263E606D4E783635606C4E4D
:10107000083633603F263F1D3E6002E01678360793
:1010800004D10678C6F30316052E02D0062957D0E0
:1010900062E0644E3668644F3E60624E361D3668CC
:1010A0003F1D3E605F4E083636683F1D3E605D4E18
:1010B0000C3636683F1D3E605A4E103636683F1D6E
:1010C0003E60584E143636683F1D3E60554E183609
:1010D0003668554F20373E60524E1C3636683F1DED
:1010E0003E60504E203636683F1D3E604D4E2436E1
:1010F00036683F1D3E604B4E283636683F1D3E60C9
:10110000484E2C3636683F1D3E60464E30363668B7
:10111000454F40373E60434E343636683F1D3E6093
:10112000404E383636683F1D3E603E4E3C3636688F
:101130003F1D3E603B4E403636683F1D3E6002E03C
:101140001678360708D10678C6F30316032E06D0A4
:10115000042E04D0052E02D0062907D019E0D4F8B9
:101160005812324A01F04F01116002E0117809076C
:101170000FD10078C0F30310032803D0042801D056
:10118000052806D12A480168C90702D06FF001017D
:10119000016022487438016841F470010160BFF3B6
:1011A0004F8FBFF36F8F4FF01021D1F8000200284E
:1011B00003DBD1F80402002822DA1E4A15601E481B
:1011C0000468002CFCD01524C1F800420568002DED
:1011D000FCD0C1F8044201680029FCD0136001680A
:1011E0000029FCD0BFF34F8F0C48F0380168134A38
:1011F00001F4E06111430160BFF34F8F00BFFDE7D1
:1012000010490F480860F0BDE00F00F04035014084
:101210000DF0ADBA00C007403C050040FCED00E019
:10122000105600400404001020C50040E40E0040A9
:101230000004004004E5014000E401400400FA0518
:101240000090D0036C00002004220249024801F003
:101250006EBC00005C19002000800040042202499E
:10126000024801F064BC00006819002000900040B2
:1012700004220249024801F05ABC000074190020FF
:1012800000A0004006220249024801F050BC0000C4
:101290008019002000A0014006220249024801F006
:1012A00046BC00008C19002000B001400448017FBA
:1012B00004480029024901D003F0CBBE03F03ABE36
:1012C0009819002000200040094882B0D0F804039B
:1012D0004FF0000110F0010F07D0064801600068D0
:1012E00000900548406802B0004702B07047000017
:1012F00000000140000101404800002002E008C851
:10130000121F08C1002AFAD170477047002001E07F
:1013100001C1121F002AFBD1704770B504460D466B
:10132000002000F00FF8207920B1002000F00CF828
:10133000112070BD01202071002000F005F8002070
:10134000256070BD00F002B800F008B872B602481F
:101350000168491C01607047680000200349086863
:10136000401E086000D162B670470000680000208F
:101370002DE9FF414FF000050E4607461400ADF879
:101380000450ADF808508DF80C500CD0A0690168DD
:1013900049B1C07950B13146384601F092F904B0F4
:1013A0002846BDE8F0814FF0FF35F8E71346324696
:1013B00002A901A801F0F0FA0BE0214601A800F013
:1013C00009FCA06903AA01A9037A3846009403F036
:1013D000D9FEBDF80400BDF808108842EDD39DF891
:1013E0000C003070A169BDF804008881D7E738B5DA
:1013F00004004FF000004FF0240523D0A1690A68D3
:1014000002B34881A169234602228881A16908614B
:10141000A16908752220694600F02CF89DF801109A
:10142000002801F007018DF80110BDF800100BD164
:10143000A2699088884200D99180A2699379022B91
:1014400003D008E04FF0FF3038BD091D814202D8BB
:101450009088001D9080A078012800D1A425A06963
:101460002946838802686078E46901B0A446BDE833
:101470003040604770B51C0005D0E5691DB1A37808
:10148000012B03D004E04FF0FF350EE040F0800068
:10149000134666780A4601463046A8470546616A03
:1014A000012088470DB16FF00105284670BD1CB5BD
:1014B000044602F080FE002817D1A078012807D149
:1014C0002346012201A97F20FFF7D4FF00280CD179
:1014D0002346012269460020FFF7CCFF18B99DF88A
:1014E0000000D12802D06FF002001CBD2070FF2048
:1014F000E070204600F0C9F90028F6D10221E17120
:1015000008226271102323710323A371E1736273B4
:10151000142121730021A1736168A160E168216138
:101520001CBDF8B50F464FF0000114008DF80010F7
:101530004FF0470600F0FE052ED013460122694603
:101540003046FFF797FF002825D135B19DF8000000
:10155000012F24D0A8438DF80000234601226946BC
:10156000304600F0E0F8002815D1234601226946F4
:101570003046FFF77FFF00280DD19DF80010A369CA
:1015800001F01002DA71A36901F0E00201F002013A
:101590001A72A2699171F8BD4FF0FF30F8BD28436F
:1015A000D9E708B58DF80000462029B10B46012285
:1015B000694600F0B8F808BD4FF0FF3008BD70B5BF
:1015C0000446002062780D2A1ED2DFE802F0071ED2
:1015D0002D28283237413C23464B50000E46084602
:1015E00002F0E9FD70B96CB1251D3146284601F0C5
:1015F0002DF8002808D1324629462046BDE8704023
:1016000000F078BC4FF0FF3070BD2046BDE8704060
:1016100003F048B92046BDE8704003F0A4B8204666
:10162000BDE8704003F0DEB92046BDE8704003F02D
:101630009CB92046BDE8704003F0D4B82046BDE810
:10164000704002F0ABBE2046BDE8704003F010B819
:101650002046BDE8704002F06BBF2046BDE87040F8
:1016600002F01EBF2046BDE8704003F027BA2046B6
:10167000BDE8704003F068BAF8B5040015D0606AA0
:1016800098B100208DF8000020796FF00305A0F1DB
:101690001001022928D8217A88421AD021466846AA
:1016A00002F0AEFD060003D011E04FF0FF30F8BDB0
:1016B00023460122211D7E2000F035F80646207ABF
:1016C000102802D1616A05208847217921723000F3
:1016D000EDD1207B0026142808D0152806D0172825
:1016E00004D02E463046F8BD2846F8BD217C8842FD
:1016F000F8D02346012204F10C017E2000F013F8FB
:101700000646207C142802D0172803D008E0512078
:10171000616A04E02079152802D1616A0A208847AD
:10172000207B2074DEE72DE9F0474FF000061C0017
:10173000054690468946374608D0D4F820C0BCF10B
:10174000000F03D0A078012803D004E04FF0FF364B
:1017500025E005F07F05207A112802D0207C15288D
:1017600018D113460A4660782946E0470646616A62
:101770000120884710E0266A09EB07026078012300
:101780002946B0476D1C0646616AEDB201208847C4
:101790007F1CFFB24745EED30EB16FF00106304615
:1017A000BDE8F08738B5040063D0606A002860D0D7
:1017B000002521466846009500F0D6F9002857D14B
:1017C0002346012269464020FFF7ADFF00284FD194
:1017D00061796172E179E172616A0120884723468B
:1017E000012241200DF10101FFF79DFF00283FD1AB
:1017F000A179A17221466846009500F0FCF9002805
:1018000036D12346012269464220FFF78CFF00288B
:101810002ED1617B6174E17BE174616A01208847AC
:101820002346012243200DF10101FFF77CFF002830
:101830001ED1A17B2046A174FFF71EFF002817D1FF
:1018400023468DF80050012269460220FFF712FE60
:101850009DF80010C1F343018DF8001001290BD051
:1018600002290CD003290DD0072901D16FF00800FF
:1018700038BD4FF0FF3038BD6FF0050038BD6FF058
:10188000060038BD6FF0070038BD38B504004FF0D2
:10189000B6008DF800000DD0606A58B123460122D1
:1018A00069467E20FFF73FFF0546616A0F208847A3
:1018B0001DB10CE04FF0FF3509E0A078012806D1FA
:1018C0002346012269467F20FFF7D4FD05462846BE
:1018D00038BD00002DE9FC41114F00201C46164682
:1018E0003870054641F080008DF80400601CC0B2DD
:1018F00000900C4B012201A90B4802F095F93878B1
:101900000028FCD00021074804E0421852787254A5
:10191000491C89B2A142F8D32846BDE8FC810000E9
:101920000000002010020020085400002DE9F84FAC
:10193000154F4FF000081C469246894687F80080F4
:101940004646581C01F0D2F909F07F0105460170A6
:10195000002005E01AF800102A18401C517080B2CF
:10196000A042F7D3641CE2B2002329460748CDF811
:10197000008002F059F938780028FCD0284600F0A1
:101980007BFF3046BDE8F88F0000002008540000BF
:1019900030B482680468531C8360A154D0E90112FA
:1019A0008A4202D330BC02F0BAB930BC704700F0B2
:1019B0009FBF000005494FF0FF32082841F8202062
:1019C00002D3084480F8502070470000DC17002044
:1019D000F0B54FF0FF3512B10023082601E00823CF
:1019E0000E260C4C05E000BF54F823707F1C04D079
:1019F0005B1CB342F8D32846F0BD26185DB286F8CA
:101A0000385044F82310002AF5D1E11881F850002D
:101A1000F1E70000DC1700200249084490F9380083
:101A200070470000DC1700202DE9F0410446806873
:101A30000F4690F83911C27C11F00106817CA1EBB0
:101A40000203DDB20AD07F2901D3002D7ED0A06829
:101A5000C17C08440021077566B113E07F297CD260
:101A6000002DF4D0831803F114012A46481CFEF718
:101A7000A9FEECE7A068827C521CD2B28274A068F6
:101A8000143281544DB3204601F03FFA8178C0787A
:101A900081420ED1A06832A2C17C431808212046A1
:101AA000143301F0EDFBA81BC1B2204600F0DCFCB2
:101AB00021E0204600F0EAF8A06829A2C17C431882
:101AC00008212046143301F0DBFB204600F0D4F857
:101AD0000121204600F072FD0DE03EB1A068827C3D
:101AE000521CD2B28274A068143281543A461DA1AD
:101AF000206902F007F9A168C87C401CC874204620
:101B000000F09EFC0028204603D0BDE8F04100F024
:101B1000B7BC00F0D9FE00281FD0204601F0F5F92F
:101B20000546C078A978401A401EC1B2204600F090
:101B30007BFC204600F0A4FCE878A978401AC1B2EA
:101B4000204600F047FD2878401E00E005E0C1B2C5
:101B50002046BDE8F04100F031BDBDE8F081000055
:101B6000257300002563000070B50D460B46044642
:101B7000014602224020FFF77DFC002829D1697927
:101B8000001F0F2925D86A7A914206D0227801F0E9
:101B90000F0122F00F0211432170E979022918D8B0
:101BA000EA7A914203D0217821F070012170A9795D
:101BB0000022641C0C290AD8A87A814208D0207817
:101BC00001F00F0120F00F000143217000E00246F8
:101BD000104670BD10B58B6902889988941C8C42A0
:101BE00008D21B689C5C802C04D11A445278002ACD
:101BF00000D1018010BD70B50D460B46044601466C
:101C000002224220FFF736FC00282AD1697B001F00
:101C10000D2926D86A7C914206D0227801F00F0166
:101C200022F00F0211432170E97B022919D8227892
:101C3000302322F0300203EA0111114304F8011BA2
:101C4000A97B002204290AD8A87C814208D02078E8
:101C500001F0070120F007000143217000E0024677
:101C6000104670BD0069024A02A102F04BB80000A4
:101C700042550000257300000069024A024902F043
:101C800041B8000039550000741C00000069024A88
:101C9000024902F037B8000036550000741C0000FD
:101CA00030B4406804682469A44630BC604700280A
:101CB00001D0FEF7B9BD70472DE9F8431E46154621
:101CC00088460746002418E0786808EB04016B4654
:101CD0000268D2F80CC02A46E047009804442D1A46
:101CE00058B9B8680178042907D000BF90F83811B6
:101CF0000029FBD0002180F83811002DE4D1002EFE
:101D000001D000983060BDE8F883000070B5084C41
:101D1000050009D010342168002907D00868206028
:101D2000496828468847F6E70834F4E770BD0000A4
:101D3000C81700202DE9F05F1C460A9E15464FF09B
:101D4000000959B180B3017839B342683146284659
:101D500090473068D8B12660BDE8F09F1449154817
:101D6000A1EB0008B5EBD80F11D2DFF84CA000268C
:101D7000834609E00BEBC607786801685AF825002E
:101D8000FEF759FD30B1761CB6EBD80FF2D3C4F88C
:101D90000090E1E778682060DEE7406800EB021021
:101DA000016809B11860D7E7FFE7C3F80090D3E7EF
:101DB000B058000090580000780000202DE9F05F36
:101DC00026484168F1B3DFF898B00E688146DBF829
:101DD000004087688078E11B21F07F45ED1CB0B999
:101DE000DFF880804FF48030C8F84403C8F804035B
:101DF0001120FEF781FE1120FEF789FE4FF0010A47
:101E0000C8F800A02F2001F007FC89F802A0B54215
:101E100000D23546124BE8193C3320F07F40186061
:101E2000DBF800105A46091B21F07F41001B20F00F
:101E30007F40C91C81420FD9106818602F2001F023
:101E4000EBFB00E004E0BDE8F05F1120FEF76ABEA6
:101E5000BDE8F05F02F012BABDE8F09F5400002028
:101E6000041501400010014070B51D4D0024A5F57A
:101E7000166600BFC4EBC40005EB001206EB0011B0
:101E80001C231848FEF7F2F9641CE4B2052CF1D3C8
:101E9000154D0024A5F51666C4EBC40005EB001231
:101EA00006EB00111C230F48FEF7E0F9641CE4B2B6
:101EB000052CF1D30D4D0024A5F51666C4EBC40026
:101EC00005EB001206EB00111C230648FEF7CEF9C5
:101ED000641CE4B2052CF1D305490020487070BDA4
:101EE000380C0020DC010020580F00207812002060
:101EF000000000202DE9FC410E461446074611461D
:101F000002F06CFE002857D100258DF800502346C2
:101F1000012269466220FFF7ADFA70B99DF8000012
:101F200010F0020F0BD020F002008DF800002346C5
:101F3000012269466220FFF7F6FB00283CD12146CA
:101F4000384600F036FF002836D18DF80050234681
:101F5000012269465920FFF78DFA78B99DF80000F3
:101F6000317820F08000890940EAC1108DF8000026
:101F70002346012269465920FFF7D5FB00281BD1D3
:101F80008DF800502346012269465F200195FFF736
:101F900071FA002810D19DF80000234620F00300BC
:101FA0008DF800008DF8040070788DF8050002228D
:101FB00001A95F20FFF7B7FBBDE8FC8138B501F050
:101FC000FDFC08B901F0CCFC0848094A69460068E4
:101FD000009000208DF801000B2001F065FC044604
:101FE00001210B2001F00EFC204638BD04540000F6
:101FF000AF190000F8B5054600200E468DF8000028
:102000000B46012269465420FFF734FA00281DD1FF
:102010002878AC1C00289DF8000018D0217820F00A
:102020002000C1F3001140EA411000BF8DF800000C
:10203000218800F0F000C1F3431101438DF8001036
:102040003346012269465420FFF76DFBF8BD217825
:1020500020F01000C1F3001140EA0110E6E7000093
:1020600038B5044600200D468DF800000B460122CD
:1020700069465320FFF7FEF9002825D12178A01CDE
:1020800000299DF8001020D0007821F0800141EA5D
:10209000C01121F04001C0F3400241EA8211C0F3B7
:1020A000800221F0200141EA421121F01001C0F329
:1020B000C00041EA001000BF8DF800002B4601224D
:1020C00069465320FFF72FFB38BD007821F0080147
:1020D00000F0010241EAC20121F00401C0F3400214
:1020E00041EA8201C0F3800221F0020141EA42018B
:1020F00021F00101C0F3C0000843DDE77CB50446D0
:1021000000200D468DF800005F260B46019001224D
:1021100069463046FFF7AEF900282ED19DF8000041
:10212000218820F0FC00C90840EA81008DF80000F9
:102130002B46012269463046FFF7F5FA00281CD1EC
:1021400062202B4601226946FFF794F9002814D13A
:102150009DF80000218820F00100C1F340210843D0
:102160008DF800008DF80500A0788DF8040061203E
:102170002B46022201A9FFF7D6FA7CBDF8B50D4621
:1021800014460746114602F029FD00284BD10026CF
:102190008DF80060387823464FF00102694620B17F
:1021A0005720FFF767F978B11AE05520FFF762F979
:1021B000B0B99DF80000012240F008008DF8000041
:1021C00023466946552009E09DF80000234640F06B
:1021D00008008DF80000012269465720FFF7A3FA96
:1021E000002820D18DF8006023460122694659203D
:1021F000FFF740F978B99DF80000298820F08000A9
:10220000890A40EAC1108DF8000023460122694680
:102210005920FFF788FA002805D121462846BDE855
:10222000F840FFF76BBFF8BD38B5044600200D46F7
:102230000B460090022269466520FFF71BF9002833
:102240002FD19DF800002B4620F00302207800F0EB
:1022500003011143C0F3810221F00C0141EA820124
:1022600021F0F001000941EA00108DF800009DF80E
:10227000010020F03F022088C0F305211143C0F384
:10228000803221F0400141EA821121F08001C00B2F
:1022900041EAC0108DF80100022269466520FFF76F
:1022A00042FA38BD38B5044640780D468DF8000036
:1022B0000B46012269466020FFF735FA00282AD133
:1022C0002B46012269466220FFF7D4F8002822D16C
:1022D0009DF80000217820F00C0001F0030140EA95
:1022E00081008DF80000217820F03000C1F38101D9
:1022F00040EA01108DF80000217820F00200C1F3BF
:10230000401140EA41008DF800002B460122694649
:102310006220FFF708FA38BD38B50D4600210446A3
:102320000091008810F0C00F08D0C0F38110012880
:1023300009D002280BD0032810D033E015208DF8E7
:102340000000032007E02D208DF8000028E01D206C
:102350008DF8000007208DF8010023E02B460222B3
:1023600069467A20FFF786F8E0B99DF800002178E9
:1023700020F01800C1F3410140EAC1008DF80000CF
:10238000217820F00700C1F3C20101438DF800104D
:102390009DF80100218820F00700C1F302210143CC
:1023A0008DF801102B46022269467A20FFF7BBF90F
:1023B00038BDF8B5074600200E4615461346009076
:1023C000022269466320FFF755F800282BD1787860
:1023D0009DF80040032806D1308824F00701C0F39F
:1023E000C21040EA010431784023C1F3401003EAEF
:1023F000801024F040021043890920F0800242EA54
:10240000C1108DF800009DF80110307821F01F01F7
:1024100000F01F0008438DF8010002222B46694698
:102420006320FFF780F9F8BD002904D00A4600694F
:1024300001A101F067BC70471B5B256442000000EE
:1024400010B504460068FFF732FC0146A068C27C64
:10245000407B1144B1FBF0F200FB121008B10020E8
:1024600010BD012010BD0000002904D00A460069FB
:1024700001A101F047BC70471B5B256444000000CC
:102480000069024A024901F03DBC00003C550000D1
:10249000741C00002DE9FC5F002604468DF80460E2
:1024A00080683546B046B14680219430FEF7B1F9D8
:1024B0004149206901F026FC206901F030FC002729
:1024C00040F2E73B4FF47A7A6B46012201A920469D
:1024D000FFF7E6FB0098D8B19DF804001B2806D052
:1024E000A16891F894101B29EED152281CD0A26843
:1024F00008F19401505408F1010000F0FF08B8F110
:10250000090F08D9A168042081F89490BDE8FC9FC8
:10251000584601F0C7F800980028D5D17F1CBFB2FB
:102520005745D1D30D20F1E7A16808F194004A4640
:1025300001F80090A16891F895005B2803D081F81C
:1025400094200B20E2E702206FF02F070AE000BF83
:1025500005EB850507EB4505401C2B44C0B29DB239
:10256000802808D200F19403CB5C3B2BF0D1401CB7
:10257000C0B2802809D30C20C8E700BF06EB86064E
:1025800007EB460633449EB2F1E700F19403CB5CBF
:10259000002BF3D1FA20FA2E01D9087200E00E7256
:1025A000FA2D02D9A168887201E0A0688572A0683E
:1025B00080F894200020A9E75A550000002904D093
:1025C0000A46006901A101F09DBB70471B5B2564B1
:1025D00043000000002904D00A46006901A101F06F
:1025E00091BB70471B5B25644100000008B51C20AF
:1025F000044B0090044A3A2103F5AA70FEF7CFF885
:1026000008BD000088000020105400000E4910B5DD
:102610000A784C780023A24212D0521CD2B20A701F
:10262000022A00D10B70084A0B780C3252F8232092
:1026300002608868104420F07F408860012010BD4F
:102640000360002010BD000054000020F8B50446CF
:102650000D4600260B468DF8006001226946502089
:10266000FEF708FF00282BD12178C8079DF800004D
:102670001AD020F00100C1F3400101438DF8001091
:1026800021F002002178C1F3800140EA41008DF879
:102690000000217820F00400C1F3C00140EA81006D
:1026A0008DF80000EE7005E020F007008DF80000C6
:1026B000FF20E8702B46012269465020FFF733F8CF
:1026C000F8BDFEB5064600208DF808009069144656
:1026D0000D468089ADF8040046E01268525C491C42
:1026E00002F0FC03ADF80410882B19D00CDC482B49
:1026F0002DD004DC402B25D0442B30D11DE0802B85
:102700002BD0842B2BD112E0942B13D004DC8C2BF8
:1027100006D0902B23D10DE0982B01D09C2B1ED1FD
:1027200002AA01A93046009402F02CFD17E02246CF
:1027300006210EE0224608210BE0214601A802F006
:102740009EFD0CE0214601A802F0AEFD07E0224606
:10275000012101A800F0CFFB01E0ADF804002878CA
:102760009DF80810884205D0A269BDF80410908831
:102770008842B2D89DF808002870A169BDF804000D
:102780008881FEBD2DE9F05F17460E00814670D0AE
:1027900013B1F9B2FFF712FF0024FEF70FF88246DB
:1027A000006800E0641C315D415CC907FAD1002576
:1027B0003046FFF77CFAD9F80810001B4A7BD11B82
:1027C000814228D306EB040805E000BF18F8051085
:1027D0000A290CD06D1C8542F8D33119D9F81000A4
:1027E00001F090FA4846BDE8F05FFFF749BED9F81E
:1027F000100001F094FA414600232A464846FFF7AC
:102800005BFA2C444846641CFFF73AFEF9B248468E
:10281000FFF7D4FEE1E78B46DAF8001006EB040878
:1028200018F805000B5CDB0702D0AB460A2804D081
:10283000E819904201D26D1CF2E7D9F8100001F0BE
:102840006EFA414600235A464846FFF735FA5C4483
:10285000DAF8000000E0641C315D415CC907FAD180
:102860004846FFF70DFEF9B24846FFF7A7FE9EE780
:10287000FFE7BDE8F09F000010B5002821D0114B04
:102880000022001F196803E0814203D80A46496804
:102890000029F9D152B11368841A9C4204D100680E
:1028A00018441060104602E0506000E0186039B132
:1028B00002680B1A934203D10B681A4402604968FC
:1028C000416010BD7000002010B504460068FFF79D
:1028D000EEF90146A068827C407B1144B1FBF0F226
:1028E00000FB121008B1002010BD012010BD000037
:1028F0002DE9F8431C208DF800002448FEF777FDF1
:10290000224A69462248FEF733FD214B214A81467F
:1029100000205178A3F59D56A3F5845CA3F5566875
:1029200026E000BF00EB400533F9257000EE107A79
:10293000B8EEC00A14FB010406EB840703EB85051F
:1029400087ED000AB5F90270401C00EE107A0CEB1E
:10295000840708EB8404B8EEC00AC0B287ED000A11
:10296000B5F9045000EE105AB8EEC00A84ED000A22
:102970009DF80040A042D5D3491CC8B2507005282C
:1029800001D1FFF771FA4846BDE8F883E80100205D
:10299000781600200000002030B59C69A4890480CE
:1029A0009D692C7A802C0ED0C02C10D0A02C12D077
:1029B000E02C15D0AA88028098690A888088824213
:1029C00000D9088030BD107800EB400006E0107898
:1029D00000EB400007E01078C0EBC000400003E0CF
:1029E000107800EB800080000880E5E72DE9FC5FAF
:1029F0000E008346DDE90C47C6F10000984692467A
:102A0000814600D40846012503E000BF90FBFAF0A0
:102A10006D1C5045FADAA84500D9454624B1002E70
:102A200001DB780700D5641EB80702D5B8F1000FA6
:102A30000AD0F80708D13CB1A54205D2202158465A
:102A4000641EFEF7A5FFF6E7002E02DA4E462D21A2
:102A500002E0780703D52B215846FEF799FF07F0CF
:102A6000030002280BD1B8F1000F08D13CB1A542F8
:102A700005D230215846641EFEF78AFFF6E7CDE9FD
:102A80000047434652463146584602F01BFCBDE81B
:102A9000FC9F70B50C464FF488760546314601F030
:102AA000D1FA50B13146284601F0D1FA6079400799
:102AB00003D5216809B1012088474FF48A76314651
:102AC000284601F0BFFA50B13146284601F0BFFA5E
:102AD0006079000703D5216809B1022088474FF4C7
:102AE0008E763146284601F0ADFA50B1314628467F
:102AF00001F0ADFA6079C00603D4216809B1002065
:102B000088474FF482763146284601F09BFA002828
:102B10000CD03146284601F09AFA01202071216834
:102B2000002903D0BDE870400320084770BD2DE99F
:102B3000F84300251646884604462F4614E04FF415
:102B4000A07000EB85004FF480312258A9404AB1B3
:102B5000D4F804230A4205D0275021580091D8E91F
:102B6000002190476D1CEDB2B542E8D3BDE8F88373
:102B70000149024800F014B8DC1800200030004081
:102B800002494FF0402000F00BB80000001900206F
:102B90000149024800F004B8241900200030024026
:102BA000F8B50E4604464FF48C7101F0E3FA0028A4
:102BB00015D00025C4F81851D4F818010090B07F42
:102BC0003446FF2801D001F0E2F965772572D4E997
:102BD000002101B004F10800BDE8F0401047F8BD45
:102BE0002DE9F047394E002780463D46DFF8E0905A
:102BF000D6F804A057E003D00446D0F81C8035E096
:102C000099F8002002EB4201521CD2B289F8002050
:102C100009EBC10199F80230091D9A4201D189F8E6
:102C2000005048680A780446012A12D0022A02D0CD
:102C3000032A3BD108E002F0F5F800B10127257422
:102C400034E00574C06900E070680028F9D1706054
:102C50002CE0207C50BB88686060C868A060086970
:102C6000E0604869A061F07800B165606268B168B1
:102C7000184B501A20F07F40984202D2A1680844B5
:102C800006E0881AA16820F07F40814202D9081A24
:102C9000206000E0256065600120A560207420466A
:102CA000E56102F0A1F8B8F10000A4D199F8001094
:102CB00099F801008142A3D117B97168514502D03A
:102CC0000120BDE8F0870020FBE700005400002051
:102CD000B8190020FFFF7F00FFF770F901F08CFFAB
:102CE000FFF784FC01F00EFB30BFFDE7F0B50B30C1
:102CF000154D20F007010024144A0FE003688B42B1
:102D00000BD38B4205D95E1A43184768C3E90067A5
:102D100000E04368136002C004E0021D1068002850
:102D2000ECD12046002802D1286808B10020F0BD6F
:102D3000064A07481060074A121A22F00702C0E943
:102D4000002401202860D7E77400002070000020D4
:102D5000CC1A0020C83A002038B50C4600218DF866
:102D60000010007823464FF00102694688B15720D1
:102D7000FEF780FB00280BD19DF80000234640F0B1
:102D800001008DF80000012269465720FEF7CBFCB8
:102D900038BD5520FEF76EFB0028F9D19DF80000E4
:102DA000012240F001008DF80000234669465520BD
:102DB000ECE738B50C4600218DF80010007823466A
:102DC0004FF00102694688B15720FEF753FB0028F7
:102DD0000BD19DF80000234640F004008DF8000060
:102DE000012269465720FEF79EFC38BD5520FEF7AC
:102DF00041FB0028F9D19DF80000012240F00400B9
:102E00008DF80000234669465520ECE738B50446A6
:102E100000208DF800000D4620780B464FF001028F
:102E2000694620B15720FEF725FBA8B11EE05520CA
:102E3000FEF720FB40B9607804289DF8000008D018
:102E400040F010008DF8000001222B466946552005
:102E500010E040F02000F5E7607804289DF80000BD
:102E60000BD040F0100000BF8DF800002B4601226F
:102E700069465720FEF757FC38BD40F02000F3E7C5
:102E80002DE9F047C7880446181D16468946B0FB51
:102E9000F7F1B0FBF7F207FB12009A193A44D21C83
:102EA000B2FBF7F2DDF820A001E02468491E0029FA
:102EB000FBD13D1A8846B54216D818E0BAF1000F8A
:102EC00005D0211809EB08002A46091D04E020441A
:102ED00009EB08012A46001DFDF774FC0020246858
:102EE000761BA844B74201D9354600E03D46002E86
:102EF000E4D1BDE8F0879269038892881944914231
:102F000001D9028070470180704770B584680068FD
:102F100004F10805FEF7CBFEC1B2A971E07C6A7925
:102F20000844B0FBF2F302FB13035B1C2B70E07C44
:102F30000844B0FBF2F35B1CAB70A07C0844B0FB10
:102F4000F2F35B1CEB70A07C0844B0FBF2F102FBD7
:102F50001101491C6970284670BDC20800F00703C2
:102F60000120895C984008407047000010B5044675
:102F7000022909D100F0F0FA30B120460022BDE864
:102F80001040114600F0A4B9064A07A1206900F0DC
:102F9000B9FE044A2069BDE81040093202A100F0E0
:102FA000B1BE000056550000257300007CB51446E4
:102FB0000D460646012902D000F0CEFA38B102B023
:102FC0003046BDE870400022114600F081B9022D64
:102FD00008D00A4800900AA202213046236800F077
:102FE0004FF97CBD054861681730CDE9000106A2A4
:102FF00002213046236800F043F97CBD6A55000089
:1030000025733A257300000025733A257325730D47
:103010000A000000F8B514460E46054600F09CFA7A
:1030200030B12846BDE8F8400022114600F050B902
:10303000012E08D00848009008A2022128462368E3
:1030400000F01EF9F8BDA86890F8391121F00401CC
:1030500080F83911F8BD00006A55000025733A2543
:1030600073000000F8B514460E46054600F074FAE9
:1030700030B12846BDE8F8400022114600F028B9DA
:10308000012E08D00848009008A202212846236893
:1030900000F0F6F8F8BDA86890F8391141F0040185
:1030A00080F83911F8BD00006A55000025733A25F3
:1030B000730000007FB515460E46044600F04CFA3A
:1030C00028B100221146204600F002F97FBD012EF2
:1030D00008D91948009019A2022120462B6800F057
:1030E000CFF87FBDA0680026D0F83051F5B101E0DF
:1030F000082E1BD20023092201A9284600F07FFFD9
:103100009DF80C20A168092328469431521C00F038
:1031100076FFA068334694300090029D761C09A289
:103120000821204600F0ACF8002DE1D1A168002074
:1031300081F894007FBD00006A55000025733A2590
:10314000730000005B2533645D2025730D0A0000C9
:103150007CB515460446022908D91C48009013681E
:103160001BA20221204600F08BF87CBD01290AD069
:1031700000F0F2F9E8B102B02046BDE8704000224C
:10318000114600F0A5B8A16801F10C020D3101F063
:10319000BBFD0028E9D0A16850200FA24873A168A8
:1031A0001820087302B02046BDE87040042100F0EA
:1031B00067B8064869681730CDE9000116A20221F8
:1031C00020462B6800F05CF87CBD00006A550000CA
:1031D00025733A25730000006E6F20726573706F5F
:1031E0006E73652066726F6D207465726D696E61B5
:1031F0006C2C20617373756D6564203830783234BF
:103200002063686172732073637265656E207369F1
:103210007A650D0A0000000025733A257325730DA9
:103220000A000000F8B515460E46044600F094F971
:1032300030B12046BDE8F8400022114600F048B801
:10324000012E08D00A4800900AA2022120462B68CD
:1032500000F016F8F8BD064A08A1921F206900F098
:1032600051FDA16850204873A16818200873F8BD6B
:103270006A55000025733A2573000000257300008D
:103280000FB438B5044607A80090A06890F839211B
:10329000520717D5C27B8A4214D0B0F80F5020468F
:1032A00002F088F86A462069069900F044FDE9B208
:1032B000204602F07FF8290A204602F05DF838BC6B
:1032C0005DF814FB6A462069069900F034FDF6E7C4
:1032D0002DE9F04F804689B016460C468948FEF726
:1032E000E6FC054687486B38FEF7E1FC281A1FFA12
:1032F00080F9844884A258380090D8F80800082142
:10330000406803684046FFF7BBFFD8F808004068F4
:103310000068FEF7CCFC05467A485838FEF7C7FC33
:10332000284482B2D8F8080000234068416840462B
:10333000FFF728FA76A208214046FFF7A1FF16B34F
:103340000CB300251DE000BF05EB450A04EB8A0B1A
:10335000DBF80400FEF7ABFC074654F82A00FEF742
:10336000A6FC391849450BD9DBF80400FEF79FFC91
:10337000074654F82A00FEF79AFC38441FFA80F9F1
:103380006D1CB542E0D35F486B38FEF790FC4844B3
:10339000801C1FFA80F95B4800904B465FA2082111
:1033A0004046FFF76DFF09F1030087B20790002345
:1033B0003A465CA14046FFF7E5F9002C52D00025C3
:1033C0004EE000BF05EB450A04EB8A0B54F82A00D7
:1033D000DBF804306BB350B34A4957A26B39CDE9DF
:1033E000001008214046FFF74BFF09F10200009052
:1033F000DBF80400FEF75BFC074654F82A00FEF7F2
:1034000056FC07443F486B38FEF751FC39180098CA
:10341000401A801EC1B24046FFF7D0F83A2249490F
:10342000D8F8100000F06EFC0098401C0AE00093F1
:1034300001E040B100904B4638A208214046FFF71A
:103440001FFF079887B2DBF8081029B100233A461E
:103450004046FFF797F902E04046FFF711F86D1C70
:10346000B542AFD3D8F8080040688068002845D03E
:10347000814600200446064603AD02903246761C83
:1034800002AB012148460095FEF754FC029850B16A
:103490000068FEF70CFCA042F0D902980068FEF725
:1034A00006FC84B2EAE7012E28D027A20821404674
:1034B000FFF7E6FE00273A467F1C02AB0121484693
:1034C0000095FEF737FC0298002817D0A11C8EB299
:1034D00000680090334611A208214046FFF7D0FE55
:1034E0000298F61CB2B2416821B100234046FFF7B2
:1034F00049F9E0E74046FEF7C3FFDCE709B0BDE865
:10350000F08F0000AA55000025732573000000000D
:103510004F7074696F6E733A0D0A00002020252DDC
:103520002A733A0053686F7720636F6D6D616E6424
:103530002068656C702E000020202573257325738C
:1035400000000000641B0000537562636F6D6D61C5
:103550006E64733A0D0A0000806890F83901C0F378
:103560004000704700F180400068002800D0012032
:10357000704708B500F180400021016000680090AC
:1035800008BD4FF47A714843AFF3008000283ED065
:103590001F49204A096800BF00BF00BF00BF00BF2D
:1035A00000BF00BF00BF91422FD000BF00BF00BFCF
:1035B00000BF00BF00BF00BF00BF00BF00BF00BF13
:1035C00000BF00BF00BF00BF00BF00BF00BF00BF03
:1035D00000BF00BF00BF00BF00BF00BF00BF00BFF3
:1035E00000BF00BF00BF00BF00BF00BF00BF00BFE3
:1035F00000BF00BF00BF00BF00BF00BF00BF00BFD3
:1036000000BF00BF00BF00BF00BF0138C3D170477B
:103610006C0000200024F40000283ED01F49204AFE
:10362000096800BF00BF00BF00BF00BF00BF00BFF0
:1036300000BF91422FD000BF00BF00BF00BF00BF3E
:1036400000BF00BF00BF00BF00BF00BF00BF00BF82
:1036500000BF00BF00BF00BF00BF00BF00BF00BF72
:1036600000BF00BF00BF00BF00BF00BF00BF00BF62
:1036700000BF00BF00BF00BF00BF00BF00BF00BF52
:1036800000BF00BF00BF00BF00BF00BF00BF00BF42
:1036900000BF00BF00BF0138C3D170476C000020DD
:1036A0000024F40000283ED01F49204A096800BFCA
:1036B00000BF00BF00BF00BF00BF00BF00BF9142FE
:1036C0002FD000BF00BF00BF00BF00BF00BF00BFC2
:1036D00000BF00BF00BF00BF00BF00BF00BF00BFF2
:1036E00000BF00BF00BF00BF00BF00BF00BF00BFE2
:1036F00000BF00BF00BF00BF00BF00BF00BF00BFD2
:1037000000BF00BF00BF00BF00BF00BF00BF00BFC1
:1037100000BF00BF00BF00BF00BF00BF00BF00BFB1
:1037200000BF0138C3D170476C0000200024F400B2
:103730002DE9F0414FF480773846FFF713FF01245D
:10374000104EA50748B13846FFF713FF0120C5F812
:10375000080374700020FEF7D9FA4FF482773846D8
:10376000FFF700FF00280BD03846FFF702FF0220CA
:10377000C5F80803B470BDE8F0410120FEF7C6BAF1
:10378000BDE8F081C81700204907090E002806DAB5
:1037900000F00F0202F1E02282F8141D03E000F1B4
:1037A000E02282F8001400F01F020121914040093C
:1037B000800000F1E020C0F88012C0F800117047CE
:1037C0000C4A904201D10C4810E0B0F1402F05D0D6
:1037D0000A4A904205D10848103007E006480830F0
:1037E00004E0074A904203D103481830FDF795BD25
:1037F00007207047003000400400002000300240E5
:10380000003001402DE9F0418846054600F0E0FC1B
:10381000234E002828461AD0FEF7FEF8304490F8D0
:1038200050008009032802D001280ED007E04FF095
:10383000A040D0F81005E84010F0010F05D003219A
:103840002846BDE8F04100F091BB0221F8E700F006
:10385000CBFC002822D02846FEF7DEF804464FF4C1
:10386000807000EB84000F4F81B207EB8400D0F82A
:10387000102542F00102C0F81025084600F0A2FB16
:10388000B8F1000F0AD02846FEF7C6F856F8200017
:10389000002803D00120A040C7F80403BDE8F08150
:1038A000DC170020006000402DE9FC41DFF8A48017
:1038B000044608EB0400002790F938001346C017AF
:1038C0000E46401C01D0082741E0F27819462046F8
:1038D000FEF77EF80546401C38D0B07850B14FF066
:1038E000A04000EB8400D0F8001721F00201C0F8DE
:1038F000001707E000217378204600910A460191E5
:1039000000F006FBF078C0B11348317800EB850079
:10391000D0F81025114B1A40C0F810254FF4F8527A
:103920004FF4403302EA042203EA01410A43D0F88B
:1039300010150A43C0F8102509E008EB050032789D
:1039400010F8501F41EA8211017000E00427384648
:10395000BDE8FC81DC17002000600040FFE0FCFFB8
:1039600070B5144D95F85E0008B1082070BD0020B8
:10397000411E2A18401CC0B282F838102028F8D303
:1039800000242046FEF716F8641CE4B20E2CF8D38F
:1039900007210620FFF7F8FE4FF4BE7000F012FB7F
:1039A00005494FF00040C1F80403012085F85E008E
:1039B000002070BDDC17002000600040034890F834
:1039C0005E00002800D0012070470000DC170020B6
:1039D0000121B1EB507F01D10120704700207047D9
:1039E00070B54FF08040D0F80443114D600706D504
:1039F0004FF4847000F01CFB08B168688047A00693
:103A000007D54FF48A7000F013FB10B1A9680020AD
:103A1000884760060AD54FF48C7000F009FB002837
:103A200004D0A968BDE870400120084770BD0000BF
:103A30002400002003490120C1F80803091D086083
:103A40007047000000D000402DE9F04791468846BD
:103A500004464FF480354FF4A0760027DFF884A0A9
:103A600016E000BFD4F8040328420DD0A05958B185
:103A7000C4F84853C4F808533146204600F059FBB7
:103A80005AF82810F8B28847361D6D00B6B27F1C70
:103A90004F45E7D3D4F804034FF4807110F0010FC1
:103AA00009D0D4F8000130B1204600F042FB5AF8AA
:103AB000281004208847D4F804034FF4827110F0D2
:103AC000020F0CD0D4F80401002808D0204600F0E2
:103AD00030FB5AF82810BDE8F04705200847BDE83C
:103AE000F0870000400000202DE9FC5F07460C46EF
:103AF000407915464A4900EBC00201EB8206984620
:103B0000317F11B10820BDE8FC9F464951F82010D3
:103B10003868FFF755FE08B11120F4E7C6E90058F0
:103B2000207B4FF0A04B4FF00109012805D82278E7
:103B300009FA02F0CBF80C0502E0207800F027FA31
:103B40004FF0000ACDF800A0CDF804A0207853462D
:103B50005246012100F0EEF965784FF0FF38FF2D55
:103B600007D009FA05F0CBF80C05284600F0F4F967
:103B700000E04546A078FF2809D0002280460123B6
:103B8000CDF800A01146CDF804A000F0D3F9E078FC
:103B9000FF2804D000F0FBF9E07800F0DDF9787937
:103BA000E17800EBC0021E4800EB820081773868A4
:103BB0002278C0F80825C0F80C55C0F81085A16817
:103BC000C0F82415227B617B01B10121012A04D0B8
:103BD000022A05D0032A08D105E041F0020104E0E1
:103BE00041F0040101E041F00601C0F8541561798B
:103BF000C0F8C015316811B14021C0F80413072185
:103C0000C0F80015306820B1217997F90400FFF75A
:103C1000BBFD504686F81DA086F81C9073E7000097
:103C2000DC180020245500001FB5069C00918DF87B
:103C3000042002938DF80C400022694600F002F83F
:103C400004B010BDF0B40D4613464179144A01EB9F
:103C5000C10102EB81014A7F12B1F0BC1120704713
:103C60000C6801221CB113F0140F00D14A7795E8BB
:103C7000D0100C3181E8D01011F8154F24F0070452
:103C800001F821498C7FFF2C04D04FF0A046A240C0
:103C9000C6F80C2500682A46F0BC00F0D1BF000031
:103CA000DC180020F8B5054614480E4610EB053226
:103CB00018D00026344637460FE000BF4FF480701E
:103CC00000EB8403D05830B10120A040304386B2CD
:103CD000D750D0580090641CE4B2284601F00AF88E
:103CE000A042EBD80648314600EB850050F8042C82
:103CF00001B02846BDE8F0401047000000400140F8
:103D0000481900200FB408B50399002904D004AA6B
:103D100000926A4600F00FF801B05DF814FB10B590
:103D200082680446002A05D0D4E904032168984734
:103D30000020A06010BD2DE9FC4791460C00804694
:103D400076D014F8011B39B125290ED04046FDF775
:103D50001FFE20780028F4D198F80C00002867D0C6
:103D60004046BDE8FC47FFF7DABF0020012221787A
:103D70002B291BD02D2902D0302908D102E040F098
:103D8000010001E040F00200641C002AEFD1002590
:103D90002A290ED02178A1F130020A2A11D205EB8E
:103DA000850201EB4205641C303DF1E740F0040060
:103DB000EAE7D9F800100B1DC9F800300968641C47
:103DC0000D44217800232E290BD114F8011FA1F1F5
:103DD00030020A2A05D203EB830201EB4203303B97
:103DE000F3E76C290DD068290BD0692921D00BDCB1
:103DF000252918D0582931D063290ED0642915D12E
:103E000017E014F8011FECE7702969D0732932D04C
:103E100075291BD0782909D120E0D9F80000011DAF
:103E2000C9F8001001784046FDF7B2FD641C90E728
:103E30006CE0D9F800100A1DC9F800200968CDE926
:103E400000500A224046FEF7D1FDEFE7D9F80010F6
:103E50000A1DC9F8002009680A2206E0D9F80010F6
:103E60000A1DC9F8002009681022CDE9005040461B
:103E700001F028FADAE7D9F8001000270A1DC9F87E
:103E800000200E68C00705D112E04046761C7F1C5A
:103E9000FDF77EFD31780029F7D104E0202140466E
:103EA0006D1EFDF775FDBD42C0D9002DF6D1BDE7F1
:103EB0004EB13046FCF7B8FC074604E020214046EE
:103EC0006D1EFDF765FDBD4206D9002DF6D103E05C
:103ED0004046761CFDF75CFD31780029F8D1A5E756
:103EE000D9F80000011DC9F80010056830214046CE
:103EF000FDF74EFD78214046FDF74AFD08200021E0
:103F0000CDE90001034610222946B0E7BDE8FC8751
:103F100070B541EA4201DDE904564FF0A04441EAA0
:103F2000830141EA052104EB800041EA0641C0F823
:103F3000001770BD70B541EA4201DDE904564FF04B
:103F4000A04441EA830141EA052104EB800041EAF3
:103F50000641C0F8001770BD1CB5002100910B464A
:103F6000012201911146FFF7E5FF1CBD4FF0A04271
:103F700002EB8000D0F8002722F44032C0F800277E
:103F8000D0F8002742EA0141C0F8001770474FF00F
:103F9000A04201218140C2F80815704718B5084BAE
:103FA0006C4601441B68009306E000BF54F82030C3
:103FB000D3F81035401C08C28142F7D818BD000064
:103FC00008550000034908B5084400210160006855
:103FD000009008BD0060004002494058012800D010
:103FE00000207047006000404058002800D00120A9
:103FF000704708B5002242504058009008BD38B5BF
:1040000001240094FEF73CFF38BD000002494058EF
:10401000002800D00120704700D00140034908B5B6
:104020000844002202600068009008BD00D00140F2
:1040300000F180410868002210B101200A60704739
:10404000104670474058002800D00120704708B53E
:10405000002242504058009008BD01680A68496833
:104060008068884201D9491C00E00021914201D1B9
:1040700001207047002070478068884201D9481CA1
:104080007047002070472DE9F04104464FF00008CA
:104090000E464046FDF756F92046FFF7DEFF0700C3
:1040A00009D0207C38B14FF004080020FDF74CF90E
:1040B0004046BDE8F0812068456841682046FFF72A
:1040C000DBFF2168486037B1206801682046FFF7B0
:1040D000D3FF21680860E268012A14D0022A16D0B2
:1040E000042A19D0082A1CD06068314605FB02005A
:1040F000FCF768FB204600F0B5F821688A68824228
:10410000D3D28860D1E7616830784855F2E76168BA
:10411000308821F81500EDE76168306841F8250026
:10412000E8E7D6E90001626802EBC502C2E90001D6
:10413000E0E708B5002242504058009008BD00005A
:10414000024A1060101D0160704700002C7600408C
:1041500002494058002800D00120704700700040FC
:10416000034908B50844002202600068009008BDB9
:10417000007000404058002800D00120704740588F
:10418000002800D00120704708B500224250405856
:10419000009008BDD0F80403084000D0012070470B
:1041A0004058002800D00120704708B50022425036
:1041B0004058009008BD38B1C16929B1016A19B1F0
:1041C000406A08B1002070474FF0FF307047000090
:1041D0000449084490F93800082801DB01207047A1
:1041E00000207047DC1700200449084490F938008B
:1041F000082801D20120704700207047DC170020FA
:1042000038B5044600200D468DF800000B4601220B
:1042100021464020FDF72EF9002811D129791229D5
:104220000FD021780A060BD521F0800040F07F00E6
:1042300020702B46012221465FF04000FDF773FA03
:1042400038BD20782B4640F08000207001222146A6
:104250004020FDF768FA0028F2D102222B46694679
:104260005820EBE701680A684968914201D3881A2F
:1042700070478068801A0844401C704770B501265A
:1042800070044FF0E0210025C1F88001084C401077
:10429000C4F84803C4F8080366602F20FFF7BCF990
:1042A000A660044C2F20A560FFF7B6F9A57070BD7D
:1042B000001001405400002070B50546C87D0C4632
:1042C00000284FF4847128460AD0FFF75DFFD5F827
:1042D0001805627EE1688854607E401C607670BD7F
:1042E000FFF752FFD5F8180570BD1FB501238DF8F3
:1042F00000308DF808100192D0E90012684690470E
:104300001FBD0000FEB5204C002501266570A6707B
:104310001E48E0611E4820621E4860622046FDF78C
:10432000C6F806206073A6730220E0731520207380
:104330002046FDF737FA1849224601F1C80001600E
:10434000C8218180A06101218020FDF7EAF88DF865
:1043500000500C208DF801002146B420FDF721F912
:10436000BDF80200214620F4F97040F00D00ADF8D0
:1043700002009DF8080040F002008DF80800684631
:10438000FDF71DF9FEBD0000E8010020D518000072
:104390002D1900008335000098150020F8B505465A
:1043A0000C460846FFF707FF60B95DB100272E1DD8
:1043B0008DF800702346012269465020FDF75AF817
:1043C00018B112E04FF0FF30F8BD9DF800003188C1
:1043D00020F08000C90A40EAC1108DF80000234691
:1043E000012269465020FDF79EF90028ECD12146B4
:1043F000284600F0F3FB0028E6D18DF800702878FD
:1044000023464FF00102694620B15720FDF732F8EC
:1044100078B11AE05520FDF72DF8B0B99DF80000ED
:10442000012240F080008DF80000234669465520A7
:1044300009E09DF80000234640F080008DF8000060
:10444000012269465720FDF76EF90028BCD12346AA
:104450000222694667200097FDF70CF80028B3D1C7
:104460009DF80000234620F03F02308800F03F0115
:1044700011438DF800109DF80110C0F3412221F086
:10448000300141EA021121F00701C0F38210084314
:104490008DF80100022269466720FDF744F9F8BD56
:1044A000F8B505460C460846FFF785FE58B955B1E4
:1044B00000268DF800602346012269465120FCF752
:1044C000D9FF18B10EE04FF0FF30F8BD9DF80000A5
:1044D000234640F010008DF800000122694651206B
:1044E000FDF721F90028F0D12146284600F076FB9F
:1044F0000028EAD18DF80060234601226946562043
:10450000FCF7B8FF0028E0D1287800289DF80000CB
:104510000BD040F0080000BF8DF8000023460122B8
:1045200069465620FDF7FFF8F8BD40F08000F3E73C
:10453000F8B506460C460846FFF73DFE60B95EB189
:104540000027351D8DF80070234601226946512051
:10455000FCF790FF18B11EE04FF0FF30F8BD9DF85A
:104560000000234620F00101287800F001020A43F0
:1045700022F00201C0F3400241EA420121F00401AD
:10458000C0F3800041EA80008DF8000001226946F6
:104590005120FDF7C8F80028E0D12146304600F050
:1045A0001DFB0028DAD18DF80070307823464FF0DB
:1045B0000102694620B15720FCF75CFF78B11AE090
:1045C0005520FCF757FFB0B99DF80000012240F0DC
:1045D00002008DF8000023466946552009E09DF849
:1045E0000000234640F002008DF8000001226946D9
:1045F0005720FDF798F80028B0D18DF800702346B9
:10460000012269465820FCF735FF78B99DF8000073
:10461000297820F08000490940EAC1108DF8000097
:104620002346012269465820FDF77DF8002895D1E0
:104630002346012269465C200097FCF71BFF0028F7
:104640008CD19DF80000297820F0C000C90840EA0C
:1046500081108DF80000A8788DF8010068788DF839
:1046600002002346032269465C20FDF75CF8F8BD92
:10467000F8B506460D460846FFF79DFD60B95EB1E8
:104680000027341D8DF800702B4601226946512009
:10469000FCF7F0FE18B113E04FF0FF30F8BD9DF8C5
:1046A0000000A17820F00800C1F3001140EAC10029
:1046B0008DF800002B46012269465120FDF733F8A2
:1046C0000028EBD12946304600F088FA0028E5D1D1
:1046D00029463046FEF740FB0028DFD18DF80070F8
:1046E0002B46012269465820FCF7C4FE78B99DF894
:1046F0000000A17820F08000C90840EAC1108DF8C0
:1047000000002B46012269465820FDF70CF80028CE
:10471000C4D12B4601225C200DF102010097FCF769
:10472000A9FE0028BAD19DF80200A17820F003006C
:1047300001F0030101438DF8021021F00400A1787B
:104740002B46C1F3800140EA81008DF802006078B9
:104750008DF8010020788DF80000032269465A2068
:10476000FCF7E1FFF8BDF8B506460C460846FFF732
:1047700022FD60B95EB100208DF80000351D234692
:10478000012269465220FCF775FE18B121E04FF076
:10479000FF30F8BD2888C10705D09DF8001041F012
:1047A00001018DF80010810705D59DF8001041F03A
:1047B00002018DF80010400705D59DF8000040F07B
:1047C00004008DF800002346012269465220FCF7C0
:1047D000AAFF0028DDD1224629463046BDE8F84030
:1047E000FDF7CCBCF8B505460C460846FFF7E3FCE0
:1047F00060B95DB100272E1D8DF80070234601229F
:1048000069465020FCF736FE18B113E04FF0FF3038
:10481000F8BD9DF80000B17820F0400001F00101E2
:1048200040EA81108DF8000023460122694650209D
:10483000FCF779FF0028EBD12146284600F0CEF99D
:104840000028E5D18DF80070287823464FF001024A
:10485000694620B15720FCF70DFE78B11AE05520CB
:10486000FCF708FEB0B99DF80000012240F04000BE
:104870008DF8000023466946552009E09DF80000A8
:10488000234640F040008DF8000001226946572081
:10489000FCF749FF0028BBD121463046BDE8F8406F
:1048A000FDF7C2BC2DE9F84306460D460846FFF762
:1048B00082FC4FF0FF3768B966B14FF00008341D35
:1048C0008DF800802B46012269465020FCF7D2FD6E
:1048D00018B11BE03846BDE8F883207880069DF8C3
:1048E000000020F0070007D540F007008DF8000019
:1048F00001212846E97003E08DF800002846EF709A
:104900000346012269465020FCF70DFF0028E2D142
:104910002946304600F062F90028DCD129463046AD
:10492000FEF747FA0028D6D18DF800802B460122E9
:1049300069465920FCF79EFD78B99DF80000217862
:1049400020F08000090940EAC1108DF800002B46D4
:10495000012269465920FCF7E6FE0028BBD1294612
:104960002046BDE8F843FDF79DBCF8B505460E4668
:104970000846FFF720FC60B95DB100208DF800000B
:104980002C1D3346012269465220FCF773FD18B1F5
:1049900013E04FF0FF30F8BD9DF80000217820F0C3
:1049A000080001F0010140EAC1008DF80000334623
:1049B000012269465220FCF7B6FE0028EBD13146B1
:1049C000284600F00BF90028E5D131462846FEF7CD
:1049D000C3F90028DFD131462046BDE8F840FDF795
:1049E0009BBC0000F8B506460C460846FFF7E3FB03
:1049F00060B95EB10027351D8DF800702346012295
:104A000069465020FCF736FD18B117E04FF0FF3033
:104A1000F8BD707804289DF800002DD0298820F07A
:104A20001000C1F3C02140EA011000BF8DF8000062
:104A30002346012269465020FCF775FE0028E7D185
:104A40002146304600F0CAF80028E1D12146304620
:104A500000F0C4F80028DBD121463046FEF7D6F935
:104A60000028D5D18DF800702346012269465820D0
:104A7000FCF700FD40B118E0298820F02000C1F3C8
:104A8000C02140EA4110D1E79DF80000298820F0BC
:104A90000800C1F3802140EAC1008DF800002346E0
:104AA000012269465820FCF73EFE0028B0D122467C
:104AB00029463046BDE8F840FDF77BBCF8B5054611
:104AC0000C000CD0606A50B100260B468DF80060D7
:104AD000012269465120FCF7CDFC18B10FE04FF0E0
:104AE000FF30F8BD297A9DF80000234661F3451098
:104AF0008DF80000012269465120FCF714FE0028C1
:104B0000EFD12146284600F069F80028E9D18DF858
:104B100000602346012269465620FCF7ABFC0028C2
:104B2000DFD1287800289DF800000AD040F002006C
:104B30008DF800002346012269465620FCF7F3FD5C
:104B4000F8BD40F02000F3E7F8B505460C000CD0A6
:104B5000606A50B100260B468DF80060012269465C
:104B60005120FCF787FC18B113E04FF0FF30F8BD7F
:104B70009DF80000297A20F04000C1F3400140EA8E
:104B800081108DF800002346012269465120FCF770
:104B9000CAFD0028EBD12146284600F01FF8002866
:104BA000E5D18DF800602346012269465620FCF7C6
:104BB00061FC0028DBD1287800289DF800000AD08D
:104BC00040F004008DF8000023460122694656207B
:104BD000FCF7A9FDF8BD40F04000F3E770B50C46C6
:104BE0000546FDF73DFA002805D121462846BDE8D7
:104BF0007040FDF7FFB970BD1FB50C4B0FCB8DE8B2
:104C00000F001A208DF8030017208DF802001820DD
:104C10008DF8010016208DF8000004480023044A96
:104C20006946F038FEF760FF04B010BDF85400008C
:104C3000354C000001490120087070470000002039
:104C40002DE9F843044610681E4615460F464FF0FE
:104C5000000810B1FEF7BCFEF8B1A86810B1FEF76D
:104C6000B7FED0B128792968C4F84415C4F84805BE
:104C7000287BA968C4F83415C4F838054FF48C753E
:104C80004046C4F81881D4F818110091F2074FF08B
:104C9000010107D0C4F8501506E087F81D801020E8
:104CA000BDE8F883C4F85005B20702D5C4F8401532
:104CB00001E0C4F84005300700D42161386848B1EC
:104CC00046F38000401C4FF040000FD0C4F80403AE
:104CD0000020E5E729462046FFF74CFA0028F9D0E6
:104CE000B87FFF28F4D0FFF752F9F1E7C4F80803C2
:104CF000EEE70000062802D20249085C7047002057
:104D000070470000305500002DE9F04115460E4671
:104D10000446FDF7BFFB78B9A068FA21077A90F83E
:104D20000A802046FDF74AFCFA212046FDF77CFB6D
:104D30002046FDF7AFFB10B10620BDE8F081A0686A
:104D4000007A3070A068807A28703078C01BC1B2B9
:104D50002046FDF789FB2978A1EB0800C1B2204667
:104D6000FDF738FC0020E8E72DE9F84F1D4C002541
:104D70006846D4E901A6FDF749FC002738B30023B3
:104D8000009A61681CE0D1F800C00846944503D938
:104D9000ACEB02020A6015E0A2EB0C026344076070
:104DA000D0F80CC0C1698146BCF1000F08D006EBF9
:104DB000030828F07F48C0E9018CC9F81C5005465B
:104DC0000029E0D128466160FDF70AFF03E028468C
:104DD000FDF706FF10B15046FCF7F0FFE770BDE8A5
:104DE000F88F0000540000200D4B10B5596831B108
:104DF00002680C68A24204D8A21A0A60C161586015
:104E000010BD0B4603E00B46C969121B21B10C68AB
:104E10009442F8D3A41A0C600260C161D86110BD3D
:104E2000540000202DE9F041144E77683D462C4691
:104E300003E0844204D02546E469002CF9D11BE04C
:104E4000D4B1A5420BD1F869706040B90C4901207A
:104E500088600021B160F0702F20FEF7DDFB216833
:104E6000E069E86110B1026811440160706887422E
:104E700002D00120BDE8F0810020FBE754000020B3
:104E8000001001402DE9F041194D6C68002C2CD028
:104E9000184800270068A968B846401A20F07F46E5
:104EA0002068B0420CD82146361A0744E469087CD1
:104EB00020B181F81080886949698847002CEFD1BA
:104EC00029786878814206D1401CC0B268700228F7
:104ED00001D185F80180064869780C3040F82170CE
:104EE000BDE8F0411420FBF71DBEBDE8F0810000D5
:104EF000540000200415014070B50C4605464FF4DF
:104F00008E71FFF741F9A18AA068415CA08A401C1C
:104F1000A082C5F81C1570BD1FB500228DF80020B9
:104F20008DF80810816801918275D0E900126846F9
:104F300090471FBD2DE9FF470C4605464FF4007111
:104F4000FFF728F901274FF40178002618B34FF432
:104F5000927949462846FFF712F9E0B149462846BA
:104F6000FFF712F9C5F80883A07E00B96F60022030
:104F70008DF80000D5F88004C5F880040390E07D2A
:104F80008DF80800E0680190E6752676D4E90012F5
:104F90006846904727E004212846FFF7FBF810B346
:104FA0004FF484712846FFF7EAF8E0B1214628461D
:104FB000FFF782F9E07D617E884214D1207E38B10E
:104FC000617EE268E0752069E0602676667607E03B
:104FD000A07E00B96F60C5F80883E675617EE2685F
:104FE0002046FFF782F94FF48E7841462846FFF7B6
:104FF000C6F888B1A08AA17D884204D221462846FD
:10500000FFF77AFF08E041462846FFF7BDF8A17D8B
:1050100011B12046FFF780FF4FF4A27841462846A1
:10502000FFF7ADF8002812D041462846FFF7ACF84C
:10503000A07E00B12F60E07D002808D0E675617E7B
:10504000E26804B02046BDE8F047FFF74EB9BDE87E
:10505000FF872DE9FF410C464FF49277054639460C
:10506000FFF79EF80026C0B139462846FFF79DF8A5
:1050700002208DF80000D5F88004C5F88004039064
:10508000D5F83C058DF80800E0680190E6752676B5
:10509000D4E900126846904724E04FF488773946F7
:1050A0002846FFF77DF8E8B139462846FFF77DF836
:1050B000D5F83C05C1B2E07D884213D1207E60B1B5
:1050C000E268D5F8000220F02000C5F80002207E3A
:1050D000E0752069E060267601E0E675E26820462A
:1050E000FFF703F94FF4A27739462846FFF758F83F
:1050F00068B139462846FFF758F8E07D38B1E675C3
:10510000D5F83C05E268C1B22046FFF7EEF84FF44F
:10511000907631462846FFF743F800280FD03146F5
:105120002846FFF742F8A07D002808D0D5F84C05A6
:1051300004B0C1B22046BDE8F041FFF7EDBEBDE8C6
:10514000FF8110B593691C68635C491C89B2645C7B
:10515000491C43EA04230380936989B21C68635C99
:10516000491C89B2645C491C43EA04234380926968
:1051700089B213685A5C491C89B2595C42EA012120
:10518000818010BD70B51546049A0C46902B56D000
:1051900010DC802B2FD006DC202B50D0402B6AD087
:1051A000602B57D148E0842B65D0882B23D08C2BE3
:1051B00050D130E0A02B45D006DC942B3CD0982B6E
:1051C00040D09C2B46D103E0C02B24D0E02B41D112
:1051D000936921889B8801F114069E4239D82B7867
:1051E000083103EB430389B200EB8300FFF7A9FF0B
:1051F000208814303AE0936921889B888E1D9E4256
:1052000027D82B7803EB430300EB8300FFF799FFCC
:105210002088801D2AE0936921889B8801F10C0673
:105220009E4216D82B7803EB430300EB8300FFF775
:1052300088FF20880C3019E020880E301DE020887F
:1052400008301AE0936921889B8801F10E069E427E
:1052500001D9238070BD2B78083103EB430389B259
:1052600000EB8300FFF76DFF20880E302080287848
:10527000401C287070BD2088801D088070BD30B52E
:105280008B6902889988D41C8C420BD81C68A5189D
:10529000A25CA9786D78090441EA052111431961DE
:1052A0000188C91C018030BD896902888B889A42B7
:1052B00001D3038070470B689A5C0A750188491C0A
:1052C000018070472DE9F05F8346DDE90A4A99467F
:1052D00090460D460846012703E000BFB0FBF8F0FA
:1052E0007F1C4045FAD2B94500D94F465FEACA70E3
:1052F00012D18CB15FEA8A7002D5B9F1000F01D0EA
:10530000202607E0302605E031465846641EFCF7AB
:105310003FFB0CB1A742F7D35FF00106B9F1010FD3
:1053200002D9A9F1010903E0B5FBF6F0404502D32B
:1053300006FB08F6F2E7DFF83C9000BFB5FBF6F09D
:1053400000FB165519F800105846FCF721FBB6FB78
:10535000F8F6002EF2D15FEACA7009D0002C07D00F
:10536000A74205D220215846641EFCF711FBF5E741
:10537000BDE8F09F585600001CB5002913D0826884
:10538000127C8A420FD008A3D3E90023CDE9002381
:1053900001F12F028DF803208268117400696A46BA
:1053A00003A1FEF7AFFC1CBD1B5B34006D000000C9
:1053B000257300001CB5826899B1D27B8A420FD058
:1053C0000CA2D2E90032CDE9003201F12F028DF8B2
:1053D00005208268D17300696A4608A1FEF792FC35
:1053E0001CBDD173006902B0054ABDE8104003A19D
:1053F000FEF788BC1B5B313B33006D00257300005A
:10540000465500000100000100300040030001008B
:1054100093FEDFBBD10D07B9079F843A186A3B3B67
:10542000F683AB3B6776003C2087283C1688463CD9
:10543000D40E533C76E8473C785C213C4B8EBE3B17
:10544000A10BBA39DBDDC4BBBFE74CBC4C1395BC28
:10545000B1B3B4BC584ABDBC9F47A8BCBA9063BCAA
:10546000DA1E46BB85463F3C24E5F03C7887483D44
:10547000B3F48C3D75EFB23D22E8D23DBF00EA3D6A
:10548000581CF63D581CF63DBF00EA3D22E8D23DCF
:1054900075EFB23DB3F48C3D7887483D24E5F03C90
:1054A00085463F3CDA1E46BBBA9063BC9F47A8BC0A
:1054B000584ABDBCB1B3B4BC4C1395BCBFE74CBC9F
:1054C000DBDDC4BBA10BBA394B8EBE3B785C213C03
:1054D00076E8473CD40E533C1688463C2087283C4F
:1054E0006776003CF683AB3B186A3B3B079F843AE8
:1054F000D10D07B993FEDFBBFFFFFFFF02FF0000E6
:105500000000004000000000000000500007000004
:10551000A01800207C1800202000000001000000DE
:1055200000000000712B0000812B0000912B000077
:105530001010101010101B37001B38001B45002CDA
:1055400020001B5B4A001B5B6D00082008001B5BF2
:105550004B00202D20001B5B48001B5B366E001BA0
:105560005B324A001B5B3F336C0020626164207039
:105570006172616D6574657220636F756E740D0A7A
:105580000020756E6B6E6F776E20706172616D6555
:105590007465723A20003A20636F6D6D616E64200D
:1055A0006E6F7420666F756E64002D682C202D2D33
:1055B00068656C700000000000000000C05500002D
:1055C00020570000085700000000000015300000C0
:1055D00024570000F0560000000000006530000075
:1055E00000000000000000000000000000000000BB
:1055F0004057000028570000B8550000AD2F0000AC
:105600005857000048570000000000006D2F0000B0
:10561000745700006057000000000000B530000023
:105620000000000028560000C45700007C5700000E
:105630000000000025320000000000000000000013
:10564000000000000000000068580000CC57000077
:1056500020560000513100003031323334353637B6
:105660003839414243444546004040404040404074
:105670004040414141414140404040404040404025
:1056800040404040404040404005020202020202C9
:105690000202020202020202022020202020202018
:1056A000202020020202020202029090909090902C
:1056B00010101010101010101010101010101010EA
:1056C000101010100202020202028888888888885E
:1056D000080808080808080808080808080808084A
:1056E0000808080802020202400000006956000093
:1056F000456E61626C6520636F6C6F7265642073C8
:10570000796E7461782E000044697361626C652063
:10571000636F6C6F7265642073796E7461782E00AC
:105720006F6666006F6E0000546F67676C6520637C
:105730006F6C6F7265642073796E7461782E0000EF
:10574000636F6C6F72730000436C656172207363EA
:105750007265656E2E000000636C6561720000006A
:10576000436F6D6D616E6420686973746F72792E1A
:1057700000000000686973746F727900417373757B
:105780006D652038302063686172732073637265C1
:10579000656E20776964746820616E642073656E3D
:1057A0006420746869732073657474696E6773200C
:1057B000746F20746865207465726D696E616C2EFB
:1057C0000000000064656661756C7400436F6E7361
:1057D0006F6C652067657473207465726D696E61A6
:1057E0006C2073637265656E2073697A65206F72D1
:1057F00020617373756D657320383020696E206386
:1058000061736520726561646F7574206661696C8F
:10581000732E204974206D7573742062652065783D
:105820006563757465642061667465722065616383
:1058300068207465726D696E616C20776964746844
:10584000206368616E676520746F20656E73757282
:105850006520636F72726563742074657874206468
:105860006973706C61792E00726573697A650000E6
:10587000B05800000000002088000000FC1200006A
:105880003859000088000020405A00000C13000026
:1058900000000000F055000000000000005600006D
:1058A00000000000105600000000000048560000F4
:1058B00000000000000000000000000000000000E8
:1058C00000000000000000000000000000000000D8
:1058D00000000000000000000000000000000000C8
:1058E00000000000000000000000000000000000B8
:1058F00000000000000000000000000000000000A8
:105900000000000000000000000000000000000097
:105910000000000000000000000000000090D00324
:105920000000000000000000000000000000000077
:0859300000000000000000006F
:0400000500000201F4
:00000001FF
