:020000040002F8
:1030000000870020153202001D3202001F3202002C
:1030100021320200233202002532020000000000AB
:103020000000000000000000000000002732020045
:1030300029320200000000002B3202002D32020073
:10304000774002002F320200D1430200A940020063
:10305000B54002002F320200A13E02002F320200D2
:103060002F3202002F3202002F3202002F320200D4
:103070002F3202002F3202002F3202002F320200C4
:103080002F320200854002002F320200953E0200DE
:10309000CD4002002F320200D14002002F32020048
:1030A0002F3202002F3202002F3202002F32020094
:1030B0002F3202002F32020000000000000000004A
:1030C0002F3202002F3202002F320200C1400200D4
:1030D0002F3202002F3202002F32020000000000C7
:1030E00000000000000000000000000000000000E0
:1030F00000000000000000000000000000000000D0
:1031000000000000000000000000000000000000BF
:1031100000000000000000000000000000000000AF
:10312000000000000000000000000000000000009F
:10313000000000000000000000000000000000008F
:10314000000000000000000000000000000000007F
:10315000000000000000000000000000000000006F
:10316000000000000000000000000000000000005F
:10317000000000000000000000000000000000004F
:10318000000000000000000000000000000000003F
:10319000000000000000000000000000000000002F
:1031A000000000000000000000000000000000001F
:1031B000000000000000000000000000000000000F
:1031C00000000000000000000000000000000000FF
:1031D00000000000000000000000000000000000EF
:1031E00000000000000000000000000000000000DF
:1031F00000000000000000000000000000000000CF
:10320000DFF80CD000F0D2FD004800471573020033
:10321000008700200648804706480047FEE7FEE793
:10322000FEE7FEE7FEE7FEE7FEE7FEE7FEE7FEE776
:10323000D5400200013202002DE9F00F6FF00304C7
:103240002DED0C8B5FEAD30AD0E901C7B0F80090EE
:1032500004EB89040CEB04089FEDFE9A18BF4FEABB
:10326000D90B00F0C18100BF91ED000AB0EE493AE0
:1032700088ED000A91ED010AF0EE430A88ED010A9B
:1032800091ED020AB0EE431A88ED020A91ED030AAD
:10329000F0EE431A88ED030A91ED040AB0EE432ADA
:1032A00088ED040A91ED050AF0EE432A88ED050A3F
:1032B00091ED060AF0EE433A88ED060A91ED070A11
:1032C000203188ED070ADCED007A9CED017ADCED17
:1032D000026A9CED036ADCED045A9CED055ADCEDB4
:1032E000064AB0EE434A3D460CF11C0408F12008A2
:1032F0005FEA0B0600F02681D5ED008A94ED008A86
:1033000026EE280A65EEA89A25EE28AA27EEA8BA86
:1033100064EEA8AA67EE28BA26EEA8CA68EE28CA04
:10332000D5ED018A32EE000A32EEA92A73EE0A2A9E
:1033300030EE8BBA33EEAA3AD5ED020A74EE2C3A8F
:1033400071EE8C1AD4ED017A31EE2B1A27EE28DAC1
:1033500026EEA8CA66EE28BA25EEA84A65EE289A97
:1033600024EEA8AA68EE28AA67EEA8CA94ED027A0D
:103370007BEE0D8A31EE0C1A71EEAB1A30EE040AB8
:1033800032EE292A72EE8A2A33EE2A3A73EEAC3AEA
:1033900066EEA0CA66EE20BA65EEA09A25EE20AAD7
:1033A00024EEA04A68EE20AA27EEA0BA27EE20CA93
:1033B000D5ED030AD4ED036A30EE0A0A32EE042A90
:1033C00078EEAC8A31EE2B1A71EEA91A72EEAA2AA7
:1033D00033EE0B3A73EE8C3A66EE20CA65EEA0BA75
:1033E00065EE209A24EEA04A28EE20AA67EEA0AA55
:1033F00027EE20BA26EEA0CAD5ED040A78EEAC8AF4
:1034000031EE2B1A71EEA91A30EE040A32EE0A2AB6
:1034100072EEAA2A33EE0B3A73EE8C3A65EEA0CA2E
:1034200094ED046A65EE20BA24EEA0BA28EE204A94
:1034300067EEA09A27EE20AA66EEA0AA26EE20CA82
:10344000D5ED050AD4ED055A31EE2B1A71EE8B1A23
:1034500078EEAC8A30EE040A32EE292A72EE8A2A1D
:1034600033EE2A3A73EE8C3A65EE20CA24EEA0BA07
:1034700068EE20BA27EEA04A67EE209A26EEA0AAB0
:1034800066EE20AA25EEA0CAD5ED060A30EE040AA3
:1034900032EE292A27EE204A94ED065A72EE8A2A45
:1034A00066EEA09A78EEAC8A31EE0B1A71EEAB1A8A
:1034B00033EE2A3A73EE8C3A26EE20AA65EEA0AAE5
:1034C00064EEA0BA28EE20CA27EEA0BA65EE20CAA4
:1034D000D5ED070A30EE040A32EE294A72EE8A9AD6
:1034E00033EE2AAAD4ED074A31EE0C1A78EEAB8AF5
:1034F00028EE20CA71EE8B1A73EEACAA66EE202A73
:1035000067EEA0BA27EE20BA26EEA02A25EEA03A52
:1035100065EE203A24EEA08A74EE222A78EE8C0A18
:1035200031EE2B1A71EE8B1A30EE022A39EE833A05
:103530007AEE233A3AEE884A20342035761E7FF41C
:10354000DBAE00BF19F0070636D000BF95ED008A4C
:1035500094ED000A241D67EE889A67EE088A26EE2D
:1035600088AA66EE08AA25EE88BA65EE08BA24EEA7
:1035700088CA20EE088AF0EE477AB0EE667AF0EE5E
:10358000466AB0EE656AF0EE455A70EEA90A31EE71
:10359000281A71EE8A1A32EE2A2A72EE8B2A33EE3C
:1035A0002B3A73EE8C3A34EE084AB0EE645A2D1D75
:1035B000F0EE404A761EC9D1C2ED000A82ED011A32
:1035C000C2ED021A82ED032AC2ED042A82ED053A09
:1035D000C2ED063A82ED074A2032BAF1010A0CF137
:1035E000200C7FF441AE00BF13F0070A43D000BFA8
:1035F000B1EC010A3E1D0CF10404B9F10103A8EC81
:10360000010ADCED000A97ED001AB0EE490A00EE5F
:10361000810A29D0B3F1004F7DD2002B24DD251F74
:10362000341F13F0010F07D0D5ED010A94ED011AF4
:10363000241D2D1D00EE810A5B1015D0D5ED010A69
:1036400094ED011A00EE810AD5ED020A94ED021AFA
:1036500002E000000000000000EE810A5B1E04F1A1
:10366000080405F10805E9D1A2EC010ABAF1010A42
:103670000CF1040CBCD14068A9F10104A3081FD0CF
:10368000B3F1004F54D2002B1ADD624601461D46AD
:1036900092ED000A81ED000A92ED010A81ED010A26
:1036A00092ED020A81ED020A92ED030A103281EDD9
:1036B000030A10316D1EEBD10CEB031C00EB031061
:1036C00014F0030202BFBDEC0C8BBDE8F00F704795
:1036D000B2F1004F42D2002A1ADD001FACF1040102
:1036E00012F0010F05D091ED010A80ED010A001DD5
:1036F000091D52080CD000BF91ED010A80ED010AAE
:1037000091ED020A083180ED020A0830521EF3D111
:10371000BDEC0C8B00E002E0BDE8F00F7047F4EC6C
:10372000010A5B1EB6EC011A00EE810AF7D19BE795
:103730009CED000A80ED000A9CED010A80ED010A73
:103740009CED020A80ED020A9CED030A0CF1100CBC
:1037500080ED030A10305B1EEAD1B1E7BCEC010A30
:10376000521EA0EC010AF9D1D2E770B504460498C4
:10377000218008448000011F1D461846A26000F009
:103780004CF8656070BD2DE9F05F0546002092465B
:103790009B4688460646814640241BE02846414613
:1037A0004746224600F0C2F953465A46C01A914194
:1037B00010D311461846224600F0A9F92D1A67EBDE
:1037C00001084F4622460120002100F0A0F917EB26
:1037D00000094E41201EA4F10104DFDC48463146B9
:1037E0002A464346BDE8F09F40EA01039B0703D009
:1037F00009E008C9121F08C0042AFAD203E011F830
:10380000013B00F8013B521EF9D27047D2B201E0F1
:1038100000F8012B491EFBD270470022F6E710B5D5
:1038200013460A4604461946FFF7F0FF204610BD2E
:10383000421C10F8011B0029FBD1801A704770B59B
:10384000064600F0F7FD046805460A2200213046CE
:1038500000F08EF92C6070BD2DE9FE4F804681EAA4
:103860000300C00F0C46009021F0004123F00045FA
:10387000B8EB0200A94105D24046214690461C46BD
:103880000B46024623F00040104347D0270DC7F3F4
:103890000A00C3F30A510290401A019040286BDAE3
:1038A000C3F3130040F4801B0098924620B100231C
:1038B000D2EB030A63EB0B0B01985946C0F14002AF
:1038C000504600F024F906460D4650465946019AE6
:1038D00000F03CF910EB08006141002487EA115226
:1038E00084EAE7731A4340D0009A62B3019A012A2E
:1038F0004FEA075215DC001B61EB02014FF000425A
:1039000002EA0752CDE90042001C41F5801132461F
:103910002B4600F0ABF903B0BDE8F08F40462146DE
:10392000F9E7001B61EB0201001C41F58013001850
:103930005B412018A2F5001747EB030140EAD57060
:10394000B6196D4111E06D084FEA360645EAC075BB
:103950004FEA0752001B61EB0201001C41F5801188
:1039600049084FEA30000019514132462B4603B056
:10397000BDE8F04F00F06BB9009801224000002331
:10398000D0EB020263EBE073009821464FEAE0744B
:10399000B8EB000061EB0401E9E783F000435BE76B
:1039A00081F0004158E72DE9F04D81EA030404F06D
:1039B000004B21F0004514464FF0000A23F000416F
:1039C00050EA050220D054EA01021DD0C5F30A577F
:1039D0000246C5F31303C1F31300C1F30A5640F4C2
:1039E000801543F48013A7EB0608101BD64608F297
:1039F000FD3873EB050002D308F1010801E09218CD
:103A00005B41B8F1000F03DA00200146BDE8F08DFC
:103A100000204FF48011064684460EE0171B73EB1E
:103A2000050705D3121B63EB050306434CEA010CA3
:103A300049084FEA300092185B4150EA0107EDD186
:103A400052EA030012D082EA040083EA0501084327
:103A500005D0101BAB4106D20122002306E0002254
:103A60004FF0004302E06FF0010253101AEB060022
:103A70004CEB085110EB0A0041EB0B01BDE8F04D97
:103A800000F0E5B800F0004230F000400AD0C10D6F
:103A900001F56071C0F3160042EA0151C208400707
:103AA0001143704700200146704701F0004330B4D5
:103AB00021F0004150EA010206D00A0DA2F5607221
:103AC000C1F31301002A02DC30BC00207047440F10
:103AD00044EAC104C100E01830BC00EBC25000F061
:103AE0007FB830B50B46014600202022012409E0B2
:103AF00021FA02F59D4205D303FA02F5491B04FAA7
:103B000002F52844151EA2F10102F1DC30BD202A85
:103B100004DB203A00FA02F1002070479140C2F124
:103B2000200320FA03F3194390407047202A04DB56
:103B3000203A21FA02F00021704721FA02F3D04026
:103B4000C2F120029140084319467047202A06DB43
:103B5000CB17203A41FA02F043EAE07306E041FA5B
:103B600002F3D040C2F12002914008431946704749
:103B70002DE9F04791460F4680460446002614F88A
:103B8000015B2DB100F024F90068405DC007F6D15B
:103B90002B2D02D02D2D18D0641E4A4639462046C2
:103BA00000F01AF927B13968A14201D1C7F80080A5
:103BB00071054FF002040BD54042002803DD00F0F0
:103BC00039FC0460A007BDE8F08746F48066E4E7AE
:103BD0000028F8DA00F02EFC04606FF00040F2E7F5
:103BE0000029A8BF7047401C490008BF20F0010011
:103BF000704710B4B0FA80FC00FA0CF050EA0104EF
:103C000004BF10BC704749B1CCF1200421FA04F480
:103C100011FA0CF118BF012121430843A3EB0C0159
:103C2000CB1D4FEA00614FEA102042BF002010BCBC
:103C3000704700EBC35010440029A4BF10BC70476C
:103C4000401C490008BF20F0010010BC704710B5AF
:103C5000141E73F1000408DA401C41F100019218AF
:103C60005B411A4301D120F0010010BD2DE9F04D58
:103C700092469B4611B1B1FA81F202E0B0FA80F2AD
:103C800020329046FFF743FF04460F4640EA0A0001
:103C900041EA0B0153465A46084313D0114653EAF2
:103CA000010019D0C8F140025046FFF73FFF05461A
:103CB0000E46504659464246FFF729FF084305D0B5
:103CC000012004E020463946BDE8F08D0020054380
:103CD00046EAE0762C4337430A986305E40AA0EBF2
:103CE00008000022FD0A44EA47540A3002D50020A9
:103CF0000146E9E7010510196941DDE908450019A8
:103D00006941BDE8F04DA2E72DE9F04D00231A46C8
:103D10001B1A8A4103DB00200146BDE8F08DC1F388
:103D20000A52C1F3130141F480154FF0000BD10783
:103D300002D100186D41521E0027044640F2FF11C7
:103D4000384601EB620A3E468046024600204FF4A8
:103D50008011FFF7EBFEC2197141BB1846EB010061
:103D6000B4EB030C75EB000C04D3E41A65EB00050F
:103D700017460E46241908F101006D41804634288B
:103D8000E3DDF91946EB0600091BA84103D24FF009
:103D9000FF32134601E0002213461BEB070046EBFF
:103DA0000A51BDE8F04DFFF752BF0000064C074D29
:103DB00006E0E06840F0010394E8070098471034FB
:103DC000AC42F6D3FFF720FA80A60200A0A60200BC
:103DD000004870477CA602002DE9F05F824600781B
:103DE000002715468B460AF10104B946302801D058
:103DF0009DB113E014F8010B0127782803D058284F
:103E000001D045B10AE00DB1102D07D100271025D2
:103E100014F8010B02E0082500E00A250026B04650
:103E20000EE005FB080005FB06F1012701EB10463B
:103E30001FFA80F8B6F5803F00D3B94614F8010B9D
:103E4000294600F018F80028EBDABBF1000F05D086
:103E50000FB1641E00E05446CBF80040B9F1000FEA
:103E600006D000F0E7FA02210160C81EBDE8F09F0D
:103E700048EA0640FAE73A2800D2303820F020021B
:103E8000412A01D3A2F13700884201D34FF0FF301D
:103E9000704700000148006800470000BC2A00206D
:103EA0002DE9F04700268CB0DFF86091B0464FF462
:103EB0008075012437460696284604F043FC38B145
:103EC000D9F80403204203D0284604F031FC2643ED
:103ED0002D1D64007F1CADB2082FEDD34FF4BE74CE
:103EE000204604F02FFC48B1204604F021FC46F0A7
:103EF000004606AA0121002004F006FC444D16F0FD
:103F0000FF0F15D00127002437420DD009EB8401A3
:103F1000D1F81005D1F81015C0F3042055F824206D
:103F2000C1F3014102B190477F00641C082CEBD320
:103F3000002E67DA4FF0FF30CDE9088000263446C6
:103F4000281910F8587F90F9000027F0C008401C8D
:103F500044D009A9404603F06DFC58B34FEA9719C5
:103F6000404602F071F955F820701FB1B9F1030F06
:103F700003D00FE0B9F1030F30D108A84FEAD802FF
:103F800008F00703815C4FF0010C0CFA03FC41EAD6
:103F90000C0181544FF0A04101EB8800D0F80007DC
:103FA00006A9C0F3014A404603F044FC18B1BAF137
:103FB000020F03D012E0BAF1030F0FD1B9F1030FD2
:103FC00008D1BAF1020F1BD00221404604F078FB61
:103FD000761CF6B217B149464046B847641C062C19
:103FE000AED3002E0ED06A460121002004F08CFBD7
:103FF00006990098884205D00690089809909DE798
:104000000321E2E70CB0BDE8F0870000006000404B
:104010004044002000F01F0201219140400980002F
:1040200000F1E020C0F88012704700F01F0201216B
:1040300091404009800000F1E020C0F80011704775
:1040400000F01F02012191404009800000F1E020B2
:10405000C0F8001270474907090E002806DA00F080
:104060000F0000F1E02080F8141D704700F1E020FF
:1040700080F80014704710B503F084FDBDE81040CF
:1040800003F0EEBE07480021C0F84011C0F844110B
:10409000C0F84811C0F84C11C0F80011C0F8041164
:1040A00005F0ACBD00100140014800680047000069
:1040B000A42A00200148006800470000AC2A002024
:1040C0000148006800470000B42A002005F0E4BC65
:1040D00004F01ABCF0B5AE480023021D017801259A
:1040E000101D4FF0805406290BD11678360708D1E1
:1040F0000678C6F30316032E06D0042E04D0052E30
:1041000002D0062907D00EE0B4F82463A14FC6F30D
:1041100004263E6002E01678360704D10678C6F31E
:104120000316032E02D0062904D00FE09B4F9A4EAF
:104130007E670EE01678360708D10678C6F30316B8
:10414000032E06D0042E04D0052E02D0062907D057
:104150000EE0D4F84462924FC6F342363E6002E06D
:104160001678360704D10678C6F30316032E02D05C
:10417000062906D011E08B4E376827F0807737602C
:104180000EE01678360708D10678C6F30316032E1C
:1041900006D0042E04D0052E02D006290AD011E044
:1041A0004FF08046C6F80C31C6F810317C4E361FF1
:1041B000336002E01678360704D10678C6F303169A
:1041C000032E02D0062905D00CE0754F0326643774
:1041D0003E600AE01678360704D10678C6F3031667
:1041E000032E02D006290DD014E06F4F05263E6045
:1041F0006D4E783635606C4E083633603F263F1D75
:104200003E6002E01678360704D10678C6F303163E
:10421000052E02D0062957D062E0644E3668644FFE
:104220003E60624E361D36683F1D3E605F4E08366A
:1042300036683F1D3E605D4E0C3636683F1D3E6061
:104240005A4E103636683F1D3E60584E143636685A
:104250003F1D3E60554E18363668554F20373E603C
:10426000524E1C3636683F1D3E60504E2036366832
:104270003F1D3E604D4E243636683F1D3E604B4E1E
:10428000283636683F1D3E60484E2C3636683F1D46
:104290003E60464E30363668454F40373E60434EAE
:1042A000343636683F1D3E60404E383636683F1D16
:1042B0003E603E4E3C3636683F1D3E603B4E4036CB
:1042C00036683F1D3E6002E01678360708D1067852
:1042D000C6F30316032E06D0042E04D0052E02D0FA
:1042E000062907D019E0D4F85812324A01F04F01DC
:1042F000116002E0117809070FD10078C0F30310B4
:10430000032803D0042801D0052806D12A480168D3
:10431000C90702D06FF001010160224874380168BA
:1043200041F470010160BFF34F8FBFF36F8F4FF007
:104330001021D1F80002002803DBD1F80402002884
:1043400022DA1E4A15601E480468002CFCD0152491
:10435000C1F800420568002DFCD0C1F80442016894
:104360000029FCD0136001680029FCD0BFF34F8FF7
:104370000C48F0380168134A01F4E0611143016010
:10438000BFF34F8F00BFFDE710490F480860F0BD35
:10439000E00F00F0403501400DF0ADBA00C007401D
:1043A0003C050040FCED00E0105600400404001005
:1043B00020C50040E40E00400004004004E5014038
:1043C00000E401400400FA050090D003182B0020FF
:1043D0000448017F04480029024901D005F0E9BDE5
:1043E00005F058BDA0440020002000400FB4054B4C
:1043F00010B503A9044A029800F084F810BC5DF8D7
:1044000014FB0000556E0200102B00200FB4084B67
:1044100010B504A902AA039800F074F8044602A992
:10442000002000F019F9204610BC5DF814FB0000D4
:104430005946020000487047242B002000B52DED9E
:10444000048BB0EE409AF0EE609A83B051EC190BF9
:10445000FFF75AFC41EC180B18EE100A18EE901AF0
:104460008DED008B002818BF0120084320F000408C
:10447000C0F17F6000F1E040C00F14D019EE101AB7
:1044800019EE900A8DED009B002918BF0121084309
:1044900020F00040C0F17F6000F1E040C00F04BF99
:1044A000012000F029F8B0EE480A03B0F0EE680AE7
:1044B000BDEC048B00BD02E008C8121F08C1002A31
:1044C000FAD170477047002001E001C1121F002A95
:1044D000FBD170470121202803DA814005480140C3
:1044E00003E0402802DA2038814009B101207047FA
:1044F00000207047FC06FFBD0149086070470000BE
:10450000242B00202DE9FF4F89B09B46044600254F
:1045100006E025280BD05A460B999047641C6D1C69
:1045200020780028F5D10DB02846BDE8F08F00278F
:10453000B8460122474900E0074314F8013F203BF9
:1045400002FA03F00842F7D120782E2819D114F886
:10455000010F47F004072A280ED06FF02F022078B1
:10456000A0F1300109290CD808EB880102EB4101C8
:1045700000EB0108641CF2E70A98641C50F8048BF5
:104580000A9020780028CED0642808D0692806D068
:1045900075281ED05A460B9990476D1C58E00A9911
:1045A0004FF00A0901C90A91002802DA40422D2180
:1045B00002E0390504D52B218DF82010012103E0FC
:1045C000F90704D02021F7E78A4608AE0DE0002164
:1045D000FAE70A994FF00A0901C90A91F7E7494633
:1045E000FFF77FFA303106F8011D0028F7D1ADEB57
:1045F000060000F12009780701D44FF00108C845F2
:1046000002DDA8EB090000E000208046002706E05C
:1046100008A85A46C05D0B9990476D1C7F1C5745F2
:10462000F6DB04E030205A460B9990476D1CB8F138
:104630000001A8F10108F5DC05E016F8010B5A4667
:104640000B9990476D1CB9F10001A9F10109F4DC47
:10465000641C65E7092801000A68531C0B60107090
:10466000704738B5044600208DF800000D466846B6
:1046700000F0E8F9207928B19DF8000000F006FA72
:10468000112038BD012020719DF8000000F0FEF9D6
:104690000020256038BD10B501220221002001F064
:1046A0003FFC08B1072810D107220221012001F0A8
:1046B00037FC08B1072808D100210A22084601F07A
:1046C0002FFC08B1072800D1002010BD022001F006
:1046D0001FBB000070B50024064D06E0686801218C
:1046E00010F8340003F0BCFA641C28788442F5D337
:1046F000002070BDD02A0020F8B515460C460646AD
:10470000052A01D20720F8BD03F090FB18B903F089
:104710005FFB0028F7D1104900204E600C70C1E902
:1047200002500E4D08610DE006EBC400696800916F
:1047300081788DF801100078094A694603F0E2FAA1
:104740000028E0D1641EE4B2EED2BDE8F840054A8C
:104750000021024800F054B8D02A002030A5020001
:1047600001700200E96B020009480068C00700D030
:1047700000BEBFF34F8F0648E4380168054A01F4D4
:10478000E06111430160BFF34F8F00BFFDE7000000
:10479000F0ED00E00400FA050EB500210091CDE92E
:1047A00001106A4644F20100FFF7DEFF0EBD10B5AE
:1047B0008268C368934203D002F039FB002010BD29
:1047C000052010BD29B112B1531E134203D0092098
:1047D00070470E2070470160838000218160C160B6
:1047E0000846704710B58268C3689A1A83889A424F
:1047F00003D802F026FB002010BD042010BD0000ED
:10480000074B9B7823B12AB120B10068037C1BB110
:1048100008207047072070474174426100207047AC
:104820004C45002070B504F01BFA104800240B2101
:10483000047044700E4D817014206C602C706C708C
:10484000FFF7E8FB07211420FFF705FC1420FFF712
:10485000ECFB0848046007211120FFF7FCFB05482A
:10486000001F0068A860002070BD00004C450020BB
:10487000E42A0020081501402DE9FC47DFF8789074
:1048800099F8023073B368B3052902D20720BDE856
:10489000FC87436933B3437C012B25D000270446B2
:1048A0000025884616468DF80050684600F0CAF884
:1048B00001A805F0F1FCC8B1012101700F49446065
:1048C0000968C0E90218C0E904769DF8040089F877
:1048D00001009DF8000000F0D9F81420FFF7B0FBAC
:1048E0002846D4E70820D2E70F46D8E704259DF8EC
:1048F000000000F0CBF8F3E74C4500200415014020
:104900000649897839B130B1416921B1002101747A
:10491000022105F04FB90820704700004C450020E7
:1049200070B50A4E01460A48B578FFF740FF0446C5
:104930004DB10020B070711C0122C81D03F0F8FBBE
:1049400008B1FFF729FF204670BD0000F82A0020BB
:1049500058460020F0B5284E89B01F460D00044689
:1049600072603BD0A888296882B22448FFF72AFFEA
:10497000002834D1A889A96882B220481030FFF7F6
:1049800021FF00282BD120221D496846FEF72CFF6D
:1049900060690690207C00B101208DF814008DF82C
:1049A0001C70607C00B10E208DF81500E06802904C
:1049B000A068039020680190606800900E48114A3A
:1049C0006946083003F080FB002808D1B0702068E9
:1049D000401C04D09DF81D0018B106E0072009B066
:1049E000F0BD0548083003F0FBFB03490122491CD8
:1049F000C81D03F09DFBF2E7F82A0020584600206E
:104A000038A50200F59D020010B501460B48FFF7DE
:104A1000E9FE040010D10A4803F02CFD60B90849F2
:104A200006480839FFF7C3FE30B9054901220839A5
:104A3000034803F099FC0446204610BD6846002058
:104A4000002B002030B5EFF3108172B60D4A946848
:104A5000012324B10370002900D162B630BD9360F8
:104A60004FF0E023D3F88051074C25401560C3F880
:104A70008041D3F8844154605A17C3F8842100223E
:104A80000270E8E778460020FC06FFBD0B498A6803
:104A9000002A11D000280FD1EFF3108072B60B68F6
:104AA0004FF0E022C2F800314B68C2F80431002216
:104AB0008A60002800D162B6704700007846002066
:104AC0002DE9F041064608680C46411C4FF0A0470E
:104AD0004FF0010506D005FA00F1C7F80815206867
:104AE00003F0C9FD6068411C02D0002103F0BAFD4B
:104AF0003079204901EB4010A169007F002830681F
:104B0000C0F8241525D0607D227D31681043C1F89E
:104B10006C05D4E900123068C0F80C15C0F81425F3
:104B200024E0A068411C02D0002103F09BFDE06856
:104B3000411C05D08540C7F80855E06803F09BFD8F
:104B4000D4E902123068C0F80825C0F81015BDE895
:104B5000F081607D217D32680843C2F86C05D4E99C
:104B600000123068C0F81425C0F80C15207D01280B
:104B7000D7D0ECE7A04400202DE9FC47002517889A
:104B80000646158090F82D001446894630B13A4605
:104B90002146484600F008FB050009D1B0784FF0E7
:104BA0000C0A18B32088C846001DB84202D95046E6
:104BB000BDE8FC87684679DF0028F9D12088032109
:104BC00008F8001020881921401C80B2208008F8C5
:104BD00000102088401C80B2208000EB0801BDF846
:104BE000000005F05EFA218808442080F078022257
:104BF000C8B1218896F9033001F1030C4846BC4541
:104C0000D5D8425421884FF0010C491C89B221802B
:104C100000F801C02188491C89B2218009F80130BF
:104C20002088401C20807068B8B1218890F900303D
:104C300001F1030C4846BC45B9D8425421880A22E8
:104C4000491C89B2218042542188491C89B22180A3
:104C500009F801302088401C2080308950B1CDE90E
:104C600000474B460622022106F1080005F02CFB06
:104C700005009DD1308A50B1CDE900474B4607224F
:104C8000032106F1100005F01FFB050090D1308BC9
:104C900050B1CDE900474B461522142106F118000A
:104CA00005F012FB050083D1306A30B13B46224645
:104CB000494601F02FFF0500DBD1706A30B13B4659
:104CC0002246494602F098FC0500D2D196F82C0005
:104CD00038B13B4622464946304604F0D1F905003A
:104CE000C7D1307838B13B4622464946304602F0BB
:104CF00053FD0500BDD128465AE7F0B50C4693B0E8
:104D00001F210726ADF80010ADF80410002750B1A0
:104D1000C17849070DD56A4602A9FFF72DFF002883
:104D200008D102AD02E00025ADF800706CB1E0786A
:104D300010B1304613B0F0BD01AA0AA92046FFF712
:104D40001BFF0028F6D10AAA02E00022ADF8047089
:104D5000BDF80400C3B2BDF80000C1B2284672DF3E
:104D6000E8E780F82410704770B50D00044653D072
:104D7000F4B3012020700026E670202205F17801AE
:104D8000201DFEF731FD84F82460D5F89800C4F8A2
:104D9000CC00D5F89C00C4F8D0004FF6FF70A4F802
:104DA000C800C4F82560A4F8296084F82B6004F1D9
:104DB00030003C210646FEF730FD287884F83000AC
:104DC000A87884F83200E87884F83300687884F8AA
:104DD0003100D5E90401C4E91001D5E90201C4E9B3
:104DE0000E01D5E90601C4E9120195F82D0000E095
:104DF00012E084F85D00686AD8B104F1780104F12A
:104E00006C0061676065696A09880180686A616D24
:104E100080888880002008E00E2070BD696A221812
:104E20008968095C82F87810401C616D898881422C
:104E3000F4D8A86AE8B104F1A400C4F8A0000C38C2
:104E4000A065A96A89888180A86AA16D0088088008
:104E5000002006E0A96A22188968095C82F8A4107B
:104E6000401CA16D89888142F4D895F82C0084F803
:104E70005C00286A48B104F1C4002065296A4988A9
:104E80004180286A216D00880880686800B16063ED
:104E900005F13C013046BDE87040FFF72EBF10B56C
:104EA0000288102A1AD0112A1FD01B2A1CD1007A7E
:104EB0000C46002818D1E0780521401CB0FBF1F227
:104EC00001FB1201204600F055F800280CD0D4F860
:104ED000D010002908D0BDE810400847C27B012A45
:104EE00002D18088A1F8C80010BD0C46002184F8CA
:104EF000D4108088B4F8C8108842F5D120790028F1
:104F0000F2D10121DEE710B50C46022801D00328BA
:104F100011D1607800280ED000206070E178204622
:104F200000F028F8002806D0D4F8D010002902D0CC
:104F3000BDE81040084710BD10B5044674DF0120DD
:104F400084F8D400002084F8D600062084F83300CA
:104F5000002104F13000FFF7D0FE002809D1E178EC
:104F6000204600F007F818B1D4F8D01001B18847F6
:104F7000002010BD2DE9FF47044600780F4638B1E8
:104F8000E770002003F082FA012628B16670D2E0B3
:104F9000082004B0BDE8F0870025C4F82550A4F827
:104FA000295084F82B50A07910B1E078012806D060
:104FB000E07970B1E078012801D0022809D1D4F855
:104FC000CC1021B184F82C600820884701E084F8D7
:104FD0002C5004F1260100200A5C0AB1304603E09F
:104FE000401C0628F8D300204FF002084FF0030AB7
:104FF0004FF00409012F06D0022F09D0032F0CD047
:10500000042F12D10DE0A17911B108B130460DE0A5
:10501000E17911B108B1404608E0207A08B1504664
:1050200004E0607A08B1484600E02846E070D4F811
:10503000CC1041B1032801D0042804D1607910B10B
:1050400094F8D400A8B184F8D55000950295019544
:1050500003958DF800508DF80850E17804F1250093
:1050600004F13002052958D2DFE801F0670A131F66
:105070003B0084F8D65084F8D56007208847E4E7E1
:10508000A67001908DF80060ADF80C50ADF80A5094
:1050900043E084F8028001908DF80060208AADF82A
:1050A0000C00A089ADF80A0037E0A08AADF80A002C
:1050B000208BADF80C00607980B194F8D40068B909
:1050C00094F8D60050B18DF8088084F83390002110
:1050D0001046FFF712FE00BB05211AE084F802A07B
:1050E0001BE0A08BADF80A00208CADF80C006079B5
:1050F00088B194F8D40070B994F8D60058B18DF8FE
:10510000088084F8339000211046FFF7F6FD20B99F
:105110000621A17001E084F80290E07830B194F8A3
:105120002410684673DF00287FF433AFD4F8CC1026
:1051300009B1A078884700202BE7A570F6E70000AA
:1051400070B5040012D001461C221448FEF74CFB37
:105150001248134D0560206850B17ADF002806D14F
:105160002068016829604068686005E00E2070BD15
:105170000B487BDF0028FAD108484FF6FF7114383E
:10518000084A20F8041B0549343901600021FFF763
:1051900037FB0028EBD0032070BD000058430020EF
:1051A0009C2A002031A202007CB5054608880C46E6
:1051B0000930904201D90C207CBD68466DDF002883
:1051C000FAD121880820685420881B21401C80B215
:1051D000208029542088401C80B220802844DDF89B
:1051E00001100160BDF8051081802088801D80B20B
:1051F00020809DF80010490800D001212954208802
:10520000401C208000207CBD70B53F4D04460088C6
:105210000021AE8888B0232839D017DC112821D08E
:105220000BDC01284CD0102825D1072000F09AFE75
:1052300008B1FFF7B1FAA0881CE0132821D021287B
:1052400019D10091A08869468FDF26E03B2833D032
:10525000512839D0522823D056280CD1A0881321A8
:1052600076DF22E0002000F07DFE08B1FFF794FA1F
:105270004FF6FF70A88008B070BD00BFFFF78CFA32
:10528000F9E700231A46852130467FDF0DE00091C3
:105290000191A0880022694690DF0028EED1EAE75C
:1052A00000231A4619463046A9DF0028E3D008B08B
:1052B000BDE87040FFF770BAA088132176DFF4E7ED
:1052C000A088002166DFF0E71022A11D04A8FEF7E8
:1052D0008BFA9DF810100029CDD09DF818000428F5
:1052E00003D0062801D00528C5D102290AD0012003
:1052F0008DF800004FF4C170ADF80400A088694635
:10530000A8DFCAE70220F3E7682A002010B51A4C8C
:105310000188606810290ED011292BD1401E6060D1
:1053200028D1FFF7B8F9002824D02168002921D01E
:10533000BDE810400847D0B900210122084600F01E
:10534000EFFD08B107280FD107220221012000F04C
:10535000E7FD08B1072807D104220221002000F050
:10536000DFFD20B1072802D0216801B188476068BD
:10537000401C606010BD0000942A00202DE9F04719
:1053800001883B4E40F2F3194FF6FF7510291BD0F0
:1053900011293ED0122954D0502946D1C188F28912
:1053A000841D914241D1618902293ED186883046CF
:1053B00001F052FE050038D004F10C0000F07EF937
:1053C000A8B3294630464EE0C17B878804460129B0
:1053D0002BD1A846284601F03FFE050017D02F80AC
:1053E00000202872234843464A460168C5F80A103F
:1053F0004068C5F80E0004F1100105F10A0001F043
:10540000A9FE6872F08900280FD129462AE00420FD
:1054100013E0808801F020FE040006D06068FFF7EA
:105420006FFA08B103F0D8FD2580BDE8F087FFE7EB
:105430006868FFF765FA0028F7D0BDE8F04703F089
:10544000CBBD87880646384601F006FE0400ECD046
:105450002B464A4606F1080104F10A0001F07AFEE3
:10546000607221463846BDE8F04701F099BB000064
:10547000584300209C2A00202DE9F0470446038869
:105480003F480122A4B000F1480A102B09D0112B8B
:1054900054D01A2B70D1217AB2EB111F53D20123B1
:1054A00052E0D0E911218A430546011D12A803F0FC
:1054B00066FD442212A901A8FEF796F9DFF8C09014
:1054C0000026374609F144090DF104080AE000BF3F
:1054D00008EB46001D2283884946281D009703F0EB
:1054E00013FD761C0198B042F2D8686CA688C043C0
:1054F00003F02CFDA0F57F41FF3917D005EB4000EC
:105500000123868032465146281D03F05DFD0123AC
:1055100032464946281D03F057FDE07B02280BD098
:1055200000231749A2884C31281D20E024B0042014
:10553000BDE8F047FFF730B90123F2E70023A28866
:105540005146001D13E000230D490546A288503145
:10555000001D03F039FD207A0221B1EB101F01D2AA
:10556000012300E000230649A2885431281D24B0FD
:10557000BDE8F04703F028BD24B0BDE8F087000087
:105580007443002030B5174B0D4604000FCB85B097
:105590008DE80F0023D015B34FF6FF70A082286866
:1055A000A0610020A0752146684662DF002814D162
:1055B00020788DF812000120ADF81000A21C04A97B
:1055C000A0DF002809D12946204603F080FB0028EF
:1055D00003D12946204604F05BFB05B030BD0E2008
:1055E000FBE7000010A502007FB5002917D00028B6
:1055F00015D00288102A0DD0112A0DD0502A0FD0B4
:10560000572A0CD11A4B1868D3E902238DE80F00F2
:1056100089692AE0808801E04FF6FF7088827FBDAB
:1056200001910C46821DC3880989002512308B42E6
:1056300002D1518902290CD0A1898B42EFD1A169F5
:105640000029ECD002905089ADF80C008DF8005084
:105650000AE000F033F818B10120A075022001E043
:10566000A57503208DF80000A169684688477FBDB5
:1056700000A502001FB560B1838AA3F57F44FF3CFB
:1056800009D0837D3BB11388F42B06D9072004B0E1
:1056900010BD0E20FBE70820F9E7002300930193DB
:1056A000029303938388CDE90221ADF800300121F4
:1056B0008DF80210808A6946A6DFE8E7007800F0DE
:1056C000010070472DE9FF414FF000050E460746E7
:1056D0001400ADF80450ADF808508DF80C500CD003
:1056E000A069016849B1C07950B13146384601F02E
:1056F0003DFB04B02846BDE8F0814FF0FF35F8E7E8
:105700001346324602A901A801F050FC0BE02146E5
:1057100001A800F0D7FDA06903AA01A9037A3846C1
:10572000009404F0E4FCBDF80400BDF808108842C1
:10573000EDD39DF80C003070A169BDF8040088819C
:10574000D7E738B504004FF000004FF0240523D010
:10575000A1690A6802B34881A169234602228881AF
:10576000A1690861A16908752220694600F02CF83A
:105770009DF80110002801F007018DF80110BDF817
:1057800000100BD1A2699088884200D99180A2694B
:105790009379022B03D008E04FF0FF3038BD091D8C
:1057A000814202D89088001D9080A078012800D105
:1057B000A425A0692946838802686078E46901B05D
:1057C000A446BDE83040604770B51C0005D0E569CF
:1057D0001DB1A378012B03D004E04FF0FF350EE09C
:1057E00040F08000134666780A4601463046A847D6
:1057F0000546616A012088470DB16FF00105284612
:1058000070BD1CB5044603F00BF9002817D1A07831
:10581000012807D12346012201A97F20FFF7D4FFE9
:1058200000280CD12346012269460020FFF7CCFF57
:1058300018B99DF80000D12802D06FF002001CBDFD
:105840002070FF20E070204600F0C9F90028F6D152
:105850000221E17108226271102323710323A371D5
:10586000E1736273142121730021A1736168A16047
:10587000E16821611CBDF8B50F464FF0000114002E
:105880008DF800104FF0470600F0FE052ED01346AD
:10589000012269463046FFF797FF002825D135B130
:1058A0009DF80000012F24D0A8438DF80000234666
:1058B00001226946304600F0E0F8002815D1234661
:1058C000012269463046FFF77FFF00280DD19DF881
:1058D0000010A36901F01002DA71A36901F0E0027F
:1058E00001F002011A72A2699171F8BD4FF0FF3008
:1058F000F8BD2843D9E708B58DF80000462029B146
:105900000B460122694600F0B8F808BD4FF0FF30A1
:1059100008BD70B50446002062780D2A1ED2DFE86B
:1059200002F0071E2D28283237413C23464B5000F9
:105930000E46084603F074F870B96CB1251D314667
:10594000284601F0B1F9002808D132462946204600
:10595000BDE8704000F044BE4FF0FF3070BD2046FF
:10596000BDE8704003F054BE2046BDE8704003F02F
:10597000B0BD2046BDE8704003F0EABE2046BDE859
:10598000704003F0A8BE2046BDE8704003F0E0BDC3
:105990002046BDE8704003F0B7BB2046BDE870402C
:1059A00003F01CBD2046BDE8704003F077BC2046E4
:1059B000BDE8704003F02ABC2046BDE8704003F00B
:1059C00033BF2046BDE8704003F074BFF8B5040053
:1059D00015D0606A98B100208DF8000020796FF032
:1059E0000305A0F11001022928D8217A88421AD093
:1059F0002146684603F0BEF8060003D011E04FF0E0
:105A0000FF30F8BD23460122211D7E2000F035F82D
:105A10000646207A102802D1616A0520884721793C
:105A200021723000EDD1207B0026142808D01528E3
:105A300006D0172804D02E463046F8BD2846F8BDBB
:105A4000217C8842F8D02346012204F10C017E20FB
:105A500000F013F80646207C142802D0172803D043
:105A600008E05120616A04E02079152802D1616ABA
:105A70000A208847207B2074DEE72DE9F0474FF0AD
:105A800000061C00054690468946374608D0D4F8E3
:105A900020C0BCF1000F03D0A078012803D004E09F
:105AA0004FF0FF3625E005F07F05207A112802D05F
:105AB000207C152818D113460A4660782946E0470D
:105AC0000646616A0120884710E0266A09EB070252
:105AD000607801232946B0476D1C0646616AEDB225
:105AE000012088477F1CFFB24745EED30EB16FF00F
:105AF00001063046BDE8F08738B5040063D0606A1F
:105B0000002860D0002521466846009500F0A4FBDF
:105B1000002857D12346012269464020FFF7ADFFF8
:105B200000284FD161796172E179E172616A0120E7
:105B300088472346012241200DF10101FFF79DFF17
:105B400000283FD1A179A17221466846009500F056
:105B5000CAFB002836D12346012269464220FFF7BE
:105B60008CFF00282ED1617B6174E17BE174616A56
:105B7000012088472346012243200DF10101FFF750
:105B80007CFF00281ED1A17B2046A174FFF71EFFD9
:105B9000002817D123468DF80050012269460220C3
:105BA000FFF712FE9DF80010C1F343018DF80010BD
:105BB00001290BD002290CD003290DD0072901D1CE
:105BC0006FF0080038BD4FF0FF3038BD6FF00500B2
:105BD00038BD6FF0060038BD6FF0070038BD38B52E
:105BE00004004FF0B6008DF800000DD0606A58B187
:105BF0002346012269467E20FFF73FFF0546616A82
:105C00000F2088471DB10CE04FF0FF3509E0A07868
:105C1000012806D12346012269467F20FFF7D4FDE3
:105C20000546284638BD00002DE9FC41114F0020F3
:105C30001C4616467870054641F080008DF8040039
:105C4000601CC0B200900C4B012201A90B4802F06D
:105C5000FDF978780028FCD00021074804E04218BC
:105C600052787254491C89B2A142F8D32846BDE843
:105C7000FC810000682A0020A42F00209CA30200C1
:105C80002DE9F84F154F4FF000081C469246894603
:105C900087F801804646581C01F078FC09F07F0126
:105CA00005460170002005E01AF800102A18401C73
:105CB000517080B2A042F7D3641CE2B2002329469F
:105CC0000748CDF8008002F0C1F978780028FCD0B0
:105CD000284601F0C7F83046BDE8F88F682A002052
:105CE0009CA302000149085C70470000B8A40200B0
:105CF0000649095C4FF0A040D0F81005C84010F0EC
:105D0000010000D0012080F001007047B8A402001B
:105D100007490B5C4FF0A041D1F8042501209840C1
:105D200020EA0203C1F808351040C1F80C0570479D
:105D3000B4A402000249085C012102F0D9BC0000B1
:105D4000B4A402000249085C002102F0D1BC0000AA
:105D5000B4A402000649095C4FF0A040D0F8040545
:105D6000C84010F0010000D0012080F00100704711
:105D7000B4A402007CB50024084E25460122305D03
:105D8000009500231146019502F024FC641C042CAC
:105D9000F4D3BDE87C4000F003B80000B4A40200D6
:105DA00010B500242046FFF7C5FF641C042CF9D36E
:105DB00010BD10B500242046FFF7C4FF641C042C5E
:105DC000F9D310BD10B50246064B4FF0FF3000214D
:105DD0005C5C944201D1084610BD491C0429F7D3EC
:105DE00010BD0000B8A4020070B50C4E0C004FF0BE
:105DF000000530600BD0012000F06AF808B10220E5
:105E000004E0002000F064F800B10B2020707068FE
:105E100010B9FEF740FC0546284670BD942A0020C4
:105E200010B5002000F0D0F908B1062806D10120F5
:105E300000F0CAF908B1062800D1002010BD00000A
:105E40002DE9F0470D468146FFF7BCFF04460428C4
:105E500036D2DFF874801B481C4EA8F10C0725B31E
:105E6000012D0ED0022D2BD104EB44003044457897
:105E7000002D25D0B968002922D02846BDE8F0477A
:105E8000084704EB4401755C0E44717849B10E4A31
:105E90004FF40041093A8068FEF7EEFC08B987F834
:105EA0000390B17808F80410E2E78068FEF728FD57
:105EB00004EB4401314418F804008D78A842D7D08F
:105EC000BDE8F087BCA40200902A0020F842002020
:105ED000FFF70EBF0146104810B58088042907D08F
:105EE00007290ED00A2915D1BDE8104003F03ABDAC
:105EF000132176DF0CE000280CD0BDE81040FEF73F
:105F00004BBCA0F57F41FF3904D10448FFF714F8DA
:105F10000828F0D110BD0000682A0020E0410020D0
:105F200070B50023042810D20D4D00EB4004012A67
:105F300002D101290CD00022094E00EB4000304470
:105F400061B1012906D0022906D00723184670BD89
:105F50000E30C2B22A55F9E74270F7E78270F5E7D2
:105F6000F8420020044A014600201279D20702D0EC
:105F7000084600F04DB87047842A002070B50646E8
:105F80001E480024C0E90161B00720D50025012288
:105F900011462846FFF7C4FF6D1C0446042D02D2AB
:105FA000002CF4D013E094B940F266620421144846
:105FB000FEF7A2FB04000AD1FEF78CFB040006D119
:105FC0000F48104A0021001FFEF71AFC0446F00794
:105FD00001D0FFF7CFFE74B909480B4A00210C38F5
:105FE000FEF70EFC040006D10548084A01210838D6
:105FF000FEF706FC0446204670BD0000842A0020FF
:10600000C8A40200DD610200C9710200CD46020091
:106010002DE9F05F6A4C054600266078B34618B15A
:1060200084F801B001F0B8F8664F4FF47A694FF484
:10603000C87A4FF00108182D62D2DFE805F0AC0CE9
:106040000C31404D62676B746B74BE7D7D7D7D7DD0
:10605000ACAFB2B5BEBE0020FFF77CFE00284FF00B
:10606000000008D0FFF766FE022D02D14FF4E16078
:1060700008E0484606E0FFF765FE022D01D1C82082
:1060800000E05046410CC0034FF4FA72801841F111
:106090000001257052000023FDF775FB01462AE040
:1060A0000020FFF757FE00284FF0000004D0FFF754
:1060B00041FE4FF44870E5E7FFF744FEDFE70020BC
:1060C000FFF748FE00284FF0000002D0FFF732FE35
:1060D000CFE7FFF737FED4E70020FFF73BFE0028AD
:1060E0004FF0000002D0FFF725FE01E0FFF72AFE87
:1060F000257041F69A1100223868FEF7BDFB06466E
:1061000046E00020FFF704FE257008E0002051E083
:1061100025703DE084F801800120FFF7F9FD0022A1
:1061200040F6CD41E8E784F801800120FFF7F0FD5B
:1061300000224FF48041DFE77868FEF7E1FB064676
:10614000D5F1110000D02EB10220FFF7F3FD84F845
:1061500002B01DE0012816D980B2C8214843C117FA
:10616000C90341EA5041C0034FF4FA72801841F16B
:10617000000152000023FDF706FB0146002278686B
:10618000FEF77AFB06460220FFF7DCFD84F802806A
:106190003046BDE8F09F00F0FFFFB9E700F0FCFFDC
:1061A000B4E700F0F9FF04E000F0F6FF0020FFF78D
:1061B000C9FD0120FFF7C6FDAAE7FFF7FAFDA7E733
:1061C000842A0020BCA4020010B5FFF78BFD032138
:1061D00002F065FA002010BD00F094BE00780221A4
:1061E000FFF72EBE05494FF0FF32082841F8202066
:1061F00002D3084480F8502070470000404400203B
:10620000F0B54FF0FF3512B10023082601E0082356
:106210000E260C4C05E000BF54F823707F1C04D000
:106220005B1CB342F8D32846F0BD26185DB286F851
:10623000385044F82310002AF5D1E11881F85000B5
:10624000F1E70000404400200249084490F938007A
:10625000704700004044002070B50D460B460446D0
:10626000014602224020FFF7AFFA002829D16979C0
:10627000001F0F2925D86A7A914206D0227801F0B2
:106280000F0122F00F0211432170E979022918D879
:10629000EA7A914203D0217821F070012170A97926
:1062A0000022641C0C290AD8A87A814208D02078E0
:1062B00001F00F0120F00F000143217000E00246C1
:1062C000104670BD10B58B6902889988941C8C4269
:1062D00008D21B689C5C802C04D11A445278002A96
:1062E00000D1018010BD70B50D460B460446014635
:1062F00002224220FFF768FA00282AD1697B001F9A
:106300000D2926D86A7C914206D0227801F00F012F
:1063100022F00F0211432170E97B022919D822785B
:10632000302322F0300203EA0111114304F8011B6B
:10633000A97B002204290AD8A87C814208D02078B1
:1063400001F0070120F007000143217000E0024640
:10635000104670BD70B5084C050009D01034216896
:10636000002907D008682060496828468847F6E772
:106370000834F4E770BD00002C4400202DE9F05FE4
:1063800026484168F1B3DFF898B00E688146DBF823
:10639000004087688078E11B21F07F45ED1CB0B993
:1063A000DFF880804FF48030C8F84403C8F8040355
:1063B0001120FDF72FFE1120FDF737FE4FF0010AE7
:1063C000C8F800A02F2001F05DFB89F802A0B542BB
:1063D00000D23546124BE8193C3320F07F4018605C
:1063E000DBF800105A46091B21F07F41001B20F00A
:1063F0007F40C91C81420FD9106818602F2001F01E
:1064000041FB00E004E0BDE8F05F1120FDF718BE9D
:10641000BDE8F05F02F024BCBDE8F09FE42A002054
:1064200004150140001001402DE9F041624D0024A7
:106430002DED028B05F5D267C4EBC40007EB00120B
:1064400005EB00115C481C23C038FCF7F5FE641C0A
:10645000E4B2052CF0D3594E002406F5D26500BFF6
:10646000C4EBC40005EB001206EB001152481C23DC
:10647000C038FCF7E1FE641CE4B2052CF0D3DFF871
:106480004081002408F5D266C4EBC40006EB00127C
:1064900008EB001148481C23C038FCF7CDFE641CF3
:1064A000E4B2052CF0D3DFF81C81002407EB840054
:1064B00090ED000A05EB840020EE000AD0ED000A02
:1064C00006EB840000EEA00AD0ED000A00EEA00A60
:1064D00010EE100AFDF7D6FA41EC100BFDF7AEFFF7
:1064E00051EC100BFDF7E1FA48F82400641C8C2CE9
:1064F000DCDB1C249FED348B58F82400FDF7C2FA36
:1065000053EC182BFDF7A8F941EC180B641C8C2CEC
:10651000F2DB51EC180B9FED2E0B53EC102BFDF71B
:1065200042FAFDF7C2FA00EE100A1C2008EB8001C7
:10653000401CD1ED000A8C2870EEC00AC1ED000AA3
:10654000F4DB26489FED240A002280ED060A1C2178
:1065500090ED020A0CE05AB108EB810390ED061AA7
:10656000D3ED000AF4EEC10AF1EE10FA16DD20E0D8
:1065700008EB810390ED061AD3ED000AF4EEC10A90
:10658000F1EE10FA0AD2F8EEC01AB4EEE11AF1EE0A
:1065900010FA02DD0269521C02610122491CC0EDA1
:1065A000060A8C29D7DB00218170BDEC028BBDE887
:1065B000F0810022F2E7000030300020603200203D
:1065C00090340020503D002000000000000000003A
:1065D0000000000000005C4000000000682A00206D
:1065E0002DE9FC410E4614460746114603F0ACF96E
:1065F000002857D100258DF8005023460122694616
:106600006220FFF7E1F870B99DF8000010F0020F6A
:106610000BD020F002008DF80000234601226946CD
:106620006220FFF72AFA00283CD12146384601F0C3
:1066300042F8002836D18DF80050234601226946E1
:106640005920FFF7C1F878B99DF80000317820F0A3
:106650008000890940EAC1108DF80000234601221C
:1066600069465920FFF709FA00281BD18DF8005020
:106670002346012269465F200195FFF7A5F800280F
:1066800010D19DF80000234620F003008DF8000093
:106690008DF8040070788DF80500022201A95F20B2
:1066A000FFF7EBF9BDE8FC8138B501F0BFFB08B995
:1066B00001F08EFB0848094A6946006800900020F6
:1066C0008DF801000B2001F01DFB044601210B2079
:1066D00001F0C6FA204638BD98A30200D961020035
:1066E000F8B5054600200E468DF800000B46012245
:1066F00069465420FFF768F800281DD12878AC1CA3
:1067000000289DF8000018D0217820F02000C1F367
:10671000001140EA411000BF8DF80000218800F010
:10672000F000C1F3431101438DF8001033460122FC
:1067300069465420FFF7A1F9F8BD217820F0100038
:10674000C1F3001140EA0110E6E7000038B5044645
:1067500000200D468DF800000B46012269465320AB
:10676000FFF732F8002825D12178A01C00299DF8D8
:10677000001020D0007821F0800141EAC01121F002
:106780004001C0F3400241EA8211C0F3800221F0CF
:10679000200141EA421121F01001C0F3C00041EA9A
:1067A000001000BF8DF800002B46012269465320DF
:1067B000FFF763F938BD007821F0080100F001020D
:1067C00041EAC20121F00401C0F3400241EA820122
:1067D000C0F3800221F0020141EA420121F00101EF
:1067E000C0F3C0000843DDE77CB5044600200D4639
:1067F0008DF800005F260B46019001226946304665
:10680000FEF7E2FF00282ED19DF80000218820F03D
:10681000FC00C90840EA81008DF800002B460122E7
:1068200069463046FFF729F900281CD162202B4623
:1068300001226946FEF7C8FF002814D19DF8000028
:10684000218820F00100C1F3402108438DF80000A9
:106850008DF80500A0788DF8040061202B460222F7
:1068600001A9FFF70AF97CBDF8B50D4614460746A5
:10687000114603F069F800284BD100268DF800601E
:10688000387823464FF00102694620B15720FEF7C1
:106890009BFF78B11AE05520FEF796FFB0B99DF83E
:1068A0000000012240F008008DF8000023466946F0
:1068B000552009E09DF80000234640F008008DF8BF
:1068C0000000012269465720FFF7D7F8002820D1A1
:1068D0008DF800602346012269465920FEF774FFB7
:1068E00078B99DF80000298820F08000890A40EAE4
:1068F000C1108DF800002346012269465920FFF798
:10690000BCF8002805D121462846BDE8F840FFF72D
:106910006BBFF8BD38B5044600200D460B4600900D
:10692000022269466520FEF74FFF00282FD19DF80F
:1069300000002B4620F00302207800F003011143F1
:10694000C0F3810221F00C0141EA820121F0F00143
:10695000000941EA00108DF800009DF8010020F0C8
:106960003F022088C0F305211143C0F3803221F09B
:10697000400141EA821121F08001C00B41EAC010C0
:106980008DF80100022269466520FFF776F838BDD0
:1069900038B5044640780D468DF800000B460122BC
:1069A00069466020FFF769F800282AD12B460122AA
:1069B00069466220FEF708FF002822D19DF80000FA
:1069C000217820F00C0001F0030140EA81008DF8ED
:1069D0000000217820F03000C1F3810140EA01106D
:1069E0008DF80000217820F00200C1F3401140EA48
:1069F00041008DF800002B46012269466220FFF716
:106A00003CF838BD38B50D46002104460091008899
:106A100010F0C00F08D0C0F38110012809D002285F
:106A20000BD0032810D033E015208DF80000032090
:106A300007E02D208DF8000028E01D208DF80000D3
:106A400007208DF8010023E02B46022269467A20B8
:106A5000FEF7BAFEE0B99DF80000217820F018009A
:106A6000C1F3410140EAC1008DF80000217820F017
:106A70000700C1F3C20101438DF800109DF8010029
:106A8000218820F00700C1F3022101438DF8011095
:106A90002B46022269467A20FEF7EFFF38BDF8B593
:106AA000074600200E46154613460090022269460E
:106AB0006320FEF789FE00282BD178789DF80040EE
:106AC000032806D1308824F00701C0F3C21040EA41
:106AD000010431784023C1F3401003EA801024F010
:106AE00040021043890920F0800242EAC1108DF86B
:106AF00000009DF80110307821F01F0100F01F0008
:106B000008438DF8010002222B4669466320FEF7F8
:106B1000B4FFF8BD2DE9F04117880646B81D1446AC
:106B20000D46984202D90C20BDE8F0813188072239
:106B300006290AD34FF4486C4FF6FF73614501D91B
:106B4000994202D17088062801D21046ECE76045D0
:106B500001D99842F9D1994203D0984201D081429B
:106B6000F3D80520E85520881221401C80B22080EF
:106B700029542088401C80B220804119308803F0BD
:106B800090FA2188084480B220804119708803F06F
:106B900088FA2188084420800020C5E7FDF7FCBD65
:106BA00038B54A7A0F4B62B100220A72596900293E
:106BB00006D001228DF80020ADF802006846884713
:106BC00038BD0A7A62B19B684C6802461946204675
:106BD000FDF752FE0028F3D0BDE8384002F0FCB9C2
:106BE0005B68F1E7584300202DE9F04100260125BC
:106BF000144C22E06068226900EBC607387805FA79
:106C000000F1114217D08A43226101F0D7F8024601
:106C10003878E36805FA00F1194002FA00F3994266
:106C200009D17978012901D0012100E000215140EA
:106C30007A6802B19047761CF6B220788642D9D3A2
:106C4000BDE8F081D02A002008B51C20044B00903C
:106C5000044A3A2103F5AA70FCF787FD08BD00003D
:106C60001C2E0020A4A302000E4910B50A784C780F
:106C70000023A24212D0521CD2B20A70022A00D1C2
:106C80000B70084A0B780C3252F823200260886897
:106C9000104420F07F408860012010BD0360002078
:106CA00010BD0000E42A0020F8B504460D46002679
:106CB0000B468DF80060012269465020FEF784FDE6
:106CC00000282BD12178C8079DF800001AD020F0A9
:106CD0000100C1F3400101438DF8001021F00200D2
:106CE0002178C1F3800140EA41008DF8000021784D
:106CF00020F00400C1F3C00140EA81008DF80000DB
:106D0000EE7005E020F007008DF80000FF20E8702D
:106D10002B46012269465020FEF7AFFEF8BD30B584
:106D20000446006885B00D46806800281CD01421F8
:106D30006846FCF772FD0195A0680490207910B1B7
:106D400001280DD104E001208DF80000206904E045
:106D500002208DF80000E068000302906069039053
:106D6000206881686846884705B030BDFEB5064694
:106D700000208DF80800906914460D468089ADF812
:106D8000040046E01268525C491C02F0FC03ADF8B6
:106D90000410882B19D00CDC482B2DD004DC402BA0
:106DA00025D0442B30D11DE0802B2BD0842B2BD130
:106DB00012E0942B13D004DC8C2B06D0902B23D123
:106DC0000DE0982B01D09C2B1ED102AA01A93046C0
:106DD000009403F08CF917E0224606210EE02246CB
:106DE00008210BE0214601A803F0FEF90CE0214642
:106DF00001A803F00EFA07E02246012101A800F0E5
:106E0000C1FC01E0ADF8040028789DF80810884224
:106E100005D0A269BDF8041090888842B2D89DF8C8
:106E200008002870A169BDF804008881FEBD826851
:106E300083881A4003689A5C0A708168491C8160E3
:106E40007047C26883881A4003689954C168491C16
:106E5000C160704710B50446C0B2FDF7D5FD2046AD
:106E600010BD000010B5002821D0114B0022001FDA
:106E7000196803E0814203D80A4649680029F9D11C
:106E800052B11368841A9C4204D1006818441060FF
:106E9000104602E0506000E0186039B102680B1A39
:106EA000934203D10B681A4402604968416010BDE7
:106EB0001C2B002006484A8883889A4207D10A88FA
:106EC000A2F52063773B02D18988C91EC180704733
:106ED000682A002010B50949094800F0BFFC08B134
:106EE000FDF75AFC4021064800F0ACFC002803D016
:106EF000BDE81040FDF750BC10BD0000B56E0200AB
:106F0000CC4100202DE9F8431C208DF800002448D6
:106F1000FEF717FC224A69462248FEF7D3FB224AB5
:106F2000204B81461E4E00209178B436A3F5606C4C
:106F3000A3F53D6826E000BF00EB400533F925705E
:106F400000EE107AB8EEC00A14FB010406EB8407C9
:106F500003EB850587ED000AB5F90270401C00EED1
:106F6000107A0CEB840708EB8404B8EEC00AC0B2B8
:106F700087ED000AB5F9045000EE105AB8EEC00AC9
:106F800084ED000A9DF80040A042D5D3491CC8B248
:106F90009070052801D1FFF747FA4846BDE8F8830D
:106FA0007C2F002060400020682A002030B59C69BA
:106FB000A48904809D692C7A802C0ED0C02C10D01E
:106FC000A02C12D0E02C15D0AA88028098690A88DB
:106FD0008088824200D9088030BD107800EB4000E4
:106FE00006E0107800EB400007E01078C0EBC0002E
:106FF000400003E0107800EB800080000880E5E7A7
:107000002DE9F041124E07460125BD403068FDF7DD
:1070100077FC00280DD10F4C2069284207D1384653
:1070200000F0CCFE0028E06805D0284304E0A84327
:107030002061BDE8F081A843E06020692843206119
:10704000A1683068BDE8F0410022FDF715BC0000E2
:1070500030A50200D02A00200146034802888A4257
:1070600000D00020704700004443002070B50E4659
:107070000446007918494FF4A27501EB4010017FD6
:107080002068A1B14FF4887101F0C4FC4FF49071F5
:10709000206801F0BFFC4FF49271206801F0BAFC47
:1070A0002946206801F0B6FC0C49206809E04FF43D
:1070B0008E7101F09EFC2946206801F09AFC084977
:1070C0002068C0F80413206800F0C6FD3146BDE812
:1070D000704000F083BD0000A044002010030200B7
:1070E000800002000149024800F014B8C0440020AA
:1070F0000030004002494FF0402000F00BB8000083
:10710000E44400200149024800F004B8084500208A
:1071100000300240F8B50E4604464FF48C7101F081
:107120005EFC002815D00025C4F81851D4F81801C9
:107130000090B07F3446FF2801D001F0D2FA657785
:107140002572D4E9002101B004F10800BDE8F04047
:107150001047F8BDF0B58488A518944200D822469F
:10716000A41AC288D6189A4200D81346D21A4B885D
:107170000788BB420CD34088834209D88888A04244
:1071800006D3A84204D8C888904201D3B04201D99E
:107190000020F0BD0120F0BD0A4810B5807860B134
:1071A000002401E0022C06D02046FEF7C3FD641C3B
:1071B000042CF7D310BD0324F6E7BDE81040FEF71A
:1071C000EFBD0000842A002003480179C90702D0DE
:1071D0000078FEF71DBF7047842A00200649012071
:1071E000086006480168C1F300410029FAD104494A
:1071F00000208870704700000C0000401804004018
:107200002C440020F72101801721418000210171C9
:107210004171FB2181711B21C17170472DE9F0473C
:10722000394E002780463D46DFF8E090D6F804A0AE
:1072300057E003D00446D0F81C8035E099F80020D0
:1072400002EB4201521CD2B289F8002009EBC101C5
:1072500099F80230091D9A4201D189F80050486816
:107260000A780446012A12D0022A02D0032A3BD10E
:1072700008E002F06FFC00B10127257434E00574CA
:10728000C06900E070680028F9D170602CE0207CB3
:1072900050BB88686060C868A0600869E0604869A1
:1072A000A061F07800B165606268B168184B501A4F
:1072B00020F07F40984202D2A168084406E0881A74
:1072C000A16820F07F40814202D9081A206000E0C6
:1072D000256065600120A56020742046E56102F00C
:1072E0001BFCB8F10000A4D199F8001099F8010036
:1072F0008142A3D117B97168514502D00120BDE880
:10730000F0870020FBE70000E42A00204C45002025
:10731000FFFF7F00CAB0FDF785FA08B1FDF73CFA20
:107320001822724920A8FCF75FFA7148269071492B
:107330004FF48070CDE92701299007236E4A26A9D2
:1073400020A8FDF707FB08B1FDF726FA6B490320DB
:10735000FEF714FE08B1FDF71FFA20A90020FEF782
:1073600043FD08B1FDF718FA01F0A2FA08B1FDF7E4
:1073700013FA002420A90120209401F0FFF908B19C
:10738000FDF70AFA20A801F049FA08B1FDF704FA5E
:107390009DF888005AA120F00F00401C20F0F0005A
:1073A00010308DF888000C2222A87CDF08B1FDF790
:1073B000F3F920941020ADF880003C202194ADF822
:1073C0008200ADF884404FF4C870ADF8860020A864
:1073D0007ADF08B1FDF7E0F9FFF77CFD4C4820901B
:1073E00020A94C48FEF7CEF808B1FDF7D5F9A02149
:1073F00020A8FCF712FA02208DF880008DF8824058
:1074000005208DF883000120ADF8CC008DF8FC003C
:107410004020414942903491B42043903F484690E7
:107420003C4820A93030FDF79FFC08B1FDF7B4F9C6
:10743000384801213030FDF794FC1C2120A8FCF7CE
:10744000ECF94FF42030CDE920404FF47020229029
:1074500003208DF88C003248259032482690ADF8F4
:107460008E408DF8904020A8FDF76AFE08B1FDF728
:1074700093F92DA0FCF7BAFF264803213030FDF721
:1074800079FD08B1FDF788F9FFF70EF902F084FAEB
:1074900001F0AAFDFFF7D8FBADF820418021684636
:1074A000FCF7BBF91C4C143C3EDF08B1FDF774F946
:1074B00080216846FCF7B1F91EA16846A3682269DD
:1074C000FCF7A4FF6846FCF7B3F9ADF8200148AA21
:1074D00069461048FEF7CEF8D4E902108842E3D09E
:1074E00022A0FCF783FFA068E060DDE78CA4020027
:1074F0001C2C00201C2D0020899D0200D55E02005E
:10750000537465705F636F756E7465720000000080
:10751000398A0200B04100207C2A0020A18A0200A2
:10752000C58A02009D6B02000D0A5541525420533A
:10753000746172005468652063757272656E7420A0
:10754000737465707320617265206E6F773A25647D
:107550000D0A207468652073656E736962696C69D1
:1075600074792069733A2025640000000A20546869
:1075700065206E65772073656E736962696C6974E6
:10758000792069733A20256400000000F0B50B30C3
:10759000154D20F007010024144A0FE003688B42C8
:1075A0000BD38B4205D95E1A43184768C3E90067BD
:1075B00000E04368136002C004E0021D1068002868
:1075C000ECD12046002802D1286808B10020F0BD87
:1075D000064A07481060074A121A22F00702C0E95B
:1075E000002401202860D7E7202B00201C2B00203E
:1075F000044700200067002070B5144682880E46BC
:1076000005462088111D0144921C994201D8FE2A8A
:1076100001D90C2070BD521C32542088FF21401C1F
:1076200080B2208031542088401C80B22080811993
:10763000288802F036FD2188084480B22080AA887C
:1076400042B1A96841B13044FCF7CEF82088A9883E
:1076500008442080002070BD072070BD38B50C465E
:1076600000218DF80010007823464FF00102694692
:1076700088B15720FEF7A8F800280BD19DF800002C
:10768000234640F001008DF8000001226946572092
:10769000FEF7F3F938BD5520FEF796F80028F9D12A
:1076A0009DF80000012240F001008DF80000234603
:1076B00069465520ECE738B50C4600218DF80010DE
:1076C000007823464FF00102694688B15720FEF743
:1076D0007BF800280BD19DF80000234640F0040001
:1076E0008DF80000012269465720FEF7C6F938BD23
:1076F0005520FEF769F80028F9D19DF80000012215
:1077000040F004008DF80000234669465520ECE760
:1077100038B5044600208DF800000D4620780B4651
:107720004FF00102694620B15720FEF74DF8A8B18D
:107730001EE05520FEF748F840B9607804289DF80F
:10774000000008D040F010008DF8000001222B4608
:107750006946552010E040F02000F5E760780428E5
:107760009DF800000BD040F0100000BF8DF8000025
:107770002B46012269465720FEF77FF938BD40F0BD
:107780002000F3E79269038892881944914201D955
:107790000280704701807047F8B50E4601781446A4
:1077A0000546012901D1687830B12088821C9A42AF
:1077B0002DD8012902D006E00720F8BD69780144E0
:1077C000891C994223D8181A801E87B2ADF8007020
:1077D0002188B01C084469467DDF0028EDD1287857
:1077E000022805D1BDF80010B94201D809210AE0EC
:1077F0000821012805D16878B84202D8ADF8000008
:1078000001E0ADF80070BDF80000FE2801D90C20A1
:10781000F8BD2288401CB0542088401C80B22080D3
:1078200031542088401C2080BDF80010084420807E
:107830000020F8BDC20800F007030120895C9840D1
:107840000840704728B1A1F11702E12A03D30720AD
:1078500070470E20704701800020704710B560B15E
:107860000161F72120F8021B20F8021BFB2100F820
:10787000021BFFF7C7FC002010BD0E2010BD00004A
:107880002DE9F04386888FB00C46002E39D101884F
:107890004E4F002524295ED006DC102909D011297D
:1078A0000CD0232909D172E03A290BD0552904D1F3
:1078B0002AE00146204601F013F97BE0A01DFFF706
:1078C000A1FC77E02246408934F8061F814200D8A7
:1078D00008466080172800D217206080106970B1B8
:1078E000607960B1D7E90001CDE90001ADF802602F
:1078F0006088ADF8040013696946104698476571C1
:1079000025710FB0BDE8F083C088B14604F10608C8
:10791000172800D21720B8F80010814200D8084676
:10792000A8F8020088F804502846B8F80010ADDF27
:1079300098F8050050BB206940B3D7E90201CDE9B2
:107940000001ADF80290B8F80200ADF8040020463E
:107950006946226919E0011D34226846FBF744FF9D
:10796000BDF80000BDF8042004EBC0014A73226991
:1079700062B1D7E90423CDE90D23ADF83600487B89
:107980008DF83800226920460DA9904712E0009535
:10799000019530F8041F04EBC1020179127B8A4281
:1079A00000D21146ADF80010ADF802100088002298
:1079B000694690DFA07A0028A3D0E18830469EDF98
:1079C00000289ED1A5720120E0729AE7E8A4020087
:1079D00000F180400068002800D00120704708B501
:1079E00000F18040002101600068009008BD4FF464
:1079F0007A714843AFF3008000283ED01F49204AE7
:107A0000096800BF00BF00BF00BF00BF00BF00BFCC
:107A100000BF91422FD000BF00BF00BF00BF00BF1A
:107A200000BF00BF00BF00BF00BF00BF00BF00BF5E
:107A300000BF00BF00BF00BF00BF00BF00BF00BF4E
:107A400000BF00BF00BF00BF00BF00BF00BF00BF3E
:107A500000BF00BF00BF00BF00BF00BF00BF00BF2E
:107A600000BF00BF00BF00BF00BF00BF00BF00BF1E
:107A700000BF00BF00BF0138C3D17047182B0020E2
:107A80000024F40000283ED01F49204A096800BFA6
:107A900000BF00BF00BF00BF00BF00BF00BF9142DA
:107AA0002FD000BF00BF00BF00BF00BF00BF00BF9E
:107AB00000BF00BF00BF00BF00BF00BF00BF00BFCE
:107AC00000BF00BF00BF00BF00BF00BF00BF00BFBE
:107AD00000BF00BF00BF00BF00BF00BF00BF00BFAE
:107AE00000BF00BF00BF00BF00BF00BF00BF00BF9E
:107AF00000BF00BF00BF00BF00BF00BF00BF00BF8E
:107B000000BF0138C3D17047182B00200024F400B7
:107B100070B50F4C0025207808B1852516E00021AE
:107B2000A16061602161E1604FF0E020D0F80001C8
:107B3000012610F0010F03D10721002000F04EF8BC
:107B400000F0F4FE08B9034806602670284670BDB0
:107B50002C4400201805004008B500208DF80000D6
:107B60006846FCF76FFF0648C168491EC160C068DF
:107B700008B9FFF733FB9DF80000FCF787FF08BD4D
:107B80002C4400202DE9F0414FF480773846FFF770
:107B90001FFF0124104EA50748B13846FFF71FFF0D
:107BA0000120C5F8080374700020FEF7D3FB4FF4E2
:107BB00082773846FFF70CFF00280BD03846FFF7D6
:107BC0000EFF0220C5F80803B470BDE8F0410120A3
:107BD000FEF7C0BBBDE8F0812C4400204907090E28
:107BE000002806DA00F00F0202F1E02282F8141DEC
:107BF00003E000F1E02282F8001400F01F020121EE
:107C000091404009800000F1E020C0F88012C0F8E7
:107C1000001170470C4A904201D10C4810E0B0F1BD
:107C2000402F05D00A4A904205D10848103007E09D
:107C30000648083004E0074A904203D10348183050
:107C4000FCF70FBD0720704700300040A42A002039
:107C50000030024000300140000B40B2704700008D
:107C60002DE9F0418846054600F06CFF234E0028C0
:107C700028461AD0FEF7E8FA304490F85000800900
:107C8000032802D001280ED007E04FF0A040D0F822
:107C90001005E84010F0010F05D003212846BDE88B
:107CA000F04100F00DBD0221F8E700F057FF002879
:107CB00022D02846FEF7C8FA04464FF4807000EB45
:107CC00084000F4F81B207EB8400D0F8102542F0FA
:107CD0000102C0F81025084600F02AFDB8F1000F97
:107CE0000AD02846FEF7B0FA56F82000002803D044
:107CF0000120A040C7F80403BDE8F0814044002003
:107D0000006000402DE9FC41DFF8A480044608EB48
:107D10000400002790F938001346C0170E46401C97
:107D200001D0082741E0F27819462046FEF768FAAC
:107D30000546401C38D0B07850B14FF0A04000EB61
:107D40008400D0F8001721F00201C0F8001707E006
:107D500000217378204600910A46019100F04CFC06
:107D6000F078C0B11348317800EB8500D0F81025C9
:107D7000114B1A40C0F810254FF4F8524FF440331D
:107D800002EA042203EA01410A43D0F810150A432B
:107D9000C0F8102509E008EB0500327810F8501FF4
:107DA00041EA8211017000E004273846BDE8FC81F9
:107DB0004044002000600040FFE0FCFF4FF0A04185
:107DC000D1F81015C14011F0010000D0012070471A
:107DD00070B5144D95F85E0008B1082070BD002004
:107DE000411E2A18401CC0B282F838102028F8D34F
:107DF00000242046FEF7F6F9641CE4B20E2CF8D3FA
:107E000007210620FFF7EAFE4FF4BE7000F090FC59
:107E100005494FF00040C1F80403012085F85E00D9
:107E2000002070BD4044002000600040034890F8EE
:107E30005E00002800D00120704700004044002070
:107E40000121B1EB507F01D1012070470020704724
:107E50000121B1EB507F01D1012070470020704714
:107E600070B54FF08040D0F80443114D600706D53F
:107E70004FF4847000F06EFC08B168688047A0067B
:107E800007D54FF48A7000F065FC10B1A968002096
:107E9000884760060AD54FF48C7000F05BFC002820
:107EA00004D0A968BDE870400120084770BD0000FB
:107EB000C42A0020012802D10148406800477047C9
:107EC000C42A002038B5104C01280DD003280AD14F
:107ED00007210020FFF782FE6068002803D00420FD
:107EE0000107C1F8040338BD00208DF80000684682
:107EF000FCF7A8FD606808B1012035DF9DF800009F
:107F0000FCF7C4FD38BD0000C42A00202DE9FC5F49
:107F100007460C46407915464A4900EBC00201EB82
:107F200082069846317F11B10820BDE8FC9F464982
:107F300051F820103868FFF76DFE08B11120F4E702
:107F4000C6E90058207B4FF0A04B4FF001090128F3
:107F500005D8227809FA02F0CBF80C0502E0207867
:107F600000F0BFFB4FF0000ACDF800A0CDF804A050
:107F7000207853465246012100F062FB65784FF0AD
:107F8000FF38FF2D07D009FA05F0CBF80C0528467D
:107F900000F07BFB00E04546A078FF2809D00022D6
:107FA00080460123CDF800A01146CDF804A000F0D2
:107FB00047FBE078FF2804D000F093FBE07800F066
:107FC00064FB7879E17800EBC0021E4800EB820088
:107FD000817738682278C0F80825C0F80C55C0F8B9
:107FE0001085A168C0F82415227B617B01B10121B5
:107FF000012A04D0022A05D0032A08D105E041F065
:10800000020104E041F0040101E041F00601C0F882
:1080100054156179C0F8C015316811B14021C0F81C
:1080200004130721C0F80015306820B1217997F9B1
:108030000400FFF7D3FD504686F81DA086F81C907B
:1080400073E70000C044002024A502001FB5069C71
:1080500000918DF8042002938DF80C4000226946AF
:1080600000F002F804B010BDF0B40D46134641799B
:10807000144A01EBC10102EB81014A7F12B1F0BC4D
:10808000112070470C6801221CB113F0140F00D1AD
:108090004A7795E8D0100C3181E8D01011F8154FCF
:1080A00024F0070401F821498C7FFF2C04D04FF005
:1080B000A046A240C6F80C2500682A46F0BC01F094
:1080C00091BC0000C04400202DE9F0410546007934
:1080D000164F904607EB40140E46E07E10B1082084
:1080E000BDE8F081707F20772846FCF7E9FC5FEA65
:1080F000080060603169216003D0317F2846FEF7B7
:10810000B5FF287907EB4010007F0028286801D0D0
:10811000082100E00421C0F800150020E075207659
:10812000A0750121E176A076DAE70000A0440020E6
:108130002DE9F04105460079284E904606EB4014A3
:108140000F46207F18B10846FFF77AFE80B16268BB
:1081500000234FF404704FF4017172B12A7906EBD9
:108160004212127F002A2A6805D0C2F8080304E0F0
:108170001020BDE8F081C2F80813E27DB2B1227E82
:108180007AB162685AB12A7906EB4212127F1AB1AB
:108190002968C1F8040302E02868C0F8041311201C
:1081A000E7E72761012384F8188005E084F8178049
:1081B0000020E760607620762879424606EB401082
:1081C0003946007F0028284603D0BDE8F04100F082
:1081D00073B8BDE8F04100F01BB80000A0440020D7
:1081E00070B504460079094D05EB4010017F002968
:1081F0000AD1807E002807D1204600F0C5FD2179F4
:10820000012005EB4111887670BD0000A0440020DC
:108210002DE9F05F04460079264901EB4015A87E60
:10822000184302D1204600F0AFFD6868002820689E
:1082300006D04FF40171C0F804130020BDE8F09F90
:108240004FF4A276314600F0D4FBB1464FF4927A57
:108250004FF4847B5146206800F0C6FB0646594621
:10826000206800F0C1FB80464946206800F0BCFB56
:10827000074648EA07003043ECD056EA070007D12A
:108280002946206800F00AFDE87D697E8842E1D831
:108290000020E8750EB10320D0E70FB10F20CDE725
:1082A000A97E01200029216801D00860C5E7486047
:1082B000C3E70000A04400202DE9F05F8946044692
:1082C0004FF488759A46904600260068294600F0CB
:1082D000A1FB4FF4A2773946206800F09BFB206891
:1082E000C0F83495C0F838852068BAF1000F14D072
:1082F000D0F8001241F02001C0F800122179DFF817
:10830000648008EB4110406850B120684FF404715C
:10831000C0F804133046BDE8F09F01210160EDE78D
:10832000AA46B9464FF4927B5146206800F06DFB97
:1083300007464946206800F068FB05465946206814
:1083400000F063FB014647EA05000843ECD02379BF
:10835000002208EB4310C27501B10326002DD9D0CD
:108360000F26D7E7A04400202DE9F0470546007905
:108370003F4E904606EB40140F46207F18B108464A
:10838000FFF75EFD30B1284600F074F820B11120EF
:10839000BDE8F0871020FBE784F81680A76000276F
:1083A000A78228794FF0010806EB40143E46207F53
:1083B0000028286825D04FF49079494600F02AFB20
:1083C0004FF4AC7A5146286800F024FB2868A17D60
:1083D000A268C0F84425C0F848152868C0F808808D
:1083E0006068F0B94946286800F00FFB80465146A6
:1083F000286800F00AFB58EA0001F3D058BBA775C3
:108400000FE04FF48E7A514600F0F3FA2868C0F876
:1084100008802146286801F02BFC61684FF48070C9
:1084200089B13046B4E75146286800F0DDFA10B94A
:10843000A08A4845F7D1A08A484505D0214628683A
:1084400001F016FC00E08146A08AA17D8842EAD3B3
:10845000A08A484501D10F26D1E75146286800F08F
:10846000C3FA0028F9D02868C0F80C80C7E70000DC
:10847000A04400200079044901EB4010807D0028D1
:1084800000D0012070470000A04400202DE9F041F9
:1084900028B1016819B14969BDE8F04108470D4D9F
:1084A0000D480024461B14270DE000BF04EB840098
:1084B00005EB8000016829B14969884710B10120A6
:1084C000BDE8F081641CB6FBF7F0A042EED80020B6
:1084D000F6E70000000000000000000008B10128DD
:1084E00008D1054801218170017809B9407808B1A7
:1084F0000020704701207047082B0020012801D080
:10850000032808D10449002201288A7000D00020E5
:10851000C87000F061BB7047082B0020F0B52B4EEF
:10852000074687B030780025F0B3294C022F206F22
:10853000C0EBC00004EB8001304602D0032F39D1DC
:1085400017E04560087910B1012833D10AE0D1E97C
:108550000502801A4FF48053984200D31846104405
:10856000886102E00869401C08614A69904206D0AF
:1085700020E04268521C4260082A1BD945601C2238
:108580006846FBF731F9606F401E6067206F401C42
:108590002067042800D125673570022F05D00D21F2
:1085A0006846FEF7BCFB05E001E00021F8E77078C3
:1085B00000B17570B07820B107B0BDE8F04000F0B0
:1085C000BBB907B0BDE8F04000F006BB082B0020A7
:1085D0008446002070B541EA4201DDE904564FF0BF
:1085E000A04441EA830141EA052104EB800041EA0D
:1085F0000641C0F8001770BD70B541EA4201DDE9DF
:1086000004564FF0A04441EA830141EA052104EBFE
:10861000800041EA0641C0F8001770BD70B541EA1C
:108620004201DDE904564FF0A04441EA830141EAEA
:10863000052104EB800041EA0641C0F8001770BD37
:1086400070B541EA4201DDE904564FF0A04441EA29
:10865000830141EA052104EB800041EA0641C0F8AC
:10866000001770BD1CB500220B4600921146019206
:10867000FFF7D4FF1CBD1CB5002100910B46012261
:1086800001911146FFF7CAFF1CBD1CB500210091E6
:108690000B46012201911146FFF7D2FF1CBD4FF09E
:1086A000A04202EB8000D0F8002722F44032C0F84C
:1086B0000027D0F8002742EA0141C0F800177047B0
:1086C0004FF0A04202EB8000D0F8002722F44032A5
:1086D000C0F80027D0F8002742EA0141C0F800178F
:1086E00070474FF0A04201218140C2F80815704741
:1086F00001224FF0A043824011B1C3F80825704712
:10870000C3F80C257047000018B5084B6C460144AF
:108710001B68009306E000BF54F82030D3F81035F2
:10872000401C08C28142F7D818BD000020A50200F5
:10873000034908B50844002101600068009008BDA5
:108740000060004002494058012800D000207047D6
:108750000060004000F180410868002210B1012053
:108760000A6070471046704720B1034909680160EC
:10877000002070470E207047C8A50200FEB50646CF
:108780000D460846FFF7F0FF002844D1002400946E
:108790000194012703208DF80060ADF804000294D5
:1087A0008DF80270694620202A6869DF00948DF8F0
:1087B00000708DF80140019402948DF802406946E2
:1087C00040202A6869DF00948DF80060F720ADF83A
:1087D000020001940294694623202A6869DF00940C
:1087E000019402948DF80070694601202A6869DFBF
:1087F000094801940294406800906946A1202A68C3
:1088000069DF0094019402948DF800406946A0202D
:108810002A6869DF0020FEBDC8A5020060DF70473E
:1088200030B5EBB04FF4CE75ADF8A8516AA96846E3
:1088300061DF30B1052816D06BB0BDE83040FBF7E2
:10884000ABBF6C46094967A800F0A2F807E000BF7B
:10885000D0E900212046904767A800F0B0F8699859
:108860000028E1D0F4E76BB030BD0000D0A50200D5
:1088700010B50E4C2078B8B10120A07000F016FBA6
:1088800011280FD0022000F029FB11DF00280AD1A7
:108890002070A070162000F087FA002803D1032072
:1088A00000F01CFB002010BD082010BD142B002080
:1088B00038B5124C207808B1082038BD0125A570C4
:1088C000002000F0F3FA112815D0002000F006FB7C
:1088D0000B480C4900680090684610DF0028ECD176
:1088E0002570A0706070162000F07EFA0028E4D198
:1088F000012000F0F3FA002038BD0000142B002006
:1089000068A50200694702000EB50749684600F0F5
:108910003FF805E0D0E900108847684600F04FF8BE
:1089200002980028F6D10EBD84A502000148007807
:1089300070470000142B00200548817819B1007899
:1089400018B1FFF795BF08207047FFF7B1BF0000CF
:10895000142B00201FB5684648DF30B1052814D01D
:1089600004B0BDE81040FBF717BF084901A800F0AC
:108970000FF806E0D0E900210098904701A800F028
:108980001EF803980028E6D0F4E71FBDECA502000E
:10899000016009684160AFF3008010B5D0E90021A3
:1089A0005368994201D1002104E0D1E90034A34287
:1089B00002D01946816010BD08314160F0E781683E
:1089C00000290BD0026892680A44826041684B68B3
:1089D0009A4203D108314160FFF7DFBF704740582A
:1089E000002800D0012070474058002800D0012006
:1089F000704708B5002242504058009008BDD0F89A
:108A00000403084000D0012070474058002800D0DF
:108A10000120704708B5002242504058009008BD20
:108A200038B1C16929B1016A19B1406A08B10020A1
:108A300070474FF0FF3070477CB50546007800283E
:108A400027D100246E460CE0A868005D3055A86868
:108A5000005DFBF7D9FF18B11128F5D0FBF79CFE9C
:108A6000641CA889A042EFD89DF800000B4C302868
:108A700010D06846FAF7E3FEA060A989A868084408
:108A800010F8010C0D2804D10A20FBF7BDFF1128B6
:108A9000FAD07CBD00202061EFE70000682A0020AA
:108AA00010B550B103280CD10220FDF75BFA002865
:108AB00007D0BDE81040FBF76FBEBDE8104000F0E6
:108AC00051BF10BD0078002807D104483B218088A1
:108AD00076DF002801D0FBF75FBE7047682A0020D0
