:020000040000FA
:10000000F822002049020000510200001502000001
:1000100055020000570200005902000000000000D5
:100020000000000000000000000000005B02000073
:100030005D020000000000005F020000610200009D
:10004000FD05000063020000850C0000D5080000DB
:10005000E108000063020000350300008D07000086
:10006000210C0000350C0000490C0000490700007D
:1000700063020000F9060000630200006302000052
:10008000A10C0000590700003D06000029030000F4
:10009000F9080000FD080000050900000D09000036
:1000A000150900001D0900005D0C0000710C000026
:1000B0000D06000015050000000000000000000013
:1000C000630200001D0600002D060000ED08000080
:1000D0007D070000630200006302000000000000D2
:1000E0000000000000000000000000000000000010
:1000F0000000000000000000000000000000000000
:1001000000000000000000000000000000000000EF
:1001100000000000000000000000000000000000DF
:1001200000000000000000000000000000000000CF
:1001300000000000000000000000000000000000BF
:1001400000000000000000000000000000000000AF
:10015000000000000000000000000000000000009F
:10016000000000000000000000000000000000008F
:10017000000000000000000000000000000000007F
:10018000000000000000000000000000000000006F
:10019000000000000000000000000000000000005F
:1001A000000000000000000000000000000000004F
:1001B000000000000000000000000000000000003F
:1001C000000000000000000000000000000000002F
:1001D000000000000000000000000000000000001F
:1001E000000000000000000000000000000000000F
:1001F00000000000000000000000000000000000FF
:10020000DFF80CD000F07EF80048004731170000FE
:10021000F8220020094B1EF0040F1CBFEFF30980E9
:100220001847EFF308800649064A884201D89042F1
:1002300002D88D464FF0000018470000A9040000C6
:10024000F8220020F80200200648804706480047B0
:10025000FEE7FEE7FEE7FEE7FEE7FEE7FEE7FEE776
:10026000FEE7FEE725090000010200000048704794
:10027000C42E000010B5431A934209D2831888187F
:1002800003E010F8011D03F8011D521EF9D210BD44
:1002900040EA01039B0703D009E008C9121F08C008
:1002A000042AFAD203E011F8013B00F8013B521E88
:1002B000F9D210BDD2B201E000F8012B491EFBD2E9
:1002C00070470022F6E710B513460A460446194661
:1002D000FFF7F0FF204610BD421C10F8011B00295B
:1002E000FBD1801A704710B5002200E0521C835CDD
:1002F0008C5CA34201D1002BF8D1D8B2E1B2401AF4
:1003000010BD0000064C074D06E0E06840F0010318
:1003100094E8070098471034AC42F6D3FFF774FF17
:1003200048300000683000000148006800470000C5
:10033000180000202DE9F04700268CB0DFF860910E
:10034000B0464FF48075012437460696284602F0E1
:10035000C7F838B1D9F80403204203D0284602F088
:10036000B5F826432D1D64007F1CADB2082FEDD3D8
:100370004FF4BE74204602F0B3F848B1204602F0B4
:10038000A5F846F0004606AA0121002002F08AF8EE
:10039000444D16F0FF0F15D00127002437420DD031
:1003A00009EB8401D1F81005D1F81015C0F3042031
:1003B00055F82420C1F3014102B190477F00641C2D
:1003C000082CEBD3002E67DA4FF0FF30CDE9088020
:1003D00000263446281910F8507F90F9000027F0C5
:1003E000C008401C44D009A9404601F00CFA58B39B
:1003F0004FEA9719404600F0FFFC55F820701FB1F6
:10040000B9F1030F03D00FE0B9F1030F30D108A801
:100410004FEAD80208F00703815C4FF0010C0CFA98
:1004200003FC41EA0C0181544FF0A04101EB88002C
:10043000D0F8000706A9C0F3014A404601F0E3F9ED
:1004400018B1BAF1020F03D012E0BAF1030F0FD1C5
:10045000B9F1030F08D1BAF1020F1BD002214046B7
:1004600002F004F8761CF6B217B149464046B84788
:10047000641C042CAED3002E0ED06A46012100204D
:1004800002F010F806990098884205D00690089866
:1004900009909DE70321E2E70CB0BDE8F08700007A
:1004A000006000409000002000F000F8BFF34F8F84
:1004B00005480168054A01F4E06111430160BFF39A
:1004C0004F8F00BFFDE700000CED00E00400FA05CF
:1004D00000F01F02012191404009800000F1E0205E
:1004E000C0F88012704700F01F02012191404009BE
:1004F000800000F1E020C0F80011704700F01F02FA
:10050000012191404009800000F1E020C0F8001274
:1005100070470000FEB54FF48077384601F0EEFFDB
:100520000126344C002578B3384601F0EFFFA17C5A
:1005300026EA010004EB800252682AB9627C022A92
:1005400002D0E07C90B11AE08DF80850E574627C2E
:10055000022A08D004EB81014A6801924D60A07420
:100560008DF8006008E001956674F9E78DF8086081
:1005700001958DF80050E674216868468847607CD4
:10058000022829D1667427E0FFE74FF482773846C6
:1005900001F0B4FF00B3384601F0B8FF164805601B
:1005A00065748DF808508DF80050A07C04EB800035
:1005B000416821B101914560216868468847A17C66
:1005C00026EA010004EB8001486820B101904D60EB
:1005D000216868468847A574607D002808D0019589
:1005E0008DF808508DF80060657521686846884769
:1005F000FEBD0000E800002000D5014010B501F06C
:10060000A3FCBDE8104001F0E7BC0000014902482E
:1006100000F0A3BF0001002000C0014001490248D2
:1006200000F09BBF08010020001002400149024871
:1006300000F093BF10010020002002402DE9F84394
:100640002A48DFF8A4804FF480720168284E002504
:1006500089B1D8F8041311F0010F0CD005600068BF
:100660000090244862F30F040068726860F3174436
:100670003946204690471D484FF48271001D02689C
:10068000BAB1D8F8042312F0020F12D00560006846
:100690000090184861F30F040C30006860F31F44A9
:1006A00014483C300068726860F30F0739462046F2
:1006B00090470E484FF48472083041460368002B7F
:1006C00010D0D1F8041311F0040F0BD005600068AE
:1006D0000090204662F30F00726801B03946BDE811
:1006E000F0431047BDE8F88300200140002101409D
:1006F0002C0000200C2501401CB510480E49036851
:100700000022002B16D0D1F8081311F0010F11D0E0
:100710000260006801900A4800688DF80000694690
:10072000084801F028FF074801F00FFF002801D01A
:1007300001F07CFC1CBD000000D0004000D1004056
:1007400008D50040F42C000003220021014801F0EC
:1007500077BC000000B0004007480021C0F84011FD
:10076000C0F84411C0F84811C0F84C11C0F800118D
:10077000C0F8041102F0AEB80010014004220121BB
:10078000014801F05DBC0000004002402DE9FE433D
:100790004FF48278404601F053FF4C4F00254C4CFB
:1007A000012600B3404601F053FF94F82E0010B12B
:1007B00094F82F10D1B18DF8005061680191218912
:1007C000ADF80810E26832B1218B6183626021814B
:1007D000E56010B102E0257400E03E6021686846E3
:1007E000884784F82F5094F82E0060B34FF4807738
:1007F000384601F025FF30B3384601F029FF628BFF
:1008000094F82D108A420AD9A2EB010080B26083CD
:100810002289A2EB0000626802EB400005E007D1EC
:10082000E06828B184F82F60658301F001FF04E0DF
:100830008A4202D184F82F606583404601F008FFA8
:100840002248001D06604FF48877384601F0F8FE14
:1008500048B1384601F0FCFE257402208DF80000F6
:100860002168684688474FF48A77384601F0E8FEE9
:1008700028B1384601F0ECFE2574BDE8FE834FF048
:1008800000484FF48C7967691DE000BFB7FA87F024
:1008900028FA00F109EB80058F43284601F0D0FECD
:1008A00088B1284601F0D4FEA5F58C75E8088DF8CE
:1008B000040045F38000401C8DF800608DF80500B1
:1008C000216868468847002FE0D1D6E700700040D5
:1008D0004801002001480068004700000000002097
:1008E0000148006800470000080000200148006837
:1008F000004700001000002001F05EBF0021012031
:1009000001F0EEBB0021022001F0EABB0021032030
:1009100001F0E6BB0021042001F0E2BB002105202C
:1009200001F0DEBBF0B5AE480023021D01780125C1
:10093000101D4FF0805406290BD11678360708D1C8
:100940000678C6F30316032E06D0042E04D0052E17
:1009500002D0062907D00EE0B4F82463A14FC6F3F5
:1009600004263E6002E01678360704D10678C6F306
:100970000316032E02D0062904D00FE09B4F9A4E97
:100980007E670EE01678360708D10678C6F30316A0
:10099000032E06D0042E04D0052E02D0062907D03F
:1009A0000EE0D4F84462924FC6F342363E6002E055
:1009B0001678360704D10678C6F30316032E02D044
:1009C000062906D011E08B4E376827F08077376014
:1009D0000EE01678360708D10678C6F30316032E04
:1009E00006D0042E04D0052E02D006290AD011E02C
:1009F0004FF08046C6F80C31C6F810317C4E361FD9
:100A0000336002E01678360704D10678C6F3031681
:100A1000032E02D0062905D00CE0754F032664375B
:100A20003E600AE01678360704D10678C6F303164E
:100A3000032E02D006290DD014E06F4F05263E602C
:100A40006D4E783635606C4E083633603F263F1D5C
:100A50003E6002E01678360704D10678C6F3031626
:100A6000052E02D0062957D062E0644E3668644FE6
:100A70003E60624E361D36683F1D3E605F4E083652
:100A800036683F1D3E605D4E0C3636683F1D3E6049
:100A90005A4E103636683F1D3E60584E1436366842
:100AA0003F1D3E60554E18363668554F20373E6024
:100AB000524E1C3636683F1D3E60504E203636681A
:100AC0003F1D3E604D4E243636683F1D3E604B4E06
:100AD000283636683F1D3E60484E2C3636683F1D2E
:100AE0003E60464E30363668454F40373E60434E96
:100AF000343636683F1D3E60404E383636683F1DFE
:100B00003E603E4E3C3636683F1D3E603B4E4036B2
:100B100036683F1D3E6002E01678360708D1067839
:100B2000C6F30316032E06D0042E04D0052E02D0E1
:100B3000062907D019E0D4F85812324A01F04F01C3
:100B4000116002E0117809070FD10078C0F303109B
:100B5000032803D0042801D0052806D12A480168BB
:100B6000C90702D06FF001010160224874380168A2
:100B700041F470010160BFF34F8FBFF36F8F4FF0EF
:100B80001021D1F80002002803DBD1F8040200286C
:100B900022DA1E4A15601E480468002CFCD0152479
:100BA000C1F800420568002DFCD0C1F8044201687C
:100BB0000029FCD0136001680029FCD0BFF34F8FDF
:100BC0000C48F0380168134A01F4E06111430160F8
:100BD000BFF34F8F00BFFDE710490F480860F0BD1D
:100BE000E00F00F0403501400DF0ADBA00C0074005
:100BF0003C050040FCED00E01056004004040010ED
:100C000020C50040E40E00400004004004E501401F
:100C100000E401400400FA050090D00368000020C1
:100C200004220249024800F0E6BC00008C010020CA
:100C30000080004004220249024800F0DCBC0000B1
:100C4000980100200090004004220249024800F070
:100C5000D2BC0000A401002000A0004006220249EE
:100C6000024800F0C8BC0000B001002000A0014014
:100C700006220249024800F0BEBC0000BC01002070
:100C800000B001400448017F04480029024901D016
:100C900001F007BF01F076BEC8010020002000402F
:100CA000094882B0D0F804034FF0000110F0010FA2
:100CB00007D006480160006800900548406802B00F
:100CC000004702B0704700000000014000010140F1
:100CD0004400002002E008C8121F08C1002AFAD10F
:100CE00070477047002001E001C1121F002AFBD1AC
:100CF0007047000009480068C00700D000BEBFF37D
:100D00004F8F0648E4380168054A01F4E061114359
:100D10000160BFF34F8F00BFFDE70000F0ED00E082
:100D20000400FA050EB500210091CDE901106A46D4
:100D300044F20100FFF7DEFF0EBD00F003B800F043
:100D400009B8000072B602480168491C016070478A
:100D50006400002003490868401E086000D162B6A4
:100D6000704700006400002007490B5C4FF0A04171
:100D7000D1F804250120984020EA0203C1F8083583
:100D80001040C1F80C057047E42C00000249085CD3
:100D9000012101F07CBB0000E42C00007CB50024A4
:100DA000084E25460122305D00950023114601952D
:100DB00001F04AFB641C042CF4D3BDE87C4000F035
:100DC00003B80000E42C000010B500242046FFF713
:100DD000DDFF641C042CF9D310BD30B482680468B4
:100DE000531C8360A154D0E901128A4202D330BC63
:100DF00001F031BA30BC70470249084490F9300024
:100E000070470000900000202DE9F0410446806802
:100E10000F4690F83911C27C11F00106817CA1EBDC
:100E20000203DDB20AD07F2901D3002D7ED0A06855
:100E3000C17C08440021077566B113E07F297CD28C
:100E4000002DF4D0831803F114012A46481CFFF743
:100E500011FAECE7A068827C521CD2B28274A068BE
:100E6000143281544DB3204600F0A5FC8178C0783F
:100E700081420ED1A06832A2C17C431808212046CD
:100E8000143300F053FEA81BC1B2204600F07EF9D7
:100E900021E0204600F06CF8A06829A2C17C43182C
:100EA00008212046143300F041FE204600F056F899
:100EB0000121204600F014FA0DE03EB1A068827CCA
:100EC000521CD2B28274A068143281543A461DA1D9
:100ED000206901F0B3F9A168C87C401CC8742046A1
:100EE00000F040F90028204603D0BDE8F04100F0B2
:100EF00059B900F0A6FA00281FD0204600F05BFC8C
:100F00000546C078A978401A401EC1B2204600F0BC
:100F10001DF9204600F046F9E878A978401AC1B2D8
:100F2000204600F0E9F92878401E00E005E0C1B253
:100F30002046BDE8F04100F0D3B9BDE8F0810000E3
:100F400025730000256300000069024A02A101F038
:100F500075B900001A2D0000257300000069024ACF
:100F6000024901F06BB90000112D0000580F00007C
:100F70000069024A024901F061B900000E2D00002B
:100F8000580F000030B4406804682469A44630BC9F
:100F90006047002801D0FFF79FB970472DE9F8435B
:100FA0001E46154688460746002418E0786808EB78
:100FB00004016B460268D2F80CC02A46E04700984C
:100FC00004442D1A58B9B8680178042907D000BF25
:100FD00090F838110029FBD0002180F83811002D3D
:100FE000E4D1002E01D000983060BDE8F883000005
:100FF00070B5084C050009D010342168002907D0CD
:1010000008682060496828468847F6E70834F4E70E
:1010100070BD00007C0000202DE9F05F1C460A9E98
:1010200015464FF0000959B180B3017839B34268D1
:101030003146284690473068D8B12660BDE8F09F19
:1010400014491548A1EB0008B5EBD80F11D2DFF811
:101050004CA00026834609E00BEBC60778680168C0
:101060005AF82500FFF73FF930B1761CB6EBD80FE0
:10107000F2D3C4F80090E1E778682060DEE74068CA
:1010800000EB0210016809B11860D7E7FFE7C3F869
:101090000090D3E788300000683000006C0000202A
:1010A0002DE9F05F26484168F1B3DFF898B00E688B
:1010B0008146DBF8004087688078E11B21F07F459E
:1010C000ED1CB0B9DFF880804FF48030C8F84403DD
:1010D000C8F804031120FFF7FBF91120FFF703FA0A
:1010E0004FF0010AC8F800A02F2000F0A1FE89F8F7
:1010F00002A0B54200D23546124BE8193C3320F02D
:101100007F401860DBF800105A46091B21F07F4130
:10111000001B20F07F40C91C81420FD91068186065
:101120002F2000F085FE00E004E0BDE8F05F112014
:10113000FFF7E4B9BDE8F05F01F0BCBABDE8F09F8D
:10114000500000200415014000100140002904D087
:101150000A46006901A101F071B870471B5B256464
:101160004200000010B504460068FFF712FF014678
:10117000A068C27C407B1144B1FBF0F200FB12106E
:1011800008B1002010BD012010BD0000002904D0CE
:101190000A46006901A101F051B870471B5B256444
:1011A000440000000069024A024901F047B800000B
:1011B000142D0000580F00002DE9FC5F00260446A6
:1011C0008DF8046080683546B046B1468021943081
:1011D000FFF777F84149206901F030F8206901F004
:1011E0003AF8002740F2E73B4FF47A7A6B46012247
:1011F00001A92046FFF7C6FE0098D8B19DF804006B
:101200001B2806D0A16891F894101B29EED1522812
:101210001CD0A26808F19401505408F1010000F0BC
:10122000FF08B8F1090F08D9A168042081F894904B
:10123000BDE8FC9F584600F041FE00980028D5D13B
:101240007F1CBFB25745D1D30D20F1E7A16808F14B
:1012500094004A4601F80090A16891F895005B2837
:1012600003D081F894200B20E2E702206FF02F07D3
:101270000AE000BF05EB850507EB4505401C2B4444
:10128000C0B29DB2802808D200F19403CB5C3B2B06
:10129000F0D1401CC0B2802809D30C20C8E700BFA1
:1012A00006EB860607EB460633449EB2F1E700F1F3
:1012B0009403CB5C002BF3D1FA20FA2E01D90872EB
:1012C00000E00E72FA2D02D9A168887201E0A068D0
:1012D0008572A06880F894200020A9E7322D0000D4
:1012E000002904D00A46006901A100F0A7BF704799
:1012F0001B5B256443000000002904D00A460069F6
:1013000001A100F09BBF70471B5B256441000000FA
:101310000E4910B50A784C780023A24212D0521C14
:10132000D2B20A70022A00D10B70084A0B780C3234
:1013300052F8232002608868104420F07F408860C3
:10134000012010BD0360002010BD000050000020EF
:101350002DE9F05F17460E00814670D013B1F9B247
:10136000FFF7BEFF0024FEF781FF8246006800E021
:10137000641C315D415CC907FAD100253046FFF796
:1013800008FED9F80810001B4A7BD11B814228D3E4
:1013900006EB040805E000BF18F805100A290CD078
:1013A0006D1C8542F8D33119D9F8100000F046FFC2
:1013B0004846BDE8F05FFFF7F5BED9F8100000F031
:1013C0004AFF414600232A464846FFF7E7FD2C44E2
:1013D0004846641CFFF7E6FEF9B24846FFF780FF77
:1013E000E1E78B46DAF8001006EB040818F8050070
:1013F0000B5CDB0702D0AB460A2804D0E819904208
:1014000001D26D1CF2E7D9F8100000F024FF41462C
:1014100000235A464846FFF7C1FD5C44DAF8000055
:1014200000E0641C315D415CC907FAD14846FFF712
:10143000B9FEF9B24846FFF753FF9EE7FFE7BDE864
:10144000F09F10B504460068FFF7A3FD0146A068B1
:10145000827C407B1144B1FBF0F200FB121008B11A
:10146000002010BD012010BD0EB50F490F4AD1E973
:101470000201CDE9010101A90B4800F097FE08B176
:10148000FFF750FC08480068D0F81005084A002112
:10149000C240012003460090034800F071FE02485C
:1014A00000F060FE0EBD0000D42C000051270000AB
:1014B00000127A002DE9FC5F0E008346DDE90C473F
:1014C000C6F1000098469246814600D408460125A0
:1014D00003E000BF90FBFAF06D1C5045FADAA84516
:1014E00000D9454624B1002E01DB780700D5641EE3
:1014F000B80702D5B8F1000F0AD0F80708D13CB1FF
:10150000A54205D220215846641EFFF766FCF6E787
:10151000002E02DA4E462D2102E0780703D52B215A
:101520005846FFF75AFC07F0030002280BD1B8F128
:10153000000F08D13CB1A54205D230215846641EA7
:10154000FFF74BFCF6E7CDE90047434652463146EC
:10155000584601F01FFBBDE8FC9F70B50C464FF4E8
:1015600088760546314600F0E5FF50B13146284601
:1015700000F0E5FF6079400703D5216809B101203B
:1015800088474FF48A763146284600F0D3FF50B1A1
:101590003146284600F0D3FF6079000703D5216863
:1015A00009B1022088474FF48E763146284600F074
:1015B000C1FF50B13146284600F0C1FF6079C00636
:1015C00003D4216809B1002088474FF48276314660
:1015D000284600F0AFFF00280CD03146284600F026
:1015E000AEFF012020712168002903D0BDE87040C2
:1015F0000320084770BD2DE9F843002516468846AC
:1016000004462F4614E04FF4A07000EB85004FF421
:1016100080312258A9404AB1D4F804230A4205D0A7
:10162000275021580091D8E9002190476D1CEDB258
:10163000B542E8D3BDE8F8832DE9F047394E0027DD
:1016400080463D46DFF8E090D6F804A057E003D08E
:101650000446D0F81C8035E099F8002002EB4201E6
:10166000521CD2B289F8002009EBC10199F802306E
:10167000091D9A4201D189F8005048680A78044649
:10168000012A12D0022A02D0032A3BD108E001F03D
:10169000F1F800B10127257434E00574C06900E059
:1016A00070680028F9D170602CE0207C50BB8868FD
:1016B0006060C868A0600869E0604869A061F0786F
:1016C00000B165606268B168184B501A20F07F4025
:1016D000984202D2A168084406E0881AA16820F066
:1016E0007F40814202D9081A206000E025606560D1
:1016F0000120A56020742046E56101F09DF8B8F155
:101700000000A4D199F8001099F801008142A3D1FA
:1017100017B97168514502D00120BDE8F08700205B
:10172000FBE7000050000020E8010020FFFF7F00E1
:10173000FFF734FBFFF798FE20BF40BF20BFFBE759
:101740002DE9F047C7880446181D16468946B0FBA8
:10175000F7F1B0FBF7F207FB12009A193A44D21CDA
:10176000B2FBF7F2DDF820A001E02468491E002951
:10177000FBD13D1A8846B54216D818E0BAF1000FE1
:1017800005D0211809EB08002A46091D04E0204471
:1017900009EB08012A46001DFEF76CFD00202468B5
:1017A000761BA844B74201D9354600E03D46002EDD
:1017B000E4D1BDE8F08770B58468006804F10805DD
:1017C000FFF7E7FBC1B2A971E07C6A790844B0FB7E
:1017D000F2F302FB13035B1C2B70E07C0844B0FBAC
:1017E000F2F35B1CAB70A07C0844B0FBF2F35B1C13
:1017F000EB70A07C0844B0FBF2F102FB1101491C24
:101800006970284670BDC20800F007030120895C9A
:10181000984008407047000010B50446022909D1DD
:1018200000F0F0FA30B120460022BDE81040114629
:1018300000F0A4B9064A07A1206900F0FFFC044AA1
:101840002069BDE81040093202A100F0F7BC000099
:101850002E2D0000257300007CB514460D4606466B
:10186000012902D000F0CEFA38B102B03046BDE80E
:1018700070400022114600F081B9022D08D00A48BC
:1018800000900AA202213046236800F04FF97CBD87
:10189000054861681730CDE9000106A202213046F3
:1018A000236800F043F97CBD422D000025733A25E2
:1018B0007300000025733A257325730D0A0000009C
:1018C000F8B514460E46054600F09CFA30B128469D
:1018D000BDE8F8400022114600F050B9012E08D0B2
:1018E0000848009008A202212846236800F01EF94B
:1018F000F8BDA86890F8391121F0040180F8391179
:10190000F8BD0000422D000025733A257300000049
:10191000F8B514460E46054600F074FA30B1284674
:10192000BDE8F8400022114600F028B9012E08D089
:101930000848009008A202212846236800F0F6F823
:10194000F8BDA86890F8391141F0040180F8391108
:10195000F8BD0000422D000025733A2573000000F9
:101960007FB515460E46044600F04CFA28B1002219
:101970001146204600F002F97FBD012E08D9194812
:10198000009019A2022120462B6800F0CFF87FBDFD
:10199000A0680026D0F83051F5B101E0082E1BD226
:1019A0000023092201A9284600F0A2FD9DF80C2081
:1019B000A168092328469431521C00F099FDA068C3
:1019C000334694300090029D761C09A208212046DF
:1019D00000F0ACF8002DE1D1A168002081F894005E
:1019E0007FBD0000422D000025733A2573000000E2
:1019F0005B2533645D2025730D0A00007CB5154618
:101A00000446022908D91C48009013681BA2022131
:101A1000204600F08BF87CBD01290AD000F0F2F9D5
:101A2000E8B102B02046BDE870400022114600F047
:101A3000A5B8A16801F10C020D3100F08CFE002860
:101A4000E9D0A16850200FA24873A168182008733C
:101A500002B02046BDE87040042100F067B8064897
:101A600069681730CDE9000116A2022120462B68D3
:101A700000F05CF87CBD0000422D000025733A2583
:101A8000730000006E6F20726573706F6E73652057
:101A900066726F6D207465726D696E616C2C206169
:101AA0007373756D656420383078323420636861F3
:101AB00072732073637265656E2073697A650D0AAF
:101AC0000000000025733A257325730D0A000000FD
:101AD000F8B515460E46044600F094F930B120469C
:101AE000BDE8F8400022114600F048B8012E08D0A9
:101AF0000A4800900AA2022120462B6800F016F83E
:101B0000F8BD064A08A1921F206900F097FBA16862
:101B100050204873A16818200873F8BD422D0000BA
:101B200025733A2573000000257300000FB438B503
:101B3000044607A80090A06890F83921520717D5ED
:101B4000C27B8A4214D0B0F80F50204601F09AF8B8
:101B50006A462069069900F08AFBE9B2204601F046
:101B600091F8290A204601F06FF838BC5DF814FBA3
:101B70006A462069069900F07AFBF6E72DE9F04FF6
:101B8000804689B016460C468948FFF702FA05469A
:101B900087486B38FFF7FDF9281A1FFA80F9844847
:101BA00084A258380090D8F80800082140680368DB
:101BB0004046FFF7BBFFD8F8080040680068FFF711
:101BC000E8F905467A485838FFF7E3F9284482B225
:101BD000D8F808000023406841684046FFF7B8FB8A
:101BE00076A208214046FFF7A1FF16B30CB30025EB
:101BF0001DE000BF05EB450A04EB8A0BDBF804008F
:101C0000FFF7C7F9074654F82A00FFF7C2F9391859
:101C100049450BD9DBF80400FFF7BBF9074654F838
:101C20002A00FFF7B6F938441FFA80F96D1CB54257
:101C3000E0D35F486B38FFF7ACF94844801C1FFACB
:101C400080F95B4800904B465FA208214046FFF7B1
:101C50006DFF09F1030087B2079000233A465CA1AB
:101C60004046FFF775FB002C52D000254EE000BF28
:101C700005EB450A04EB8A0B54F82A00DBF8043024
:101C80006BB350B34A4957A26B39CDE90010082114
:101C90004046FFF74BFF09F102000090DBF804001B
:101CA000FFF777F9074654F82A00FFF772F907445F
:101CB0003F486B38FFF76DF939180098401A801EBD
:101CC000C1B24046FFF70CFB3A224949D8F8100050
:101CD00000F0B4FA0098401C0AE0009301E040B123
:101CE00000904B4638A208214046FFF71FFF079897
:101CF00087B2DBF8081029B100233A464046FFF7C7
:101D000027FB02E04046FFF74DFA6D1CB542AFD30A
:101D1000D8F8080040688068002845D08146002037
:101D20000446064603AD02903246761C02AB012102
:101D300048460095FFF770F9029850B10068FFF728
:101D400028F9A042F0D902980068FFF722F984B27E
:101D5000EAE7012E28D027A208214046FFF7E6FE39
:101D600000273A467F1C02AB012148460095FFF749
:101D700053F90298002817D0A11C8EB20068009079
:101D8000334611A208214046FFF7D0FE0298F61C08
:101D9000B2B2416821B100234046FFF7D9FAE0E72B
:101DA0004046FFF7FFF9DCE709B0BDE8F08F00001F
:101DB000822D000025732573000000004F707469A8
:101DC0006F6E733A0D0A00002020252D2A733A0009
:101DD00053686F7720636F6D6D616E642068656C0A
:101DE000702E00002020257325732573000000004D
:101DF000440F0000537562636F6D6D616E64733ADA
:101E00000D0A0000806890F83901C0F34000704767
:101E100000F180400068002800D00120704708B51C
:101E200000F18040002101600068009008BD0000C2
:101E300000283ED01F49204A096800BF00BF00BFEC
:101E400000BF00BF00BF00BF00BF91422FD000BF46
:101E500000BF00BF00BF00BF00BF00BF00BF00BF8A
:101E600000BF00BF00BF00BF00BF00BF00BF00BF7A
:101E700000BF00BF00BF00BF00BF00BF00BF00BF6A
:101E800000BF00BF00BF00BF00BF00BF00BF00BF5A
:101E900000BF00BF00BF00BF00BF00BF00BF00BF4A
:101EA00000BF00BF00BF00BF00BF00BF00BF0138C0
:101EB000C3D17047680000200024F40000283ED001
:101EC0001F49204A096800BF00BF00BF00BF00BF14
:101ED00000BF00BF00BF91422FD000BF00BF00BFB6
:101EE00000BF00BF00BF00BF00BF00BF00BF00BFFA
:101EF00000BF00BF00BF00BF00BF00BF00BF00BFEA
:101F000000BF00BF00BF00BF00BF00BF00BF00BFD9
:101F100000BF00BF00BF00BF00BF00BF00BF00BFC9
:101F200000BF00BF00BF00BF00BF00BF00BF00BFB9
:101F300000BF00BF00BF00BF00BF0138C3D1704762
:101F4000680000200024F4002DE9F0414FF4807770
:101F50003846FFF75DFF0124104EA50748B138460B
:101F6000FFF75DFF0120C5F8080374700020FFF73C
:101F70003FF84FF482773846FFF74AFF00280BD02E
:101F80003846FFF74CFF0220C5F80803B470BDE8DF
:101F9000F0410120FFF72CB8BDE8F0817C00002063
:101FA0004907090E002806DA00F00F0202F1E022CC
:101FB00082F8141D03E000F1E02282F8001400F022
:101FC0001F02012191404009800000F1E020C0F88B
:101FD0008012C0F80011704770B54FF08040D0F803
:101FE0000443114D600706D54FF4847000F098FA51
:101FF00008B168688047A00607D54FF48A7000F0E2
:102000008FFA10B1A9680020884760060AD54FF4FE
:102010008C7000F085FA002804D0A968BDE87040F3
:102020000120084770BD0000200000200349012066
:10203000C1F80803091D08607047000000D0004087
:102040002DE9F0479146884604464FF480354FF419
:10205000A0760027DFF884A016E000BFD4F80403C0
:1020600028420DD0A05958B1C4F84853C4F80853B9
:102070003146204600F0D5FA5AF82810F8B28847C1
:10208000361D6D00B6B27F1C4F45E7D3D4F804036C
:102090004FF4807110F0010F09D0D4F8000130B175
:1020A000204600F0BEFA5AF8281004208847D4F8D9
:1020B00004034FF4827110F0020F0CD0D4F8040125
:1020C000002808D0204600F0ACFA5AF82810BDE8E5
:1020D000F04705200847BDE8F08700003C000020DD
:1020E000F8B5054614480E4610EB053218D0002608
:1020F000344637460FE000BF4FF4807000EB840396
:10210000D05830B10120A040304386B2D750D058CB
:102110000090641CE4B2284600F010FBA042EBD80B
:102120000648314600EB850050F8042C01B02846E3
:10213000BDE8F04010470000004001407801002059
:1021400030B54FF4803405688C4013B1C5F80443B2
:1021500001E0C5F80843006800EB8100C0F84025A5
:1021600030BD0000016801220A600079034A00EBDB
:10217000400002EB80000221017270478C010020B8
:10218000F0B40468049E40F20115D4F800728D404A
:10219000AF43C4F800720468D4F800521D43C4F879
:1021A00000523346F0BCFFF7CBBF0000F8B5044641
:1021B0000D460079204900EB400001EB8006307AA3
:1021C00008B10820F8BD3AB132606868706000203C
:1021D00003464FF4A07709E00720F8BD226807EB1B
:1021E000800153505158401CC0B200916179814226
:1021F000F4D82068E978000B40B2FFF7D1FE2068E0
:102200006978D0F8042561F30102C0F8042520683C
:10221000A978D0F8082561F30102C0F808252068E4
:102220002978D0F8102561F30302C0F810250120A9
:1022300030720020F8BD00008C0100200FB408B5FA
:102240000399002904D004AA00926A4600F00FF80E
:1022500001B05DF814FB10B582680446002A05D071
:10226000D4E90403216898470020A06010BD2DE93F
:10227000FC4791460C00804676D014F8011B39B11A
:1022800025290ED04046FEF7A8FD20780028F4D17D
:1022900098F80C00002867D04046BDE8FC47FFF7DF
:1022A000DABF0020012221782B291BD02D2902D052
:1022B000302908D102E040F0010001E040F00200C6
:1022C000641C002AEFD100252A290ED02178A1F123
:1022D00030020A2A11D205EB850201EB4205641C8B
:1022E000303DF1E740F00400EAE7D9F800100B1D9B
:1022F000C9F800300968641C0D44217800232E2998
:102300000BD114F8011FA1F130020A2A05D203EB08
:10231000830201EB4203303BF3E76C290DD06829BF
:102320000BD0692921D00BDC252918D0582931D0B0
:1023300063290ED0642915D117E014F8011FECE7CA
:10234000702969D0732932D075291BD0782909D119
:1023500020E0D9F80000011DC9F8001001784046BE
:10236000FEF73BFD641C90E76CE0D9F800100A1DF5
:10237000C9F800200968CDE900500A224046FFF75D
:1023800099F8EFE7D9F800100A1DC9F8002009688C
:102390000A2206E0D9F800100A1DC9F800200968D1
:1023A0001022CDE90050404600F0F4FBDAE7D9F8FE
:1023B000001000270A1DC9F800200E68C00705D1CB
:1023C00012E04046761C7F1CFEF707FD317800299D
:1023D000F7D104E0202140466D1EFEF7FEFCBD4211
:1023E000C0D9002DF6D1BDE74EB13046FDF774FFE0
:1023F000074604E0202140466D1EFEF7EEFCBD427C
:1024000006D9002DF6D103E04046761CFEF7E5FC28
:1024100031780029F8D1A5E7D9F80000011DC9F8E5
:102420000010056830214046FEF7D7FC7821404671
:10243000FEF7D3FC08200021CDE90001034610225D
:102440002946B0E7BDE8FC8770B541EA4201DDE905
:1024500004564FF0A04441EA830141EA052104EB10
:10246000800041EA0641C0F8001770BD4FF0A0425D
:1024700002EB8000D0F8002722F44032C0F8002799
:10248000D0F8002742EA0141C0F800177047012246
:102490004FF0A043824011B1C3F808257047C3F83C
:1024A0000C25704718B5084B6C4601441B68009317
:1024B00006E000BF54F82030D3F81035401C08C2A5
:1024C0008142F7D818BD0000EC2C0000034908B584
:1024D0000844002101600068009008BD00600040D1
:1024E00002494058012800D0002070470060004099
:1024F00038B501240094FFF723F938BD024940584C
:10250000002800D00120704700D00140034908B5E1
:102510000844002202600068009008BD00D001401D
:1025200000F180410868002210B101200A60704764
:10253000104670474058002800D00120704708B569
:10254000002242504058009008BD01680A6849685E
:102550008068884201D9491C00E00021914201D1E4
:1025600001207047002070478068884201D9481CCC
:102570007047002070472DE9F04104464FF00008F5
:102580000E464046FEF7D9FB2046FFF7DEFF070068
:1025900009D0207C38B14FF004080020FEF7CFFBB3
:1025A0004046BDE8F0812068456841682046FFF755
:1025B000DBFF2168486037B1206801682046FFF7DB
:1025C000D3FF21680860E268012A14D0022A16D0DD
:1025D000042A19D0082A1CD06068314605FB020085
:1025E000FDF748FE204600F059F821688A688242CB
:1025F000D3D28860D1E7616830784855F2E76168E6
:10260000308821F81500EDE76168306841F8250051
:10261000E8E7D6E90001626802EBC502C2E9000101
:10262000E0E708B5002242504058009008BD000085
:10263000024A1060101D0160704700002C760040B7
:1026400002494058002800D0012070470070004027
:10265000034908B50844002202600068009008BDE4
:10266000007000404058002800D00120704708B595
:10267000002242504058009008BDD0F804030840A2
:1026800000D0012070474058002800D0012070473A
:1026900008B5002242504058009008BD01680A6801
:1026A0004968914201D3881A70478068801A0844AB
:1026B000401C704770B5012670044FF0E0210025E2
:1026C000C1F88001084C4010C4F84803C4F808035E
:1026D00066602F20FFF7ACFBA660044C2F20A5609E
:1026E000FFF7A6FBA57070BD001001405000002050
:1026F00070B50546C87D0C4600284FF48471284605
:102700000AD0FFF7B4FFD5F81805627EE168885457
:10271000607E401C607670BDFFF7A9FFD5F81805F4
:1027200070BD1FB501238DF800308DF8081001929F
:10273000D0E90012684690471FBD0000062802D26B
:102740000249085C7047002070470000082D000017
:102750000020FEF709BB2DE9F04115460E46044660
:10276000FEF72AFD78B9A068FA21077A90F80A8066
:102770002046FEF7B5FDFA212046FEF7E7FC20468D
:10278000FEF71AFD10B10620BDE8F081A068007ABE
:102790003070A068807A28703078C01BC1B22046A3
:1027A000FEF7F4FC2978A1EB0800C1B22046FEF741
:1027B000A3FD0020E8E700002DE9F84F1D4C00259F
:1027C0006846D4E901A6FEF7A3FD002738B300232D
:1027D000009A61681CE0D1F800C00846944503D90E
:1027E000ACEB02020A6015E0A2EB0C026344076046
:1027F000D0F80CC0C1698146BCF1000F08D006EBCF
:10280000030828F07F48C0E9018CC9F81C50054630
:102810000029E0D128466160FEF70EFF03E028465C
:10282000FEF70AFF10B15046FEF73AFCE770BDE82C
:10283000F88F0000500000200D4B10B5596831B1E1
:1028400002680C68A24204D8A21A0A60C1615860EA
:1028500010BD0B4603E00B46C969121B21B10C6881
:102860009442F8D3A41A0C600260C161D86110BD13
:10287000500000202DE9F041144E77683D462C466B
:1028800003E0844204D02546E469002CF9D11BE022
:10289000D4B1A5420BD1F869706040B90C49012050
:1028A00088600021B160F0702F20FFF7C1FA216825
:1028B000E069E86110B10268114401607068874204
:1028C00002D00120BDE8F0810020FBE7500000208D
:1028D000001001402DE9F041194D6C68002C2CD0FE
:1028E000184800270068A968B846401A20F07F46BB
:1028F0002068B0420CD82146361A0744E469087CA7
:1029000020B181F81080886949698847002CEFD18F
:1029100029786878814206D1401CC0B268700228CC
:1029200001D185F80180064869780C3040F82170A3
:10293000BDE8F0411420FDF7E1BDBDE8F0810000E5
:10294000500000200415014070B50C4605464FF4B8
:102950008E71FFF78CFEA18AA068415CA08A401CA2
:10296000A082C5F81C1570BD1FB500228DF800208F
:102970008DF80810816801918275D0E900126846CF
:1029800090471FBD2DE9FF470C4605464FF40071E7
:10299000FFF773FE01274FF40178002618B34FF4B8
:1029A000927949462846FFF75DFEE0B14946284640
:1029B000FFF75DFEC5F80883A07E00B96F600220B6
:1029C0008DF80000D5F88004C5F880040390E07D00
:1029D0008DF80800E0680190E6752676D4E90012CB
:1029E0006846904727E004212846FFF746FE10B3CB
:1029F0004FF484712846FFF735FEE0B121462846A2
:102A0000FFF776FEE07D617E884214D1207E38B1EA
:102A1000617EE268E0752069E0602676667607E010
:102A2000A07E00B96F60C5F80883E675617EE26834
:102A30002046FFF776FE4FF48E7841462846FFF792
:102A400011FE88B1A08AA17D884204D22146284681
:102A5000FFF77AFF08E041462846FFF708FEA17D10
:102A600011B12046FFF780FF4FF4A2784146284677
:102A7000FFF7F8FD002812D041462846FFF7F7FD82
:102A8000A07E00B12F60E07D002808D0E675617E51
:102A9000E26804B02046BDE8F047FFF742BEBDE85B
:102AA000FF872DE9FF410C464FF4927705463946E2
:102AB000FFF7E9FD0026C0B139462846FFF7E8FDDB
:102AC00002208DF80000D5F88004C5F8800403903A
:102AD000D5F83C058DF80800E0680190E67526768B
:102AE000D4E900126846904724E04FF488773946CD
:102AF0002846FFF7C8FDE8B139462846FFF7C8FD6C
:102B0000D5F83C05C1B2E07D884213D1207E60B18A
:102B1000E268D5F8000220F02000C5F80002207E0F
:102B2000E0752069E060267601E0E675E2682046FF
:102B3000FFF7F7FD4FF4A27739462846FFF7A3FDCC
:102B400068B139462846FFF7A3FDE07D38B1E67548
:102B5000D5F83C05E268C1B22046FFF7E2FD4FF42C
:102B6000907631462846FFF78EFD00280FD031467B
:102B70002846FFF78DFDA07D002808D0D5F84C052C
:102B800004B0C1B22046BDE8F041FFF7EDBEBDE89C
:102B9000FF8100002DE9F05F8346DDE90A4A99468E
:102BA00090460D460846012703E000BFB0FBF8F051
:102BB0007F1C4045FAD2B94500D94F465FEACA703A
:102BC00012D18CB15FEA8A7002D5B9F1000F01D041
:102BD000202607E0302605E031465846641EFEF701
:102BE000FCF80CB1A742F7D35FF00106B9F1010F71
:102BF00002D9A9F1010903E0B5FBF6F0404502D383
:102C000006FB08F6F2E7DFF83C9000BFB5FBF6F0F4
:102C100000FB165519F800105846FEF7DEF8B6FB13
:102C2000F8F6002EF2D15FEACA7009D0002C07D066
:102C3000A74205D220215846641EFEF7CEF8F5E7DC
:102C4000BDE8F09F302E00001CB5002913D082682B
:102C5000127C8A420FD008A3D3E90023CDE90023D8
:102C600001F12F028DF803208268117400696A4611
:102C700003A1FFF7E3FA1CBD1B5B34006D000000ED
:102C8000257300001CB5826899B1D27B8A420FD0AF
:102C90000CA2D2E90032CDE9003201F12F028DF809
:102CA00005208268D17300696A4608A1FFF7C6FA59
:102CB0001CBDD173006902B0054ABDE8104003A1F4
:102CC000FFF7BCBA1B5B313B33006D00257300007E
:102CD0001E2D0000008000400004000009000002DA
:102CE00000000000111213140D0E0F100000005010
:102CF000000700003C010020180100202000000017
:102D000001000000000000001010101010101B3710
:102D1000001B38001B45002C20001B5B4A001B5B7E
:102D20006D00082008001B5B4B00202D20001B5B62
:102D300048001B5B366E001B5B324A001B5B3F3357
:102D40006C002062616420706172616D65746572EF
:102D500020636F756E740D0A0020756E6B6E6F7751
:102D60006E20706172616D657465723A20003A2060
:102D7000636F6D6D616E64206E6F7420666F756E2B
:102D800064002D682C202D2D68656C7000000000FB
:102D900000000000982D0000F82E0000E02E00003A
:102DA00000000000C1180000FC2E0000C82E00002A
:102DB00000000000111900000000000000000000E9
:102DC0000000000000000000182F0000002F00008D
:102DD000902D000059180000302F0000202F000017
:102DE00000000000191800004C2F0000382F0000D0
:102DF000000000006119000000000000002E00002B
:102E00009C2F0000542F000000000000D11A000089
:102E100000000000000000000000000000000000B2
:102E200040300000A42F0000F82D0000FD19000024
:102E300030313233343536373839414243444546F0
:102E400000404040404040404040414141414140BD
:102E50004040404040404040404040404040404072
:102E60004005020202020202020202020202020201
:102E70000220202020202020202020020202020206
:102E8000020290909090909010101010101010105E
:102E9000101010101010101010101010020202026A
:102EA00002028888888888880808080808080808AE
:102EB00008080808080808080808080802020202AA
:102EC00040000000412E0000456E61626C65206389
:102ED0006F6C6F7265642073796E7461782E000078
:102EE00044697361626C6520636F6C6F7265642006
:102EF00073796E7461782E006F6666006F6E0000E5
:102F0000546F67676C6520636F6C6F7265642073C4
:102F1000796E7461782E0000636F6C6F72730000BD
:102F2000436C6561722073637265656E2E000000EC
:102F3000636C656172000000436F6D6D616E6420AB
:102F4000686973746F72792E000000006869737489
:102F50006F727900417373756D6520383020636836
:102F60006172732073637265656E2077696474683B
:102F700020616E642073656E6420746869732073C9
:102F8000657474696E677320746F2074686520744B
:102F900065726D696E616C2E00000000646566618B
:102FA000756C7400436F6E736F6C65206765747326
:102FB000207465726D696E616C2073637265656EF5
:102FC0002073697A65206F7220617373756D657304
:102FD00020383020696E20636173652072656164FA
:102FE0006F7574206661696C732E204974206D754D
:102FF000737420626520657865637574656420610B
:10300000667465722065616368207465726D696EAF
:10301000616C207769647468206368616E676520FD
:10302000746F20656E7375726520636F727265636D
:1030300074207465787420646973706C61792E00F3
:10304000726573697A650000883000000000002016
:103050007C000000D40C0000043100007C00002043
:103060007C220000E40C000000000000C82D0000DD
:1030700000000000D82D000000000000E82D000036
:1030800000000000202E00000000000000000000F2
:103090000000000000000000000000000000000030
:1030A0000000000000000000000000000000000020
:1030B0000000000000000000000000000000000010
:1030C0000000000000000000000000000000000000
:1030D00000000000000000000000000000000000F0
:1030E00000000000000000000000000000000000E0
:1030F0000090D0030000000000000000000000006D
:0431000000000000CB
:0400000500000201F4
:00000001FF
