:020000040002F8
:10300000084C0020153202001D3202001F3202005F
:1030100021320200233202002532020000000000AB
:103020000000000000000000000000002732020045
:1030300029320200000000002B3202002D32020073
:10304000393502002F3202002F3202002F320200E7
:103050002F3202002F320200613302002F320200B1
:103060002F3202002F3202002F3202002F320200D4
:103070002F3202002F3202002F3202002F320200C4
:103080002F320200913502002F3202002F3202004F
:10309000B53502002F320200B93502002F3202008E
:1030A0002F3202002F3202002F3202002F32020094
:1030B0002F3202002F32020000000000000000004A
:1030C0002F3202002F3202002F3202002F32020074
:1030D0002F3202002F3202002F32020000000000C7
:1030E00000000000000000000000000000000000E0
:1030F00000000000000000000000000000000000D0
:1031000000000000000000000000000000000000BF
:1031100000000000000000000000000000000000AF
:10312000000000000000000000000000000000009F
:10313000000000000000000000000000000000008F
:10314000000000000000000000000000000000007F
:10315000000000000000000000000000000000006F
:10316000000000000000000000000000000000005F
:10317000000000000000000000000000000000004F
:10318000000000000000000000000000000000003F
:10319000000000000000000000000000000000002F
:1031A000000000000000000000000000000000001F
:1031B000000000000000000000000000000000000F
:1031C00000000000000000000000000000000000FF
:1031D00000000000000000000000000000000000EF
:1031E00000000000000000000000000000000000DF
:1031F00000000000000000000000000000000000CF
:10320000DFF80CD000F09AF8004800471D6D02006E
:10321000084C00200648804706480047FEE7FEE7C6
:10322000FEE7FEE7FEE7FEE7FEE7FEE7FEE7FEE776
:10323000BD350200013202002DE9F05F0546002095
:1032400092469B4688460646814640241BE0284617
:1032500041464746224600F060F853465A46C01A97
:10326000914110D311461846224600F047F82D1A16
:1032700067EB01084F4622460120002100F03EF88E
:1032800017EB00094E41201EA4F10104DFDC484683
:1032900031462A464346BDE8F09F40EA01039B07BA
:1032A00003D009E008C9121F08C0042AFAD203E0BB
:1032B00011F8013B00F8013B521EF9D27047D2B21F
:1032C00001E000F8012B491EFBD270470022F6E70F
:1032D00010B513460A4604461946FFF7F0FF20468C
:1032E00010BD30B504460020034600E05B1C93424D
:1032F00003D2E05CCD5C401BF8D030BD202A04DB5B
:10330000203A00FA02F1002070479140C2F12003F8
:1033100020FA03F3194390407047202A04DB203A37
:1033200021FA02F00021704721FA02F3D040C2F1E5
:10333000200291400843194670470000064C074D93
:1033400006E0E06840F0010394E807009847103475
:10335000AC42F6D3FFF758FF04A5020024A50200F3
:103360002DE9F04700268CB0DFF86091B0464FF4AD
:103370008075012437460696284604F029FA38B1AC
:10338000D9F80403204203D0284604F017FA264354
:103390002D1D64007F1CADB2082FEDD34FF4BE7419
:1033A000204604F015FA48B1204604F007FA46F02A
:1033B000004606AA0121002004F0ECF9444D16F065
:1033C000FF0F15D00127002437420DD009EB8401EF
:1033D000D1F81005D1F81015C0F3042055F82420B9
:1033E000C1F3014102B190477F00641C082CEBD36C
:1033F000002E67DA4FF0FF30CDE908800026344612
:10340000281910F8507F90F9000027F0C008401CE0
:1034100044D009A9404603F007FE58B34FEA971974
:10342000404601F03BFE55F820701FB1B9F1030F83
:1034300003D00FE0B9F1030F30D108A84FEAD8024A
:1034400008F00703815C4FF0010C0CFA03FC41EA21
:103450000C0181544FF0A04101EB8800D0F8000727
:1034600006A9C0F3014A404603F0DEFD18B1BAF1E7
:10347000020F03D012E0BAF1030F0FD1B9F1030F1D
:1034800008D1BAF1020F1BD00221404604F066F9C0
:10349000761CF6B217B149464046B847641C042C66
:1034A000AED3002E0ED06A460121002004F072F93E
:1034B00006990098884205D00690089809909DE7E3
:1034C0000321E2E70CB0BDE8F08700000060004097
:1034D0003829002000F01F0201219140400980009E
:1034E00000F1E020C0F88012704700F01F020121B7
:1034F00091404009800000F1E020C0F800117047C1
:1035000000F01F02012191404009800000F1E020FD
:10351000C0F8001270474907090E002806DA00F0CB
:103520000F0000F1E02080F8141D704700F1E0204A
:1035300080F80014704700002DE9F0414FF48077C7
:10354000384603F033FE0124104EA50748B1384633
:1035500003F033FE0120C5F808037470002001F069
:10356000C1FD4FF48277384603F020FE00280BD0CF
:10357000384603F022FE0220C5F80803B470BDE807
:10358000F041012001F0AEBDBDE8F081242900200A
:1035900007480021C0F84011C0F84411C0F8481194
:1035A000C0F84C11C0F80011C0F8041106F034BC8A
:1035B0000010014006F07EBB04F0D8B9F0B5AE486B
:1035C0000023021D01780125101D4FF080540629AB
:1035D0000BD11678360708D10678C6F30316032EEA
:1035E00006D0042E04D0052E02D0062907D00EE006
:1035F000B4F82463A14FC6F304263E6002E01678B7
:10360000360704D10678C6F30316032E02D0062926
:1036100004D00FE09B4F9A4E7E670EE01678360777
:1036200008D10678C6F30316032E06D0042E04D064
:10363000052E02D0062907D00EE0D4F84462924F3E
:10364000C6F342363E6002E01678360704D10678AB
:10365000C6F30316032E02D0062906D011E08B4EC6
:10366000376827F0807737600EE01678360708D184
:103670000678C6F30316032E06D0042E04D0052EBA
:1036800002D006290AD011E04FF08046C6F80C316E
:10369000C6F810317C4E361F336002E016783607CC
:1036A00004D10678C6F30316032E02D0062905D0EE
:1036B0000CE0754F032664373E600AE01678360743
:1036C00004D10678C6F30316032E02D006290DD0C6
:1036D00014E06F4F05263E606D4E783635606C4EB7
:1036E000083633603F263F1D3E6002E016783607FD
:1036F00004D10678C6F30316052E02D0062957D04A
:1037000062E0644E3668644F3E60624E361D366835
:103710003F1D3E605F4E083636683F1D3E605D4E81
:103720000C3636683F1D3E605A4E103636683F1DD7
:103730003E60584E143636683F1D3E60554E183672
:103740003668554F20373E60524E1C3636683F1D56
:103750003E60504E203636683F1D3E604D4E24364A
:1037600036683F1D3E604B4E283636683F1D3E6032
:10377000484E2C3636683F1D3E60464E3036366821
:10378000454F40373E60434E343636683F1D3E60FD
:10379000404E383636683F1D3E603E4E3C363668F9
:1037A0003F1D3E603B4E403636683F1D3E6002E0A6
:1037B0001678360708D10678C6F30316032E06D00E
:1037C000042E04D0052E02D0062907D019E0D4F823
:1037D0005812324A01F04F01116002E011780907D6
:1037E0000FD10078C0F30310032803D0042801D0C0
:1037F000052806D12A480168C90702D06FF00101E7
:10380000016022487438016841F470010160BFF31F
:103810004F8FBFF36F8F4FF01021D1F800020028B7
:1038200003DBD1F80402002822DA1E4A15601E4884
:103830000468002CFCD01524C1F800420568002D56
:10384000FCD0C1F8044201680029FCD01360016873
:103850000029FCD0BFF34F8F0C48F0380168134AA1
:1038600001F4E06111430160BFF34F8F00BFFDE73A
:1038700010490F480860F0BDE00F00F040350140EE
:103880000DF0ADBA00C007403C050040FCED00E083
:10389000105600400404001020C50040E40E004013
:1038A0000004004004E5014000E401400400FA0582
:1038B0000090D003BC21002002E008C8121F08C1FC
:1038C000002AFAD170477047002001E001C1121FA1
:1038D000002AFBD1704700000121202803DA814033
:1038E0000548014003E0402802DA2038814009B150
:1038F0000120704700207047FC06FFBD10B560B185
:1039000059B102780B785208B2EB530F05D1062259
:10391000401C491CFFF7E5FC08B1002010BD012048
:1039200010BD800701D00020704701207047C36898
:103930008B4206D811440069491E814201D80120FA
:1039400070470020704710B501220221002001F0CD
:1039500013FA08B1072810D107220221012001F033
:103960000BFA08B1072808D100210A22084601F005
:1039700003FA08B1072800D1002010BD10B510B11E
:1039800005F0F0F803E00321044800F066FC00288D
:1039900003D0BDE8104000F091B810BD1C220020FB
:1039A00070B58CB015460E4600236C46C3F10F016E
:1039B000415CE1545B1C102BF8D30D2104F1100085
:1039C000FFF784FC0020C0F10F02315C2244401C50
:1039D00011740328F7D3684643DF0020C0F10F01BC
:1039E000214491F820102954401C0328F6D30CB030
:1039F00070BD022001F0B0B870B50024064D06E09D
:103A00006868012110F8340003F07CFC641C2878FD
:103A10008442F5D3002070BD70210020F8B5154612
:103A20000C460646052A01D20720F8BD03F050FDDA
:103A300018B903F01FFD0028F7D1104900204E608F
:103A40000C70C1E902500E4D08610DE006EBC40098
:103A50006968009181788DF801100078094A6946FB
:103A600003F0A2FC0028E0D1641EE4B2EED2BDE86F
:103A7000F840054A0021024800F02CB870210020CF
:103A800024A40200F55E02000D53020009480068FC
:103A9000C00700D000BEBFF34F8F0648E43801686E
:103AA000054A01F4E06111430160BFF34F8F00BF8D
:103AB000FDE70000F0ED00E00400FA050EB500217E
:103AC0000091CDE901106A4644F20100FFF7DEFFE4
:103AD0000EBD0000074B9B7823B12AB120B10068CE
:103AE000037C1BB108207047072070474174426176
:103AF00000207047B029002070B505F0EFFA10489B
:103B000000240B21047044700E4D817014206C60F1
:103B10002C706C70FFF7DEFC07211420FFF7FBFC14
:103B20001420FFF7E2FC0848046007211120FFF78A
:103B3000F2FC0548001F0068A860002070BD00006E
:103B4000B029002084210020081501402DE9FC4700
:103B5000DFF8789099F8023073B368B3052902D280
:103B60000720BDE8FC87436933B3437C012B25D094
:103B7000002704460025884616468DF80050684602
:103B800000F038F801A806F0C9F9C8B101210170A8
:103B90000F4944600968C0E90218C0E904769DF83D
:103BA000040089F801009DF8000000F047F8142097
:103BB000FFF7A6FC2846D4E70820D2E70F46D8E74F
:103BC00004259DF8000000F039F8F3E7B029002043
:103BD000041501400649897839B130B1416921B1F4
:103BE00000210174022106F0F3B80820704700009C
:103BF000B029002030B5EFF3108172B60D4A9468F9
:103C0000012324B10370002900D162B630BD936056
:103C10004FF0E023D3F88051074C25401560C3F8DE
:103C20008041D3F8844154605A17C3F8842100229C
:103C30000270E8E7BC2A0020FC06FFBD0B498A6839
:103C4000002A11D000280FD1EFF3108072B60B6854
:103C50004FF0E022C2F800314B68C2F80431002274
:103C60008A60002800D162B670470000BC2A00209C
:103C70002DE9F043044687B0008800F071FC8146CE
:103C8000208802F091FC214F8046667A208800222D
:103C90003978A56800F0B6FCB9F1000F33D060792F
:103CA000400711D50721404604F006FAA0B10821CB
:103CB0008DF80C1021880590ADF80E10ADF810802D
:103CC00003A801F05FFC07E02088B97800F084FCCD
:103CD00010B1404602F054FC03208DF8000020880B
:103CE000ADF802006079C0F380008DF80400A0797F
:103CF000C0F380008DF805008DF806508DF8076040
:103D0000684601F03FFC07B0BDE8F0835421002075
:103D10002DE9F0430546007D93B00E460024A0B186
:103D200007949DF81C0020F00F00401C20F0F000CC
:103D300010308DF81C00707B8DF81D009DF81E0062
:103D400020F00600801C8DF81E001C216846FFF73D
:103D5000BDFA9DF8000040F002008DF80000297DBA
:103D600011B140F0100001E020F010008DF80000CB
:103D7000019403940494287D00B107A8CDE90504BB
:103D800001278DF8427042F61920ADF840000D94DD
:103D9000B07B8DF83400F07B8DF835009DF836004F
:103DA000142120F00600801C20F019008DF8360048
:103DB000307B8DF8440008A8FFF788FA0DF1400821
:103DC0000DF13409ADF8287011A8CDE90889ADF8D6
:103DD0002A40ADF82C700C90A888AB1D08AA694643
:103DE000A2DF002838D1B06898B38DF8427042F64F
:103DF0000810ADF840000D94307C8DF834009DF82B
:103E0000350020F0FF008DF835009DF8360020F0D9
:103E10000600801C20F019008DF836000EA8B1684D
:103E200000F07EFE0646142108A8FFF74FFAADF811
:103E300028600EA8CDE90889ADF82A40ADF82C60BD
:103E40000C90E88805F10E0208A9A3DF002803D131
:103E500001E0FFE7EC81002013B0BDE8F0832DE91D
:103E6000FC47002517880646158090F82D0014465B
:103E7000894630B13A462146484600F0DBFB050052
:103E800009D1B0784FF00C0A18B32088C846001D3D
:103E9000B84202D95046BDE8FC87684679DF002861
:103EA000F9D12088032108F8001020881921401C2E
:103EB00080B2208008F800102088401C80B220804A
:103EC00000EB0801BDF8000005F0E0FF2188084480
:103ED0002080F0780222C8B1218896F9033001F1E0
:103EE000030C4846BC45D5D8425421884FF0010CFC
:103EF000491C89B2218000F801C02188491C89B27F
:103F0000218009F801302088401C20807068B8B1F9
:103F1000218890F9003001F1030C4846BC45B9D81E
:103F2000425421880A22491C89B2218042542188A6
:103F3000491C89B2218009F801302088401C20806A
:103F4000308950B1CDE900474B460622022106F1E7
:103F5000080005F0FBFF05009DD1308A50B1CDE986
:103F600000474B460722032106F1100005F0EEFF43
:103F7000050090D1308B50B1CDE900474B4615225A
:103F8000142106F1180005F0E1FF050083D1306A25
:103F900030B13B462246494601F00EF90500DBD11F
:103FA000706A30B13B462246494602F079FF05006F
:103FB000D2D196F82C0038B13B46224649463046CD
:103FC00005F042FB0500C7D1307838B13B462246A8
:103FD0004946304602F096FF0500BDD128465AE713
:103FE000F0B50C4693B01F210726ADF80010ADF8D0
:103FF0000410002750B1C17849070DD56A4602A9BF
:10400000FFF72DFF002808D102AD02E00025ADF832
:1040100000706CB1E07810B1304613B0F0BD01AA69
:104020000AA92046FFF71BFF0028F6D10AAA02E0E2
:104030000022ADF80470BDF80400C3B2BDF8000062
:10404000C1B2284672DFE8E780F82410704770B5E7
:104050000D00044653D0F4B3012020700026E67012
:10406000202205F17801201DFFF717F984F824605C
:10407000D5F89800C4F8CC00D5F89C00C4F8D0005E
:104080004FF6FF70A4F8C800C4F82560A4F82960B2
:1040900084F82B6004F130003C210646FFF716F946
:1040A000287884F83000A87884F83200E87884F81A
:1040B0003300687884F83100D5E90401C4E91001BF
:1040C000D5E90201C4E90E01D5E90601C4E91201EE
:1040D00095F82D0000E012E084F85D00686AD8B120
:1040E00004F1780104F16C0061676065696A098810
:1040F0000180686A616D80888880002008E00E2059
:1041000070BD696A22188968095C82F87810401CC1
:10411000616D89888142F4D8A86AE8B104F1A400ED
:10412000C4F8A0000C38A065A96A89888180A86AB3
:10413000A16D00880880002006E0A96A221889681D
:10414000095C82F8A410401CA16D89888142F4D8D2
:1041500095F82C0084F85C00286A48B104F1C4008A
:104160002065296A49884180286A216D0088088075
:10417000686800B1606305F13C013046BDE87040FD
:10418000FFF72EBF10B50288102A1AD0112A1FD0AF
:104190001B2A1CD1007A0C46002818D1E078052192
:1041A000401CB0FBF1F201FB1201204600F055F873
:1041B00000280CD0D4F8D010002908D0BDE8104059
:1041C0000847C27B012A02D18088A1F8C80010BD2F
:1041D0000C46002184F8D4108088B4F8C8108842B6
:1041E000F5D120790028F2D10121DEE710B50C4687
:1041F000022801D0032811D1607800280ED00020B9
:104200006070E178204600F028F8002806D0D4F845
:10421000D010002902D0BDE81040084710BD10B5ED
:10422000044674DF012084F8D400002084F8D6000E
:10423000062084F83300002104F13000FFF7D0FE9F
:10424000002809D1E178204600F007F818B1D4F829
:10425000D01001B18847002010BD2DE9FF4704466A
:1042600000780F4638B1E770002003F06BF90126A3
:1042700028B16670D2E0082004B0BDE8F0870025C0
:10428000C4F82550A4F8295084F82B50A07910B117
:10429000E078012806D0E07970B1E078012801D0FB
:1042A000022809D1D4F8CC1021B184F82C60082060
:1042B000884701E084F82C5004F1260100200A5CB4
:1042C0000AB1304603E0401C0628F8D300204FF026
:1042D00002084FF0030A4FF00409012F06D0022F05
:1042E00009D0032F0CD0042F12D10DE0A17911B108
:1042F00008B130460DE0E17911B108B1404608E05F
:10430000207A08B1504604E0607A08B1484600E0DF
:104310002846E070D4F8CC1041B1032801D004281D
:1043200004D1607910B194F8D400A8B184F8D550C4
:1043300000950295019503958DF800508DF8085071
:10434000E17804F1250004F13002052958D2DFE8B4
:1043500001F0670A131F3B0084F8D65084F8D5603B
:1043600007208847E4E7A67001908DF80060ADF85B
:104370000C50ADF80A5043E084F8028001908DF8AB
:104380000060208AADF80C00A089ADF80A0037E083
:10439000A08AADF80A00208BADF80C00607980B1DE
:1043A00094F8D40068B994F8D60050B18DF808801C
:1043B00084F8339000211046FFF712FE00BB052160
:1043C0001AE084F802A01BE0A08BADF80A00208C54
:1043D000ADF80C00607988B194F8D40070B994F805
:1043E000D60058B18DF8088084F83390002110462B
:1043F000FFF7F6FD20B90621A17001E084F80290D4
:10440000E07830B194F82410684673DF00287FF418
:1044100033AFD4F8CC1009B1A078884700202BE73F
:10442000A570F6E738B50D4604001BD0D5B1286855
:1044300020604FF6FF70608228792075FF2020747D
:1044400001208DF8020041F60F00ADF80000221D9A
:1044500069460120A0DF002803D129462046FFF746
:1044600057FC38BD0E2038BD38B5002922D00028B1
:1044700020D00288102A18D0112A18D0502A19D119
:104480000C46097D002915D030F8061F628991423B
:1044900010D1418902290DD1216800290AD00C30A0
:1044A00000F03AFB38B1002006E0808801E04FF6CA
:1044B000FF70488238BD01208DF8000022686946EF
:1044C0002046904738BD000070B5040012D0014668
:1044D0001C221448FEF7E1FE1248134D05602068C7
:1044E00050B17ADF002806D1206801682960406851
:1044F000686005E00E2070BD0B487BDF0028FAD114
:1045000008484FF6FF711438084A20F8041B054983
:10451000343901600021FFF7DDFA0028EBD00320D9
:1045200070BD0000942300200C2100209D9E0200FD
:1045300002494A6C091D04F0EDBE0000B0230020C2
:1045400002460248016D001D04F0D1BEB0230020D8
:1045500002460248416D001D04F0C9BEB023002090
:1045600070B50A4E054600242A46301D716C04F0D1
:10457000BEFE40B12A46301DF16C04F0B8FE08B111
:10458000022400E00124204670BD0000B02300207A
:1045900010B50024204605F0B5FC28B1641CE4B237
:1045A000182CF7D3182010BD03480122A24001683F
:1045B00011430160204610BDB023002010B5044611
:1045C00005F0A0FC002803D0024800EB8400806DB9
:1045D00010BD0000B023002070B505460C4608460B
:1045E00005F090FC002809D005482A4600EB84011C
:1045F000001D896DBDE8704004F079BE70BD0000FB
:10460000B023002070B5064615460C46084605F056
:1046100079FC00280AD006482B4600EB840132467C
:10462000BDE87040001D583104F099BE70BD000017
:10463000B02300207CB5054608880C46093090421E
:1046400001D90C207CBD68466DDF0028FAD1218895
:104650000820685420881B21401C80B220802954E7
:104660002088401C80B220802844DDF801100160C1
:10467000BDF8051081802088801D80B220809DF8C3
:104680000010490800D0012129542088401C2080B6
:1046900000207CBD10B50446008888B021281FD0BA
:1046A00009DC01282FD010280FD0112816D10020A6
:1046B00000F084FB20E03B281BD0512827D056284F
:1046C0000CD1A088132176DF16E0072000F076FBDE
:1046D00008B1FFF7F3F91F49A088488008B010BD62
:1046E00000200090A08869468FDF2EE0FFF7E6F9F2
:1046F000F4E7A088132176DF0028EFD008B0BDE8EA
:104700001040FFF7DBB9A088002166DFF4E7102234
:10471000A11D04A8FEF7C1FD9DF810100029DDD0F1
:104720009DF81800042803D0062801D00528D5D10B
:1047300002290DD05FF001008DF800004FF4C17028
:10474000ADF80400A0886946A8DF0028CED1C5E7EF
:104750000220F1E7E020002010B51A4C01886068C3
:1047600010290ED011292BD1401E606028D1FFF7EF
:10477000EAF8002824D02168002921D0BDE81040A3
:104780000847D0B900210122084600F0F5FA08B127
:1047900007280FD107220221012000F0EDFA08B10D
:1047A000072807D104220221002000F0E5FA20B1F9
:1047B000072802D0216801B188476068401C60600A
:1047C00010BD0000042100202DE9F04701883B4E78
:1047D00040F2F3194FF6FF7510291BD011293ED076
:1047E000122954D0502946D1C188F289841D9142A2
:1047F00041D1618902293ED18688304601F07AFF95
:10480000050038D004F10C0000F086F9A8B3294661
:1048100030464EE0C17B8788044601292BD1A8464B
:10482000284601F067FF050017D02F80002028726E
:10483000234843464A460168C5F80A104068C5F84F
:104840000E0004F1100105F10A0001F065FF687225
:10485000F08900280FD129462AE0042013E080883F
:1048600001F048FF040006D06068FFF7B3F908B113
:1048700004F04AFE2580BDE8F087FFE76868FFF78F
:10488000A9F90028F7D0BDE8F04704F03DBE8788BD
:104890000646384601F02EFF0400ECD02B464A466F
:1048A00006F1080104F10A0001F036FF60722146AA
:1048B0003846BDE8F04700F0C5BC00009423002056
:1048C0000C2100202DE9F047044603883F480122CF
:1048D000A4B000F1480A102B09D0112B54D01A2B88
:1048E00070D1217AB2EB111F53D2012352E0D0E9EB
:1048F00011218A430546011D12A804F00BFD442234
:1049000012A901A8FEF7C9FCDFF8C09000263746BF
:1049100009F144090DF104080AE000BF08EB460064
:104920001D2283884946281D009704F0A5FC761CAB
:104930000198B042F2D8686CA688C04304F0BEFC6F
:10494000A0F57F41FF3917D005EB40000123868099
:1049500032465146281D04F002FD012332464946E5
:10496000281D04F0FCFCE07B02280BD00023174933
:10497000A2884C31281D20E024B00420BDE8F04777
:10498000FFF79CB80123F2E70023A2885146001DDF
:1049900013E000230D490546A2885031001D04F0A4
:1049A000DEFC207A0221B1EB101F01D2012300E0CE
:1049B00000230649A2885431281D24B0BDE8F047E1
:1049C00004F0CDBC24B0BDE8F0870000B023002087
:1049D00010B504460748007800280AD0204601F0A8
:1049E000CBFC204604F000FF2046BDE8104001F05B
:1049F000FFB810BD4421002038B504460868206087
:104A00004FF6FF70E082887A207601208DF8020050
:104A100041F609000D46ADF80000221D694601204F
:104A2000A0DF00280ED12946204601F084FB002893
:104A300008D1687A28B12946204601F019FC0028DF
:104A400000D1002038BD30B50446C08A8BB0A0F537
:104A50007F42FF3A23D005AA204601F0D2FB05464B
:104A6000ADF8000000200190029003900490E188CE
:104A7000ADF804100221ADF808008DF8061005A865
:104A8000CDF80CD00490E08A01A9A6DF002804D15B
:104A9000BDF80010A94200D00C200BB030BD08209A
:104AA000FBE738B50288102A12D0112A12D0502AFA
:104AB00014D0532A0BD10A46C088C988884206D12F
:104AC00002208DF80000136869461046984738BDEB
:104AD000808801E04FF6FF70C88238BD0C4630F880
:104AE000061F62899142F8D141890229F5D12168D6
:104AF0000029F2D00C3000F00BF808B1002000E0E3
:104B000001208DF80000226869462046904738BD94
:104B10000078C0F340007047007800F00100704753
:104B20000A78027049784170022070470149085C98
:104B30007047000058A302000649095C4FF0A040EE
:104B4000D0F81005C84010F0010000D0012080F01E
:104B50000100704758A3020007490B5C4FF0A041C9
:104B6000D1F804250120984020EA0203C1F8083555
:104B70001040C1F80C05704754A302000249085CBC
:104B8000012102F0FCBD000054A302000249085CB0
:104B9000002102F0F4BD000054A302000649095CA4
:104BA0004FF0A040D0F80405C84010F0010000D03C
:104BB000012080F00100704754A302007CB500245E
:104BC000084E25460122305D0095002311460195CF
:104BD00002F08FFD641C042CF4D3BDE87C4000F08F
:104BE00003B8000054A3020010B500242046FFF7CC
:104BF000C5FF641C042CF9D310BD10B50024204659
:104C0000FFF7C4FF641C042CF9D310BD10B5024695
:104C1000064B4FF0FF3000215C5C944201D1084606
:104C200010BD491C0429F7D310BD000058A3020091
:104C300070B50C4E0C004FF0000530600BD0012019
:104C400000F06AF808B1022004E0002000F064F8E7
:104C500000B10B202070706810B9FEF774FE054695
:104C6000284670BD0421002010B5002000F0D8F9BE
:104C700008B1062806D1012000F0D2F908B10628B3
:104C800000D1002010BD00002DE9F0470D468146FF
:104C9000FFF7BCFF0446042836D2DFF874801B48B7
:104CA0001C4EA8F10C0725B3012D0ED0022D2BD1DF
:104CB00004EB440030444578002D25D0B968002924
:104CC00022D02846BDE8F047084704EB4401755C54
:104CD0000E44717849B10E4A4FF40041093A806898
:104CE000FEF734FF08B987F80390B17808F804108C
:104CF000E2E78068FEF76EFF04EB4401314418F8E8
:104D000004008D78A842D7D0BDE8F0875CA30200EC
:104D10000021002034230020FFF70EBF0246144874
:104D200010B54088042A11D04FF6FF71072A16D01B
:104D30000A2A07D00E2A19D1884217D0BDE81040A0
:104D400004F09CBFBDE8104004F03ABD132176DFAB
:104D50000AE000280AD0BDE81040FEF7AFBE884246
:104D600004D10448FFF75BFA0828F2D110BD000017
:104D7000E02000201C22002070B50023042810D25F
:104D80000D4D00EB4004012A02D101290CD0002274
:104D9000094E00EB4000304461B1012906D00229E0
:104DA00006D00723184670BD0E30C2B22A55F9E767
:104DB0004270F7E78270F5E734230020044A014689
:104DC00000201279D20702D0084600F04DB8704793
:104DD000F420002070B506461E480024C0E9016199
:104DE000B00720D50025012211462846FFF7C4FF51
:104DF0006D1C0446042D02D2002CF4D013E094B9AB
:104E000040F2666204211448FEF708FE04000AD14D
:104E1000FEF7F2FD040006D10F48104A0021001FE2
:104E2000FEF758FE0446F00701D0FFF7C7FE74B93D
:104E300009480B4A00210C38FEF74CFE040006D14D
:104E40000548084A01210838FEF744FE044620467A
:104E500070BD0000F420002068A302003150020061
:104E6000AD670200F33902002DE9F05F6A4C054698
:104E700000266078B34618B184F801B001F07EFCDA
:104E8000664F4FF47A694FF4C87A4FF00108182D35
:104E900062D2DFE805F0AC0C0C31404D62676B74F8
:104EA0006B74BE7D7D7D7D7DACAFB2B5BEBE002096
:104EB000FFF774FE00284FF0000008D0FFF75EFEF9
:104EC000022D02D14FF4E16008E0484606E0FFF70A
:104ED0005DFE022D01D1C82000E05046410CC00308
:104EE0004FF4FA72801841F100012570520000233E
:104EF000FEF7A2F901462AE00020FFF74FFE002846
:104F00004FF0000004D0FFF739FE4FF44870E5E79A
:104F1000FFF73CFEDFE70020FFF740FE00284FF0E0
:104F2000000002D0FFF72AFECFE7FFF72FFED4E7FD
:104F30000020FFF733FE00284FF0000002D0FFF7FB
:104F40001DFE01E0FFF722FE257041F69A110022B6
:104F50003868FEF7FBFD064646E00020FFF7FCFD43
:104F6000257008E0002051E025703DE084F80180C4
:104F70000120FFF7F1FD002240F6CD41E8E784F87B
:104F800001800120FFF7E8FD00224FF48041DFE7B8
:104F90007868FEF71FFE0646D5F1110000D02EB14D
:104FA0000220FFF7EBFD84F802B01DE0012816D9BE
:104FB00080B2C8214843C117C90341EA5041C00328
:104FC0004FF4FA72801841F1000152000023FEF7FD
:104FD00033F9014600227868FEF7B8FD0646022044
:104FE000FFF7D4FD84F802803046BDE8F09F01F061
:104FF000C5FBB9E701F0C2FBB4E701F0BFFB04E079
:1050000001F0BCFB0020FFF7C1FD0120FFF7BEFD52
:10501000AAE7FFF7F2FDA7E7F42000205CA3020057
:1050200010B5FFF783FD032102F087FB002010BDC0
:1050300000780221FFF728BE05494FF0FF3208280B
:1050400041F8202002D3084480F84820704700002F
:1050500038290020F0B54FF0FF3512B100230826A3
:1050600001E008230C260C4C05E000BF54F8237027
:105070007F1C04D05B1CB342F8D32846F0BD261831
:105080005DB286F8305044F82310002AF5D1E118BB
:1050900081F84800F1E7000038290020024908445F
:1050A00090F93000704700003829002070B50446A0
:1050B0004FF6FF750A462846AC4208D14FF480747B
:1050C0002146104603F054FCA04209D070BDFF2CCD
:1050D000FCD82146104603F03EFC08B1204670BDC6
:1050E000284670BD70B5084C050009D01034216801
:1050F000002907D008682060496828468847F6E7F5
:105100000834F4E770BD0000242900202DE9F05F89
:1051100026484168F1B3DFF898B00E688146DBF8A5
:10512000004087688078E11B21F07F45ED1CB0B915
:10513000DFF880804FF48030C8F84403C8F80403D7
:105140001120FEF7C7F91120FEF7CFF94FF0010A41
:10515000C8F800A02F2002F039F889F802A0B54263
:1051600000D23546124BE8193C3320F07F401860DE
:10517000DBF800105A46091B21F07F41001B20F08C
:105180007F40C91C81420FD9106818602F2002F09F
:105190001DF800E004E0BDE8F05F1120FEF7B0B9B3
:1051A000BDE8F05F03F09ABFBDE8F09F84210020C6
:1051B00004150140001001402DE9F0411788064612
:1051C000B81D14460D46984202D90C20BDE8F08166
:1051D0003188072206290AD34FF4486C4FF6FF7333
:1051E000614501D9994202D17088062801D2104642
:1051F000ECE7604501D99842F9D1994203D0984231
:1052000001D08142F3D80520E85520881221401CA6
:1052100080B2208029542088401C80B2208041190F
:10522000308804F033FE2188084480B22080411980
:10523000708804F02BFE2188084420800020C5E7F8
:10524000FEF73CBC38B54A7A0F4B62B100220A72B5
:105250005969002906D001228DF80020ADF802001E
:105260006846884738BD0A7A62B19B684C68024636
:1052700019462046FEF76AFC0028F3D0BDE8384006
:1052800004F042B95B68F1E7942300207FB50C4637
:1052900010B1012004B070BD2079002638B141F66C
:1052A0001D5501281BD0022826D00F20F2E70296B8
:1052B0000396E0680190694601A803F06FFE50B1C3
:1052C00002988188E18000882081BDF80010029852
:1052D00003F0D8FE00E00A2002212171DAE70A4B30
:1052E0006A460021A01D03F015FE38B106490839B1
:1052F0008E60CE600A28CDD12846CBE7024881884F
:10530000019803F0BFFEF5E7A02100202DE9F04150
:1053100000260125144C22E06068226900EBC607D4
:10532000387805FA00F1114217D08A43226102F061
:1053300097F802463878E36805FA00F1194002FA56
:1053400000F3994209D17978012901D0012100E0C7
:10535000002151407A6802B19047761CF6B220785D
:105360008642D9D3BDE8F081702100200E4910B5E6
:105370000A784C780023A24212D0521CD2B20A7092
:10538000022A00D10B70084A0B780C3252F8232005
:1053900002608868104420F07F408860012010BDC2
:1053A0000360002010BD0000842100203EB5094D9F
:1053B00038CD8DE83800ADF8041007498DF8062087
:1053C000ADF8020000220978FFF71CF9684600F0EA
:1053D000D9F83EBD10A4020054210020F8B50746BC
:1053E0000C481C46154680780E4608B10820F8BDCA
:1053F000684603F0BBFC58B10098012101710760B9
:10540000310B4561C0E9024103F070FD0020F8BD99
:105410000420F8BDB021002010B503780022072B2E
:1054200006D2DFE803F005040610202930000A70D8
:1054300010BD01230B7003898B818388CB81C068E9
:1054400088600A7410BD02220A7002898A818288EB
:10545000CA81C2688A60807D062802D00020087454
:1054600010BD0120FBE703220A70C2888A810289ED
:10547000CA81C068886010BD04230B70C088888111
:10548000CA818A6010BD0520087010BD70B5064D38
:105490000646002455F8241009B130468847641C9C
:1054A000042CF7D370BD0000D42A002030B5044688
:1054B000006885B00D46806800281CD0142168461D
:1054C000FDF704FF0195A0680490207910B1012830
:1054D0000DD104E001208DF80000206904E00220D5
:1054E0008DF80000E0680003029060690390206876
:1054F00081686846884705B030BD0EB5002911D0D7
:1055000011290FD0002200920292ADF80200019101
:105510000D2908D0862908D009208DF8000068469A
:1055200000F03EF80EBD0B20F7E70A20F5E700007B
:1055300001490968084700001C21002070B5054D8D
:1055400006460024304655F824108847641C022C77
:10555000F8D370BDA0A302002DE9F0410746002456
:10556000064E074D05E000BF56F824103846884720
:10557000641CE8788442F7DBBDE8F081D82800207D
:105580004421002070B5054D06460024304655F8EC
:1055900024108847641C022CF8D370BDD8A30200E5
:1055A00001490968084700001CA402007FB50446B1
:1055B000406858B10020039020780026384D062816
:1055C0005DD2DFE800F05C05052641690120F2E7C5
:1055D000A08900F0C3F918B9E08903F06DFD80B32C
:1055E000A089A0F54040ADF80200A07B8DF8040032
:1055F00020780128606806D048B104208DF80000AA
:10560000606803901AE00028F8D00320F6E7012034
:10561000F4E7A08900F0A2F918B9E08903F04CFD85
:1056200078B1A089A0F54040ADF80200A07B8DF8CC
:105630000400606830B105208DF80000A068029079
:105640001AE01CE00220F7E7A08900F087F9B0B16A
:10565000E089A0B9A089FF21A0F5404080B2ADF853
:1056600002008DF80410616881B107208DF80000F8
:105670006E70AE7002F0D8FE684602F0B3FD687836
:10568000002802D06E7002F0CFFE7FBD06218DF89B
:10569000001002F057FFEBE708208DF80000EBE761
:1056A0003021002000B5104987B00978890702D45D
:1056B000022007B000BDA0F57F41FF390FD00521C2
:1056C0008DF8001001218DF80410ADF80600684631
:1056D00002F016FA28B103F0F9FB0020E9E70420F4
:1056E000E7E70820E5E700009821002000B50D4815
:1056F00087B00078800702D4022007B000BD0620E2
:105700008DF80000684602F0FBF940B106480178C8
:1057100009B10121017303F0D9FB0020EDE7082056
:10572000EBE70000982100207C2B002010B58CB006
:1057300014216846FDF7CAFD26480078810703D585
:105740006846FFF7A3FE43E0C00741D1012000F007
:1057500029F94FF010204269000401694069531C87
:1057600001D0104600E048431B4900220861A0F523
:105770004050C8601949184801F0DBFE00280FD1DD
:1057800001248DF8144002F031FA0C281BD2DFE816
:1057900000F0061006101A1809181A1216120B201B
:1057A0000CB010BD022000F0FDF8012000F0E0F880
:1057B000C6E7002000E003208DF8180003E0022077
:1057C000FAE78DF8184005A802F09AF903F07EFB7D
:1057D0000020E5E798210020C021002048A4020015
:1057E00038B5040011D0694603F0D8FB88B10A48E7
:1057F000BDF8001000EB0110818941B1A27A32B1ED
:10580000491E81810020A07238BD052038BD0620C8
:1058100038BD0A2038BD00005C2B00201FB501A94F
:10582000684603F077FB04B010BD07B513460A467F
:105830006946002003F06EFB0EBD07B513460A460D
:105840000021684603F066FB0EBD20B119B1006867
:1058500008600020704705207047000038B50D46ED
:10586000040015D0A5B1694603F098FB90B10A4930
:10587000BDF80020606801EB02129189491C9181FA
:10588000286060680C3068600120A072002038BD7C
:10589000052038BD0A2038BD5C2B002018B1032339
:1058A000002204F035BC052070470223002204F0DA
:1058B0002FBC12B1022304F02BBC0520704700005E
:1058C000064A5178042906D0054B43F82100491CAB
:1058D0005170002070470C20704700009821002074
:1058E000D42A002038B504460A480D4600788007BF
:1058F00001D4022038BD54B16946284604F000FDA9
:105900000028F7D1BDF800102180658038BD052042
:1059100038BD00009821002010B504460D480078DD
:10592000800701D4022010BD84B1218802290FD83C
:10593000094800EB011042896088121A032A07D433
:1059400004F0D4FC00202080608010BD052010BD34
:10595000042010BD982100205C2B002043F6FE712E
:10596000A0F54040884201D80120704700207047D0
:1059700002490A7882430A7070470000982100208B
:1059800010B504460078182802D1FEF701FE2070F9
:1059900010BD10B504460078182802D1FEF7F8FDB6
:1059A000207010BD02490A7802430A707047000057
:1059B0009821002070B51346002206461546862918
:1059C00005D0112901D019B170BD012500E00122D7
:1059D0000D4C73B16179FEF715FE2A4621793046E8
:1059E000FEF710FE002261783046FEF70BFE002223
:1059F00003E06178FEF706FE2A4621783046BDE8CE
:105A00007040FEF7FFBD000058210020406803F001
:105A1000C9B9000070B508B1012070BD184C00254F
:105A2000207B08B1257301E000F0A2F82078082857
:105A300024D2DFE800F02304080C1023141EBDE874
:105A4000704000F01FB8BDE8704000F07FB8BDE8BE
:105A5000704000F061B8BDE8704000F037B8084908
:105A60006088203901EB00104068BDE8704002F00A
:105A70009DB86560BDE8704002F0A6B80F2070BD0B
:105A80007C2B00201049F0B48A1C00200346A1F1B1
:105A900020050C18A67A3EB1A37205EB0014A68966
:105AA00016B9A47B012C0AD0401C80B20228F0D386
:105AB0000B704B804B60F0BC41F61D50704710805E
:105AC000F0BC00F043B800007C2B002010B50F4C58
:105AD000A4F12001608801EB0010818961B10520EB
:105AE00020700B480221002381800168BDE810402E
:105AF0000122084801F0F6BC416800230122054854
:105B000001F0F0FC0421217010BD00007C2B00206E
:105B1000A8210020C021002038B50A4908480324E4
:105B20000B684268898803EB810153880470DB1C91
:105B300000201B0400909B0B034801F0A7FD38BD1B
:105B40007C2B0020A8210020C0210020074910B58F
:105B50004888091D03F070FA18B1BDE81040FFF73E
:105B6000DBBFBDE81040FFF7B1BF00007C2B002079
:105B7000F0B51D481D490125067802248B88A0F147
:105B80002002082E18D2DFE806F00417171A212C7D
:105B90002C160189491C01810021418080F80C10DC
:105BA00002EB01131B7843B100234418491C89B24E
:105BB000A3720229F4D30570F0BD0123F5E7426812
:105BC0005288D21C1A448A800470F0BD46880D6841
:105BD00002EB061256680E60556013818C80062118
:105BE00000E007210170F0BD7C2B0020A8210020DF
:105BF000F0B504460088384DA5B050281ED0522874
:105C000002D0542828D103E0A08800F0F7FF23E059
:105C100006208DF84400A08800F0C6FCADF84600D0
:105C2000A188ADF8481000F091F9A0880022E97829
:105C3000FEF7E8FC11A8FFF77BFC0DE0207B0128B4
:105C40000AD1A07A012807D12089A0F52451023970
:105C500002D1A08801F00CF8A878FEF7AFFCC8B11B
:105C600014A8FEF765FC442214A96846FDF715FB4D
:105C700000246E460BE000BF06EB4407A978B88805
:105C8000FEF7AAFC10B1B88800F0B8FF641C0098B9
:105C9000A042F1D86878FEF791FCC8B114A8FEF7CD
:105CA00047FC442214A96846FDF7F7FA00246E4623
:105CB0000BE000BF06EB44076978B888FEF78CFC60
:105CC00010B1B88800F0D4FF641C0098A042F1D84D
:105CD00003F022FC25B0F0BD142100203EB504469F
:105CE0004088ADF802002078A8B101281FD0022812
:105CF00010D1207900280DD0608800F095FBA0F528
:105D00007F41FF3906D00F490122C978FEF77AFC9E
:105D100003F002FC3EBD00208DF800006846FFF74E
:105D200007FC608800F080FB00F068FF3EBD0120AA
:105D30008DF80000A088ADF804006846FFF7F8FB76
:105D40003EBD00001421002010B504460078012853
:105D50000FD1608800F052FF608800F0BDF9002884
:105D600007D0044960880122C978BDE81040FEF7D9
:105D700049BC10BD1421002010B5104C002020702B
:105D8000FEF706FC6070FEF703FCA070FEF700FC57
:105D9000E070FEF7FDFB2071617818290BD0A17827
:105DA000182908D0E178182905D0182803D0012037
:105DB0002070002010BD032010BD00001421002021
:105DC0002DE9F04192B000F0D9F86846FEF7B0FB3B
:105DD00000246D464FF6FF77DFF834800FE000BFF8
:105DE00005EB4406B08800F0DFFBB84205D1B0886F
:105DF000012298F80310FEF705FC641CA4B2009879
:105E0000A042EDD803F088FB12B0BDE8F08100009D
:105E1000142100200178072902D1408800F028BF12
:105E20007047000010B5002303700121164C41702B
:105E30008170A1680A46491CA160991E017102F592
:105E4000FA628260017302EBC2010522B1FBF2F13A
:105E500001F548610161E1684161216981610421C5
:105E6000017704F10C0081791B31C9B281713B29A2
:105E700008D93C3981714179491CC9B241713B292A
:105E800000D9437110BD0000E020002010B5044689
:105E90000A4841782046FEF79FFB68B10848002178
:105EA00001EB410200EB82025288A24201D1C8B24A
:105EB00010BD491C1429F3D3FF2010BD2C21002054
:105EC0006824002070B5094D094E002404EB4400FD
:105ED00005EB800071784088FEF77EFB20B1641CE2
:105EE000142CF3D3FF2070BDE0B270BD68240020F5
:105EF0002C2100202DE9F041124E07460125BD401E
:105F00003068FDF767FE00280DD10F4C206928424C
:105F100007D1384601F0A4FA0028E06805D02843EC
:105F200004E0A8432061BDE8F081A843E060206957
:105F300028432061A1683068BDE8F0410022FDF7E8
:105F400005BE000024A40200702100201CB5054AF3
:105F5000D2E90212CDE900120022694602F00FF8E0
:105F60001CBD00008CA3020003484FF6FF71818026
:105F700001210170002070472021002010B54FF64C
:105F8000FF7001F03BFF03498880BDE8104003F03B
:105F9000EFBA0000202100202DE9FC41804600F0EE
:105FA00003FB002403250127A0F57F412646FF3986
:105FB00008D06A46082101F0BDFF18B90198841D78
:105FC0008688056832462B4621464046A9DF0428CC
:105FD00004D0082804D00B2808D002E0112000E0EB
:105FE0000020002F00D10B20BDE8FC810027A8076E
:105FF00001D50125E6E73443F5D0002426460325E4
:10600000E0E72DE9FC41804600F0CEFA0746A0F516
:106010007F40FF380ED001252A466D1C0026ADB208
:106020006B460821384601F0AFFF040006D0072C6C
:1060300024D024E043F20200BDE8FC81019903234F
:106040000A1D0B604046891DAADF040004D00C2CF9
:1060500008D0052C08D008E00821384602F02CF8BA
:1060600004460CE0012600E000240821384602F036
:106070000FF800B10324002ECED100E00C242046FE
:10608000DAE700001FB504460078012815D1207911
:10609000012812D1608802AA012101F04BFF60B9EA
:1060A00002208DF800006088ADF802000949012047
:1060B0008DF80400096868468847064808388088D3
:1060C000A0F57F41FF3903D0BDE81F4003F050BA6F
:1060D0001FBD0000282100201CB500F065FA6A46AB
:1060E000012101F027FF08B100201CBD01980078B4
:1060F0001CBD00002DE9F041084C07464FF6FF7625
:1061000043F20305324661883846A7DFA84203D12F
:106110006088401C6080F5E7BDE8F0812021002008
:106120008188A1F57F42FF3A03D0008808B10120A1
:1061300070470020704770B59CB000240646089454
:106140009DF820000D4620F00F00401C20F0F000CC
:1061500010308DF820009DF8220020F00600801CF1
:106160008DF8220008798DF821001C2101A8FDF787
:10617000ADF89DF80400029440F020008DF8040072
:1061800008A80494CDE90540012007948DF86E001D
:1061900042F61C20ADF86C0000949DF8020020F03F
:1061A0000600801C8DF8020069798DF80010A9792D
:1061B0008DF8011020F0180040F001008DF8020069
:1061C000142109A8FDF782F820210EA8FDF77EF81A
:1061D0001BA80990CDF828D016AA0EA9304600F0C9
:1061E00010F8ADF82C001420ADF8300016A8ADF86A
:1061F0002E400D90B088B31D09AA01A9A2DF1CB0E2
:1062000070BD30B50878002300B101234C780CB183
:1062100043F0020320B143F001030C7B086901E065
:106220000C79886864F31F605070050A9570050C3E
:10623000D570000E10714C78052084B18C8A547191
:10624000240A94718C7DD471CC7D14720C7E5472AE
:106250004C7E94728C7E43F00203D4720C208C78B6
:1062600024B1097F115443F00403401C137030BD66
:10627000F0B58FB00D4606461C2101A8FDF726F8A3
:106280009DF80400002440F002008DF8040001276E
:1062900005948DF8367042F61D20ADF83400009458
:1062A0009DF80200029420F00600801C8DF8020088
:1062B000049406940794E9798DF80010297A8DF8F2
:1062C000011020F019008DF80200142108A8FCF735
:1062D000FDFFA87A8DF838000DA80890ADF8287059
:1062E0000EA8CDF824D0ADF82A40ADF82C700C9053
:1062F000B08806F10E0308AA01A9A2DF0FB0F0BD15
:106300003EB5027802230C46B3EB520F17D1B0F81A
:106310000110ADF80010C1788DF802108188ADF839
:10632000041080798DF8060002AA01A92046FDF725
:1063300037FB032202A96846FCF7D3FF08B100200F
:106340003EBD01203EBD000010B50C46FFF79EFD8E
:10635000FF280CD0074900EB400001EB80004168AA
:1063600021600189A180807AA071002010BD0520E4
:1063700010BD00006824002070B5018890B010297D
:106380004FD1011D34226846FCF787FF9DF80400B9
:106390004FF6FF76032134466D46B1EB500F2AD0FD
:1063A00001F088FF9DF8040040080ED001280CD0B1
:1063B000022820D118E00F99281D1131FDF79EFA0F
:1063C00018B100BFBDF8344015E00EAA0DA9072092
:1063D00001F048FF0028EED10DE00F99281D491C5F
:1063E000FFF78EFF0028EDD10EAA0DA9072001F0BE
:1063F00039FF0028F1D1BDF80000291D00F0D0FDC3
:10640000B4420ED0BDF80000214600F07EF8BDF881
:106410000000ADF8360001208DF834000DA8FFF71C
:106420008DF810B070BD0000094A002101EB410356
:1064300032F82330834205D101EB410002EB8000AA
:1064400040887047491C1429F0D34FF6FF707047FD
:106450006824002010B50D4C18200D4A60700020F3
:106460004FF6FF7100EB400302EB8303401C5980A1
:106470001428F7D3FEF78CF86070182803D0012099
:106480002070002010BD032010BD00002C21002032
:106490006824002070B504460D46401C00F05EF9EB
:1064A00000280ED01022691C601CFCF71AFF48B1AE
:1064B0005FF0000605F1110104F11100FDF71EFA6D
:1064C000304370BD0126F5E7018811B94218927872
:1064D0000AB101207047491C0829F7D300207047F2
:1064E00010B50C460346FFF7EFFF00280AD01888C6
:1064F0002188884205D10822A11C981CFCF7F1FED6
:1065000008B1002010BD012010BD02F06FB810B519
:106510000446007888B0002828D12079072825D1A2
:10652000608801AA072101F005FD00281ED101F0B5
:10653000C1FE1DE06088BDF80010884218D00499A3
:106540000298FFF7A7FF98B16088FFF76DFFADF8DD
:10655000160000208DF814006088ADF81800BDF812
:106560000000ADF81A0005A8FEF7E8FF08B010BD5E
:1065700003AA6946072001F075FE0028DAD1F5E785
:1065800070B50446FFF750FF0546204601F0D5FCE4
:106590004FF6FF7104468D4203D014B9284602F02D
:1065A00025F8204670BD000010B5FFF76FFCFF28EE
:1065B00005D0044900EB400031F8200010BD4FF633
:1065C000FF7010BD682400203EB5044601F072FE45
:1065D0000EE0019920464631FFF782FF28B9019964
:1065E00020462A31FFF77CFF10B1BDF808003EBD00
:1065F0006A4602A9072001F035FE0028E9D14FF6CE
:10660000FF703EBD70B5094D0749002441602C6004
:1066100001F0BEF92946C870054804600467446764
:1066200000206C6070BD000040A40200B02100207A
:106630008C2B00202DE9F0410F4628B10120FFF7F7
:1066400097F90120BDE8F081397961B10026264D26
:1066500001290DD0254C4FF002080229206822D0D4
:1066600003293CD128E001F0AFFA0121397134E06F
:106670005FF0000005EB0011097802290CD0401CE6
:1066800080B20228F6D30220FFF78CF90120FFF731
:106690006FF941F61D50D5E705EB0014606801F075
:1066A00085FA267019E0014600230122104800F007
:1066B00019FFA4F804800FE001F078FA0A49226873
:1066C0002031498805EB01114B6823604A60A2889C
:1066D0000A81A4F804800E703E710028B2D0012017
:1066E000FFF746F90E20ADE75C2B0020A821002023
:1066F000C02100200146034802888A4200D00020C1
:1067000070470000802300200248406F002800D01E
:10671000012070478C2B0020F0B58488A518944286
:1067200000D82246A41AC288D6189A4200D8134626
:10673000D21A4B880788BB420CD34088834209D8C1
:106740008888A04206D3A84204D8C888904201D3C2
:10675000B04201D90020F0BD0120F0BD0021425C13
:106760000AB101207047491C1029F8D30020704756
:10677000800701D000207047012070470A4810B5FB
:10678000807860B1002401E0022C06D02046FEF79C
:10679000F5F9641C042CF7D310BD0324F6E7BDE81B
:1067A0001040FEF721BA0000F420002003480179D0
:1067B000C90702D00078FEF757BB7047F4200020CD
:1067C00006490120086006480168C1F3004100291C
:1067D000FAD1044900208870704700000C00004086
:1067E0001804004024290020172101804180002145
:1067F000017141711B218171C17170472DE9F04711
:10680000234D81461F46287A0E469046084302D003
:1068100026B1002104E00520BDE8F0871C491031B5
:10682000484603F023F90446014600224846FFF794
:10683000C1F81FB121464846FEF75FFE112C0FD06C
:1068400005DC5CB1082C09D00D2C06D106E0862CA5
:1068500012D0A4F54050023800D003242046DBE7D4
:106860003246E9784846FDF7CDFE4246A9784846CB
:10687000FDF7C8FE0024F1E73246E9784846FDF707
:10688000C1FE4246A9784846FDF7BCFEE6E7000097
:10689000582100202DE9FC4117460C00064604D083
:1068A0002078C00705D0012004E000217EDFBDE88C
:1068B000FC8102208DF804003046FFF775FE054686
:1068C000A0F57F40FF3808D001A800902B463A463B
:1068D0002146304600F021F806E020782146C00726
:1068E000304603D000F07DF804460BE07EDF040064
:1068F0004FF00000009007D00022012329463046C7
:1069000002F0C8FD14B106E00122F6E79DF804107C
:10691000304602F0E9FD2046C9E72DE9F04F85B089
:1069200090468946834600259A462E4601AA0721AD
:1069300018460E9F01F0FEFA040008D1029D95F85A
:106940004400183510F0010601D0029D343558EA94
:1069500004004FF000080FD175B126B905F11200FF
:10696000FFF7B2FD40B12A4605F11201584685DF16
:10697000044687F8008021E00CB1052C1ED199F85F
:106980000000C0070DD003AB01220721504601F0E3
:10699000FBFA04000AD10721504601F0EFFB040086
:1069A00004D1494658467EDF040007D007215046EF
:1069B00001F06EFB10B1052800D00324CDF8008053
:1069C000387808B1012300E0002344B10022514689
:1069D000584602F05FFD05B02046BDE8F08F012269
:1069E000F5E7FEB50F46064601F0A2FA0546A0F50A
:1069F0007F40FF381ED001AB01220721284601F05D
:106A0000C3FA04000AD10721284601F0B7FB0400AD
:106A100004D1394630467EDF040007D007212846DE
:106A200001F036FB10B1052800D0032401200090AE
:106A30005CB102E0032400200090002201232946DB
:106A4000304602F027FD2046FEBD0122F6E7000099
:106A50002DE9F041134D0F46164680462978FDF783
:106A6000BBFD00281BD04046FFF79EFD0446A0F565
:106A70007F40FF3813D069784046FDF7ADFD38B14F
:106A800033463A4621464046BDE8F04101F02AB976
:106A9000324639464046BDE8F041FEF787BCBDE8C6
:106AA000F0810000542100202DE9F04391B081468F
:106AB000FDF784FD002820D06846FDF739FD00244D
:106AC0006E4617E006EB44054946A888FDF784FDAD
:106AD00078B10B4FA888B978FDF77EFD8046A8886D
:106AE000F978FDF779FD0146A88801234246FFF7B2
:106AF00085FE641C0098A042E4D811B0BDE8F08384
:106B0000582100202DE9F047394E002780463D46A8
:106B1000DFF8E090D6F804A057E003D00446D0F8A0
:106B20001C8035E099F8002002EB4201521CD2B2E1
:106B300089F8002009EBC10199F80230091D9A4239
:106B400001D189F8005048680A780446012A12D019
:106B5000022A02D0032A3BD108E003F009F900B170
:106B60000127257434E00574C06900E070680028CE
:106B7000F9D170602CE0207C50BB88686060C868E8
:106B8000A0600869E0604869A061F07800B16560C4
:106B90006268B168184B501A20F07F40984202D2C8
:106BA000A168084406E0881AA16820F07F4081426D
:106BB00002D9081A206000E0256065600120A56008
:106BC00020742046E56103F0B5F8B8F10000A4D1C7
:106BD00099F8001099F801008142A3D117B97168A2
:106BE000514502D00120BDE8F0870020FBE70000FE
:106BF00084210020B0290020FFFF7F00FEB504465D
:106C00000026A0F57F40FF382FD02046FFF7C4F9BB
:106C1000050013D00B2D15D0112D11D0A5F5405026
:106C200002381CD009208DF800002046FFF7BCFC7C
:106C3000ADF80200ADF8044002950DE0022002E03C
:106C400001260CE003208DF800002046FFF7ACFC85
:106C5000ADF80200ADF804406846FEF769FC034851
:106C6000324681782046FDF7CDFCFEBD1421002080
:106C7000FEB504460026FFF7C4F90546112818D0D2
:106C800003DCA5B10C2D06D115E0862D27D0A5F586
:106C9000405002381CD009208DF800002046FFF734
:106CA00083FCADF80200ADF8044002950DE0012030
:106CB00002E001260CE007208DF80000ADF804404A
:106CC0002046FFF771FCADF802006846FEF730FC85
:106CD0000448324641782046FDF794FCFEBD08206A
:106CE000EAE7000014210020F8B5054600780C46BC
:106CF000002620420FD100208DF800006846FCF7E6
:106D000079FF2878204202D12043287001269DF87F
:106D10000000FCF793FF3046F8BD0000A8B0FCF778
:106D2000EBFE08B1FCF7CAFE53490320FEF752F808
:106D300008B1FCF7C3FE69460020FDF779FF08B1F2
:106D4000FCF7BCFE9DF8000002287DD05FF0000536
:106D500000F0E0FD08B1FCF7B1FE00246946012017
:106D6000009400F047FD08B1FCF7A8FE684600F06B
:106D700087FD08B1FCF7A2FE9DF808003FA120F0B6
:106D80000F00401C20F0F00010308DF808000F229A
:106D900002A87CDF08B1FCF791FE00945020ADF80A
:106DA0000000A0200194ADF80200ADF804404FF4BB
:106DB000C870ADF8060068467ADF08B1FCF77EFEC1
:106DC0000021324800F038F908B1FCF777FEA02125
:106DD0006846FCF77BFA02208DF8000001208DF850
:106DE00002000621ADF810008DF87C008DF803102C
:106DF0004FF49670264922900591B420239025489F
:106E00002690224869461430FDF721F908B1FCF7B5
:106E100055FE1E4801211430FDF716F902F058FC0A
:106E20001C216846FCF752FA4FF42030CDE90040AF
:106E30004FF47020029003208DF80C00ADF80E4046
:106E40008DF81040144800E013E0059013480690B8
:106E50006846FDF739FB08B1FCF730FE01F0D4FBC2
:106E60002846FCF78BFD3EDF0028FCD0FCF726FE11
:106E7000F9E701256CE700001D4D02004E6F7264BA
:106E800069635F54656D706C617465000822002051
:106E9000E4200020437A0200697A02004152020095
:106EA00070B5144682880E4605462088111D01449F
:106EB000921C994201D8FE2A01D90C2070BD521CA7
:106EC00032542088FF21401C80B220803154208819
:106ED000401C80B220808119288802F0D7FF2188C9
:106EE000084480B22080AA8842B1A96841B13044E8
:106EF000FCF7D3F92088A98808442080002070BDC1
:106F0000072070BDF8B50E460178144605460129E4
:106F100001D1687830B12088821C9A422DD801298D
:106F200002D006E00720F8BD69780144891C994227
:106F300023D8181A801E87B2ADF800702188B01CC3
:106F4000084469467DDF0028EDD12878022805D164
:106F5000BDF80010B94201D809210AE00821012832
:106F600005D16878B84202D8ADF8000001E0ADF86C
:106F70000070BDF80000FE2801D90C20F8BD228861
:106F8000401CB0542088401C80B22080315420889E
:106F9000401C2080BDF80010084420800020F8BD6F
:106FA00070B505460C004FF0FF0020D04FF6FF767D
:106FB000B5421CD00E48012241782846FDF722FB3D
:106FC0002846FEF763FFFF2803D1FEF77BFFFF286B
:106FD0000DD0084B00EB400203EB82014D8023F8FB
:106FE000226022684A60A2880A81A2798A7270BDF2
:106FF0002C2100206824002070B54FF6FF750E4646
:10700000A84201D1002000E0401C84B208E02146E3
:10701000304601F0C8FC08B1204670BD641CA4B223
:10702000FF2CF4D9284670BDC20800F007030120E8
:10703000895C98400840704710B560B10161172124
:1070400020F8021B20F8021B1B2100F8021BFFF78F
:10705000CBFB002010BD0E2010BD00002DE9F04339
:1070600086888FB00C46002E39D101884E4F0025FE
:1070700024295ED006DC102909D011290CD023293F
:1070800009D172E03A290BD0552904D12AE00146F2
:10709000204600F0F7FC7BE0A01DFFF7A5FB77E0A2
:1070A0002246408934F8061F814200D80846608095
:1070B000172800D217206080106970B1607960B124
:1070C000D7E90001CDE90001ADF802606088ADF8B4
:1070D00004001369694610469847657125710FB021
:1070E000BDE8F083C088B14604F10608172800D235
:1070F0001720B8F80010814200D80846A8F802000E
:1071000088F804502846B8F80010ADDF98F805005C
:1071100050BB206940B3D7E90201CDE90001ADF8C9
:107120000290B8F80200ADF80400204669462269D2
:1071300019E0011D34226846FCF7AFF8BDF80000E5
:10714000BDF8042004EBC0014A73226962B1D7E99B
:107150000423CDE90D23ADF83600487B8DF83800C7
:10716000226920460DA9904712E00095019530F85C
:10717000041F04EBC1020179127B8A4200D211463E
:10718000ADF80010ADF8021000880022694690DFCB
:10719000A07A0028A3D0E18830469EDF00289ED147
:1071A000A5720120E0729AE7A8A3020000F18040D6
:1071B0000068002800D00120704708B500F1804029
:1071C000002101600068009008BD000000283ED04A
:1071D0001F49204A096800BF00BF00BF00BF00BFB1
:1071E00000BF00BF00BF91422FD000BF00BF00BF53
:1071F00000BF00BF00BF00BF00BF00BF00BF00BF97
:1072000000BF00BF00BF00BF00BF00BF00BF00BF86
:1072100000BF00BF00BF00BF00BF00BF00BF00BF76
:1072200000BF00BF00BF00BF00BF00BF00BF00BF66
:1072300000BF00BF00BF00BF00BF00BF00BF00BF56
:1072400000BF00BF00BF00BF00BF0138C3D17047FF
:10725000BC2100200024F40070B50F4C00252078DC
:1072600008B1852516E00021A16061602161E1601F
:107270004FF0E020D0F80001012610F0010F03D1FB
:107280000721002000F022F800F082FB08B9034833
:1072900006602670284670BD24290020180500408D
:1072A00008B500208DF800006846FCF7A3FC0648EE
:1072B000C168491EC160C06808B9FFF781FA9DF82E
:1072C0000000FCF7BBFC08BD242900204907090E7B
:1072D000002806DA00F00F0202F1E02282F8141D05
:1072E00003E000F1E02282F8001400F01F02012107
:1072F00091404009800000F1E020C0F88012C0F801
:10730000001170472DE9F0418846054601F0B2F9B9
:10731000234E002828461AD0FDF7C0FE304490F8CE
:1073200048008009032802D001280ED007E04FF062
:10733000A040D0F81005E84010F0010F05D003215F
:107340002846BDE8F04100F009BA0221F8E701F053
:107350009DF9002822D02846FDF7A0FE04464FF4F0
:10736000807000EB84000F4F81B207EB8400D0F8EF
:10737000102542F00102C0F81025084600F01EFA60
:10738000B8F1000F0AD02846FDF788FE56F8200015
:10739000002803D00120A040C7F80403BDE8F08115
:1073A00038290020006000402DE9FC41DFF8A4806E
:1073B000044608EB0400002790F930001346C0177C
:1073C0000E46401C01D0082741E0F27819462046BD
:1073D000FDF740FE0546401C38D0B07850B14FF064
:1073E000A04000EB8400D0F8001721F00201C0F8A3
:1073F000001707E000217378204600910A460191AA
:1074000000F089F9F078C0B11348317800EB8500BD
:10741000D0F81025114B1A40C0F810254FF4F8523F
:107420004FF4403302EA042203EA01410A43D0F850
:1074300010150A43C0F8102509E008EB0500327862
:1074400010F8481F41EA8211017000E00427384615
:10745000BDE8FC813829002000600040FFE0FCFF0F
:107460004FF0A041D1F81015C14011F0010000D03B
:107470000120704770B5144D95F8540008B10820EC
:1074800070BD0020411E2A18401CC0B282F8301086
:107490002028F8D300242046FDF7CEFD641CE4B27A
:1074A0000C2CF8D307210620FFF710FF4FF4BE7015
:1074B00000F084F905494FF00040C1F804030120B1
:1074C00085F85400002070BD38290020006000407D
:1074D000034890F85400002800D0012070470000B5
:1074E000382900202DE9F0411F46154604000E46BC
:1074F00016D02068B8B1C5B160680268501E30422D
:1075000015D16A432046FCF712FA80B120683B4649
:107510002A46D0F810C031462046BDE8F041604709
:107520000E20BDE8F0810820FBE70920F9E71020D4
:10753000F7E720B119B101600B68114618470E201A
:10754000704700002DE9F04128B1016819B149697F
:10755000BDE8F04108470D4D0D480024461B142797
:107560000DE000BF04EB840005EB8000016829B149
:107570004969884710B10120BDE8F081641CB6FB61
:10758000F7F0A042EED80020F6E70000C02100206E
:10759000D421002008B1012808D1054801218170BB
:1075A000017809B9407808B1002070470120704780
:1075B000B0210020012801D0032808D1044900226D
:1075C00001288A7000D00020C87001F03BBC7047D1
:1075D000B0210020F0B52B4E074687B0307800254B
:1075E000F0B3294C022F206FC0EBC00004EB8001E8
:1075F000304602D0032F39D117E04560087910B129
:10760000012833D10AE0D1E90502801A4FF48053F2
:10761000984200D318461044886102E00869401C73
:1076200008614A69904206D020E04268521C4260DC
:10763000082A1BD945601C226846FBF72EFE606FA6
:10764000401E6067206F401C2067042800D125671A
:107650003570022F05D00D216846FDF727FF05E0A4
:1076600001E00021F8E7707800B17570B07820B1C2
:1076700007B0BDE8F04000F091B907B0BDE8F040B8
:1076800001F0E0BBB02100208C2B00202DE9F84355
:107690001D46089F1646884604000DD066B1206836
:1076A00060B135B160684068B5FBF0F100FB115086
:1076B00030B10920BDE8F8830E20FBE70820F9E788
:1076C0004046FCF72EF990B13046FCF72AF970B12C
:1076D0002A4641462046FCF72AF940B10097206827
:1076E0002B463246C76841462046B847E2E710209D
:1076F000E0E770B541EA4201DDE904564FF0A044ED
:1077000041EA830141EA052104EB800041EA064198
:10771000C0F8001770BD70B541EA4201DDE90456BA
:107720004FF0A04441EA830141EA052104EB8000C7
:1077300041EA0641C0F8001770BD4FF0A04202EBCD
:107740008000D0F8002722F44032C0F80027D0F89B
:10775000002742EA0141C0F8001770474FF0A042ED
:1077600002EB8000D0F8002722F44032C0F8002756
:10777000D0F8002742EA0141C0F800177047012203
:107780004FF0A043824011B1C3F808257047C3F8F9
:107790000C25704718B5084B6C4601441B680093D4
:1077A00006E000BF54F82030D3F81035401C08C262
:1077B0008142F7D818BD000020A40200034908B593
:1077C0000844002101600068009008BD006000408E
:1077D00002494058012800D0002070470060004056
:1077E00020B1034949680160002070470E207047AE
:1077F000D0A40200FEB502460D460846FFF7F0FF92
:10780000002839D1002400940194012603208DF82A
:107810000020ADF8040002948DF802606946202033
:107820002A6869DF00948DF800608DF801400194AA
:1078300002948DF80240694640202A6869DF00946E
:10784000019402948DF80040694601202A6869DF9E
:107850000A4E01940294B06800906946A1202A68FB
:1078600069DF00940194029430788DF80000694635
:10787000A0202A6869DF0020FEBD0000D0A402001D
:1078800060DF704730B593B05FF03805ADF8445015
:1078900011A903A861DF30B1052816D013B0BDE8E7
:1078A0003040FCF70BB903AC0949684600F0A2F878
:1078B00007E000BFD0E9002120469047684600F06D
:1078C000B0F802980028E1D0F4E713B030BD000012
:1078D000DCA4020010B50E4C2078B8B10120A070D5
:1078E00001F09CFC11280FD0022001F0AFFC11DF49
:1078F00000280AD12070A070162001F00DFC00288D
:1079000003D1032001F0A2FC002010BD082010BD0F
:10791000B821002038B5124C207808B1082038BDB5
:107920000125A570002001F079FC112815D0002058
:1079300001F08CFC0B480C4900680090684610DF91
:107940000028ECD12570A0706070162001F004FCB6
:107950000028E4D1012001F079FC002038BD0000AE
:10796000B821002070A402008D3A02000EB507492C
:10797000684600F03FF805E0D0E900108847684607
:1079800000F04FF802980028F6D10EBD8CA402003A
:107990000148007870470000B82100200548817830
:1079A00019B1007818B1FFF795BF08207047FFF7AD
:1079B000B1BF0000B82100201FB5684648DF30B1D4
:1079C000052814D004B0BDE81040FCF777B808498A
:1079D00001A800F00FF806E0D0E9002100989047D8
:1079E00001A800F01EF803980028E6D0F4E71FBDB8
:1079F000F8A40200016009684160AFF3008010B58F
:107A0000D0E900215368994201D1002104E0D1E975
:107A10000034A34202D01946816010BD0831416094
:107A2000F0E7816800290BD0026892680A448260FE
:107A300041684B689A4203D108314160FFF7DFBFCC
:107A4000704710B550B103280CD10220FDF7B6F9EC
:107A5000002807D0BDE81040FCF730B8BDE8104062
:107A600001F0AEBE10BD00000078002807D1044828
:107A70003B21408876DF002801D0FCF71FB8704713
:107A8000E02000207CB58E88027900EBC605AC1D95
:107A90002A73C97B012902D0022904D101E00088A0
:107AA00000E04088208021886088814209D93046E2
:107AB0009EDF012110B1112802D002E0617100E0C7
:107AC0002171A079E17988420CD9002100910191BE
:107AD000297BADF80010297BADF80210304600225A
:107AE000694690DF7CBD0000087828B1022802D1E9
:107AF000024900200870704702F0C0B8E020002062
:107B000010B50B4C01460020626F032A0FD894F881
:107B10007000104400F00300C0EBC00004EB8000D4
:107B20001C22FBF7BAFB606F401C6067012010BD90
:107B3000E42A00200389CA1C1A4402814289511A8E
:107B4000C91E4181704700002DE9F04700F58055BE
:107B5000002700F10804022090460E460880DFF856
:107B6000489012E02046FEF7DBFAD0B1A068D9F8C1
:107B70000420904201D9C9F804006088318804EBE0
:107B800080040844C01C30800C34AC4202D220680F
:107B9000401CE7D1B8F1000F01D088F80070BDE8B3
:107BA000F0870127E9E700009821002008B50021AF
:107BB000009101460823024A0248FFF767FD08BD0D
:107BC00038A40200C021002008B50020009004481D
:107BD0000823044A01680448FFF758FD08BD000067
:107BE000A821002030A40200C02100202DE9F05F70
:107BF0000025374FDFF8DC80DFF8DC90DFF8DCB001
:107C00002C46AA462E46F86800EB0630026842452C
:107C100005D1334A4168891830D001290DD000219F
:107C20004FF4806250F821305B1C33D009EB041113
:107C300003200870641CA4B219E0BAF1000F09D047
:107C4000022209EB0411641C0A70DBF800304B605F
:107C50000A81A4B200220BF10401CBF80000FFF767
:107C600073FFBBF80400022830D008200543761CBF
:107C7000B6B2032EC7D3E8B2BDE8F09F09EB0411FA
:107C8000002201F8042B01C18A1DFFF75DFF45F0BA
:107C90000205CFE7491C9142C4D3DBF800205946C6
:107CA0005AB109EB041102220A7048600A480A819D
:107CB00020304480641CA4B205E008600220ABF8C8
:107CC00004004FF0010A45F00105D0E70420CDE79C
:107CD000C0210020DEC0ADDE5C2B0020A8210020EA
:107CE00002FEE10E70B5184D0E46044623CD86B057
:107CF0008DE82300154DADF80420ADF802408DF855
:107D00000630A9782046FCF767FC18B13046FEF72C
:107D100037FC0FE00721304600F0BAF950B10528D2
:107D200008D109218DF80C100490ADF80E4003A87D
:107D3000FDF728FC002229782046FCF763FC684602
:107D4000FDF720FC06B070BD04A402005421002001
:107D5000F0B591B00746FCF731FC002814D0684616
:107D6000FCF7E6FB00246D460BE000BF05EB440684
:107D70003946B088FCF730FC10B1B08801F01AFF2A
:107D8000641C0098A042F1D811B0F0BD70B5054D4B
:107D900006460024304655F824108847641C052CFC
:107DA000F8D370BDC4A302003EB5104D002400BF3F
:107DB00004EB840005EB800002F084F9641C082CBD
:107DC000F6D30124502008210094CDE9011009497F
:107DD000C200074B01F5207000F092FC08B10320AF
:107DE0003EBD0348447000203EBD0000F82700203F
:107DF0003C2100206825002000F030BA00F030BAA5
:107E00002DE9FF410026044600960196029603964E
:107E10004088ADF8020020798DF8040037462179BA
:107E2000608802F027F921783F4D0A2947D2DFE820
:107E300001F005053319193537393F4468B1417CE4
:107E4000C9070AD002F04EF98DF800702078012899
:107E500000D000208DF808001AE001208DF8000005
:107E6000A06823E078B18168A26891420BD1417C7F
:107E7000CA0708D06A6821F00101521C41F00401D0
:107E80006A6041741BE002208DF80000E0680390F6
:107E90006846FFF77BFF12E003200BE0042002E0BE
:107EA000052007E006208DF80000E0680290EFE76B
:107EB000012607208DF80000EAE7E0680290686874
:107EC000002826D0194C002505EB850704EB870018
:107ED000417C4A0703D4C1F3400131421FD081786D
:107EE00034F8270000F0E8F8C8B105EB85018628D2
:107EF00034F82110ADF8021004EB870189788DF871
:107F0000041008D009218DF8001002906846FFF790
:107F10003DFFBDE8FF8108208DF80000F6E76D1CED
:107F2000082DD1D3F5E700003C210020F8270020E0
:107F300000F047BA002300F0C5B938B50546002463
:107F4000204609E08178284600F0A2F810B1052803
:107F500000D003240098401C00906946284602F097
:107F60009BF80028EED134B9284600F02EFA10B163
:107F7000072802D00324204638BD0724FBE7134618
:107F8000002200F0D3B900002DE9F0475FEA0308B2
:107F900015460E46824604D0072E05D0082E17D16E
:107FA00002E00E20BDE8F08795B1082D10D85046AC
:107FB00000F016FA60B14FF000093146504602F069
:107FC00059F8041E25D0E068A84213D24F460AE0B3
:107FD0004FF00700E6E7207C3844C1B22B4800F0A0
:107FE000C3FB7F1CFFB2E068B842F4D8204602F021
:107FF00069F80EE017D9EFB207E0207C3844C1B22F
:10800000224800F0B1FB7F1CFFB2E068B842F4D810
:108010004CB95746FF214FF6FF7002F02BF8041EB3
:1080200005D00780A670207CFF2802D00CE011202C
:10803000B8E72946154800F035FB01462046217473
:10804000FF2913D04FF00109E560217C0F4800F0B3
:1080500077FB02000DD0ABB23146404600F04CFA3F
:10806000B9F1000F10D0082E05D00DE002F02AF86B
:10807000DDE7032096E7B8F800006FF0050101EB9B
:108080008000D8F80410888000208BE7E8270020C3
:1080900070B5002401F0EEFF05000BD0686820B138
:1080A00000F0B7F9040000D00324284602F01AF8C3
:1080B000204670BD052070BD7CB50D4606460729DB
:1080C00003D0082D01D007207CBD00200090019036
:1080D0008DF802502946304601F0CCFF040004D050
:1080E000607CC00703D000207CBD05207CBD217CC6
:1080F000204800F025FB020022D029466846E368AC
:1081000000F08FF9684601F0A3FF04F10803694607
:108110003046626800F00AF90146627C164853074F
:1081200004D5930702D543685B1E436051B1112902
:108130000DD0862915D0072900D0032108467CBD23
:1081400003207CBD22F0060040F0010010E04168F1
:10815000491C416022F0020040F0040060740021DC
:10816000ECE743685B1C436022F0040040F002002F
:108170006074E3E7E82700203C2100207CB50D4631
:10818000072903D0082D01D007207CBD002601F06F
:1081900071FF040002D0606810B11CE005207CBDB6
:1081A000217C0F4800F0CCFA02004FF00000009054
:1081B00001908DF8025010D029466846E36800F01F
:1081C00030F9684601F044FF211D684600F00AF9C5
:1081D0000646092801D030467CBD03207CBD000046
:1081E000E82700200149096808470000C0A30200F1
:1081F00030B587B01748FDF763FB10B1032007B017
:1082000030BDFDF793FA08B18620F8E700F0C6F913
:10821000002002904CF2070403900EE0694604A887
:10822000FDF71CFB00988088A0F5404085B204A8AB
:10823000FDF7D6FA284600F06DF902AA04A92046F7
:10824000FDF7F3FA0028E9D0034901200870002067
:10825000D5E70000AD5502003021002000F080B9C4
:1082600000F084B970B5054686B014460E4600F598
:10827000404080B20E4A6946FDF7D7FA20B903A9FB
:108280006846FDF7EBFA10B1002006B070BDA5708E
:108290000398408820800498606003988088A0F547
:1082A000404030806846FDF79BFA0120EDE7000072
:1082B00034210020024800214160816070470000A5
:1082C00030210020F0B587B01D46144607460E4603
:1082D000FF280AD8084600F0FFF830B103AA31465B
:1082E000384600F0E1F840B902E0072007B0F0BDE1
:1082F00001A903A8FDF7B2FA08B10520F6E7A670B8
:1083000001984088208055B182002868904204D8A6
:1083100002996068FAF7C1FF03E00420E6E70298DB
:10832000606003A8FDF75CFA0020DFE77FB586B048
:108330001E460D460446FF282AD8A87800F0CCF83F
:1083400030B304F54040ADF80000A87803AA00F56A
:108350004040ADF802006868019028880290A97832
:10836000204600F0A1F80528089813D010B108A8FD
:10837000FDF7D2FA694603A8FDF790FAB0B10728D5
:108380001DD0082819D00E2817D003200AB070BDC0
:108390000720FBE728B108AA694603A8FDF789FA78
:1083A000ECE7694603A8FDF780FAE7E71EB131461E
:1083B00003A8FDF74AFA0020E8E71120E6E7862047
:1083C000E4E74FF6FF7000F0A5B810B5FF2801D91B
:1083D000072010BD00F0A4F800F026F8002010BD22
:1083E00000F0F0B870B504460D46807800F074F8DF
:1083F00058B121882846FDF775FA002804D00728CF
:1084000005D0092800D0032070BD072070BD86204C
:1084100070BD01B56846FDF77FFA002800D0032043
:1084200008BD9BB200F068B8F0B589B000264FF6E1
:10843000FF7704963846059603E0204600F082F860
:10844000204600F08DF80446B84208D004F54040BC
:1084500080B204AA06A9FDF7F0F90A28EDD0114D63
:10846000A87800281AD1BC4218D0012704F5404052
:10847000AF7080B2FDF716F9082811D000280DD092
:10848000AE7009218DF80010CDE90260FF21ADF832
:1084900002408DF804106846FFF7A4FE09B0F0BD55
:1084A0006F70FBE7302100207CB5054616460C4670
:1084B000084600F011F80020009005F540450190B5
:1084C00004F54044A8B2A1B26B463246FDF7A6F9C6
:1084D000002800D005207CBD07280BD0012809D03A
:1084E000082807D0052805D0062803D0042801D085
:1084F000002070470120704710B503EB83034FF64F
:10850000FF7404EA03138170DB1C99084260018048
:1085100010BD00000149FCF7C9BD000098280020EB
:1085200010B50446A0F57F40FF3807D00449204627
:10853000FCF7BCFDA04201D1012010BD002010BD00
:10854000B828002010B50446044900F0BFFD0349D7
:108550002046BDE81040203100F0B8BD982800202A
:108560000149FEF749BD0000B828002070B50A494E
:10857000FEF742FD04464FF6FF7507E000F02CF8C9
:1085800038B105492046FEF737FD0446AC42F5D127
:1085900070BD204670BD00009828002010B5084826
:1085A0004021FAF793FE4FF480742146044800F00E
:1085B000CBF921460248BDE81040203000F0C4B994
:1085C00098280020FF2803D80146024800F0EBB9A4
:1085D0000020704798280020FF2803D80146024851
:1085E00000F0E1B900207047B828002010B50C4613
:1085F000FDF74CFCFF2804D0024900EB400021F8B5
:10860000204010BD682400201CB500F061F908B1BD
:10861000FBF754FA0020009001909DF8000020F034
:108620007E0040F00100303020F080008DF8000026
:1086300007208DF8010010208DF802009DF803003E
:1086400040F003008DF803009DF8040040F00300A3
:108650008DF80400684600F0CFFA08B1FBF72EFA57
:10866000034800F0B3FA002801D0FBF727FA1CBD3D
:108670009B8702000449084490F93000082801DB78
:108680000120704700207047382900200449084421
:1086900090F93000082801D201207047002070476F
:1086A000382900202DE9F0410F46060026D0306819
:1086B00020B3706810B3FF2400251CE029467068C1
:1086C00000F049F948B1FF2C00D12C46281B401C72
:1086D000B8420ED12046BDE8F081FF2C06D108E05B
:1086E0002146304600F040F8641CE4B2AC42F7D3B7
:1086F000FF246D1CEDB2B068A842DFD8FF20EAE786
:108700002DE9F0410400DDE90705069E16D0A9B168
:10871000A3B100FB05F7974210D8C21DB6EBD20FEC
:108720000CD358B155B1E5602160C4E9013081B284
:10873000184600F009F90020BDE8F0810720FBE7AA
:1087400070B504000D460DD0206858B1606848B17E
:10875000FF2D07D000F027F920B1E168206805FB64
:10876000010070BD002070BD70B504000D4611D031
:10877000206800280ED0606800280BD0FF2D09D09B
:1087800000F011F9002805D029466068BDE8704066
:1087900000F015B970BD01F033B808B501780F29A4
:1087A0000FD2DFE801F00E0E0E0E080F260E240E7B
:1087B000261B260E20000021009140886946FFF705
:1087C000EAFF08BDFCF792FF0E28FAD00828F8D07F
:1087D0000028F6D0BDE80840FBF770B9BDE80840B6
:1087E0000020FBF7CBB8BDE8084000F0A3B8006953
:1087F000EEE78068ECE770B586B004461421684661
:10880000FAF764FD6088ADF80400FDF70DFEADF8E1
:108810000200257800200822072105230A2D29D2ED
:10882000DFE805F005050C0E1017192B1D208DF83B
:1088300009008DF800108DF808201BE00D200BE0DA
:108840000E2009E08DF809008DF800108DF8083031
:1088500010E00F2000E010208DF800000AE08DF8F5
:10886000003007E006208DF80000A0680290A08884
:10887000ADF802006846FCF76FFE06B070BD000060
:1088800010B50446007886B0D8B1012817D10F4939
:10889000608801224979FBF7B5FE14216846FAF792
:1088A00015FD6088ADF802006088FDF77DFEADF82B
:1088B000040000208DF800006846FCF74DFE06B06D
:1088C00010BDE08800F044F9F9E7000044210020E1
:1088D00070B5FFF78DFC48BBFFF766FA30BB00F0C0
:1088E0009BFF18BB01F0A4F800BBFDF745FAE8B9FF
:1088F000FDF73AFBD0B9FDF7ADFDB8B90C4C4FF61A
:10890000FF700025E0801820A56020716071FBF7E2
:108910003FFE2071182809D0FBF73AFE6071182835
:1089200004D0657001202070002070BD032070BD50
:108930004421002003480078002801D0FDF740BA08
:108940007047000044210020002803D0C91DC90839
:10895000FAF7BCBC7047002809D001F007030122D8
:108960009A40D2B200EBD1001146FEF7BDB9704774
:108970002DE9F0410D46060013D0002401270EE03A
:1089800004F0070007FA00F0C1B206EBD400FEF7CE
:10899000ABF910B12046BDE8F081641CA4B2AC4232
:1089A000EED32846F7E740B100EBD10001F0070213
:1089B000007801219140084000D001207047F8B5AF
:1089C0000400C1F3C70501F007014FF0010000FAF0
:1089D00001F0C6B20FD0605D30420CD000208DF89F
:1089E00000006846FBF706F9605DB04360559DF8EE
:1089F0000000FBF723F9F8BDF0B58BB00446142155
:108A00006846FAF763FC6088ADF80400FDF70CFDDA
:108A1000ADF80200237801200822072100264B4DE3
:108A20004FF6FF770A2B6CD2DFE803F00510263CE7
:108A3000444E6C8D85878DF8001021798DF80810D3
:108A40008DF8096003968DF80A0079E08DF8001022
:108A500021798DF808108DF80960A16803918DF8CF
:108A60000A00A86800286BD0A168814268D1AE6076
:108A7000BDF80400E88013E08DF8002020798DF81F
:108A800008008DF80960A0680390E0680490A86869
:108A9000B0B3A168814253D1AE60E868401EE8607F
:108AA00003964DE08DF8001021798DF808108DF8AF
:108AB0000900F5E78DF8002021798DF808108DF870
:108AC0000900A06804903BE009208DF80000A87818
:108AD000B0B13846FFF792F9B84231D13846FFF7C6
