:020000040002F8
:10300000487C00204D330200553302005733020044
:10301000593302005B3302005D3302000000000000
:103020000000000000000000000000005F3302000C
:1030300061330200000000006333020065330200C8
:103040000537020067330200313B0200E13702001E
:1030500067330200673302002D3502006733020038
:1030600067330200673302006733020067330200F0
:1030700067330200673302006733020067330200E0
:10308000673302005D3702006733020067330200D6
:103090002D38020067330200313802006733020026
:1030A00067330200673302006733020067330200B0
:1030B00067330200673302000000000000000000D8
:1030C0006733020067330200673302006733020090
:1030D000673302006733020067330200000000001C
:1030E00000000000000000000000000000000000E0
:1030F00000000000000000000000000000000000D0
:1031000000000000000000000000000000000000BF
:1031100000000000000000000000000000000000AF
:10312000000000000000000000000000000000009F
:10313000000000000000000000000000000000008F
:10314000000000000000000000000000000000007F
:10315000000000000000000000000000000000006F
:10316000000000000000000000000000000000005F
:10317000000000000000000000000000000000004F
:10318000000000000000000000000000000000003F
:10319000000000000000000000000000000000002F
:1031A000000000000000000000000000000000001F
:1031B000000000000000000000000000000000000F
:1031C00000000000000000000000000000000000FF
:1031D00000000000000000000000000000000000EF
:1031E00000000000000000000000000000000000DF
:1031F00000000000000000000000000000000000CF
:10320000DFF80CD000F054F900480047B565020023
:10321000487C002030B4044654E8000F0D4644E8D2
:103220000053002BF8D1156030BC704730B4044611
:1032300054E8000F40EA010544E80053002BF7D1A1
:10324000156030BC704730B4044654E8000F00EA03
:10325000010544E80053002BF7D1156030BC7047DE
:1032600030B4044654E8000F80EA010544E80053F6
:10327000002BF7D1156030BC704730B4044654E8D9
:10328000000F00EB010544E80053002BF7D1156057
:1032900030BC704730B4044654E8000FA0EB010581
:1032A00044E80053002BF7D1156030BC7047000094
:1032B00030B4044654E8000F0D4644E80053002B98
:1032C000F8D1156030BC704730B4044654E8000FA4
:1032D00040EA010544E80053002BF7D1156030BCEB
:1032E000704730B4044654E8000F00EA010544E892
:1032F0000053002BF7D1156030BC704730B4044642
:1033000054E8000F80EA010544E80053002BF7D190
:10331000156030BC704730B4044654E8000F00EB31
:10332000010544E80053002BF7D1156030BC70470D
:1033300030B4044654E8000FA0EB010544E8005304
:10334000002BF7D1156030BC70470000064880475D
:1033500006480047FEE7FEE7FEE7FEE7FEE7FEE77A
:10336000FEE7FEE7FEE7FEE7353802000132020025
:103370002DE9F05F0546002092469B4688460646AA
:10338000814640241BE0284641464746224600F03D
:103390007EF853465A46C01A914110D3114618463A
:1033A000224600F065F82D1A67EB01084F462246C9
:1033B0000120002100F05CF817EB00094E41201EAF
:1033C000A4F10104DFDC484631462A464346BDE805
:1033D000F09F0000004870470CA5020040EA01037E
:1033E0009B0703D009E008C9121F08C0042AFAD2BB
:1033F00003E011F8013B00F8013B521EF9D270477F
:10340000D2B201E000F8012B491EFBD27047002226
:10341000F6E710B513460A4604461946FFF7F0FFD3
:10342000204610BD421C10F8011B0029FBD1801A58
:103430007047034611F8012B00F8012B002AF9D13F
:103440001846704730B50B46014600202022012463
:1034500009E021FA02F59D4205D303FA02F5491B62
:1034600004FA02F52844151EA2F10102F1DC30BD78
:10347000202A04DB203A00FA02F100207047914034
:10348000C2F1200320FA03F3194390407047202A29
:1034900004DB203A21FA02F00021704721FA02F3FE
:1034A000D040C2F120029140084319467047000005
:1034B000064C074D06E0E06840F0010394E8070081
:1034C00098471034AC42F6D3FFF79EFEE0AB020003
:1034D00000AC020070B58C1810F8015B15F0070302
:1034E00001D110F8013B2A1106D110F8012B03E09D
:1034F00010F8016B01F8016B5B1EF9D12B0705D4A5
:103500000023521E0DD401F8013BFAE710F8013BED
:10351000CB1A921C03E013F8015B01F8015B521E09
:10352000F9D5A142D8D3002070BD00002DE9F047A5
:1035300000268CB0DFF86091B0464FF4807501240E
:1035400037460696284604F099FB38B1D9F80403AB
:10355000204203D0284604F087FB26432D1D64003B
:103560007F1CADB2082FEDD34FF4BE74204604F09B
:1035700085FB48B1204604F077FB46F0004606AADA
:103580000121002004F05CFB444D16F0FF0F15D024
:103590000127002437420DD009EB8401D1F8100532
:1035A000D1F81015C0F3042055F82420C1F30141CF
:1035B00002B190477F00641C082CEBD3002E67DA21
:1035C0004FF0FF30CDE9088000263446281910F866
:1035D000507F90F9000027F0C008401C44D009A992
:1035E000404603F008FB58B34FEA9719404602F0F3
:1035F0001BF955F820701FB1B9F1030F03D00FE08C
:10360000B9F1030F30D108A84FEAD80208F0070338
:10361000815C4FF0010C0CFA03FC41EA0C0181546F
:103620004FF0A04101EB8800D0F8000706A9C0F3D5
:10363000014A404603F0DFFA18B1BAF1020F03D095
:1036400012E0BAF1030F0FD1B9F1030F08D1BAF1AB
:10365000020F1BD00221404604F0CEFA761CF6B2CF
:1036600017B149464046B847641C042CAED3002E1F
:103670000ED06A460121002004F0E2FA0699009873
:10368000884205D00690089809909DE70321E2E75B
:103690000CB0BDE8F087000000600040343200202C
:1036A00000F01F02012191404009800000F1E0205C
:1036B000C0F88012704700F01F02012191404009BC
:1036C000800000F1E020C0F80011704700F01F02F8
:1036D000012191404009800000F1E020C0F8001273
:1036E00070474907090E002806DA00F00F0000F1C4
:1036F000E02080F8141D704700F1E02080F80014ED
:10370000704700002DE9F0414FF48077384603F010
:103710003BFB0124104EA50748B1384603F03BFBA4
:103720000120C5F808037470002002F085F84FF4FA
:103730008277384603F028FB00280BD0384603F088
:103740002AFB0220C5F80803B470BDE8F04101204F
:1037500002F072B8BDE8F081203200200748002155
:10376000C0F84011C0F84411C0F84811C0F84C111D
:10377000C0F80011C0F8041106F0CEB900100140E5
:1037800000F0E4B970B50E46144900EB400001EBBF
:10379000C0051446E86A183520B101280FD0022868
:1037A00005D113E0284600F005FAA04201D200241A
:1037B00011E022463146284600F034FA0BE0284654
:1037C00000F0F8F9A042F4D20446F2E73146284668
:1037D00000F0FBF90446204670BD0000C03900200F
:1037E000F8B511480F4D04464FF48C7104F091FF69
:1037F000002815D00026C4F81861D4F818010090EC
:10380000A87F2C46FF2801D004F007FA66772672BD
:10381000D4E9002101B004F10800BDE8F0401047F0
:10382000F8BD0000AC3200200030004006F0C2B805
:1038300004F004BFF0B5AE480023021D0178012555
:10384000101D4FF0805406290BD11678360708D189
:103850000678C6F30316032E06D0042E04D0052ED8
:1038600002D0062907D00EE0B4F82463A14FC6F3B6
:1038700004263E6002E01678360704D10678C6F3C7
:103880000316032E02D0062904D00FE09B4F9A4E58
:103890007E670EE01678360708D10678C6F3031661
:1038A000032E06D0042E04D0052E02D0062907D000
:1038B0000EE0D4F84462924FC6F342363E6002E016
:1038C0001678360704D10678C6F30316032E02D005
:1038D000062906D011E08B4E376827F080773760D5
:1038E0000EE01678360708D10678C6F30316032EC5
:1038F00006D0042E04D0052E02D006290AD011E0ED
:103900004FF08046C6F80C31C6F810317C4E361F99
:10391000336002E01678360704D10678C6F3031642
:10392000032E02D0062905D00CE0754F032664371C
:103930003E600AE01678360704D10678C6F303160F
:10394000032E02D006290DD014E06F4F05263E60ED
:103950006D4E783635606C4E083633603F263F1D1D
:103960003E6002E01678360704D10678C6F30316E7
:10397000052E02D0062957D062E0644E3668644FA7
:103980003E60624E361D36683F1D3E605F4E083613
:1039900036683F1D3E605D4E0C3636683F1D3E600A
:1039A0005A4E103636683F1D3E60584E1436366803
:1039B0003F1D3E60554E18363668554F20373E60E5
:1039C000524E1C3636683F1D3E60504E20363668DB
:1039D0003F1D3E604D4E243636683F1D3E604B4EC7
:1039E000283636683F1D3E60484E2C3636683F1DEF
:1039F0003E60464E30363668454F40373E60434E57
:103A0000343636683F1D3E60404E383636683F1DBE
:103A10003E603E4E3C3636683F1D3E603B4E403673
:103A200036683F1D3E6002E01678360708D10678FA
:103A3000C6F30316032E06D0042E04D0052E02D0A2
:103A4000062907D019E0D4F85812324A01F04F0184
:103A5000116002E0117809070FD10078C0F303105C
:103A6000032803D0042801D0052806D12A4801687C
:103A7000C90702D06FF00101016022487438016863
:103A800041F470010160BFF34F8FBFF36F8F4FF0B0
:103A90001021D1F80002002803DBD1F8040200282D
:103AA00022DA1E4A15601E480468002CFCD015243A
:103AB000C1F800420568002DFCD0C1F8044201683D
:103AC0000029FCD0136001680029FCD0BFF34F8FA0
:103AD0000C48F0380168134A01F4E06111430160B9
:103AE000BFF34F8F00BFFDE710490F480860F0BDDE
:103AF000E00F00F0403501400DF0ADBA00C00740C6
:103B00003C050040FCED00E01056004004040010AD
:103B100020C50040E40E00400004004004E50140E0
:103B200000E401400400FA050090D003302B00208F
:103B30000448017F04480029024901D006F0C7B9B2
:103B400006F036B98C3200200020004010B5124C2F
:103B500002202061606111A0A06104F17800E061A1
:103B60004FF4007020620020A06260620BA1A1648B
:103B7000E06204F51E71E1641021A065C4E914102F
:103B8000E06509A1E01DFFF754FC08A12046FFF7FE
:103B900050FC2020A07110BDC03900205465726D0A
:103BA000696E616C00000000525454005345474751
:103BB000455200000269C1688A4203D88068401AF1
:103BC000104400E0501A401E70472DE9F047C468C9
:103BD0001746894606464FF000083069A04201D9D1
:103BE000051B02E0B168201A0D1AB0686D1E001B9B
:103BF000A84200D80546BD4200D33D4670682A461B
:103C000020444946FFF7EAFBB0687F1B2C44A844D8
:103C1000A944A04200D10024F460002FDDD1404629
:103C2000BDE8F0872DE9F04104468846D4E9020753
:103C3000C51BE168606816460844B54206D941468E
:103C4000FFF7CCFBB819E060BDE8F0812A46414699
:103C5000FFF7C4FB761B08EB050132466068FFF7EF
:103C6000BDFBE660F0E700000FB4054B10B503A9FB
:103C7000044A029800F03EF810BC5DF814FB000006
:103C8000D7600200D42A00200FB4084B10B504A955
:103C900002AA039800F02EF8044602A9002000F0C2
:103CA000D3F8204610BC5DF814FB0000493E02002A
:103CB00002E008C8121F08C1002AFAD170477047F5
:103CC000002001E001C1121F002AFBD17047000053
:103CD0000121202803DA81400548014003E0402803
:103CE00002DA2038814009B1012070470020704776
:103CF000FC06FFBD2DE9FF4F89B09B460446002519
:103D000006E025280BD05A460B999047641C6D1C81
:103D100020780028F5D10DB02846BDE8F08F0027A7
:103D2000B8460122474900E0074314F8013F203B11
:103D300002FA03F00842F7D120782E2819D114F89E
:103D4000010F47F004072A280ED06FF02F022078C9
:103D5000A0F1300109290CD808EB880102EB4101E0
:103D600000EB0108641CF2E70A98641C50F8048B0D
:103D70000A9020780028CED0642808D0692806D080
:103D800075281ED05A460B9990476D1C58E00A9929
:103D90004FF00A0901C90A91002802DA40422D2198
:103DA00002E0390504D52B218DF82010012103E014
:103DB000F90704D02021F7E78A4608AE0DE000217C
:103DC000FAE70A994FF00A0901C90A91F7E749464B
:103DD000FFF738FB303106F8011D0028F7D1ADEBB5
:103DE000060000F12009780701D44FF00108C8450A
:103DF00002DDA8EB090000E000208046002706E075
:103E000008A85A46C05D0B9990476D1C7F1C57450A
:103E1000F6DB04E030205A460B9990476D1CB8F150
:103E20000001A8F10108F5DC05E016F8010B5A467F
:103E30000B9990476D1CB9F10001A9F10109F4DC5F
:103E4000641C65E7092801000A68531C0B601070A8
:103E5000704710B501220221002001F00DFB08B1CE
:103E6000072810D107220221012001F005FB08B12B
:103E7000072808D100210A22084601F0FDFA08B1FE
:103E8000072800D1002010BD022001F0EDB900008C
:103E900070B50024064D06E06868012110F8340072
:103EA00003F06CF8641C28788442F5D3002070BDC0
:103EB000942A0020F8B515460C460646052A01D27C
:103EC0000720F8BD03F040F918B903F00FF90028F6
:103ED000F7D1104900204E600C70C1E902500E4D20
:103EE00008610DE006EBC4006968009181788DF8E7
:103EF00001100078094A694603F092F80028E0D1E1
:103F0000641EE4B2EED2BDE8F840054A0021024842
:103F100000F078B8942A00208CA20200B961020057
:103F20004D5F0200134C0121208801EB004012A1DB
:103F300004F052F804F012F903F078FF0028FBD1E6
:103F40000F480068C00700D000BE2088032101EBA5
:103F500000400CA104F040F8BFF34F8F0848E4384C
:103F600001680D4A01F4E06111430160BFF34F8F16
:103F700000BFFDE7902B0020466174616C000000DB
:103F8000F0ED00E0486974207765616B2068616E30
:103F9000646C6572000000000400FA050EB5002193
:103FA0000091CDE901106A4644F20100FFF7BAFF23
:103FB0000EBD10B58268C368934203D002F078F852
:103FC000002010BD052010BD29B112B1531E1342AF
:103FD00003D0092070470E207047016083800021C4
:103FE0008160C1600846704710B58268C3689A1A3C
:103FF00083889A4203D802F065F8002010BD04209F
:1040000010BD0000074B9B7823B12AB120B1006896
:10401000037C1BB108207047072070474174426140
:1040200000207047F032002070B504F05DFD1048AC
:1040300000240B21047044700E4D817014206C60BC
:104040002C706C70FFF72CFB07211420FFF749FB45
:104050001420FFF730FB0848046007211120FFF708
:1040600040FB0548001F0068A860002070BD0000EC
:10407000F0320020A82A0020081501402DE9FC4755
:10408000DFF8789099F8023073B368B3052902D24B
:104090000720BDE8FC87436933B3437C012B25D05F
:1040A000002704460025884616468DF800506846CD
:1040B00000F0CAF801A806F015F8C8B10121017096
:1040C0000F4944600968C0E90218C0E904769DF808
:1040D000040089F801009DF8000000F0D9F81420D0
:1040E000FFF7F4FA2846D4E70820D2E70F46D8E7CE
:1040F00004259DF8000000F0CBF8F3E7F032002033
:10410000041501400649897839B130B1416921B1BE
:1041100000210174022105F0DBBC0820704700007B
:10412000F032002070B50A4E01460A48B578FFF714
:1041300040FF04464DB10020B070711C0122C81D23
:1041400003F08CF908B1FFF729FF204670BD00008D
:10415000BC2A0020FC330020F0B5284E89B01F4651
:104160000D00044672603BD0A888296882B22448BA
:10417000FFF72AFF002834D1A889A96882B2204815
:104180001030FFF721FF00282BD120221D4968465F
:10419000FFF724F960690690207C00B101208DF8BA
:1041A00014008DF81C70607C00B10E208DF8150095
:1041B000E0680290A0680390206801906068009019
:1041C0000E48114A6946083003F014F9002808D156
:1041D000B0702068401C04D09DF81D0018B106E0A6
:1041E000072009B0F0BD0548083003F08FF90349F6
:1041F0000122491CC81D03F031F9F2E7BC2A002056
:10420000FC33002094A20200119D020010B501466B
:104210000B48FFF7E9FE040010D10A4803F0C0FA8A
:1042200060B9084906480839FFF7C3FE30B90549A7
:1042300001220839034803F02DFA0446204610BD38
:104240000C340020C42A002030B5EFF3108172B680
:104250000D4A9468012324B10370002900D162B68D
:1042600030BD93604FF0E023D3F88051074C2540D8
:104270001560C3F88041D3F8844154605A17C3F8DD
:10428000842100220270E8E71C340020FC06FFBDF8
:104290000B498A68002A11D000280FD1EFF3108053
:1042A00072B60B684FF0E022C2F800314B68C2F8DA
:1042B000043100228A60002800D162B670470000F5
:1042C0001C3400202DE9F041064608680C46411CCC
:1042D0004FF0A0474FF0010506D005FA00F1C7F8EE
:1042E0000815206803F063FC6068411C02D00021BF
:1042F00003F054FC3079204901EB4010A169007FA4
:1043000000283068C0F8241525D0607D227D3168F2
:104310001043C1F86C05D4E900123068C0F80C15E0
:10432000C0F8142524E0A068411C02D0002103F04D
:1043300035FCE068411C05D08540C7F80855E068A9
:1043400003F035FCD4E902123068C0F80825C0F843
:104350001015BDE8F081607D217D32680843C2F808
:104360006C05D4E900123068C0F81425C0F80C15AB
:10437000207D0128D7D0ECE78C3200202DE9FC47C6
:10438000002517880646158090F82D0014468946AA
:1043900030B13A462146484600F008FB050009D1F5
:1043A000B0784FF00C0A18B32088C846001DB842F8
:1043B00002D95046BDE8FC87684679DF0028F9D16C
:1043C0002088032108F8001020881921401C80B2A1
:1043D000208008F800102088401C80B2208000EB6C
:1043E0000801BDF8000005F0EAFD2188084420809E
:1043F000F0780222C8B1218896F9033001F1030C4C
:104400004846BC45D5D8425421884FF0010C491C80
:1044100089B2218000F801C02188491C89B221801D
:1044200009F801302088401C20807068B8B12188CC
:1044300090F9003001F1030C4846BC45B9D842540C
:1044400021880A22491C89B2218042542188491CB2
:1044500089B2218009F801302088401C20803089F1
:1044600050B1CDE900474B460622022106F1080073
:1044700005F050FE05009DD1308A50B1CDE90047CE
:104480004B460722032106F1100005F043FE05000C
:1044900090D1308B50B1CDE900474B461522142105
:1044A00006F1180005F036FE050083D1306A30B100
:1044B0003B462246494601F0DFFC0500DBD1706A2D
:1044C00030B13B462246494602F0CAF90500D2D136
:1044D00096F82C0038B13B4622464946304604F057
:1044E0000DFD0500C7D1307838B13B46224649461C
:1044F000304602F0D3FA0500BDD128465AE7F0B5A0
:104500000C4693B01F210726ADF80010ADF804103B
:10451000002750B1C17849070DD56A4602A9FFF7B7
:104520002DFF002808D102AD02E00025ADF8007093
:104530006CB1E07810B1304613B0F0BD01AA0AA901
:104540002046FFF71BFF0028F6D10AAA02E000224E
:10455000ADF80470BDF80400C3B2BDF80000C1B2EC
:10456000284672DFE8E780F82410704770B50D0028
:10457000044653D0F4B3012020700026E6702022B8
:1045800005F17801201DFEF729FF84F82460D5F895
:104590009800C4F8CC00D5F89C00C4F8D0004FF6C1
:1045A000FF70A4F8C800C4F82560A4F8296084F856
:1045B0002B6004F130003C210646FEF728FF2878E6
:1045C00084F83000A87884F83200E87884F8330062
:1045D000687884F83100D5E90401C4E91001D5E90F
:1045E0000201C4E90E01D5E90601C4E9120195F8FA
:1045F0002D0000E012E084F85D00686AD8B104F193
:10460000780104F16C0061676065696A098801805E
:10461000686A616D80888880002008E00E2070BD87
:10462000696A22188968095C82F87810401C616DFB
:1046300089888142F4D8A86AE8B104F1A400C4F8DA
:10464000A0000C38A065A96A89888180A86AA16D3C
:1046500000880880002006E0A96A22188968095CA1
:1046600082F8A410401CA16D89888142F4D895F885
:104670002C0084F85C00286A48B104F1C40020656D
:10468000296A49884180286A216D00880880686805
:1046900000B1606305F13C013046BDE87040FFF7B2
:1046A0002EBF10B50288102A1AD0112A1FD01B2A3B
:1046B0001CD1007A0C46002818D1E0780521401C56
:1046C000B0FBF1F201FB1201204600F055F8002882
:1046D0000CD0D4F8D010002908D0BDE8104008470D
:1046E000C27B012A02D18088A1F8C80010BD0C4607
:1046F000002184F8D4108088B4F8C8108842F5D11D
:1047000020790028F2D10121DEE710B50C460228FD
:1047100001D0032811D1607800280ED000206070ED
:10472000E178204600F028F8002806D0D4F8D01010
:10473000002902D0BDE81040084710BD10B504465E
:1047400074DF012084F8D400002084F8D60006200D
:1047500084F83300002104F13000FFF7D0FE002878
:1047600009D1E178204600F007F818B1D4F8D0104C
:1047700001B18847002010BD2DE9FF4704460078AD
:104780000F4638B1E770002003F01CF9012628B16C
:104790006670D2E0082004B0BDE8F0870025C4F8B8
:1047A0002550A4F8295084F82B50A07910B1E07856
:1047B000012806D0E07970B1E078012801D0022804
:1047C00009D1D4F8CC1021B184F82C600820884796
:1047D00001E084F82C5004F1260100200A5C0AB1A3
:1047E000304603E0401C0628F8D300204FF00208B2
:1047F0004FF0030A4FF00409012F06D0022F09D011
:10480000032F0CD0042F12D10DE0A17911B108B102
:1048100030460DE0E17911B108B1404608E0207A58
:1048200008B1504604E0607A08B1484600E02846E6
:10483000E070D4F8CC1041B1032801D0042804D191
:10484000607910B194F8D400A8B184F8D5500095DF
:104850000295019503958DF800508DF80850E17888
:1048600004F1250004F13002052958D2DFE801F0F7
:10487000670A131F3B0084F8D65084F8D5600720E0
:104880008847E4E7A67001908DF80060ADF80C5001
:10489000ADF80A5043E084F8028001908DF8006082
:1048A000208AADF80C00A089ADF80A0037E0A08A94
:1048B000ADF80A00208BADF80C00607980B194F857
:1048C000D40068B994F8D60050B18DF8088084F807
:1048D000339000211046FFF712FE00BB05211AE0BD
:1048E00084F802A01BE0A08BADF80A00208CADF884
:1048F0000C00607988B194F8D40070B994F8D600AF
:1049000058B18DF8088084F8339000211046FFF7E5
:10491000F6FD20B90621A17001E084F80290E0784C
:1049200030B194F82410684673DF00287FF433AF69
:10493000D4F8CC1009B1A078884700202BE7A570E7
:10494000F6E7000070B5040012D001461C2214489E
:10495000FEF744FD1248134D0560206850B17ADF20
:10496000002806D12068016829604068686005E079
:104970000E2070BD0B487BDF0028FAD108484FF6A7
:10498000FF711438084A20F8041B054934390160C6
:104990000021FFF737FB0028EBD0032070BD00009B
:1049A0004C3100208C2A00207DA002007CB50546F9
:1049B00008880C460930904201D90C207CBD68461D
:1049C0006DDF0028FAD121880820685420881B2137
:1049D000401C80B2208029542088401C80B2208056
:1049E0002844DDF801100160BDF8051081802088A1
:1049F000801D80B220809DF80010490800D0012160
:104A000029542088401C208000207CBD70B5454D75
:104A100001880022AE8888B00446232945D020DCD6
:104A200041484FF003031129008803EB004024D0D4
:104A30000EDC012952D010292BD13CA103F0CCFA75
:104A4000072000F03BFD08B1FFF7A8FAA0881FE09F
:104A5000132924D021291CD10092A08869468FDF18
:104A600029E03B2936D051293CD0522926D056295D
:104A70000FD18088132176DF25E02FA103F0ACFA57
:104A8000002000F01BFD08B1FFF788FA4FF6FF7019
:104A9000A88008B070BD00BFFFF780FAF9E70023D7
:104AA0001A46852130467FDF0DE000920192808812
:104AB0000022694690DF0028EED1EAE700231A467B
:104AC00019463046A9DF0028E3D008B0BDE87040A1
:104AD000FFF764BA8088132176DFF4E7A08800210D
:104AE00066DFF0E71022A11D04A8FEF777FC9DF811
:104AF00010100029CDD09DF81800042803D00628F6
:104B000001D00528C5D102290AD001208DF8000066
:104B10004FF4C170ADF80400A0886946A8DFCAE769
:104B20000220F3E7682A0020902B0020436F6E6E6E
:104B30006563746564000000446973636F6E6E653D
:104B4000637465640000000010B51A4C0188606849
:104B500010290ED011292BD1401E606028D1FFF7FB
:104B600078F9002824D02168002921D0BDE8104020
:104B70000847D0B900210122084600F07DFC08B1A9
:104B800007280FD107220221012000F075FC08B18F
:104B9000072807D104220221002000F06DFC20B17B
:104BA000072802D0216801B188476068401C606016
:104BB00010BD0000842A00202DE9F04701883B4EFB
:104BC00040F2F3194FF6FF7510291BD011293ED082
:104BD000122954D0502946D1C188F289841D9142AE
:104BE00041D1618902293ED18688304601F014FB0B
:104BF000050038D004F10C0000F07EF9A8B3294676
:104C000030464EE0C17B8788044601292BD1A84657
:104C1000284601F001FB050017D02F8000202872E4
:104C2000234843464A460168C5F80A104068C5F85B
:104C30000E0004F1100105F10A0001F093FB687207
:104C4000F08900280FD129462AE0042013E080884B
:104C500001F0E2FA040006D06068FFF753FA08B1E9
:104C600004F0FEF82580BDE8F087FFE76868FFF7ED
:104C700049FA0028F7D0BDE8F04704F0F1B887887A
:104C80000646384601F0C8FA0400ECD02B464A46E6
:104C900006F1080104F10A0001F064FB607221468C
:104CA0003846BDE8F04701F02DB900004C31002036
:104CB0008C2A00202DE9F047044603883F48012252
:104CC000A4B000F1480A102B09D0112B54D01A2B94
:104CD00070D1217AB2EB111F53D2012352E0D0E9F7
:104CE00011218A430546011D12A804F08CF84422C4
:104CF00012A901A8FEF772FBDFF8C0900026374624
:104D000009F144090DF104080AE000BF08EB460070
:104D10001D2283884946281D009704F039F8761C27
:104D20000198B042F2D8686CA688C04304F052F8EB
:104D3000A0F57F41FF3917D005EB400001238680A5
:104D400032465146281D04F083F801233246494675
:104D5000281D04F07DF8E07B02280BD000231749C2
:104D6000A2884C31281D20E024B00420BDE8F04783
:104D7000FFF714B90123F2E70023A2885146001D72
:104D800013E000230D490546A2885031001D04F0B0
:104D90005FF8207A0221B1EB101F01D2012300E05D
:104DA00000230649A2885431281D24B0BDE8F047ED
:104DB00004F04EB824B0BDE8F08700006831002050
:104DC00030B5174B0D4604000FCB85B08DE80F00B2
:104DD00023D015B34FF6FF70A0822868A061002091
:104DE000A0752146684662DF002814D120788DF82E
:104DF00012000120ADF81000A21C04A9A0DF0028B9
:104E000009D12946204603F0A6FE002803D12946F1
:104E1000204604F0CBFE05B030BD0E20FBE70000BD
:104E200078A202007FB5002917D0002815D002888B
:104E3000102A0DD0112A0DD0502A0FD0572A0CD18C
:104E40001A4B1868D3E902238DE80F0089692AE01C
:104E5000808801E04FF6FF7088827FBD01910C468B
:104E6000821DC3880989002512308B4202D15189E5
:104E700002290CD0A1898B42EFD1A1690029ECD085
:104E800002905089ADF80C008DF800500AE000F057
:104E900033F818B10120A075022001E0A5750320A8
:104EA0008DF80000A169684688477FBD68A20200AE
:104EB0001FB560B1838AA3F57F44FF3C09D0837D91
:104EC0003BB11388F42B06D9072004B010BD0E2087
:104ED000FBE70820F9E70023009301930293039373
:104EE0008388CDE90221ADF8003001218DF8021050
:104EF000808A6946A6DFE8E7007800F00100704785
:104F000070B51C0005D0E5691DB1A378012B03D055
:104F100004E04FF0FF350EE040F080001346667865
:104F20000A4601463046A8470546616A012088477F
:104F30000DB16FF00105284670BD1CB5044603F0A5
:104F40002FFC002817D1A078012807D12346012281
:104F500001A97F20FFF7D4FF00280CD123460122AE
:104F600069460020FFF7CCFF18B99DF80000D12852
:104F700002D06FF002001CBD2070FF20E0702046C0
:104F800000F0DAF80028F6D10221E17108226271FE
:104F9000102323710323A371E1736273142121731E
:104FA0000021A1736168A160E16821611CBD70B539
:104FB0000446002062780D2A1ED2DFE802F0071EA8
:104FC0002D28283237413C23464B50000E460846D8
:104FD00003F0E6FB70B96CB1251D3146284601F09F
:104FE00005F8002808D1324629462046BDE8704021
:104FF00000F08CBC4FF0FF3070BD2046BDE8704023
:1050000004F044BA2046BDE8704004F0A0B9204640
:10501000BDE8704004F0DABA2046BDE8704004F004
:1050200098BA2046BDE8704004F0D0B92046BDE8EB
:10503000704003F0A7BF2046BDE8704004F00CB9F3
:105040002046BDE8704004F067B82046BDE87040D7
:1050500004F01AB82046BDE8704004F023BB204697
:10506000BDE8704004F064BB2DE9F0474FF0000646
:105070001C00054690468946374608D0D4F820C023
:10508000BCF1000F03D0A078012803D004E04FF05A
:10509000FF3625E005F07F05207A112802D0207C1C
:1050A000152818D113460A4660782946E047064677
:1050B000616A0120884710E0266A09EB07026078E0
:1050C00001232946B0476D1C0646616AEDB20120F6
:1050D00088477F1CFFB24745EED30EB16FF0010643
:1050E0003046BDE8F087000038B5044600208DF852
:1050F00000000D46084603F053FB10B14FF0FF309F
:1051000038BD2B46012269467B20FFF7F9FE0028B7
:10511000F6D19DF80000012C0BD020F0080000BF54
:105120008DF800002B46012269467B20FFF79CFF8B
:1051300038BD40F00800F3E738B504004FF0B60082
:105140008DF800000DD0606A58B1234601226946EF
:105150007E20FFF789FF0546616A0F2088471DB151
:105160000CE04FF0FF3509E0A078012806D1234676
:10517000012269467F20FFF7C3FE0546284638BD59
:105180002DE9FC41114F00201C461646787005465B
:1051900041F080008DF80400601CC0B200900C4B00
:1051A000012201A90B4802F0E7F878780028FCD02A
:1051B0000021074804E0421852787254491CC9B2D1
:1051C000A142F8D32846BDE8FC810000682A0020EF
:1051D000B42E0020ECA102002DE9F84F154F4FF03E
:1051E00000081C469246894687F801804646581CAE
:1051F00001F000FB09F07F0105460170002005E089
:105200001AF800102A18401C517080B2A042F7D33F
:10521000641CE2B2002329460748CDF8008002F062
:10522000ABF878780028FCD0284600F05BFF3046C9
:10523000BDE8F88F682A0020ECA102000149085C53
:105240007047000020A202000649095C4FF0A04010
:10525000D0F81005C84010F0010000D0012080F007
:105260000100704720A2020007490B5C4FF0A041EB
:10527000D1F804250120984020EA0203C1F808353E
:105280001040C1F80C0570471CA202000249085CDE
:10529000012102F0C9BC00001CA202000249085C06
:1052A000002102F0C1BC00001CA202000649095CFA
:1052B0004FF0A040D0F80405C84010F0010000D025
:1052C000012080F0010070471CA202007CB5002480
:1052D000084E25460122305D0095002311460195B8
:1052E00002F014FC641C042CF4D3BDE87C4000F0F4
:1052F00003B800001CA2020010B500242046FFF7EE
:10530000C5FF641C042CF9D310BD10B50024204641
:10531000FFF7C4FF641C042CF9D310BD10B502467E
:10532000064B4FF0FF3000215C5C944201D10846EF
:1053300010BD491C0429F7D310BD000020A20200B3
:1053400070B50C4E0C004FF0000530600BD0012002
:1053500000F06AF808B1022004E0002000F064F8D0
:1053600000B10B202070706810B9FEF772FD054681
:10537000284670BD842A002010B5002000F0D0F926
:1053800008B1062806D1012000F0CAF908B10628A4
:1053900000D1002010BD00002DE9F0470D468146E8
:1053A000FFF7BCFF0446042836D2DFF874801B48A0
:1053B0001C4EA8F10C0725B3012D0ED0022D2BD1C8
:1053C00004EB440030444578002D25D0B96800290D
:1053D00022D02846BDE8F047084704EB4401755C3D
:1053E0000E44717849B10E4A4FF40041093A806881
:1053F000FEF744FE08B987F80390B17808F8041066
:10540000E2E78068FEF77EFE04EB4401314418F8C1
:1054100004008D78A842D7D0BDE8F08724A202000E
:10542000802A0020EC300020FFF70EBF0146104814
:1054300010B58088042907D007290ED00A2915D174
:10544000BDE8104004F0CCB9132176DF0CE0002851
:105450000CD0BDE81040FEF7A1BDA0F57F41FF399B
:1054600004D10448FFF76AF90828F0D110BD000004
:10547000682A0020D42F002070B50023042810D201
:105480000D4D00EB4004012A02D101290CD000226D
:10549000094E00EB4000304461B1012906D00229D9
:1054A00006D00723184670BD0E30C2B22A55F9E760
:1054B0004270F7E78270F5E7EC300020044A0146BD
:1054C00000201279D20702D0084600F04DB870478C
:1054D000742A002070B506461E480024C0E9016108
:1054E000B00720D50025012211462846FFF7C4FF4A
:1054F0006D1C0446042D02D2002CF4D013E094B9A4
:1055000040F2666204211448FEF7D4FC04000AD17C
:10551000FEF7BEFC040006D10F48104A0021001F10
:10552000FEF770FD0446F00701D0FFF7CFFE74B917
:1055300009480B4A00210C38FEF764FD040006D12F
:105540000548084A01210838FEF75CFD044620465C
:1055500070BD0000742A002030A20200BD57020076
:10556000D9630200893E02002DE9F05F6A4C0546CE
:1055700000266078B34618B184F801B000F014FF3B
:10558000664F4FF47A694FF4C87A4FF00108182D2E
:1055900062D2DFE805F0AC0C0C31404D62676B74F1
:1055A0006B74BE7D7D7D7D7DACAFB2B5BEBE00208F
:1055B000FFF77CFE00284FF0000008D0FFF766FEE2
:1055C000022D02D14FF4E16008E0484606E0FFF703
:1055D00065FE022D01D1C82000E05046410CC003F9
:1055E0004FF4FA72801841F1000125705200002337
:1055F000FDF7BEFE01462AE00020FFF757FE002817
:105600004FF0000004D0FFF741FE4FF44870E5E78B
:10561000FFF744FEDFE70020FFF748FE00284FF0C9
:10562000000002D0FFF732FECFE7FFF737FED4E7E6
:105630000020FFF73BFE00284FF0000002D0FFF7EC
:1056400025FE01E0FFF72AFE257041F69A1100229F
:105650003868FEF713FD064646E00020FFF704FE1B
:10566000257008E0002051E025703DE084F80180BD
:105670000120FFF7F9FD002240F6CD41E8E784F86C
:1056800001800120FFF7F0FD00224FF48041DFE7A9
:105690007868FEF737FD0646D5F1110000D02EB12F
:1056A0000220FFF7F3FD84F802B01DE0012816D9AF
:1056B00080B2C8214843C117C90341EA5041C00321
:1056C0004FF4FA72801841F1000152000023FDF7F7
:1056D0004FFE014600227868FEF7D0FC0646022005
:1056E000FFF7DCFD84F802803046BDE8F09F00F053
:1056F0005BFEB9E700F058FEB4E700F055FE04E0A9
:1057000000F052FE0020FFF7C9FD0120FFF7C6FDA3
:10571000AAE7FFF7FAFDA7E7742A002024A20200F7
:1057200010B5FFF78BFD032102F055FA002010BDE4
:10573000F8B5861C00208DF800000C46012768464D
:10574000FEF782FD0F4801682160D0E90012891A36
:1057500082680446511AB51C07E000BF00F0E2FE63
:10576000D4E90001401AA168091A491C8D42F5D8F4
:105770002068304420609DF80000FEF789FD38461F
:10578000F8BD0000A035002030B482680468531CC6
:105790008360A154D0E901128A4202D330BC02F0E6
:1057A00018B830BC70470000034803C8814201D1DB
:1057B0000120704700207047A035002000780221AA
:1057C000FFF7EABD05494FF0FF32082841F82020D5
:1057D00002D3084480F8482070470000343200208B
:1057E000F0B54FF0FF3512B10023082601E0082381
:1057F0000C260C4C05E000BF54F823707F1C04D02D
:105800005B1CB342F8D32846F0BD26185DB286F87B
:10581000305044F82310002AF5D1E11881F84800EF
:10582000F1E70000343200200249084490F93000CA
:10583000704700003432002070B5084C050009D0D4
:1058400010342168002907D008682060496828467C
:105850008847F6E70834F4E770BD000020320020E6
:105860002DE9F05F26484168F1B3DFF898B00E6883
:105870008146DBF8004087688078E11B21F07F4596
:10588000ED1CB0B9DFF880804FF48030C8F84403D5
:10589000C8F804031120FDF703FF1120FDF70BFFEB
:1058A0004FF0010AC8F800A02F2001F0C7FA89F8CC
:1058B00002A0B54200D23546124BE8193C3320F025
:1058C0007F401860DBF800105A46091B21F07F4129
:1058D000001B20F07F40C91C81420FD9106818605E
:1058E0002F2001F0ABFA00E004E0BDE8F05F1120EA
:1058F000FDF7ECBEBDE8F05F03F0F6B8BDE8F09F41
:10590000A82A002004150140001001402DE9FC41A7
:105910000E4614460746114603F054FF002857D19F
:1059200000258DF800502346012269466220FFF7CA
:10593000E7FA70B99DF8000010F0020F0BD020F0CC
:1059400002008DF800002346012269466220FFF71D
:105950008BFB00283CD12146384600F0E0FF0028B0
:1059600036D18DF800502346012269465920FFF7B1
:10597000C7FA78B99DF80000317820F080008909D5
:1059800040EAC1108DF800002346012269465920E3
:10599000FFF76AFB00281BD18DF800502346012237
:1059A00069465F200195FFF7ABFA002810D19DF8FA
:1059B0000000234620F003008DF800008DF804005D
:1059C00070788DF80500022201A95F20FFF74CFBDB
:1059D000BDE8FC817FB501F0B7FB08B901F086FB9B
:1059E000002402A91120029401F0B8FB03A912209F
:1059F000039401F0B3FB104D104A694628680090EB
:105A000003208DF801000D2001F00AFB01210D207B
:105A100001F0B4FA686801908DF80540084A01A9C0
:105A20000B2001F0FDFA044601210B2001F0A6FA3B
:105A300004B0204670BD0000E4A102001162020023
:105A4000D5620200F8B5054600200E468DF800002C
:105A50000B46012269465420FFF752FA00281DD157
:105A60002878AC1C00289DF8000018D0217820F080
:105A70002000C1F3001140EA411000BF8DF8000082
:105A8000218800F0F000C1F3431101438DF80010AC
:105A90003346012269465420FFF7E6FAF8BD217823
:105AA00020F01000C1F3001140EA0110E6E7000009
:105AB00038B5044600200D468DF800000B46012243
:105AC00069465320FFF71CFA002825D12178A01C35
:105AD00000299DF8001020D0007821F0800141EAD3
:105AE000C01121F04001C0F3400241EA8211C0F32D
:105AF000800221F0200141EA421121F01001C0F39F
:105B0000C00041EA001000BF8DF800002B460122C2
:105B100069465320FFF7A8FA38BD007821F0080144
:105B200000F0010241EAC20121F00401C0F3400289
:105B300041EA8201C0F3800221F0020141EA420100
:105B400021F00101C0F3C0000843DDE77CB5044645
:105B500000200D468DF800005F260B4601900122C3
:105B600069463046FFF7CCF900282ED19DF8000099
:105B7000218820F0FC00C90840EA81008DF800006F
:105B80002B46012269463046FFF76EFA00281CD1E9
:105B900062202B4601226946FFF7B2F9002814D192
:105BA0009DF80000218820F00100C1F34021084346
:105BB0008DF800008DF80500A0788DF804006120B4
:105BC0002B46022201A9FFF74FFA7CBDF8B50D461E
:105BD00014460746114603F0F5FD00284BD1002678
:105BE0008DF80060387823464FF00102694620B1F5
:105BF0005720FFF785F978B11AE05520FFF780F9B3
:105C0000B0B99DF80000012240F008008DF80000B6
:105C100023466946552009E09DF80000234640F0E0
:105C200008008DF80000012269465720FFF71CFA92
:105C3000002820D18DF800602346012269465920B2
:105C4000FFF75EF978B99DF80000298820F0800000
:105C5000890A40EAC1108DF80000234601226946F6
:105C60005920FFF701FA002805D121462846BDE852
:105C7000F840FFF76BBFF8BD38B5044600200D466D
:105C80000B460090022269466520FFF739F900288B
:105C90002FD19DF800002B4620F00302207800F061
:105CA00003011143C0F3810221F00C0141EA82019A
:105CB00021F0F001000941EA00108DF800009DF884
:105CC000010020F03F022088C0F305211143C0F3FA
:105CD000803221F0400141EA821121F08001C00BA5
:105CE00041EAC0108DF80100022269466520FFF7E5
:105CF000BBF938BD38B5044640780D468DF8000034
:105D00000B46012269466020FFF7AEF900282AD130
:105D10002B46012269466220FFF7F2F8002822D1C3
:105D20009DF80000217820F00C0001F0030140EA0A
:105D300081008DF80000217820F03000C1F381014E
:105D400040EA01108DF80000217820F00200C1F334
:105D5000401140EA41008DF800002B4601226946BF
:105D60006220FFF781F938BD38B50D4600210446A1
:105D70000091008810F0C00F08D0C0F381100128F6
:105D800009D002280BD0032810D033E015208DF85D
:105D90000000032007E02D208DF8000028E01D20E2
:105DA0008DF8000007208DF8010023E02B46022229
:105DB00069467A20FFF7A4F8E0B99DF80000217841
:105DC00020F01800C1F3410140EAC1008DF8000045
:105DD000217820F00700C1F3C20101438DF80010C3
:105DE0009DF80100218820F00700C1F30221014342
:105DF0008DF801102B46022269467A20FFF734F90C
:105E000038BDF8B5074600200E46154613460090EB
:105E1000022269466320FFF773F800282BD17878B7
:105E20009DF80040032806D1308824F00701C0F314
:105E3000C21040EA010431784023C1F3401003EA64
:105E4000801024F040021043890920F0800242EAC9
:105E5000C1108DF800009DF80110307821F01F016D
:105E600000F01F0008438DF8010002222B4669460E
:105E70006320FFF7F9F8F8BD2DE9F04117880646D1
:105E8000B81D14460D46984202D90C20BDE8F08199
:105E90003188072206290AD34FF4486C4FF6FF7366
:105EA000614501D9994202D17088062801D2104675
:105EB000ECE7604501D99842F9D1994203D0984264
:105EC00001D08142F3D80520E85520881221401CDA
:105ED00080B2208029542088401C80B22080411943
:105EE000308804F06CF82188084480B22080411981
:105EF000708804F064F82188084420800020C5E7F9
:105F0000FEF74CB838B54A7A0F4B62B100220A72DC
:105F10005969002906D001228DF80020ADF8020051
:105F20006846884738BD0A7A62B19B684C68024669
:105F300019462046FEF7A2F80028F3D0BDE8384005
:105F400002F08EBF5B68F1E74C3100202DE9F04193
:105F500000260125144C22E06068226900EBC60788
:105F6000387805FA00F1114217D08A43226101F016
:105F7000B3F802463878E36805FA00F1194002FAEE
:105F800000F3994209D17978012901D0012100E07B
:105F9000002151407A6802B19047761CF6B2207811
:105FA0008642D9D3BDE8F081942A00200E4910B56D
:105FB0000A784C780023A24212D0521CD2B20A7046
:105FC000022A00D10B70084A0B780C3252F82320B9
:105FD00002608868104420F07F408860012010BD76
:105FE0000360002010BD0000A82A0020F8B5044678
:105FF0000D4600260B468DF80060012269465020B0
:10600000FEF77EFF00282BD12178C8079DF80000FD
:106010001AD020F00100C1F3400101438DF80010B7
:1060200021F002002178C1F3800140EA41008DF89F
:106030000000217820F00400C1F3C00140EA810093
:106040008DF80000EE7005E020F007008DF80000EC
:10605000FF20E8702B46012269465020FFF704F824
:10606000F8BD30B50446006885B00D46806800284C
:106070001CD014216846FDF7CAF90195A068049068
:10608000207910B101280DD104E001208DF8000025
:10609000206904E002208DF80000E068000302900F
:1060A00060690390206881686846884705B030BD04
:1060B000826883881A4003689A5C0A708168491C68
:1060C00081607047C26883881A4003689954C16828
:1060D000491CC160704710B50446C0B2FEF796F87F
:1060E000204610BD10B5002821D0114B0022001F02
:1060F000196803E0814203D80A4649680029F9D1AA
:1061000052B11368841A9C4204D10068184410608C
:10611000104602E0506000E0186039B102680B1AC6
:10612000934203D10B681A4402604968416010BD74
:10613000342B00200B484A8883889A4211D10A8860
:10614000A2F52063773B0CD18988C91E8AB2C28030
:10615000054803211346008801EB004003A101F02C
:1061600046BF7047682A0020902B0020446174616C
:10617000206C656E2069732073657420746F203005
:10618000782558282564290010B50949094800F0E8
:1061900046FD08B1FDF702FF4021064800F033FD3F
:1061A000002803D0BDE81040FDF7F8BE10BD000088
:1061B00035610200C02F00202DE9F041124E074644
:1061C0000125BD403068FDF79DFF00280DD10F4C23
:1061D0002069284207D1384600F07EFF0028E06899
:1061E00005D0284304E0A8432061BDE8F081A8431E
:1061F000E060206928432061A1683068BDE8F04173
:106200000022FDF73BBF00008CA20200942A002070
:10621000112000F0FFBF00000146034802888A42B7
:1062200000D0002070470000383100202DE9FC5FCD
:106230000E008346DDE90C47C6F100009846924601
:10624000814600D40846012503E000BF90FBFAF028
:106250006D1C5045FADAA84500D9454624B1002EF8
:1062600001DB780700D5641EB80702D5B8F1000F2E
:106270000AD0F80708D13CB1A54205D220215846E2
:10628000641EFFF781FAF6E7002E02DA4E462D2152
:1062900002E0780703D52B215846FFF775FA07F07F
:1062A000030002280BD1B8F1000F08D13CB1A54280
:1062B00005D230215846641EFFF766FAF6E7CDE9AD
:1062C0000047434652463146584603F07DFEBDE83E
:1062D000FC9F000010B5122000F09CFF024841888E
:1062E000491C418010BD0000682A002070B50E4690
:1062F0000446007918494FF4A27501EB4010017F64
:106300002068A1B14FF4887102F044FA4FF4907103
:10631000206802F03FFA4FF49271206802F03AFAD6
:106320002946206802F036FA0C49206809E04FF44B
:106330008E7102F01EFA2946206802F01AFA084906
:106340002068C0F80413206800F014FE3146BDE850
:10635000704000F0F3BD00008C32002010030200FA
:1063600080000200F0B58488A518944200D8224627
:10637000A41AC288D6189A4200D81346D21A4B885B
:106380000788BB420CD34088834209D88888A04242
:1063900006D3A84204D8C888904201D3B04201D99C
:1063A0000020F0BD0120F0BD0A4810B5807860B132
:1063B000002401E0022C06D02046FEF767FF641C93
:1063C000042CF7D310BD0324F6E7BDE81040FEF718
:1063D00093BF0000742A002003480179C90702D046
:1063E0000078FFF7C1B87047742A002006490120E1
:1063F000086006480168C1F300410029FAD1044948
:1064000000208870704700000C0000401804004015
:1064100020320020F72101801721418000210171E5
:106420004171FB2181711B21C17170472DE9F0473A
:10643000394E002780463D46DFF8E090D6F804A0AC
:1064400057E003D00446D0F81C8035E099F80020CE
:1064500002EB4201521CD2B289F8002009EBC101C3
:1064600099F80230091D9A4201D189F80050486814
:106470000A780446012A12D0022A02D0032A3BD10C
:1064800008E003F0F5FA00B10127257434E0057443
:10649000C06900E070680028F9D170602CE0207CB1
:1064A00050BB88686060C868A0600869E06048699F
:1064B000A061F07800B165606268B168184B501A4D
:1064C00020F07F40984202D2A168084406E0881A72
:1064D000A16820F07F40814202D9081A206000E0C4
:1064E000256065600120A56020742046E56103F009
:1064F000A1FAB8F10000A4D199F8001099F80100B0
:106500008142A3D117B97168514502D00120BDE87D
:10651000F0870020FBE70000A82A0020F0320020CE
:10652000FFFF7F002DE9FE43214DD5E9014704EA35
:10653000070005EB800605F583600C3600F002FBD2
:1065400005F21440804600F0FDFA0AE0C0F389111C
:1065500001EB9050641C044404EA070005EB80063C
:106560000C3630688107F1D00020694604EA070242
:1065700005EB8202641CD26841F82020401C0228EE
:10658000F4D3009800F00300022800980AD0C0F36A
:1065900083100444404600F0CFFA002800D06C601D
:1065A000BDE8FE83032101EB905004EB9004F1E77A
:1065B000A0350020CAB0FDF737FD08B1FDF7EEFCAD
:1065C0001822754920A8FCF709FF744826907449E1
:1065D0004FF48070CDE9270129900723714A26A93D
:1065E00020A8FDF7B9FD08B1FDF7D8FC002001F0A7
:1065F0005DFD08B1FDF7D2FC01F00AFC6A490320F9
:10660000FEF768FF08B1FDF7C9FC20A90020FEF7DE
:1066100097FE08B1FDF7C2FC01F0E4FF08B1FDF7F9
:10662000BDFC002420A90120209401F07FFE08B1C8
:10663000FDF7B4FC20A801F025FF08B1FDF7AEFC82
:106640009DF8880059A120F00F00401C20F0F000B8
:1066500010308DF888000B2222A87CDF08B1FDF7EE
:106660009DFC20941020ADF880003C202194ADF8D2
:106670008200ADF884404FF4C870ADF8860020A8C1
:106680007ADF08B1FDF78AFCFFF77EFD4A482090CB
:1066900020A94A48FEF794FB08B1FDF77FFCA02132
:1066A00020A8FCF7B4FE02208DF880008DF882400F
:1066B00005208DF883000120ADF8CC008DF8FC009A
:1066C00040203F4942903491B42043903D48469049
:1066D0003A4820A93030FDF749FF08B1FDF75EFCCC
:1066E000364801213030FDF73EFF1C2120A8FCF781
:1066F0008EFE4FF42030CDE920404FF470202290E0
:1067000031482590032531488DF88C502690ADF8FE
:106710008E408DF8904020A8FEF714F908B1FDF7DF
:106720003DFC2BA0FDF7A0FA2D482EA1008805EB1B
:10673000004001F051FC214803213030FEF71CF8E5
:1067400008B1FDF72BFCFFF745F903F063F802F001
:106750008FFB03F029F9ADF8204180216846FCF752
:1067600056FE174C083C3EDF08B1FDF717FC8021B0
:106770006846FCF74CFE62881DA16846FDF784FA66
:106780006846FCF74FFEADF8200148AA69460B4861
:10679000FEF78EFBE7E70000F4A10200B42C002016
:1067A000B42D0020A59C02002D5402004E6F72648F
:1067B00069635F5541525400B9870200A42F00203D
:1067C000702A0020498802006D880200015F0200E3
:1067D0000D0A554152542053746172742100000017
:1067E000902B002055415254205374617274210043
:1067F00025640000F0B50B30154D20F00701002492
:10680000144A0FE003688B420BD38B4205D95E1A02
:1068100043184768C3E9006700E04368136002C09B
:1068200004E0021D10680028ECD12046002802D1A7
:10683000286808B10020F0BD064A07481060074AE2
:10684000121A22F00702C0E9002401202860D7E7CD
:10685000382B0020342B00204C3C0020485C0020CA
:1068600070B5144682880E4605462088111D0144E5
:10687000921C994201D8FE2A01D90C2070BD521CED
:1068800032542088FF21401C80B22080315420885F
:10689000401C80B220808119288803F090FB218859
:1068A000084480B22080AA8842B1A96841B130442E
:1068B000FCF794FD2088A98808442080002070BD42
:1068C000072070BD38B50C4600218DF80010007807
:1068D00023464FF00102694688B15720FEF710FBAE
:1068E00000280BD19DF80000234640F001008DF8F0
:1068F0000000012269465720FEF7B6FB38BD55203F
:10690000FEF7FEFA0028F9D19DF80000012240F0C0
:1069100001008DF80000234669465520ECE738B5A4
:106920000C4600218DF80010007823464FF001023C
:10693000694688B15720FEF7E3FA00280BD19DF88D
:106940000000234640F004008DF800000122694653
:106950005720FEF789FB38BD5520FEF7D1FA0028F5
:10696000F9D19DF80000012240F004008DF80000EC
:10697000234669465520ECE738B5044600208DF8DB
:1069800000000D4620780B464FF00102694620B109
:106990005720FEF7B5FAA8B11EE05520FEF7B0FA71
:1069A00040B9607804289DF8000008D040F010003D
:1069B0008DF8000001222B466946552010E040F07A
:1069C0002000F5E7607804289DF800000BD040F027
:1069D000100000BF8DF800002B46012269465720A9
:1069E000FEF742FB38BD40F02000F3E72DE9F04709
:1069F000C7880446181D16468946B0FBF7F1B0FB60
:106A0000F7F207FB12009A193A44D21CB2FBF7F2D4
:106A1000DDF820A001E02468491E0029FBD13D1AC1
:106A20008846B54216D818E0BAF1000F05D02118F3
:106A300009EB08002A46091D04E0204409EB08017F
:106A40002A46001DFCF7CAFC00202468761BA844D7
:106A5000B74201D9354600E03D46002EE4D1BDE8FD
:106A6000F087000030B50B46024601F04DFB63B1E4
:106A70000021094C0CE000BF01EB410304EB830350
:106A800015685B88AB4202D11160002030BD491C03
:106A90008142F1D3052030BD3C2B0020F8B50E46D5
:106AA000017814460546012901D1687830B1208863
:106AB000821C9A422DD8012902D006E00720F8BD99
:106AC00069780144891C994223D8181A801E87B21C
:106AD000ADF800702188B01C084469467DDF0028AD
:106AE000EDD12878022805D1BDF80010B94201D8AF
:106AF00009210AE00821012805D16878B84202D8A6
:106B0000ADF8000001E0ADF80070BDF80000FE280F
:106B100001D90C20F8BD2288401CB0542088401CAC
:106B200080B2208031542088401C2080BDF80010A5
:106B3000084420800020F8BD08B500216A46FCF713
:106B4000D0FB08BD08B501216A46FCF7BDFB0098E3
:106B500008BD38B5044600258DF800506846FDF79D
:106B600073FB21686268086890420ED9401E086075
:106B70000178238AE26801FB0325227A2168101A32
:106B8000C0B20A79824200D208719DF80000FDF778
:106B90007FFB284638BD38B5054600208DF800003B
:106BA0000C466846FDF750FBE868298A201AB0FBBE
:106BB000F1F12A681068431C136001709DF8000011
:106BC000FDF766FB38BD10B530B1017A4268036845
:106BD000891AC9B21A6006E00E2010BD03681A684F
:106BE000541C1C601170491EC9B2F7D20068002104
:106BF0000171084610BDC20800F007030120895C3E
:106C000098400840704728B1A1F11702E12A03D348
:106C1000072070470E20704701800020704710B594
:106C200060B10161F72120F8021B20F8021BFB2153
:106C300000F8021BFFF7EEFB002010BD0E2010BD78
:106C40002DE9F043858895B00C46002D3DD1018893
:106C5000DFF824810026DFF82491012724293CD085
:106C600006DC102909D011290CD023296DD150E060
:106C70003A290BD0552968D12AE00146204601F077
:106C800003FE62E0A01DFFF7C5FB5EE022464089DF
:106C900034F8061F814200D808466080172800D2C9
:106CA00017206080106970B1607960B1D8E9001078
:106CB000CDE90310ADF80E506088ADF810001369EF
:106CC00003A9104698476671267115B0BDE8F08398
:106CD0000146204601F026FE37E0011D342206A8B9
:106CE000FCF77CFBBDF81800BDF81C2004EBC001CC
:106CF0004A7322694AB3D8E90432CDE90432ADF8C7
:106D00001200487B8DF814002269204604A99047A0
:106D10001BE00496059630F8041F04EBC1020179CC
:106D2000127B8A4200D21146ADF81010ADF8121055
:106D30000088002204A990DF020006D0B9F8000004
:106D40000F4907EB004001F04BF9A07A0028BCD0B6
:106D5000E18828469EDF02000BD0112AB5D0B9F891
:106D6000000015B007EB0040BDE8F043054901F015
:106D700037B9A672E772A8E750A202003C2B0020A8
:106D800098A5020010A5020000F1804000680028CC
:106D900000D00120704708B500F18040002101605B
:106DA0000068009008BD4FF47A714843AFF300804B
:106DB00000283ED01F49204A096800BF00BF00BF1D
:106DC00000BF00BF00BF00BF00BF91422FD000BF77
:106DD00000BF00BF00BF00BF00BF00BF00BF00BFBB
:106DE00000BF00BF00BF00BF00BF00BF00BF00BFAB
:106DF00000BF00BF00BF00BF00BF00BF00BF00BF9B
:106E000000BF00BF00BF00BF00BF00BF00BF00BF8A
:106E100000BF00BF00BF00BF00BF00BF00BF00BF7A
:106E200000BF00BF00BF00BF00BF00BF00BF0138F0
:106E3000C3D17047302B00200024F40000283ED03E
:106E40001F49204A096800BF00BF00BF00BF00BF44
:106E500000BF00BF00BF91422FD000BF00BF00BFE6
:106E600000BF00BF00BF00BF00BF00BF00BF00BF2A
:106E700000BF00BF00BF00BF00BF00BF00BF00BF1A
:106E800000BF00BF00BF00BF00BF00BF00BF00BF0A
:106E900000BF00BF00BF00BF00BF00BF00BF00BFFA
:106EA00000BF00BF00BF00BF00BF00BF00BF00BFEA
:106EB00000BF00BF00BF00BF00BF0138C3D1704793
:106EC000302B00200024F40070B50F4C00252078F2
:106ED00008B1852516E00021A16061602161E160B3
:106EE0004FF0E020D0F80001012610F0010F03D18F
:106EF0000721002000F022F801F0B2FB08B9034896
:106F000006602670284670BD20320020180500401B
:106F100008B500208DF800006846FDF795F9064891
:106F2000C168491EC160C06808B9FFF75FFA9DF8E3
:106F30000000FDF7ADF908BD203200204907090E19
:106F4000002806DA00F00F0202F1E02282F8141D98
:106F500003E000F1E02282F8001400F01F0201219A
:106F600091404009800000F1E020C0F88012C0F894
:106F700000117047000B40B2704700002DE9F0414E
:106F80008846054601F008FD234E002828461AD001
:106F9000FEF74AFC304490F848008009032802D0EC
:106FA00001280ED007E04FF0A040D0F81005E840CF
:106FB00010F0010F05D003212846BDE8F04100F094
:106FC0001BBE0221F8E701F0F3FC002822D028467E
:106FD000FEF72AFC04464FF4807000EB84000F4F4C
:106FE00081B207EB8400D0F8102542F00102C0F80E
:106FF0001025084600F038FEB8F1000F0AD02846E8
:10700000FEF712FC56F82000002803D00120A04013
:10701000C7F80403BDE8F08134320020006000406E
:107020002DE9FC41DFF8A480044608EB04000027AA
:1070300090F930001346C0170E46401C01D00827B7
:1070400041E0F27819462046FEF7CAFB0546401C8F
:1070500038D0B07850B14FF0A04000EB8400D0F8A9
:10706000001721F00201C0F8001707E00021737833
:10707000204600910A46019100F05AFDF078C0B117
:107080001348317800EB8500D0F81025114B1A40D9
:10709000C0F810254FF4F8524FF4403302EA0422AE
:1070A00003EA01410A43D0F810150A43C0F810253D
:1070B00009E008EB0500327810F8481F41EA821118
:1070C000017000E004273846BDE8FC81343200201E
:1070D00000600040FFE0FCFF4FF0A041D1F8101528
:1070E000C14011F0010000D00120704770B5144D6F
:1070F00095F8540008B1082070BD0020411E2A18E0
:10710000401CC0B282F830102028F8D3002420465A
:10711000FEF758FB641CE4B20C2CF8D307210620C0
:10712000FFF70CFF4FF4BE7000F09EFD05494FF0D5
:107130000040C1F80403012085F85400002070BD10
:107140003432002000600040034890F854000028CA
:1071500000D0012070470000343200202DE9FC41AE
:10716000044629480F462044002590F93010491C58
:1071700001D0082541E0B978002651B30122002151
:107180002046FEF72DFB411C21D083001F483A7892
:1071900018447978D0F81035DFF874C003EA0C038E
:1071A000C0F81035D0F810354FF4F85C0CEA042C18
:1071B00043EA0C034FF4403C0CEA02424FF4801CBB
:1071C0000CEA01510A431343C0F8103504E00425CA
:1071D00013E0FE2180F830107A780120A0404FF0B3
:1071E000A041012A0CD0C1F80C05012220460096CE
:1071F00000231146019600F09BFC2846BDE8FC8167
:10720000C1F80805F1E700003432002000600040BA
:10721000FFE0ECFF4FF0A042D2F80435012181409D
:1072200021EA0300C2F808051940C2F80C1570479E
:107230000121B1EB507F01D1012070470020704740
:107240000121B1EB507F01D1012070470020704730
:107250002DE9FC5F804640790C4600EBC0014548B3
:1072600000EB8107387F10B10820BDE8FC9FC7E91B
:107270000023207B4FF0A04B4FF00109012805D8D7
:10728000227809FA02F0CBF80C0502E0207800F031
:10729000C4FC4FF0000ACDF800A0CDF804A020787F
:1072A00053465246012100F067FC65784FF0FF36E7
:1072B000FF2D07D009FA05F0CBF80C05284600F0A1
:1072C00080FC00E03546A078FF2809D00022064661
:1072D0000123CDF800A01146CDF804A000F04CFC2D
:1072E000E078FF2804D000F098FCE07800F069FC1A
:1072F00098F80500E17800EBC0021E4800EB820020
:107300008177D8F800002178C0F80815C0F80C552E
:10731000C0F81065A168C0F82415227B617B01B11B
:107320000121012A04D0022A05D0032A08D105E050
:1073300041F0020104E041F0040101E041F00601E6
:10734000C0F854156179C0F8C015396811B14021F1
:10735000C0F804130721C0F80015386820B121795E
:1073600098F90400FFF7EAFD504687F81DA087F85A
:107370001C907AE7AC3200201FB5069C00918DF876
:10738000042002938DF80C400022694600F002F8B8
:1073900004B010BDF0B40D4613464179144A01EB18
:1073A000C10102EB81014A7F12B1F0BC112070478C
:1073B0000C6801221CB113F0140F00D14A7795E834
:1073C000D0100C3181E8D01011F8154F24F00704CB
:1073D00001F821498C7FFF2C04D04FF0A046A24039
:1073E000C6F80C2500682A46F0BC02F037BA000047
:1073F000AC3200202DE9F04105460079164F904649
:1074000007EB40140E46E07E10B10820BDE8F08185
:10741000707F20772846FCF755FF5FEA0800606020
:107420003169216003D0317F2846FEF75FFF28795C
:1074300007EB4010007F0028286801D0082100E0F9
:107440000421C0F800150020E0752076A075012108
:10745000E176A076DAE700008C3200202DE9F041D9
:1074600005460079284E904606EB40140F46207FD3
:1074700018B10846FFF7DCFE80B1626800234FF4C4
:1074800004704FF4017172B12A7906EB4212127F37
:10749000002A2A6805D0C2F8080304E01020BDE8DD
:1074A000F081C2F80813E27DB2B1227E7AB162683F
:1074B0005AB12A7906EB4212127F1AB12968C1F833
:1074C000040302E02868C0F804131120E7E72761ED
:1074D000012384F8188005E084F817800020E76015
:1074E000607620762879424606EB40103946007FC8
:1074F0000028284603D0BDE8F04100F073B8BDE88D
:10750000F04100F01BB800008C32002070B504463A
:107510000079094D05EB4010017F00290AD1807EDA
:10752000002807D1204601F073FB2179012005EBEB
:107530004111887670BD00008C3200202DE9F05F8B
:1075400004460079264901EB4015A87E184302D174
:10755000204601F05DFB68680028206806D04FF4E3
:107560000171C0F804130020BDE8F09F4FF4A2762B
:10757000314601F0FEF8B1464FF4927A4FF4847B25
:107580005146206801F0F0F806465946206801F09F
:10759000EBF880464946206801F0E6F8074648EADD
:1075A00007003043ECD056EA070007D1294620688F
:1075B00001F0B8FAE87D697E8842E1D80020E875DC
:1075C0000EB10320D0E70FB10F20CDE7A97E012037
:1075D0000029216801D00860C5E74860C3E70000C2
:1075E0008C3200202DE9F05F894604464FF48875FF
:1075F0009A46904600260068294601F0CBF84FF4E1
:10760000A2773946206801F0C5F82068C0F83495A3
:10761000C0F838852068BAF1000F14D0D0F80012F5
:1076200041F02001C0F800122179DFF8648008EBF6
:107630004110406850B120684FF40471C0F8041341
:107640003046BDE8F09F01210160EDE7AA46B9464A
:107650004FF4927B5146206801F097F8074649465F
:10766000206801F092F805465946206801F08DF82F
:10767000014647EA05000843ECD02379002208EBD5
:107680004310C27501B10326002DD9D00F26D7E7CC
:107690008C3200202DE9F047054600793F4E904698
:1076A00006EB40140F46207F18B10846FFF7C0FDD7
:1076B00030B1284600F074F820B11120BDE8F08701
:1076C0001020FBE784F81680A7600027A78228799E
:1076D0004FF0010806EB40143E46207F0028286842
:1076E00025D04FF49079494601F054F84FF4AC7A24
:1076F0005146286801F04EF82868A17DA268C0F8BC
:107700004425C0F848152868C0F808806068F0B9BA
:107710004946286801F039F880465146286801F04A
:1077200034F858EA0001F3D058BBA7750FE04FF4C6
:107730008E7A514601F01DF82868C0F8088021466D
:10774000286802F023FA61684FF4807089B13046EE
:10775000B4E75146286801F007F810B9A08A4845F7
:10776000F7D1A08A484505D02146286802F00EFAD4
:1077700000E08146A08AA17D8842EAD3A08A4845DC
:1077800001D10F26D1E75146286800F0EDFF00280F
:10779000F9D02868C0F80C80C7E700008C320020C0
:1077A0000079044901EB4010807D002800D00120C1
:1077B000704700008C3200200FB408B503990029EF
:1077C00004D004AA00926A4600F00FF801B05DF8F8
:1077D00014FB10B582680446002A05D0D4E90403DE
:1077E000216898470020A06010BD2DE9FC47914614
:1077F0000C00804676D014F8011B39B125290ED033
:107800004046FDF7C1FF20780028F4D198F80C001D
:10781000002867D04046BDE8FC47FFF7DABF0020EC
:10782000012221782B291BD02D2902D0302908D103
:1078300002E040F0010001E040F00200641C002A78
:10784000EFD100252A290ED02178A1F130020A2A91
:1078500011D205EB850201EB4205641C303DF1E7D6
:1078600040F00400EAE7D9F800100B1DC9F8003019
:107870000968641C0D44217800232E290BD114F8CB
:10788000011FA1F130020A2A05D203EB830201EBAA
:107890004203303BF3E76C290DD068290BD06929EE
:1078A00021D00BDC252918D0582931D063290ED0DE
:1078B000642915D117E014F8011FECE7702969D08D
:1078C000732932D075291BD0782909D120E0D9F845
:1078D0000000011DC9F8001001784046FDF754FF73
:1078E000641C90E76CE0D9F800100A1DC9F800206C
:1078F0000968CDE900500A224046FEF797FCEFE701
:10790000D9F800100A1DC9F8002009680A2206E00B
:10791000D9F800100A1DC9F8002009681022CDE925
:107920000050404602F050FBDAE7D9F8001000277B
:107930000A1DC9F800200E68C00705D112E04046B4
:10794000761C7F1CFDF720FF31780029F7D104E079
:10795000202140466D1EFDF717FFBD42C0D9002D06
:10796000F6D1BDE74EB13046FBF75CFD074604E0BB
:10797000202140466D1EFDF707FFBD4206D9002DB0
:10798000F6D103E04046761CFDF7FEFE3178002973
:10799000F8D1A5E7D9F80000011DC9F80010056865
:1079A00030214046FDF7F0FE78214046FDF7ECFE21
:1079B00008200021CDE90001034610222946B0E746
:1079C000BDE8FC872DE9F04128B1016819B149698A
:1079D000BDE8F04108470D4D0D480024461B142713
:1079E0000DE000BF04EB840005EB8000016829B1C5
:1079F0004969884710B10120BDE8F081641CB6FBDD
:107A0000F7F0A042EED80020F6E7000000000000EA
:107A10000000000008B1012808D10548012181704B
:107A2000017809B9407808B10020704701207047FB
:107A3000CC2A0020012801D0032808D104490022C3
:107A400001288A7000D00020C87001F009B8704782
:107A5000CC2A0020F0B52B4E074687B030780025A1
:107A6000F0B3294C022F206FC0EBC00004EB800163
:107A7000304602D0032F39D117E04560087910B1A4
:107A8000012833D10AE0D1E90502801A4FF480536E
:107A9000984200D318461044886102E00869401CEF
:107AA00008614A69904206D020E04268521C426058
:107AB000082A1BD945601C226846FBF78FFC606FC3
:107AC000401E6067206F401C2067042800D1256796
:107AD0003570022F05D00D216846FEF7C2FA05E089
:107AE00001E00021F8E7707800B17570B07820B13E
:107AF00007B0BDE8F04000F0B9BD07B0BDE8F04008
:107B000000F0AEBFCC2A00202834002070B541EA36
:107B10004201DDE904564FF0A04441EA830141EA05
:107B2000052104EB800041EA0641C0F8001770BD52
:107B300070B541EA4201DDE904564FF0A04441EA44
:107B4000830141EA052104EB800041EA0641C0F8C7
:107B5000001770BD70B541EA4201DDE904564FF0EF
:107B6000A04441EA830141EA052104EB800041EA97
:107B70000641C0F8001770BD70B541EA4201DDE969
:107B800004564FF0A04441EA830141EA052104EB89
:107B9000800041EA0641C0F8001770BD1CB5002204
:107BA0000B46009211460192FFF7D4FF1CBD1CB595
:107BB000002100910B46012201911146FFF7CAFFF7
:107BC0001CBD1CB5002100910B46012201911146FC
:107BD000FFF7D2FF1CBD4FF0A04202EB8000D0F8AF
:107BE000002722F44032C0F80027D0F8002742EAEC
:107BF0000141C0F8001770474FF0A04202EB80002F
:107C0000D0F8002722F44032C0F80027D0F800272F
:107C100042EA0141C0F8001770474FF0A04201212D
:107C20008140C2F80815704701224FF0A0438240FE
:107C300011B1C3F808257047C3F80C257047000040
:107C400018B5084B6C4601441B68009306E000BF62
:107C500054F82030D3F81035401C08C28142F7D8C0
:107C600018BD000088A20200034908B5084400219D
:107C700001600068009008BD006000400249405863
:107C8000012800D0002070470060004070B5184AFD
:107C90000024D2F81034194609E00D7AA54205D126
:107CA000641C0A2CF7DB4FF0FF341FE04968002901
:107CB000F3D1611C1AD00472D2F8101431B14968A2
:107CC0004160D2F81014486000250BE00021C2F892
:107CD00010044160F8E700231A462946204600F0C8
:107CE0001DFA6D1C00F010FAA842F4D8204670BDB1
:107CF000A03500207047FBF743BD704708B5034A25
:107D000000924023024A00F005F808BDD18E02001F
:107D1000A0340020F0B595B01C4615460F46084625
:107D20001A9E00F0D3FA182109A8FBF770FB0E96F3
:107D3000CDE909540023082203A9384600F0E0FAEF
:107D4000059806900498ADF81C0000208DF82000DE
:107D50000398082600F00300012802D002281DD055
:107D60003CE003983346850AC0F3C2008DF81E003C
:107D700003980FA9C0F380008DF81F000398C0F38B
:107D80008314A200384600F0BBFA09A8009006ABA5
:107D900022460FA9284600F0F5F91FE00398840D4C
:107DA000C0F3C2008DF81E000398C0F380008DF868
:107DB0001F00082C01D2254600E0082533462A463C
:107DC0000FA9384600F09CFA2E44641B09AB06AAA2
:107DD00029460FA800F014F9002CEAD1384600F02B
:107DE0007EFA15B0F0BD0000084A012902EBC00080
:107DF00005D0022903D0032903D0042903D0002091
:107E000070470079704740797047000000AC02006D
:107E100010B5FFF770FF04210348FFF737FF024951
:107E20000120487210BD0000D82A00202DE9FE4F25
:107E3000FDF7BAFC10B10020BDE8FE8F63480021B9
:107E4000C0F81414D0E9014604EA060100EB8101F0
:107E50004FF000090AE000BFC1F3891202EB915113
:107E6000641C0C4404EA060100EB8101C9688A071E
:107E7000F2D000216A46804604EA060008EB800042
:107E8000641CC06842F82100491C0229F4D3009800
:107E900000F00300022800981CD0C0F383110629CB
:107EA00000D3062161F389100090C0F38310801C79
:107EB0008100474800F0C1F9070075D000F006FACC
:107EC0004B4608226946384600F020FA09F10809B5
:107ED000002557E0810D50228A46B2EB905F00D812
:107EE00050210D4665F39F5000900831384800F04E
:107EF000A4F9070058D000F0E9F94B46082269467A
:107F0000384600F003FA04EA0601701A8000001DEA
:107F100009F1080B854220D92C4E0C3630B1C2B283
:107F200008EB8101281A91460C3104E03146EAB28F
:107F3000002691463046C5B25B46384600F0E6F969
:107F40000BEB090326B12A463146384600F0DEF92C
:107F50000AF1030004EB90041AE008EB81015B4690
:107F60002A4638460C31F1E704EA060008EB8001A6
:107F70004B46042238460C31641C00F0C7F909F165
:107F800004096D1C0098C0F38310A842ECD85FB1BF
:107F90001048FEF7D1FDD8F81054464605B140B15F
:107FA000384600F09CF97460FDF7FEFB80F001009C
:107FB00042E7687A012804D12A68284639461268BF
:107FC00090476D68002DF4D1EAE70000A03500204D
:107FD000D4A30200B439002000231A4601F098BC53
:107FE00008B5012300926A4601F092FC08BD1CB559
:107FF000CDE9002302236A4601F08AFC1CBD000083
:108000002DE9F0470E4680461C46924608293ED888
:1080100094F80C90002020731946104600F0F2FCF2
:108020000025B54206D218F805201AA12046FFF710
:10803000C3FB03E019A12046FFF7BEFB6D1C082D12
:10804000EFD317A12046FFF7B7FB0025B54210D2AA
:1080500018F80570FBF7BEF90068C05D10F03E0F20
:1080600001D03A4600E02E220EA12046FFF7A4FBE5
:1080700003E00DA12046FFF79FFB6D1C082DE5D303
:1080800001222146504600F09FFC84F80C90BDE888
:10809000F0870000202530327800000020202000EA
:1080A0007C0000002563000020000000114810B58E
:1080B000FF218160002101604160C0F81814C0F800
:1080C000141480F81C140C4800F007F900280FD194
:1080D0000A480B490B4B401AC108002005E000BFBD
:1080E00000EB400223F82200401C8842F8D3002015
:1080F00010BD0000A0350020D4A3020058AC02003F
:1081000000AC02003C2B002002480349401AC00882
:108110007047000058AC020000AC02001FB51146C9
:10812000002443B901A8FEF79DFC20B9034801993A
:1081300000EBC100847904B0204610BD00AC020001
:1081400013B56846FEF78EFC08B100201CBD02483E
:10815000009950F831001CBD00AC020070B5084811
:108160000125D0F8104480F81C5405E065722168A0
:108170002046496888476468002CF7D170BD00002C
:10818000A03500202DE9FF4781460C9D00200C46BC
:108190002F7B2873984616462946184600F032FC75
:1081A000072E42D2DFE806F004090F161F2A360018
:1081B00049462846FFF700FB37E049462846226833
:1081C000FFF7FAFA31E0D4E9002349462846FFF7E1
:1081D000F3FA2AE0A0680090D4E900234946284633
:1081E000FFF7EAFA21E0D4E90201CDE90001D4E980
:1081F000002349462846FFF7DFFA16E004F108009D
:1082000007C88DE80700D4E9002349462846FFF750
:10821000D3FA0AE004F108000FC88DE80F00D4E992
:10822000002349462846FFF7C7FA00222946404660
:1082300000F0CAFB2F73BDE8FF872DE9F041058AE6
:1082400080462D1F4819C01CB0FBF5F0C6B2404651
:10825000FEF77FFC041E19D0002020710120607100
:10826000E58000272546761EC4F800800BE04046D6
:10827000FEF76FFC60B16179491C617128600546A9
:108280007F1CC0F80080B742F1D32046BDE8F081E2
:10829000204600F002F80020F8E72DE9F04145798A
:1082A00001466B1E002201E00968521C9A42FBD372
:1082B0000F680146002605E038460C68FEF76BFCA7
:1082C0002146761CAE42F7D3BDE8F08108B5012106
:1082D0006A46001DFAF7D1FF08BDFEF774BC38B539
:1082E0000446001D01216A46FAF7D4FF009810F0F9
:1082F000FF0F04D12046BDE83840FFF7CEBF38BDA0
:1083000038B501240094FEF771FB38BD38B5002460
:108310000094FEF76BFB38BD20B10349096801608A
:10832000002070470E20704758A402002DE9FE433C
:1083300005460E460846FFF7EFFF00287ED180462F
:10834000CDF80080CDF80480012403208DF8005082
:10835000ADF80400CDF808808DF802406946202071
:10836000326869DF3F4F40B100F0F4F902463888C7
:108370003D4904EB0040FFF733FECDF800808DF857
:1083800000408DF80180CDF80480CDF808808DF88C
:10839000028069464020326869DF40B100F0DAF9B6
:1083A00002463888314904EB0040FFF719FECDF84A
:1083B00000808DF80050F720ADF80200CDF8048061
:1083C000CDF8088069462320326869DF40B100F0AB
:1083D000C1F902463888264904EB0040FFF700FE49
:1083E000CDF80080CDF80480CDF808808DF80040ED
:1083F000454669460120326869DF40B100F0AAF9BC
:10840000024638881B4904EB0040FFF7E9FD1A4893
:1084100001950295406800906946A120326869DFA5
:1084200040B100F097F902463888144904EB004047
:10843000FFF7D6FD00950195029500E010E08DF85C
:1084400000506946A020326869DF40B100F082F92F
:10845000024638880A4904EB0040FFF7C1FD0020BE
:10846000BDE8FE83A82B0020A4AA0200ECAA02000B
:1084700038AB020004AA020058A4020050AA02006D
:10848000B0A902002DE9F0410446076860DF2268C8
:10849000134D0646BA4214D02888022707EB004045
:1084A00010A1FFF79DFDF806D0F80C0121688002AD
:1084B00000F10050421A288814A107EB0040FFF792
:1084C0008FFD56B1304600F045F90246288801215B
:1084D00001EB004017A1FFF783FD3046BDE8F081B6
:1084E000A82B002052414D20737461727420736870
:1084F0006F756C642062652061646A75737465646D
:1085000020746F20307825782E00000052414D20D5
:1085100073697A652073686F756C64206265206189
:10852000646A757374656420746F20307825782EC2
:108530000000000073645F626C655F656E61626C71
:108540006528292072657475726E65642025732E06
:108550000000000030B5EBB04FF4CE75ADF8A85177
:108560006AA9684661DF30B1052816D06BB0BDE856
:108570003040FBF713BD6C46094967A800F0A2F82C
:1085800007E000BFD0E900212046904767A800F02F
:10859000B0F869980028E1D0F4E76BB030BD000076
:1085A00060A4020010B50E4C2078B8B10120A07074
:1085B00000F0C0FB11280FD0022000F0D3FB11DF28
:1085C00000280AD12070A070162000F031FB00288E
:1085D00003D1032000F0C6FB002010BD082010BD11
:1085E0002C2B002038B5124C207808B1082038BD5B
:1085F0000125A570002000F09DFB112815D000205A
:1086000000F0B0FB0B480C4900680090684610DF92
:108610000028ECD12570A0706070162000F028FBB7
:108620000028E4D1012000F09DFB002038BD0000AF
:108630002C2B0020F8A30200253F02000EB50749AD
:10864000684600F03FF805E0D0E90010884768462A
:1086500000F04FF802980028F6D10EBD14A40200D5
:1086600001480078704700002C2B002005488178D5
:1086700019B1007818B1FFF795BF08207047FFF7D0
:10868000B1BF00002C2B00201FB5684648DF30B179
:10869000052814D004B0BDE81040FBF77FBC0849A2
:1086A00001A800F00FF806E0D0E9002100989047FB
:1086B00001A800F01EF803980028E6D0F4E71FBDDB
:1086C0007CA40200016009684160AFF3008010B52E
:1086D000D0E900215368994201D1002104E0D1E999
:1086E0000034A34202D01946816010BD08314160B8
:1086F000F0E7816800290BD0026892680A44826022
:1087000041684B689A4203D108314160FFF7DFBFEF
:1087100070474058002800D0012070470C4A10B51F
:1087200002F1F0030EE0991AC91001EBD171491062
:1087300002EBC1010C68844201D90B4602E005D26C
:1087400001F108029A42EED3002010BD486810BD26
:10875000D8A2020000B5FFF7E1FF002800D10148D0
:1087600000BD0000C4A202004058002800D0012033
:10877000704708B5002242504058009008BDD0F81C
:108780000403084000D0012070474058002800D062
:108790000120704708B5002242504058009008BDA3
:1087A00038B1C16929B1016A19B1406A08B1002024
:1087B00070474FF0FF3070472DE9F04105460078D3
:1087C000002826D10026144F4FF0010812E0A868B7
:1087D000805DFBF71BFD04000BD0112CF7D039880E
:1087E000224608EB01400DA1FFF7FAFB2046FBF7FC
:1087F000D5FB761CA889B042E9D8A989A8680844A5
:1088000010F8010C0D2804D10A20FBF7FFFC1128F9
:10881000FAD0BDE8F0810000902B00204661696C21
:10882000656420726563656976696E67204E55538D
:10883000206D6573736167652E204572726F7220BB
:10884000307825782E20000010B550B103280CD1C7
:108850000220FCF733FE002807D0BDE81040FBF7EC
:108860009DBBBDE8104000F0BBBF10BD00780028E4
:1088700007D104483B21808876DF002801D0FBF730
:108880008DBB7047682A00202DE9FC418E88027953
:1088900000EBC605AC1D2A73C97B012902D0022951
:1088A00004D101E0008800E04088208021886088B1
:1088B0000127DFF8648081420CD930469EDF020038
:1088C00025D0112A25D0B8F80000144907EB004044
:1088D000FFF786FBA079E179884216D90020009045
:1088E0000190287BADF80000287BADF80200002243
:1088F0006946304690DF030007D0B8F800003246E2
:1089000007EB00400649FFF772FBBDE8FC81677189
:10891000E0E72771DEE700003C2B002010A50200F5
:10892000E0A502007CB506468D88C88806EBC50424
:10893000A41D172800D217202188814200D808469C
:1089400060800020207121882846ADDF020007D01A
:108950000E480121008801EB00400D49FFF740FB64
:108960006079002810D1306900280DD00948D0E97D
:108970000210CDE90010ADF802506088ADF8040097
:1089800032696946304690477CBD00003C2B002090
:1089900054A5020050A202000449084490F9300096
:1089A000082801DB01207047002070473432002086
:1089B0000449084490F93000082801D2012070478A
:1089C000002070473432002010B50C46C17949B1FF
:1089D0001AB109A12046FEF7EFFE2046BDE810407F
:1089E000FEF7F7BE007A0028F3D0044804A102681D
:1089F0002046FEF7E1FEECE70D0A0000082B002000
:108A00002573000070B50446C0790D4600281CD1BE
:108A1000207A50B1A179A088FFF7E6F90B4951F807
:108A200020200BA12846FEF7C7FEA0880021FFF7F3
:108A300087FB03460549A079143951F820202846C0
:108A4000BDE8704003A1FEF7B7BE70BD082B002043
:108A5000257300003C25733E2025733A200000005A
:108A6000F0B41F48416F00292FD0016F1D4DC1EB9D
:108A7000C10100EB810401262E70207910B101287C
:108A80001BD113E0D4E90501401A4FF48052904203
:108A900000D31046B6EB900F01D2820800E001220D
:108AA0002069E3680844194429DF03E0D4E903019D
:108AB000084428DF58B1112804D02046F0BC032117
:108AC000FDF7CFBA002028706E70F0BC7047E878D0
:108AD0000028FAD1F0BC00210220FEF7BBBF000045
